:020000040800F2
:1000000000000320810500088D1D00088F1D0008D9
:10001000911D0008931D0008951D000800000000B8
:10002000000000000000000000000000C17B00088C
:10003000971D000800000000517C0008CB740008E8
:10004000D1050008D1050008D1050008D105000838
:10005000D1050008D1050008D1050008D105000828
:10006000D1050008D1050008D1050008D105000818
:10007000D1050008D1050008D1050008D105000808
:10008000D1050008D1050008D1050008D1050008F8
:10009000D1050008D1050008D1050008D1050008E8
:1000A000D1050008D1050008D1050008D1050008D8
:1000B000D1050008D1050008D1050008D1050008C8
:1000C000D1050008D1050008D1050008D1050008B8
:1000D000D1050008D1050008D1050008D1050008A8
:1000E000D1050008D1050008D1050008D105000898
:1000F000D1050008D1050008D1050008D105000888
:10010000D1050008D1050008D1050008D105000877
:10011000D1050008D1050008991D0008D105000887
:10012000D1050008D1050008D1050008D105000857
:10013000D1050008D1050008D1050008D105000847
:10014000D1050008D1050008D1050008D105000837
:10015000D1050008D1050008D1050008D105000827
:10016000D1050008D1050008D1050008D105000817
:10017000D1050008D1050008D105000800000000E5
:10018000D1050008D1050008D1050008D1050008F7
:10019000D1050008D1050008D1050008D1050008E7
:0C01A000A51D0008D1050008B11D0008D5
:1001B00010B5054C237833B9044B13B10448AFF3A1
:1001C00000800123237010BD6401002000000000A6
:1001D00070EB010808B5034B1BB103490348AFF3AB
:1001E000008008BD000000006801002070EB0108DD
:1001F00001F0FF01102A2BDB10F0070F08D010F8D8
:10020000013B013A8B422DD010F0070F42B3F6D1DB
:10021000F0B441EA012141EA014122F007047FF0F4
:1002200000070023F0E80256083C85EA010586EA4B
:10023000010685FA47F5A3FA87F586FA47F6A5FA87
:1002400087F68EB9EED1F0BC01F0FF0102F0070293
:1002500032B110F8013B013A83EA010313B1F8D13E
:100260000020704701387047002D06BF354603381F
:10027000073815F0010F07D1013015F4807F02BF58
:10028000013015F4C03F0130F0BC0138704700BFA9
:1002900053B94AB9002908BF00281CBF4FF0FF31ED
:1002A0004FF0FF3000F06AB9ADF1080C6DE904CEF3
:1002B00000F006F8DDF804E0DDE9022304B0704741
:1002C0002DE9F047089D0C46002B4ED194468C45F5
:1002D0008646B2FA82F262D94AB1C2F12003914055
:1002E00020FA03F30CFA02FC194300FA02FE4FEA6B
:1002F0001C471FFA8CF6B1FBF7F44FEA1E4307FBCD
:10030000141143EA014304FB06F199420AD91CEB9C
:10031000030304F1FF3080F01281994240F20F8113
:10032000023C6344591A1FFA8EF3B1FBF7F007FB46
:10033000101143EA014300FB06F69E420AD91CEB6A
:10034000030300F1FF3180F0FC809E4240F2F9800F
:10035000634402389B1B40EA044000211DB1D34096
:100360000022C5E90032BDE8F0878B4205D90DB106
:10037000C5E9000100210846F5E7B3FA83F1002939
:1003800046D1A34202D39042C0F0F080861A64EBBB
:1003900003030120002DE6D0C5E90063E3E7002A4E
:1003A00040F09080A1EB0C044FEA1C481FFA8CF738
:1003B0000121B4FBF8F64FEA1E4308FB164443EA5A
:1003C000044307FB06F0984208D91CEB030306F12F
:1003D000FF3402D2984200F2CD8026461C1A1FFA42
:1003E0008EF3B4FBF8F008FB104443EA044300FB2F
:1003F00007F79F4208D91CEB030300F1FF3402D238
:100400009F4200F2B0802046DB1B40EA0640A5E791
:10041000C1F120068B4022FA06F71F4320FA06FCA2
:1004200004FA01F343EA0C03F44000FA01F8380C33
:100430004FEA1349B4FBF0FE1FFA87FC00FB1E4491
:1004400049EA04440EFB0CF9A14502FA01F20AD96B
:100450003C190EF1FF3A80F08480A14540F2818082
:10046000AEF1020E3C44A4EB09041FFA83F9B4FB7D
:10047000F0F300FB134449EA044403FB0CFCA445DD
:1004800007D93C1903F1FF3067D2A44565D9023B77
:100490003C4443EA0E40A0FB0293A4EB0C049C42B4
:1004A000CE469C4651D34ED055B1B8EB0E0364EB0B
:1004B0000C0404FA06F6CB401E43CC40C5E90064A8
:1004C000002150E7C2F1200320FA03F10CFA02FCEC
:1004D00024FA03F394400C434FEA1C4800FA02FE4E
:1004E0001FFA8CF7B3FBF8F008FB1031230C43EA3A
:1004F000014300FB07F1994208D91CEB030300F10B
:10050000FF362CD299422AD9023863445B1AA4B22E
:10051000B3FBF8F108FB113344EA034401FB07F392
:10052000A34208D91CEB040401F1FF3613D2A34205
:1005300011D902396444E41A41EA004139E704461A
:10054000F0E6084606E7C845AED2B9EB020E63EB0B
:10055000070C0138A8E73146EDE7034699E7304636
:10056000D4E7D6467FE7634402384DE70646234684
:1005700008460FE7023E634430E700BF704700BF04
:10058000DFF834D0002103E00C4B5B5843500431BA
:100590000B480C4B42189A42F6D30B4A02E0002358
:1005A00042F8043B094B9A42F9D304F0A5F81DF038
:1005B0006FFD00F0AFFD704700000320942907088D
:1005C0000000002064010020640100202C2601208E
:1005D000FEE7704708B500F0CFFBBDE8084000F02B
:1005E0005BBB00F0CBBB704710B5042104461DF087
:1005F0001BFA204610BD000038B50C4B0C4C18807F
:100600000C4B822019806368984740F6110398428A
:100610000AD1094D23682C60822098472B688220DC
:10062000DB689847002038BD0120FCE78A010020E4
:100630004C000020880100208C0100204FF4A071A4
:10064000F020FFF7D9BF0000F7B5334D2B68044603
:100650001B6982209847208000284AD02B680DF122
:1006600006025B6901A982209847BDF8063040F672
:10067000746293423FD9ADF80620BDF80630D21A15
:1006800092B20A2A3DD90B23B2FBF3F2234B1B880B
:100690009A4201D9013B9AB2BDF8043040F6B83114
:1006A0008B4230D8C3F571630E339BB20F21B3FB7D
:1006B000F1F31B4909888B4201D901398BB2194EDC
:1006C000194D30682F68834281B28CBF591AC91AFC
:1006D000B8B2BA428CBF101A801A89B280B20144F3
:1006E0000529C8BF33603368C8BF2A6063802B68A0
:1006F000A38003B0F0BDB32B9CBFB423ADF806308C
:10070000BBE70022C8E7C3F56D6308339BB20E2B2D
:10071000CCD80023D3E700BF8C0100208801002043
:100720008A010020840100208001002037B568463E
:100730000D461446FFF788FFBDF8000030B1BDF844
:1007400002302B60BDF804302360012003B030BDBF
:10075000032821D8DFE800F0020B12190F4B1A68AA
:10076000B2FA82F2520904210D4804F03FBE0B4B4D
:100770005A68B2FA82F252090821F5E7074B9A68E3
:10078000B2FA82F252091021EEE7044BDA68B2FAAB
:1007900082F252092021E7E7704700BF9001002054
:1007A00000100240032821D8DFE800F0020B1219E4
:1007B0000F4B1A68003A18BF012204210D4804F0BB
:1007C00015BE0B4B5A68003A18BF01220821F5E705
:1007D000074B9A68003A18BF01221021EEE7044B3C
:1007E000DA68003A18BF01222021E7E7704700BF0E
:1007F000900100200010024003280DD8DFE800F02F
:100800000206080A0421054804F0F5BD0821FAE7AC
:100810001021F8E72021F6E7704700BF00100240E2
:1008200008B5032811D8DFE800F0020A0C0E0421F5
:10083000074804F0D5FD431E5842584108BD082121
:10084000F6E71021F4E72021F2E70020F3E700BFEC
:100850000010024070B5084D00240126E0B2FFF7F9
:10086000DFFF18B12B68012B18BF2E600134052C57
:1008700005F10405F2D170BD90010020012380F83C
:10088000781080F87930704700207047034B41643E
:10089000003918BF01211970704700BFFB190120F2
:1008A00000207047836B0BB10846184770474068BB
:1008B00003689B69184770477047704710B5044636
:1008C00000F020FB23680349D3F88C302046BDE8B4
:1008D00010401847000000D008B503680446D3F85C
:1008E00080309847236820469B6F984700F0ECF8CB
:1008F000236820461B6F9847292000F0D9FE00F09E
:10090000E3F8236820461B6F9847F8E710B50446C4
:1009100009F054FF23682046D3F8AC30BDE81040FE
:10092000184700F0B5BA00F0B9BA00F0D3BA00F039
:100930008DBA00F0DFBA00F0D1BA00F08FBA09F03A
:10094000A9B910B57C2104461DF06EF8204610BDF3
:1009500010B590F8341090F878400C4B8C421A780F
:1009600009D03AB90A4A0B491488088810800C80CB
:1009700001221A7010BD002AFCD0054A05491488CE
:10098000088810800C800022F3E700BFF4190120D2
:10099000F0190120F219012070B50D46194635B93C
:1009A000094B0A4A0A4840F2D2211DF06BF8C0E90F
:1009B0000F52084B003A18BF01221A700368BDE8B5
:1009C0007040D3F88C301847E0EB010818EC0108B0
:1009D00066EC0108FA19012008B5094B1B888B4207
:1009E00003D8084B1B88934205D9074B074A084890
:1009F0009E211DF047F8074B1980074B1A8008BD50
:100A0000F0190120F2190120ABEC01080EED0108EC
:100A100066EC0108F6190120F8190120034690F848
:100A20007A0018B1586803681B68184770470000BF
:100A3000012108B50022084606F0D3FD0A4B1860D4
:100A400028B90A4B0A4A28210A481DF01BF800223F
:100A50000421012006F06DFE074B186018B9074B02
:100A6000034A2C21F0E708BDA40100202CEE010868
:100A700075EE0108A4EE0108A0010020F3EE0108C4
:100A8000024B4FF0FF31186806F0F5BDA4010020BD
:100A9000014B186806F01BBEA4010020024B002188
:100AA000186806F0E8BD00BFA4010020FFF7F0BF02
:100AB00003480449006800231A4606F075BE00BFCB
:100AC000A00100200400002013B5084C00231A46A2
:100AD00001A9206806F099FE20684FF0FF3300223C
:100AE00001A906F092FE02B010BD00BFA0010020D7
:100AF00006F06BBD704700207047704770470020BC
:100B00007047704708B5034A034B044822211CF084
:100B1000B9FF00BF58EF010835EF010896EF010853
:100B200008B5034A034B044827211CF0ABFF00BF64
:100B3000E3EF010835EF010896EF010810B54421F5
:100B400004461CF071FF204610BD000038B5044675
:100B500021460025064B25720C306060657201222B
:100B600041F8203B09F068FFE562204638BD00BF30
:100B70002CF00108012070474020704700EB8110E5
:100B80000830704700EB8110083070470120704733
:100B90004FF43E7070474FF43E7303FB0100083082
:100BA00070474FF43E7303FB01000830704701208B
:100BB00070471020704700EB01100830704700EBC1
:100BC000011008307047084601F062BE10B5034BB3
:100BD0000360044608F0B3FD204610BDE4F00108B0
:100BE00010B50446FFF7F2FF204648211CF01CFF19
:100BF000204610BD10B5034B0360044608F09FFD6E
:100C0000204610BDB0F0010810B50446FFF7F2FF12
:100C100020464FF440711CF007FF204610BD000035
:100C200010B5034B0360044608F089FD204610BD53
:100C30007CF0010810B50446FFF7F2FF20461821AA
:100C40001CF0F2FE204610BD10B5084B03600446B0
:100C500000F54B70FFF7BAFF04F12C00FFF7CAFF55
:100C600004F11400FFF7DCFF204610BD18F1010865
:100C700008B50248FFF7E8FF08BD00BFFC020020EE
:100C800010B50446FFF7E0FF204640F2DC411CF0BF
:100C9000CBFE204610BD00002DE9F34101F002F922
:100CA000054601F003F90024014623462846224662
:100CB00000940FF025FA254B254A264D1A60204650
:100CC00002F046FE24480FF083F92B68BFF35B8FD8
:100CD000DB0735D428461CF0A9FE88B31F4C204BF7
:100CE000236004F5607604F1140004F12C0804F587
:100CF0004B776060C4F80880E760266108F020FD4B
:100D0000184B6361404608F01BFD174BE362384601
:100D100008F016FD154BC4F82C3304F55D7002F095
:100D200097FE224604F55D71304602F087FE30469C
:100D300001F0AEFD0E481CF0C3FE28461CF082FEFA
:100D40000C4802B0BDE8F041FFF7B8BD581A0120C9
:100D500024020020F802002008000020FC020020ED
:100D600018F101087CF00108B0F00108E4F0010876
:100D7000710C0008A8010020704700000148FFF72F
:100D8000ABBD00BFA801002070B5224E224C234D00
:100D9000234B23603046FFF7D9FE284613F082FC30
:100DA000204B2148DC6000224FF48071C3E912120D
:100DB0001E491A86C3E91A121D4999671D4983F80D
:100DC00058200B60F02101801B485A6601801B48A7
:100DD00083F870204FF4A071C3E90422C3E906220E
:100DE000C3E90822C3E90A22C3E90E22C3E910229B
:100DF000C3E91422C3E917225A67C3E901650180D8
:100E00000F4801800F490A70012283F834200E4AEE
:100E10001A6070BDB0020020F402002028020020F9
:100E2000D0EB0108A8010020F01901200100000109
:100E300000000101FC190120F6190120F21901201E
:100E4000F8190120F41901205CED0108024B9022F1
:100E500083F85823704700BF00E100E0094A0A49BF
:100E6000D3680A48C3F30A03013B9BB20B801169A4
:100E7000C1F30A01013901801364536B43F001038C
:100E80005363704700680140DA070020D80700204C
:100E9000014BD3F8AC00704700680140024B0122BF
:100EA000C3F8AC105A62704700680140064B586C9A
:100EB000DB68C3F30A0380B20133984226BFC01A2D
:100EC00080B20020704700BF0068014008F01EBFDC
:100ED00008F028BF08F0E4BE09F045B8044B4FF015
:100EE0008072C3F88820BFF34F8FBFF36F8F7047B6
:100EF00000E100E0024B4FF080729A60704700BF43
:100F000000E100E070B5044608F019FF23685D6E4B
:100F10000CF022F801462046A8470E4BA363236835
:100F20002046D3F89C3098474FF6FF73984205D07F
:100F3000094B1B7813B9012384F848302368D3F890
:100F4000885000232046AC461A46BDE870404FF05A
:100F500050416047F10A0008FA19012010B5144CFD
:100F6000236823B3134B144A1B6C11888B4213D193
:100F7000124B198805F04CF8226892F86A30013358
:100F800082F86A30FFF794FD206809F017FCBDE88D
:100F900010400020FFF7DCBB05F03AF8206803683A
:100FA0001B6A9847BDE810400020FFF7FBBB10BD4F
:100FB000FC19012000680140DA070020D807002052
:100FC00007B5064BADF806001B68054801220DF178
:100FD000060105F093FD03B05DF804FB0C00002052
:100FE0006C08002008B5054C20464FF4005104F071
:100FF00002FA4FF4FA7006F0E8FAF5E7001802403A
:10100000F7B50023194E1A4D00931A481A4F0121C3
:1010100004F0E6F9012805D138680A230022694660
:1010200006F0C2FB304603F05BFC284603F058FC98
:101030000121304603F0D2FC0121284603F0CEFC0A
:10104000304603F01EFD0446284603F01AFDA4B204
:1010500044EA00440A2338680194002201A906F0FA
:10106000A3FB642006F0B1FACFE700BF500A0020CE
:10107000080A002000000240E007002030B595B0CB
:10108000102200210AA81CF004FF1422002103A84A
:101090001CF0FFFE00241D4B01941A6C42F080529C
:1010A0001A641B6C03F080530193019B184B02944C
:1010B0001A6842F440421A601B6803F440430293EA
:1010C0000122029B4FF48033CDE9082302254FF41F
:1010D0008003CDE90E5308214FF4A873CDE9101316
:1010E00008A804231393129504F0B0FF0F23CDE951
:1010F00003354FF4A0504FF48053CDE9060305218A
:1011000003A8059405F07EF915B030BD0038024003
:10111000007000402DE980489BB003F0FBFAFFF718
:10112000ADFF142200210DA800241CF0B2FEC84B14
:1011300000941A6BC748C84E42F010021A631A6B2B
:1011400002F010020092009A01941A6B42F0200201
:101150001A631A6B02F020020192019A02941A6B30
:1011600042F080021A631A6B02F080020292029A25
:1011700003941A6B42F004021A631A6B02F0040221
:101180000392039A04941A6B42F001021A631A6BD9
:1011900002F001020492049A05941A6B42F00202D2
:1011A0001A631A6B02F002020592059A06941A6BF2
:1011B00042F040021A631A6B02F040020692069A4D
:1011C00007941A6B42F008021A631B6B03F00803C2
:1011D000079322463C21079B04F008F99F482246CA
:1011E000042104F003F99E4822464FF4405104F0D4
:1011F000FDF822469B484FF40051012504F0F6F813
:101200004FF003093C239348CDF840900DA94FF0CF
:10121000020A0427CDE90D350F9403F0FDFF8F4836
:10122000CDF840A00DA9CDE90D750F9403F0F4FFA2
:101230004FF440538A480DA9CDE90D354FF4005BBA
:10124000CDE90F4A03F0E8FF0DA98648CDE90DB5B9
:10125000CDE90F4403F0E0FF8348844B036003F0C3
:1012600001FD834A834B3462C6E9002330464FF4C4
:101270008043C6E90434C6E90244C6E9064404F0E2
:10128000C3FA1021304604F007FD2146304604F031
:1012900022FD7948794984624FF48273C0E90013D2
:1012A0004FF400761823C0E906630A23744EC36224
:1012B000C0E90244C0E90444C0E9084405F0C2FBA7
:1012C000704BC6F828B04FF01008C6E9003540232F
:1012D000C6E904834FF4C073C6E906344FF40063D3
:1012E000C6E908340DA907233046CDE91039CDE908
:1012F0000E374FF0080BC6E90247CDE912AACDF828
:1013000034A005F083FA4FF6FF7209A93046CDE903
:101310000AB5089409950C9405F098FA284603F04C
:1013200025FA4FF6FF7209A93046CDE909ABCDE9A0
:101330000B5405F08BFA4FF6FF7209A93046CDE940
:10134000099BCDE90B7405F081FA4FF40C730893F7
:10135000089B0C934FF6FF7209A93046CDE9097B33
:101360000B9505F073FA40F26A51304605F08CFA9D
:10137000342221460DEB02001CF08BFD424E434B04
:101380003461C6E900340923C6E905351D2340F25E
:101390000D1CC6E9073940F24313C6E909C340F200
:1013A000171E40F247133046C6E90BE3C6E9024474
:1013B000B48686F8364004F033FDFF21F022CDE9F3
:1013C00012144FF005094FF480614FF4A073CDE97A
:1013D0000E24CDE91419CDE916420DA92246304656
:1013E000CDE9103A2A4E18930D94ADF864408DF86B
:1013F000664004F0E0FD274B33601B689847336874
:10140000254EDB689847254B3046C6E90034C6E9CF
:1014100002A4C6E90A4AC6E90C4403F033FC294693
:10142000304603F0E7FC1E4EDFF878A04246214626
:101430000DA81CF02EFD4FF48033C6E900A34FF039
:10144000007BDFF864A0C6F808B0304634612DE0B8
:1014500000380240001002406C09002000080240E1
:10146000000C024000180240000A00200030024038
:10147000005C0040A08601006C0800200050014084
:10148000F0070020400100A0C408002000680140CF
:10149000DC07002014000020C009002000B002403A
:1014A000500A0020002001400100000F347686F829
:1014B0002040F462C6F828A0F460F56186F8304058
:1014C000756103F067F90D220DA93046CDE90D25B0
:1014D0002C4E0F9403F0D8FA214642460DA81CF07A
:1014E000D8FC294AC6F808B04FF480333046C6E924
:1014F0000023C6E90AA43461347686F82040F460FB
:10150000F56186F83040756103F044F90DA9304665
:10151000CDE90D95DFF8A4B00F9403F0B5FA1B48A0
:101520004FF4E133C0E900B30C23C0E90534C0E94E
:1015300002440461C46105F0FDFEFFF74BF8FFF7BC
:1015400048F805F0CFFF124A3946404606F0F1F858
:10155000104B114A18602146104805F0EFFF104B60
:10156000104A18602146104805F0E8FF0F4B104A5A
:10157000186021460F4805F0E1FF0F4B186005F099
:10158000C3FFFEE7080A00200021014024080020D4
:1015900064F10108E0070020C4F10108E50F00082C
:1015A000EC070020A0F10108E3050008E80700208F
:1015B0007CF1010801100008E40700200010014040
:1015C000704770477FB5094B8DF817201B68029351
:1015D0000DF117020123009201930A4601460448C7
:1015E00004F0BAF907B05DF804FB00BF100000205A
:1015F0006C0900207FB500238DF81730084B1B685D
:1016000002930A4601230DF117010091019301464F
:10161000044804F031FA9DF8170007B05DF804FBA8
:10162000100000206C0900201FB5084C24680092AF
:10163000CDE901340A4601230146054804F01CFAAD
:10164000003818BF012004B010BD00BF10000020FA
:101650006C09002003F08AB810B5064C0022204621
:10166000042103F0C3FE20460122BDE810400421FE
:1016700003F0BCBE0008024038B50B4D0446012201
:101680000A484FF4005103F0B1FE0022042128461D
:1016900003F0ACFE2046FFF793FC28460122BDE88C
:1016A0003840042103F0A2BE00080240000C0240B2
:1016B00038B50B4D044600220A484FF4005103F0A0
:1016C00095FE00220421284603F090FE2046FFF7F5
:1016D00077FC28460122BDE83840042103F086BE8D
:1016E00000080240000C0240F7B5144E144F0546A6
:1016F0000C4630460022042103F078FE00224FF40D
:101700000051384603F072FE2846FFF759FC0D4B96
:101710000D481B68224601A905F09BFB38460122B3
:101720004FF40051019C03F061FE30460122042178
:1017300003F05CFE204603B0F0BD00BF000802408D
:10174000000C02400C0000206C08002003F00EB8D2
:101750000268034B9A4201D102F0F6BF704700BF06
:10176000001000407047000082B00E4B0022009233
:10177000596C41F480415964596C01F480410091E5
:1017800000990192196C41F0805119641B6C03F0AF
:1017900080530193019B0F216FF0010002B003F011
:1017A00021BA00BF0038024010B514228AB00446A6
:1017B00000210DEB02001CF06CFB2368214A9342D0
:1017C0001FD1214B2148002101915A6C42F48072B3
:1017D0005A645A6C02F480720192019A02911A6B57
:1017E00042F004021A631B6B03F004030293082106
:1017F000029B0323CDE9051305A903F00DFD0AB0F3
:1018000010BD134A9342FAD10F4B124800210391A5
:101810005A6C42F400725A645A6C02F400720392D9
:10182000039A04911A6B42F001021A631B6B03F0D6
:1018300001030493049B20220323CDE9052305A97A
:10184000DBE700BF002001400038024000080240F2
:1018500000210140000002400268094B9A4282B018
:101860000BD100230193074B1A6B42F480521A6389
:101870001B6B03F480530193019B02B0704700BFC0
:10188000003002400038024007B50F4B02689A4210
:1018900016D10022A3F5F0430192196B41F4000127
:1018A00019631B6B03F40003019305215A20019B6C
:1018B00003F098F95A2003B05DF804EB03F0C4B9C3
:1018C00003B05DF804FB00BF00B002402DE9F04317
:1018D000044689B01422002103A81CF0DAFA226819
:1018E000244B9A4243D1244C244800250095236B75
:1018F00043F004032363236B03F004030093009B72
:101900000195236B43F001032363236B03F0010371
:101910000193019B4FF012094FF400734FF001083F
:101920000327042603A9CDE90339CDE905870796E6
:1019300003F072FC4FF480731148079603A9CDE9B8
:101940000339CDE9058703F067FC0295236C43F466
:1019500000032364236C03F400030293029B236AB5
:1019600043F400032362236A23F40003236209B0D3
:10197000BDE8F083005C00400038024000080240EF
:1019800000000240F0B599B004461422002107A8D7
:101990001CF07FFA30220DEB020000211CF079FAD6
:1019A00022685E4B9A4240F0B78008230C93C02314
:1019B0001093042312930CA84FF40033159304F0F2
:1019C000F9FD08B1FFF7CEFE554B564800240094B0
:1019D0005A6C42F080625A645A6C02F08062009243
:1019E000009A01941A6B42F020021A631A6B02F0FB
:1019F00020020192019A02941A6B42F001021A63CA
:101A00001A6B02F001020292029A03941A6B42F0DE
:101A100002021A631A6B02F002020392039A049400
:101A20001A6B42F040021A631A6B02F040020492F1
:101A3000049A05941A6B42F004021A631A6B02F0BE
:101A400004020592059A06941A6B42F008021A6382
:101A50001B6B03F00803069302250E26069B0B96CC
:101A60004FF4806307A9CDE90735CDE9094503F0B7
:101A7000D3FB41F658032C480B9607A9CDE907354F
:101A80000927CDE9094503F0C7FB032327480B9736
:101A900007A9CDE90735CDE9094503F0BDFB4FF4B2
:101AA000706322480B9607A9CDE90735CDE90945B2
:101AB00003F0B2FB4FF40C631D480B9607A9CDE968
:101AC0000735CDE9094503F0A7FBC02319480B965C
:101AD00007A9CDE90735CDE9094503F09DFB0823AA
:101AE00015480B9607A9CDE90735CDE9094503F05F
:101AF00093FB4FF4A0530E480B9707A9CDE9073588
:101B0000CDE9094503F088FB58202246052103F062
:101B100069F8582003F098F819B0F0BD006801404A
:101B2000003802400014024000000240000402405D
:101B30000018024000080240000C024010B50446A4
:101B400088B01422002103A81CF0A3F92268144BCA
:101B50009A4223D103F56843002101915A6C114840
:101B600042F480125A645A6C02F480120192019A73
:101B700002911A6B42F020021A631B6B03F02003E0
:101B80000293029B4FF4607202230321CDE90323E9
:101B90000523CDE9061303A903F03EFB08B010BDF1
:101BA000005001400014024010B5044688B01422D1
:101BB000002103A81CF06DF92268144B9A4223D12E
:101BC00003F59433002101915A6C114842F0100240
:101BD0005A645A6C02F010020192019A02911A6B37
:101BE00042F001021A631B6B03F001030293029B94
:101BF0004FF4C06202230321CDE903230723CDE97B
:101C0000061303A903F008FB08B010BD0010014043
:101C1000000002402DE9F04186B0002303932B4BD6
:101C20001C68002C4FD14FF00108C3F80080284BEE
:101C300000949A6B274842EA08029A639B6B03EA76
:101C400008030093022703260C25009B01A94FF6E9
:101C50003F03CDE90137CDE9046503F0DDFA1E4805
:101C6000059501A9CDE90187CDE9034603F0D4FA32
:101C700048F233131948059501A9CDE90137CDE99B
:101C8000034603F0C9FA4FF683731548059501A979
:101C9000CDE90137CDE9034603F0BEFA4CF20373F8
:101CA0001048059501A9CDE90137CDE9034603F0B8
:101CB000B3FA60230C48059501A9CDE90137CDE9B8
:101CC000034603F0A9FA06B0BDE8F081980A0020A7
:101CD0000038024000140240000802400018024090
:101CE00000100240000C02400004024070B588B0B1
:101CF00000230293204B1A6C42F010021A641B6CF2
:101D000003F010030293054601A903A8029B04F007
:101D100033FC069B4BBB04F00FFC184E184B336092
:101D200040F2E733F360174BB0FBF3F3013B736012
:101D3000304600233361B360B36105F06FFA0446A7
:101D400080B9304605F02CF9044658B9362002F027
:101D50007BFF0F2D0DD822462946362002F042FF88
:101D6000094B1D60204608B070BD04F0E5FB400043
:101D7000D3E70124F6E700BF003802409C0A0020A8
:101D80000010004040420F007C0000207047FEE73A
:101D9000FEE7FEE7FEE77047014805F03FB900BFE8
:101DA0009C0A0020014804F0A9B800BFC408002024
:101DB000014802F095BF00BFC00900200120704714
:101DC00008B51CF05FF9162303604FF0FF3008BD23
:101DD00008B51CF057F916230360FEE770B50D46F1
:101DE00014460E46731B9C4201DC204670BDAFF3C7
:101DF000008006F8010BF5E770B50D4614460E4657
:101E0000731B9C4201DC204670BD16F8010BAFF33A
:101E10000080F5E74FF0FF3070474FF400534B6000
:101E20000020704701207047002070470A4A11685F
:101E300008B5034609B909491160106869460344A9
:101E40008B4206D91CF01EF90C2303604FF0FF30C3
:101E500008BD1360FCE700BFE40A00203026012023
:101E6000704710B5042104461BF0DEFD204610BD6E
:101E700008B5032913D8DFE801F002060A0E01F0C5
:101E8000B3FD006808BD01F0AFFD4068FAE701F05E
:101E9000ABFD8068F6E701F0A7FDC068F2E700201F
:101EA000F0E7000000487047FCF10108202070476F
:101EB00013B5002451B1036801948DF8034001AAC1
:101EC0009C680DF10303A04702B010BD0846FBE774
:101ED000C0897047008A7047C08870478088704703
:101EE000807A00F07F007047807AC0097047002038
:101EF000704700009FED010A704700BF000000001E
:101F0000704710B5082104461BF08EFD204610BD19
:101F10000020704781807047C18070470181704701
:101F2000418170477047704770477047704710B4E1
:101F3000C4880368121B84885B6D091B12B25DF8AC
:101F4000044B09B218474FF6FF7383814FF0FF33FC
:101F500003621368C361106070477047704700F5F3
:101F600098730868496803C37047704770474160B9
:101F7000704710B50022B1F90840B1F90A1002808B
:101F800042808480C18010BD70477047064BC0F806
:101F90004C310023C0F8503100F5A273C0F848015D
:101FA000C0F84031704700BF652300080123037269
:101FB00070477047704770477047704701464068E8
:101FC000036810315B6E18470146406803681031A2
:101FD0001B6E1847704710B4C2684168541003461E
:101FE00001EB6200D20748BF0A599B685DF8044BB9
:101FF00048BFD35818470346406830B19A681AB9A9
:10200000D86800F0010070470120704710B50C211E
:1020100004461BF009FD204610BD10B510210446F2
:102020001BF002FD204610BD10B54FF4AE71044602
:102030001BF0FAFC204610BD10B5382104461BF0F9
:10204000F3FC204610BD10B5282104461BF0ECFC23
:10205000204610BD10B5402104461BF0E5FC20468B
:1020600010BD10B50AF078FF0368BDE81040DB6BC7
:10207000184790F8252012B103685B69184770472C
:10208000054B1B7801462BB1406818B103680C3131
:102090005B6E1847704700BFFB190120037A70B5CB
:1020A0000546BBB940680368DB69984704463CB9FC
:1020B0006868036805F10C011B6EBDE870401847A5
:1020C000A1886B8FC91A236820461B6B09B29847F9
:1020D000A469ECE770BD000073B50446807A637AAA
:1020E0000130C0B29842A07205D9012323720023A7
:1020F000A37202B070BDB4F90C2000210CF06EFC8C
:10210000C30706D500284FF6FF73C8BF0123184444
:1021100000B2144A638B1188E08180B20A1A03442A
:102120006068114D5B1AADF806300368B5F90050D0
:102130001B69ADF8045012B200266283ADF800604E
:10214000ADF8022069469847A37A012BD1D1074BFD
:102150001B78002BCDD00AF0FFFE02B0BDE8704026
:102160000AF000BFF2190120F0190120FA1901202C
:1021700090F825201AB190F8242002B11860704719
:1021800010B50446D0F8400158B10368DB689847A1
:1021900038B1D4F8400103689B6898470023C4F81D
:1021A000403110BD70B5044690F8390094F83830CD
:1021B0000130C0B2984284F8390005D90123237256
:1021C000002384F8393070BDB4F93A2000210CF0B6
:1021D00005FCC30706D500284FF6FF73C8BF0123CF
:1021E000184400B2238AC01AA08760680368DB69BC
:1021F000984705462DB960680368BDE870405B6983
:102200001847A988A38F19442B6828461B6B09B26D
:102210009847AD69EEE700002DE9F14FD0E9556A26
:102220000746B06803681B6A9847B0F52D7F05D252
:10223000444B454AA32145481BF024FC70680368C1
:102240001B6A98470F2803D8414B3F4AA421F2E765
:10225000F06803681B6A98470B2803D83D4B3A4A3D
:10226000A521E8E70AF078FEDFF8F09004300AF0E4
:10227000D9FED9F8000010B10368DB689847D9F897
:10228000000010B103681B689847DFF8D480D8F8C5
:10229000000010B103685B699847D7F83C0110B1A2
:1022A00003685B689847D8F8000010B103681B68A2
:1022B0009847D7F83C0110B103689B689847F068CD
:1022C000036800215B6A98474FF0000B224BC0F86F
:1022D00004B0044680F808B00360B068036859464B
:1022E0005B6A9847054601F04BFD706803685946E4
:1022F0005B6A98472946064601F0FAFB331DC7F88A
:102300003C61C9F80040C8F80050CAF800302B689A
:10231000C6F808A02846DB68EE6398473368304665
:102320001B689847214628460CF052FB236820463C
:102330001B69984723685B69204601B0BDE8F04FF0
:10234000184700BF8CF401081AF50108ECF50108E4
:1023500033F60108D6F60108F4FA01083C1A012008
:10236000381A01202DE9F14FD0E9556A0746B068C7
:1023700003681B6A9847B0F5B47F05D2444B454AC1
:10238000A32145481BF07EFB706803681B6A9847D1
:102390000F2803D8414B3F4AA421F2E7F0680368B5
:1023A0001B6A98470B2803D83D4B3A4AA521E8E71A
:1023B0000AF0D2FDDFF8F09004300AF033FED9F8CD
:1023C000000010B10368DB689847D9F8000010B12D
:1023D00003681B689847DFF8D480D8F8000010B174
:1023E00003685B699847D7F83C0110B103685B68E4
:1023F0009847D8F8000010B103681B689847D7F8D1
:102400003C0110B103689B689847F068036800219D
:102410005B6A98474FF0000B224BC0F804B00446AB
:1024200080F808B00360B068036859465B6A984753
:10243000054601F043FB7068036859465B6A98479C
:102440002946064601F018FB331DC7F83C61C9F860
:102450000040C8F80050CAF800302B68C6F808A041
:102460002846DB68EE639847336830461B68984718
:10247000214628460CF0ACFA236820461B69984791
:1024800023685B69204601B0BDE8F04F184700BFE4
:102490008CF4010879F70108ECF5010833F601081E
:1024A000D6F60108F4FA01083C1A0120381A012076
:1024B0002DE9F0411D460368BDF918701B6B0446F9
:1024C000164698472368314620465B6B9847236839
:1024D000294620469B6B9847236839462046DB6B8C
:1024E000BDE8F041184700002DE9F74FD0E955BA93
:1024F0000746DBF8080003681B6A9847B0F52D7F94
:1025000005D2544B544AA32154481BF0BBFADBF8C4
:10251000040003681B6A98470F2803D8504B4E4AA3
:10252000A421F1E7DBF80C0003681B6A9847372801
:1025300003D84C4B484AA521E6E70AF00DFDDFF829
:10254000389104300AF06EFDD9F8000010B103682C
:10255000DB689847D9F8000010B103681B689847FA
:10256000DFF81881D8F8000010B103685B6998475C
:10257000D7F83C0110B103685B689847D8F80000B1
:1025800010B103681B689847D7F83C0110B1036885
:102590009B689847DBF80C00036800215B6A98474A
:1025A000314B03604FF4A05303814FF480734363B6
:1025B0002E4B03612E4B0025B3F900304560857228
:1025C000C5818381C0E90555C0E90755C0E90955B2
:1025D000C0E90B550093274B2A4604462946B3F918
:1025E00000301030FFF764FFDBF80800036829466D
:1025F0005B6A9847064601F0C3FBDBF804000368FA
:1026000029465B6A98473146054601F071FA2B1D51
:10261000C7F83C51C9F80040C8F80060CAF800305B
:102620003368C5F808A03046DB68F56398472B6827
:1026300028461B689847214630460CF0C9F92368A4
:1026400020461B69984723685B69204603B0BDE8B4
:10265000F04F18478CF401084BF80108ECF501081D
:1026600033F60108D6F6010818FB010820FA010824
:10267000F2190120F01901203C1A0120381A01201A
:102680002DE9F74FD0E9556A0746B06803681B6A21
:102690009847B0F53E7F05D2544B554AA321554883
:1026A0001BF0F0F9706803681B6A98470F2803D87D
:1026B000514B4F4AA421F2E7F06803681B6A984720
:1026C0003F2803D84D4B4A4AA521E8E70AF044FCCD
:1026D000DFF8389104300AF0A5FCD9F8000010B1F9
:1026E0000368DB689847D9F8000010B103681B68DD
:1026F0009847DFF81C81D8F8000010B103685B69C7
:102700009847D7F83C0110B103685B689847D8F840
:10271000000010B103681B689847D7F83C0110B15E
:1027200003689B689847F068036800215B6A9847D4
:1027300005460022324B4260027245F80C3B0446CB
:10274000284608F015FA142323872E4B1B78002205
:10275000A287002B35D101232372B06803680021C2
:102760005B6A9847054601F005FD70680368002123
:102770005B6A98472946064601F0DAFC331DC7F824
:102780003C61C9F80040C8F80050CAF800302B6816
:10279000C6F808A02846DB68EE63984733683046E1
:1027A0001B689847214628460CF012F923682046FA
:1027B0001B69984723685B69204603B0BDE8F04F6A
:1027C0001847114BDFF84CB0B3F900300093BBF958
:1027D000003011462846FFF76BFE284608F043F903
:1027E000BBF800305B426387B7E700BF8CF4010899
:1027F00030F90108ECF5010833F60108D6F60108B6
:102800003CFB0108FB190120F21901203C1A0120B0
:10281000381A0120F0190120044B1B6893F8582046
:102820000AB1D86C00B99868704700BFFC19012044
:10283000F8B5044617460E460AF0C2FC104B1C6061
:10284000104B2360104B0025C4E951350F4BC4E9F0
:1028500053551868036829469B68C4E94F55C4E975
:1028600055769847284601F073F8FFF7D5FF13F027
:102870004AFDFFF7D1FF13F0C1FD2046F8BD00BFB0
:10288000481A0120A0FA010888FA0108FC19012061
:10289000064BC0F84C310023C0F8503100F5A2734C
:1028A000C0F84801C0F84031704700BF65230008F8
:1028B000064BC0F84C310023C0F8503100F5A2732C
:1028C000C0F84801C0F84031704700BFE924000853
:1028D000064BC0F84C310023C0F8503100F5A2730C
:1028E000C0F84801C0F84031704700BF1922000805
:1028F000064BC0F84C310023C0F8503100F5A273EC
:10290000C0F84801C0F84031704700BF8126000878
:10291000406A7047806A704770478B88C0690A6850
:10292000DB0A50F823001044704710B50446BAB1D2
:10293000107B68B1537BD27A1B0203F4E0631A4325
:10294000236A03EB82031A888A4202D193F90200B8
:1029500010BD05D8013880B204330028F3D1F7E761
:102960000020F5E710B52C2104461BF05DF8204649
:1029700010BD000030B58BB00446BDF8605008951E
:10298000BDF85C5007959DF8505006959DF84C5049
:1029900005959DF8485004959DF8445003959DF881
:1029A000405002959DF83C500195BDF83850009577
:1029B0000BF068FC064B2360159BE361169B2362BA
:1029C000199B63621A9BA36220460BB030BD00BF07
:1029D00060FB010870477047704770477047704749
:1029E0007047704730B4C26844685510034604EB22
:1029F0006200D20748BF62599B6830BC48BFD358B9
:102A000018470346406830B19A681AB9D86800F090
:102A1000010070470120704710B5102104461BF0DB
:102A200003F8204610BD10B54FF4B47104461AF0F7
:102A3000FBFF204610BD9830884208B505D10AF04A
:102A40008BFABDE80840FFF733BF08BD70B50368D7
:102A500004461B6B154698472368294620465B6B46
:102A6000BDE8704018470000002310B5C0E90133ED
:102A7000C0E90333C0E90733C0E905334FF480737D
:102A80008384064B03600B88C384FF23044680F8CD
:102A9000283008F018FC204610BD00BF28050208A9
:102AA000F8B5194B018F1B888B4206462AD9174B64
:102AB0001B682BB9164B174A17486C211AF0E2FF16
:102AC00013F81120154B1B6853F82250144B18684B
:102AD00000F07AFF2B6807469B6B284698472B68C7
:102AE00004469B6C3946284698472B6814FB00F433
:102AF0005B6A394628469847A4B223181BB2A6F849
:102B00004630F8BD0023FAE7501A01204C1A012084
:102B1000C0FB010802FC01083DFC0108541A012019
:102B2000581A01202DE9F04F044685B0A146002532
:102B30000BF0A2FD684BE56349F8403B674B256607
:102B4000C4E910354FF48073A4F86430FF2384F88F
:102B5000663004F16C0304F1980B03A918464FF694
:102B6000FF76C4E91255C4E91455C4E91655A566A3
:102B700004F1E0080193ADF80C60FFF775FF5846CB
:102B800008F0D8FC03A9404604F58E77DFF858A179
:102B9000ADF80C60FFF768FF01264FF0FF33C4E982
:102BA0004436C4F8E0A003A9C4F80C5184F81851C5
:102BB0003846ADF80C30FFF757FF494AC4F81CA15E
:102BC000C4E95624474AC4F848514FF0FF33C4E9DA
:102BD0005336C4E9582529462A46484684F85451B4
:102BE000FFF734FF48464FF4A071FFF797F94846C6
:102BF000F021FFF795F904F1040A4FF07F43A36633
:102C00004946504606F0B0FD01982A466FF0100183
:102C1000FFF71CFF02220198ADF80C2003A908F071
:102C200052FB0199504606F09FFD58463F2228214D
:102C3000FFF70CFF02A903AA5846ADF80860ADF8EB
:102C40000C6008F007FA0622A4F8D0205846FFF7D7
:102C500027FF4FF07F424FF0FF33C4E9352304F5DF
:102C6000AC73C4F8C0305946504606F07DFD294685
:102C70004046B422FFF7EAFE1A224046182108F027
:102C800065F83146404608F074F82B46324629462E
:102C9000404607F0B3FF4146504606F065FD384612
:102CA0008C220C21FFF7D2FE13223846112108F0A6
:102CB0004DF83146384608F05CF82B463246294636
:102CC000384607F09BFF5046394606F04DFD20463A
:102CD00005B0BDE8F08F00BFA4FC01084C04020859
:102CE0008CFC0108372A0008D003020830B50368BD
:102CF000018185B06D460146D3F8843004462846EC
:102D0000984795E807003C3484E8070005B030BDDB
:102D100030B50368418185B06D460146D3F88430F3
:102D200004462846984795E807003C3484E80700A5
:102D300005B030BD0022028042808280C280704790
:102D400080F83610704770B5036804461B6B154653
:102D500098472368294620465B6EBDE870401847B7
:102D600000207047806C704770477047704710B5FF
:102D70004C2104461AF058FE204610BD10B54FF401
:102D80001D7104461AF050FE204610BD08B5FFF72D
:102D900070F908BD036870B55E6B124B1B68044682
:102DA0008DB22BB9104B114A6C2111481AF06AFEF2
:102DB0001049828D0988914203D80F4B0B4A6D212F
:102DC000F3E713F812200D4B1B6853F82200036839
:102DD0001B6B9847291A3346204609B2BDE870405C
:102DE000184700BF4C1A0120C0FB010802FC010873
:102DF0003DFC0108501A0120D0FC0108541A0120A2
:102E000000224FF0FF31C0E90021826070470000CE
:102E10000022C0E90122C0E90322C0E90522C0E97D
:102E200007224FF480728284014A0260704700BF1B
:102E300064FD010837B54FF6FF7304460D4601A93E
:102E4000ADF80430FFF710FE084B23604FF0FF325F
:102E50000023C4E90B322A7884F83420204684F811
:102E60003530E38684F8383003B030BDD003020833
:102E700010B52622044600211BF00BF82046FFF770
:102E8000C7FF0A4BA3624FF6FF73A3854FF47F027F
:102E90000023C4E90C32064A226023874FF0FF3238
:102EA000C4E91023E363A364204610BD84F4010841
:102EB000CCFD01082DE9F04F04468DB0A046002559
:102EC0000BF0DAFBC04BE56348F8403B262229466D
:102ED00040461AF0DEFF4046FFF79AFFBB4B2364E3
:102EE000FF2384F8663004F16C034FF6FF760AA9DD
:102EF0001846A5660493ADF82860FFF7B5FD04F108
:102F0000980304F1C40918460AA90593ADF828608E
:102F10000126FFF7A9FD0AA948468DF82860FFF7AA
:102F200089FF04F5807304F59E7B18460AA904F511
:102F3000BC7A01938DF82860FFF77CFF0AA95846F8
:102F40008DF82860FFF776FF0AA950468DF82860B3
:102F5000FFF770FF04F5DA7318460293FFF788FF56
:102F600004F5007318460393FFF782FF2A46404694
:102F70002946FFF76BFD40464FF4A071FEF7CEFFE8
:102F80004046F021FEF7CCFF271D4FF07F43A3669C
:102F90004146384606F0E8FB2A4604986FF01001D7
:102FA000FFF754FD4FF002030498ADF828300AA94A
:102FB00008F089F90499384606F0D6FB9D22059859
:102FC000D521FFF743FD0F230598ADF828300AA956
:102FD00008F079F90599384606F0C6FB4846B8224C
:102FE0002946FFF733FD1A224846182107F0AEFEA6
:102FF0004846314607F0BDFE2B4632464846294634
:1030000007F0FCFD4946384606F0AEFB01989F22CA
:103010000B21FFF71BFD15220198142107F096FEE6
:103020000198314607F0A5FE2B4632460198294605
:1030300007F0E4FD019984F82551384606F094FB29
:1030400058468C221221FFF701FD13225846122107
:1030500007F07CFE5846314607F08BFE2B46324681
:103060005846294607F0CAFD5946384606F07CFB0B
:103070007822F3215046FFF7E9FC04220321504651
:1030800007F064FE3146504607F073FE2B46324689
:103090002946504607F0B2FD5146384606F064FB1B
:1030A00012220298DFF840B12221FFF7CFFC4FF047
:1030B0007F43C4F8E431D4F8B4310299D3F88430B2
:1030C000A4F8E8510DF118084046984798E8070021
:1030D00004F5F87383E80700DBF8003004F5137992
:1030E0002BB93B4B3B4A60213B481AF0CBFCDFF845
:1030F000FCA0BAF80030032B03D8384B354A6121C5
:10310000F2E7374B0321186800F05EFC354A0346AE
:103110000A2148460CF04EFF0298C4F8FC9107F0D3
:103120001BFFDFF8CC900298CDF8289004230AA961
:10313000ADF82C3007F030FF0299384606F014FB4A
:1031400003982D222221FFF781FCD4F80032039945
:10315000D3F88430A4F834524FF07F42C4F83022C0
:103160004046984798E8070004F50F7383E8070086
:10317000DBF8003004F51875002BB2D0BAF8003037
:10318000012BBAD9164B3146186800F01DFC154AC0
:1031900003460A2128460CF00DFF0398C4F8485254
:1031A00007F0DAFE4FF002030398ADF82C300AA9BD
:1031B000CDF8289007F0F0FE3846039906F0D4FACF
:1031C00020460DB0BDE8F08F5CFE01084C040208FB
:1031D000C0FB01080EFD01083DFC0108D0FC010800
:1031E000581A012059FD01084C1A0120501A0120DB
:1031F00084F4010870477047704730B4C26844686F
:103200005510034604EB6200D20748BF62599B6821
:1032100030BC48BFD35818470346406830B19A685D
:103220001AB9D86800F0010070470120704710B546
:10323000102104461AF0F8FB204610BD10B54FF4DB
:103240003D7104461AF0F0FB204610BD00F51470E5
:10325000884208B505D109F07FFEBDE80840FFF7B8
:1032600037BB08BD2DE9F04F044695B0A1460025B7
:103270000BF002FAD74BE56349F8403B262229467A
:1032800048461AF006FE4846FFF7C2FDD24B2364BB
:1032900004F16C0BFF234FF6FF7684F8663012A919
:1032A000A5665846ADF84860FFF7DEFB04F19803C9
:1032B00012A918460393ADF84860FFF7D5FB4FF409
:1032C0008073A4F8E830C54BC4F8C43004F1F003AF
:1032D00012A91846C4E93255C4E93455C4E9365533
:1032E000C4E93855C4F8EC500493ADF84860FFF7D2
:1032F000BBFB04F58E7312A918460593ADF8486020
:10330000FFF7B2FB04F5A47312A918460693ADF8B3
:103310004860FFF7A9FB04F5BA7312A91846079392
:10332000ADF84860FFF7A0FB04F5D07312A918466A
:103330000893ADF84860FFF797FB04F5E67312A910
:1033400018460993ADF84860FFF78EFB04F5FC734F
:1033500012A918460A93ADF84860FFF785FB04F5FB
:10336000097304F5147A184612A90B93ADF8486056
:10337000FFF77AFB2622294650461AF08AFD50466E
:10338000FFF746FD012304F5217884F87432944B4D
:10339000C4F8503226222946A4F87E62A4F880623E
:1033A00084F88262C4F8785284F87C5240461AF05D
:1033B00070FD4046FFF72CFD8A4BC4F8AC324FF449
:1033C0007F03C4F8B832884BC4F884324FF0FF331F
:1033D000C4E9B135854BA4F8B062C4E9B934844B73
:1033E000C4F8B452C4E9BB35F0232A464846A4F8D1
:1033F000BC52C4F8C052C4F8CC52294600934FF4D2
:10340000A073FFF755F8261D4FF07F43A36649468A
:10341000304606F0A9F92A466FF010015846FFF72A
:1034200015FB022312A95846ADF8483007F04BFFB0
:103430005946304606F098F9B42203982946FFF71A
:1034400005FB18230398ADF8483012A907F03BFF9D
:103450000399304604F1C40706F086F95023384634
:1034600000934A22E7232D21FFF722F80F22049828
:103470002521FFF7EBFA17230498ADF8483012A97D
:1034800007F021FF3846049906F06EF90F220598DF
:103490003921FFF7DBFA0598ADF8485012A907F07B
:1034A00012FF3846059906F05FF90F2206984D2164
:1034B000FFF7CCFA1B230698ADF8483012A907F0A5
:1034C00002FF3846069906F04FF90F22079861214E
:1034D000FFF7BCFA4FF016090798ADF8489012A90B
:1034E00007F0F1FE3846079906F03EF90F220898DA
:1034F0007A21FFF7ABFA1C230898ADF8483012A9DF
:1035000007F0E1FE3846089906F02EF90F220998D7
:103510008D21FFF79BFA1F230998ADF8483012A9B7
:1035200007F0D1FE3846099906F01EF90F220A98D5
:103530009E21FFF78BFA0A98ADF8489012A907F080
:10354000C2FE38460A9906F00FF90F220B98B121F6
:10355000FFF77CFA1D230B98ADF8483012A907F04D
:10356000B2FE38460B9906F0FFF83946304606F0B1
:10357000FBF88A2285215046FFF768FA1E2312AA1B
:1035800011A95046ADF84430ADF8483007F062FD5F
:1035900004F53973C4F878325146304606F0E4F841
:1035A0006F227E214046FFF751FA4FF07F43C4F867
:1035B000B432D4F88432A4F8B8520CAF3846D3F8F9
:1035C00084304146984797E8070004F5307383E854
:1035D00007000FE0A8FE01084C040208A002020840
:1035E000B404020884F40108CCFD010890FE01082F
:1035F0004D320008194B1B6804F534772BB9184B72
:10360000184A602118481AF03DFA184B1B881BB95C
:10361000174B144A6121F5E7164B2946186800F04C
:10362000D3F9154A03460A2138460CF0C3FC40463C
:10363000C4F8CC7207F090FC104B129312A905232A
:103640004046ADF84C3007F0A7FC3046414606F046
:103650008BF8204615B0BDE8F08F00BF4C1A012052
:10366000C0FB01080EFD01083DFC0108501A0120B5
:10367000D0FC0108581A012059FD010884F4010802
:103680007047000030B5164D2C68BFF35B8F14F007
:1036900001048FB020D128461AF0C8F9E0B13F23C9
:1036A0000993104B0893104B104911480A940122BA
:1036B000CDE906430423CDE903320A230093CDE983
:1036C0000B44CDE901440594FFF754F909481AF079
:1036D000F7F928461AF0B6F905480FB030BD00BF1B
:1036E000E80A00203815020848150208F4120208FA
:1036F000EC0A0020813600087047000030B5174DF5
:103700002C68BFF35B8F14F001048FB022D12846E0
:103710001AF08CF9F0B13F230993114B0893114B28
:1037200007930123CDE9054304930423CDE9024324
:103730000F23009312230C490C480A941A46CDE932
:103740000B440194FFF716F909481AF0B9F9284615
:103750001AF078F905480FB030BD00BF180B0020F3
:103760003C1502084C150208041302081C0B00202B
:10377000F93600087047000030B5164D2C68BFF3CD
:103780005B8F14F001048FB020D128461AF04EF957
:10379000E0B13F230993104B0893104B1049114897
:1037A0000A940122CDE906430423CDE903322823FC
:1037B0000093CDE90B44CDE901440594FFF7DAF815
:1037C00009481AF07DF928461AF03CF905480FB06F
:1037D00030BD00BF480B00204015020850150208FC
:1037E000001402084C0B00207537000870470000D9
:1037F00030B5164D2C68BFF35B8F14F001048FB009
:1038000021D128461AF012F9E8B13F230993104B51
:103810000893104B07930123CDE905430493042338
:10382000CDE902430F230C4900931522CDE90B4447
:103830000A480A940194FFF79DF809481AF040F9E4
:1038400028461AF0FFF805480FB030BD780B00206D
:103850004415020854150208101402087C0B0020BD
:10386000ED37000800207047002070470EB403B504
:1038700003AB002153F8042B01930AF02BFB02B099
:103880005DF804EB03B070470CB407B504AB53F814
:10389000042B01930AF01EFB03B05DF804EB02B0A9
:1038A00070470000436C10B5044673B3038F2BB907
:1038B000184B194AC52119481AF0E4F8C38E00EBD9
:1038C00043035B8C0BB30BF0CCFD238F012B03D890
:1038D000134B144ACB21EEE7E28E531C9BB2092B0B
:1038E000194688BFA3F10A0104EB410140F63F10DD
:1038F000498C814209D10A2B04EB420228BF0023E4
:1039000004EB4303508C588451842046BDE810409A
:103910000BF0AABCD4FE0108DDFE010888FF0108F7
:10392000D2FF0108E0FF01080BF065BC10B586B0BE
:1039300002AC84E806001A460AAB05930193099B82
:1039400000932146089B08F0A5FE06B010BD0000BC
:1039500038B518BB124B13481C681349B4B1226820
:1039600022440260626822440A60A26814440F4B39
:1039700000221A8000F038F8054600F033F80C4BAE
:103980001C600C4B1D600C4B188007E00B4B036058
:103990000B4B0B600B4B1C68002CE8D138BD00BFF3
:1039A000B40B0020AC0B0020A80B0020B00B0020B3
:1039B0004C1A0120541A0120501A012074150208D3
:1039C00058150208E0150208044B1B6853F8210043
:1039D000034B1B6803EB4000704700BFA80B00209F
:1039E000AC0B00200720704700487047B80B002040
:1039F00010B5FFF783FE064C2060FFF7BDFE606048
:103A0000FFF740FEA060FFF7F3FEE06010BD00BFCF
:103A1000B80B0020704710B54FF4AE7104461AF091
:103A200003F8204610BD10B50446D0F8580100F048
:103A300013F82046BDE8104009F052BB10B504460B
:103A4000FEF7F6FE014B2360204610BDBC000208C5
:103A50000022C0E900227047704770470438704761
:103A6000704710B51021044619F0DEFF204610BD46
:103A7000A0F10400F5E7000000228260024A026023
:103A800018324260C16070471001020870470000A0
:103A900010B5034B03600446FEF7A1FF204610BD9E
:103AA0003801020810B50446FFF7F2FF20464FF434
:103AB000B47119F0B9FF204610BD000010B50446DE
:103AC000FFF730F8014B2360204610BD3801020893
:103AD000FEF786BF704704387047704710B5102155
:103AE000044619F0A1FF204610BDA0F10400F5E73F
:103AF00000228260024A026018324260C160704750
:103B00006C01020890F86131F0B5002B37D0B0F8A5
:103B10004031B0F84441B0F94261B0F8422103F1BC
:103B20000A052344D0F89442A41B0A3B082CD8BFB2
:103B30001B1BB0F8464102F10A01C8BF083B2244F2
:103B40002DB209B21BB20A3AD0F8AC4212B22CBB69
:103B5000B0F99C70B0F8A040B0F99E60B0F8A20037
:103B60003C4424B23044BB4200B222DBA54220DCFC
:103B7000B2421EDB8142CCBF00200120F0BDB0F874
:103B80000621B0F90451B0F80831B0F80A4102F149
:103B90000A012B4409B21BB22244D5E7B0F97C716B
:103BA000B0F88041B0F97E61B0F882013C4424B2A3
:103BB000D8E70020E2E7704700F1784343F6FE7251
:103BC000934210B568D9A3F58041914266D9A3F517
:103BD0000041914264D9A3F54043934262D900F178
:103BE000774303F57F014FF6FE7291425CD903F5EE
:103BF0007E0102F58032914258D903F57C01914251
:103C000056D903F57A01914254D903F578019142CE
:103C100052D903F57601914250D903F574019142CE
:103C20004ED903F5720191424CD9A0F1016043F6DF
:103C3000FE71884248D9A0F580448C4246D9A0F54F
:103C400000448C4244D9A0F54040884242D903F553
:103C50006F004FF6FE7188423ED903F56E01914226
:103C60003CD903F56C0191423AD903F56A019142BE
:103C700038D903F56801914236D903F566019142BE
:103C800034D903F56401914232D903F562009042C0
:103C900094BF1720002010BD0020FCE70120FAE7A8
:103CA0000220F8E70320F6E70420F4E70520F2E716
:103CB0000620F0E70720EEE70820ECE70920EAE716
:103CC0000A20E8E70B20E6E70C20E4E70D20E2E716
:103CD0000E20E0E70F20DEE71020DCE71120DAE716
:103CE0001220D8E71320D6E71420D4E71520D2E716
:103CF0001620D0E7F7B5164F04460D460026AE4213
:103D000001D103B0F0BD4FF0FF333868002201A9A4
:103D100003F07BFDBDF804303F2B08D894F89C32AB
:103D20008BB984F86131012384F8253109E0C02B77
:103D300009D994F89C3233B9C4F8A032012384F82D
:103D40009C320136DBE7012384F861310023EBE785
:103D5000E007002010B5034B03600446FFF704F8AA
:103D6000204610BD9801020810B50446FFF7F2FF87
:103D700020464FF42D7119F057FE204610BD00006B
:103D800010B50446FFF796F80D4B23604FF4A07270
:103D90000023C4E9AA23C4F8902284F89C328C2022
:103DA0000121C4F8A0320222C4F8743240F2C643A2
:103DB000C4E9A501C4F8A422C4F8B032204610BD5D
:103DC00098010208F7B5054616460F4601F0D6F8E9
:103DD0002846FFF7F1FE044605EB8600FFF7ECFEF0
:103DE000114B00221A6002221A61421C121B01A907
:103DF00018469C60DA6001F0BBF9044660B101F03E
:103E0000D9F803B0F0BD57F824200023022001F0B8
:103E1000FFF80028F3D10134A64205EB8401F2DC5F
:103E200001F0BEF80020ECE7C80B00201FB503220C
:103E30000191034801A9FFF7C5FF05B05DF804FB38
:103E400000001E0810B5401A4FF6FF73013A92B2F7
:103E50000C5841F8044B9A42F8D110BD07B50448FC
:103E6000012201A9FFF7EEFF019803B05DF804FB02
:103E700000001E08D0F87432013310B5C0F8743257
:103E800003689B6B04469847A8B1D4F88C32D4F8E9
:103E9000B0229342E26BC8BFC4F8B0329268D4F843
:103EA000B012536023689160DB6B2046984709F09D
:103EB00053F8FEF71DFD234B186803F0D6FC0146AE
:103EC00018B1236820461B6B9847D4E9AA231BB37B
:103ED000012B24D0D4F8A412521AC4F8A8223232EA
:103EE0000ADAD4F89022C4F8A822C3F10103C4F876
:103EF000AC32BBB1012B1DD0236820465B6B9847C9
:103F000094F89C321BB123682046DB6A9847201D39
:103F1000BDE810400AF008B9A4F89C20DAE7A4F83C
:103F20007C21D7E7A4F89C20012284F8BD2084F8E6
:103F30009D31E1E784F89D310023A4F87C2184F8C9
:103F4000BD30D9E7E0070020194AD0F87432534356
:103F5000B3F1333F98BFD0F88C32D0F8B02298BF7D
:103F6000013370B598BFC0F88C32D0F88C329342D0
:103F7000044600F5137600F5DA7515DA0D4A0A21C4
:103F800000F518700CF016F804F500700AF0CCF883
:103F9000D4F8B032074A30460A210CF00BF8284614
:103FA000BDE870400AF0C0B8002280F82522F1E791
:103FB000CDCCCCCC8C010208F8B50446364E002599
:103FC000FEF7D3FED4F8B03284F8255132460A21E8
:103FD00004F513700BF0EEFF04F5DA700AF0A4F8A4
:103FE000D4F88C3232460A2104F518700BF0E2FF47
:103FF00004F1C40604F500700AF096F8294630462C
:10400000B422FEF723FD01231A462946304604F563
:104010009E7606F0F3FD30468C221921FEF716FD40
:1040200001231A462946304606F0E8FD30460A21AB
:1040300004F5807606F09DFE3046A1221521FEF79C
:1040400005FD01231A462946304606F0D7FD3046C5
:104050000A2106F08EFE012704F5BC76B4F9901211
:1040600084F8255104F198009D22FEF7EFFCB4F985
:10407000901284F8BD7030466022FEF7E7FC2946B6
:1040800030463B463A4606F0B9FD30460A21BDE8C7
:10409000F84006F06EBE00BF8C0102082DE9F04129
:1040A00005464FF00108002600F59E7780F825614F
:1040B00080F86181384606F081FDD5F8A032D5F848
:1040C0009422434403FB03F46FF06301A4EB041454
:1040D00094FBF1F41444C5F8A0326FF0090103EB2E
:1040E000831393FBF1F31C44C5F8984224B2A24217
:1040F00003DDA5F84241BDE8F081A5F84221434621
:1041000042463146384606F079FD85F89C62C5F88E
:104110009882F0E7704704387047704710B5102157
:10412000044619F081FC204610BDA0F10400F5E71B
:1041300000228260024A026018324260C160704709
:10414000E40102087047000010B5034B0360044609
:10415000FFF750F8204610BD0C02020810B50446C7
:10416000FFF7F2FF20464FF43E7119F05DFC204648
:1041700010BD000010B50446FFF774F8034B236030
:104180000023C4F8F432204610BD00BF0C02020820
:1041900010B50446FFF72FF8E36B064A9B685B688F
:1041A000C4F8F43204F534700A21BDE810400BF075
:1041B00001BF00BF8C010208F02070474FF4A070CF
:1041C00070472920FDF774BA2820FDF771BA08B5A9
:1041D000FDF742FACA20FDF76BFAC320FDF74CFA4F
:1041E0000820FDF749FA5020FDF746FACF20FDF7E9
:1041F0005FFA0020FDF740FAC120FDF73DFA3020BC
:10420000FDF73AFAED20FDF753FA6420FDF734FA92
:104210000320FDF731FA1220FDF72EFA8120FDF779
:104220002BFAE820FDF744FA8520FDF725FA002057
:10423000FDF722FA7820FDF71FFACB20FDF738FAB8
:104240003920FDF719FA2C20FDF716FA0020FDF7AA
:1042500013FA3420FDF710FA0220FDF70DFAF720CB
:10426000FDF726FA2020FDF707FAEA20FDF720FAED
:104270000020FDF701FA0020FDF7FEF9B120FDF75F
:1042800017FA0020FDF7F8F91B20FDF7F5F9B62025
:10429000FDF70EFA0A20FDF7EFF9A220FDF7ECF981
:1042A000C020FDF705FA1020FDF7E6F9C120FDF763
:1042B000FFF91020FDF7E0F9C520FDF7F9F94520D9
:1042C000FDF7DAF91520FDF7D7F9C720FDF7F0F96A
:1042D0009020FDF7D1F93620FDF7EAF9C820FDF767
:1042E000CBF9F220FDF7E4F90020FDF7C5F9B02085
:1042F000FDF7DEF9C220FDF7BFF9B620FDF7D8F9CA
:104300000A20FDF7B9F9A720FDF7B6F92720FDF738
:10431000B3F90420FDF7B0F92A20FDF7C9F9002010
:10432000FDF7AAF90020FDF7A7F90020FDF7A4F991
:10433000EF20FDF7A1F92B20FDF7BAF90020FDF7DA
:104340009BF90020FDF798F90120FDF795F93F2032
:10435000FDF792F9F620FDF7ABF90120FDF78CF996
:104360000020FDF789F90620FDF786F92C20FDF7DE
:104370009FF9C820FDF7EAF92620FDF799F90120F9
:10438000FDF77AF9E020FDF793F90F20FDF774F9B6
:104390002920FDF771F92420FDF76EF90C20FDF7B7
:1043A0006BF90E20FDF768F90920FDF765F94E203D
:1043B000FDF762F97820FDF75FF93C20FDF75CF925
:1043C0000920FDF759F91320FDF756F90520FDF7EF
:1043D00053F91720FDF750F91120FDF74DF9002092
:1043E000FDF74AF9E120FDF763F90020FDF744F9F4
:1043F0001620FDF741F91B20FDF73EF90420FDF7DB
:104400003BF91120FDF738F90720FDF735F9312088
:10441000FDF732F93320FDF72FF94220FDF72CF993
:104420000520FDF729F90C20FDF726F90A20FDF7F4
:1044300023F92820FDF720F92F20FDF71DF90F2083
:10444000FDF71AF91120FDF733F9C820FDF77EF9C1
:104450002920FDF72DF9BDE808402C20FDF728B9EB
:1044600008B5FDF7F9F80321D320FDF73DF980B237
:1044700008BD10B5C4B2022203212046FDF7A2F800
:104480000A20FDF7E7F8204600220321FDF79AF8FD
:10449000BDE810400220FDF7DDB838B50446E4B2AF
:1044A000FDF78EF800212046FDF7A4F8012105460E
:1044B0002046FDF79FF840EA052080B238BD10B5D0
:1044C000C4B240212046FDF795F8030607D54C21DC
:1044D0002046FDF78FF8003818BF012010BD0122DB
:1044E0004B212046FDF76EF8204600224B21FDF7B8
:1044F00069F80020F2E773B50423C4B20E461546EE
:10450000D7210DEB03022046FDF78EF8019B1BBA65
:104510001A0DC3F30B23328020462B8001224B213E
:10452000FDF750F800224B212046FDF74BF802B072
:1045300070BD000010B50A4A1378984204460DD0A9
:10454000517888420AD00BB141B90123D454FDF708
:1045500037F82046BDE81040FFF78BBF10BD00BF05
:10456000DC0B002010B5C4B209212046FDF742F84B
:1045700040F00102D2B220460921BDE81040FDF70B
:1045800021B810B5C4B209212046FDF733F809213E
:1045900000F0FE022046BDE81040FDF713B838B524
:1045A000C4B20D4620460A21FDF724F840EA050270
:1045B000D2B220460A21BDE83840FDF703B810B555
:1045C0000446FCF7FEFF20461F21FFF7E8FF2046C8
:1045D000BDE81040FFF7C6BF38B5C4B20D4620464F
:1045E0000A21FDF707F820EA0502D2B220460A2187
:1045F000BDE83840FCF7E6BF10B50446FFF7C1FF41
:1046000020461F21BDE81040FFF7E6BF10B5C0B23D
:104610000C460B21FCF7EEFF204010BD1F21FFF7D9
:10462000F5BF0A46C0B20B21FCF7CCBF1F21FFF734
:10463000F8BF38B5C4B20D4620461721FCF7DAFFA3
:1046400020EA0502D2B220461721BDE83840FCF727
:10465000B9BF70B5C4B2064604212046FCF7CAFFB4
:10466000042100F0FB0205462046FCF7ABFF304674
:10467000F021FFF7DEFF05F0F80220460421FCF7E9
:10468000A1FF492220212046FCF79CFF0220FCF7D5
:10469000E1FF204601222121FCF794FF20469A22C7
:1046A0004121FCF78FFF204601224A21FCF78AFFB7
:1046B000204601224B21FCF785FF204600224B219A
:1046C000FCF780FF204601225621FCF77BFF2046A5
:1046D00001225821FCF776FF204601224021FCF7F9
:1046E00071FF2046FF220B21FCF76CFFBDE87040F4
:1046F0000220FCF7AFBF0000054BD3F8882042F43E
:104700007002C3F888204FF000629A60704700BFC3
:1047100000ED00E008B50B4B1A6842F400721A6015
:104720001A6842F480621A601A6842F480721A6051
:10473000032000F045FA0020FDF7D8FAFDF714F841
:10474000002008BD003C0240034A044B11681B785E
:104750000B441360704700BFE00B0020780000207E
:10476000014B1868704700BFE00B002038B50446C5
:10477000FFF7F6FF631C1CBF054B1B78054618BFEF
:10478000E418FFF7EDFF431BA342FAD338BD00BF87
:104790007800002038B50446002800F09B80056CA6
:1047A00025B9FDF701F8656484F83C50236CDB06FD
:1047B00000F18E80236C23F4885323F0020343F02E
:1047C00002032364444B5A6822F440325A605A6808
:1047D00061680A435A60236821695A6822F480722A
:1047E0005A605A6842EA01225A605A68A16822F067
:1047F00040725A605A680A435A609A68E16822F423
:1048000000629A609A680A439A603449A26A8A42AE
:1048100052D0996821F07061996099680A439A6052
:104820009A68E16A22F040529A609A680A439A6054
:104830009A6822F002029A609A68217E42EA410256
:104840009A6094F82020002A3ED05A68616A42F4A7
:1048500000625A605A6822F460425A605A6801390C
:1048600042EA41325A60DA6AE16922F47002DA629D
:10487000DA6A013942EA0152DA629A6822F4007275
:104880009A609A6894F8301042EA41229A609A68D5
:10489000616922F480629A609A68002042EA81226B
:1048A0009A606064236C23F0030343F001032364E4
:1048B000002384F83C3038BD9A6822F070629A6018
:1048C0009A6822F04052B2E75A6822F40062C9E7BF
:1048D0000120EDE70120EEE7002301400100000F79
:1048E00082B00023019390F83C30012B69D0012362
:1048F00080F83C3003689A68D2070BD59A68D107D4
:104900001AD4036C43F010030364436C43F00103B7
:1049100043644CE09A682C4942F001029A602B4AA9
:104920001268B2FBF1F202EB42020192019A002AF4
:10493000E4D0019A013AF8E7026C22F4E06222F036
:10494000010242F4807202645A68520541BF026C4F
:1049500022F4405242F480520264026C12F48052FB
:104960001CBF426C22F006024264002280F83C2008
:104970006FF022021A60164A516811F01F0F154994
:104980001CD18B4207D001F580718B420CD152684B
:1049900012F01F0F0BD19A6812F0405F07D19A688E
:1049A00042F080429A6002E00B498B4202D0002024
:1049B00002B07047526812F0100FEBE78B42F6D14D
:1049C000E9E70220F4E700BF40420F007400002036
:1049D00000230140002001400022014003689A6842
:1049E000520570B504460D460BD59B68DE0508D50B
:1049F000036C43F020030364002380F83C30012063
:104A000070BDFFF7ADFE064623681A6891070CD506
:104A10006FF012021A60226C42F4007222649A68EB
:104A200012F0405F17D00020EAE7681CEDD065B9AE
:104A300023681B6813F00203E6D1226C84F83C3033
:104A400042F0040222640320DAE7FFF789FE801BAC
:104A5000A842EDD8D8E7227E002AE4D1DA6A12F41F
:104A6000700F02D09B685A05DDD4236C23F4807349
:104A70002364236CDB04D6D4236C43F0010323644A
:104A8000D1E70368D86C7047F7B50023019390F81D
:104A90003C30012B054600F08680012380F83C3035
:104AA00008682B688E68092884B233D904EB440265
:104AB000DF681E3A4FF0070C0CFA02FC27EA0C07DD
:104AC000DF60DF6806FA02F23A43DA6049680629D5
:104AD00001EB81022DD8596B053A1F26964021EA39
:104AE00006015963596B04FA02F20A435A632F4ACA
:104AF00093420AD1122837D12D4B5A6822F4000272
:104B00005A605A6842F480025A60002085F83C00DE
:104B100003B0F0BD1A6900EB400C072707FA0CF749
:104B200022EA07021A611A6906FA0CF616431E6198
:104B3000CCE70C294FF01F010BD81E6B233A914094
:104B400026EA01011963196B04FA02F20A431A6397
:104B5000CDE7DE6A413A914026EA0101D962D96A7D
:104B600094400C43DC62C2E7124B984201D01128FA
:104B7000CBD10F4B5A6822F480025A605A6842F433
:104B800000025A600B4B9842BFD10B4B0B4A1B687B
:104B9000B3FBF2F30A2253430193019B002BB4D0E1
:104BA000019B013BF8E70220B2E700BF0020014073
:104BB00000230140120000107400002040420F004A
:104BC0000749CA6822F4E0620302120403F4E063B6
:104BD000120C134343F0BF6343F40033CB607047C0
:104BE00000ED00E0164B30B5DC68C4F30224C4F1DC
:104BF0000703251D042B28BF0423062D4FF0FF3586
:104C00008CBF033C002405FA03F321EA0303A5400B
:104C100022EA0502A340002843EA0203ACBF00F1E8
:104C20006040084A4FEA0313B8BF00F00F00DBB240
:104C3000AABF00F56140135480F8003330BD00BFB7
:104C400000ED00E014ED00E0002807DB044A410914
:104C5000012300F01F00834042F82130704700BF5D
:104C600000E100E010B5044650B1437903F0FF02C3
:104C700013B90271FCF7F0FD01236371002010BD30
:104C80000120FCE710B5044630B390F8393003F04A
:104C9000FF021BB980F83820FCF7F6FD2268616836
:104CA000022384F83930136823F440330B43136034
:104CB000536BA16823F007030B435363136CE16844
:104CC00023F47F5323F03F030B431364002001239D
:104CD000E06384F8393010BD0120FCE7704770476D
:104CE000036870B55E681D68F207044614D5E905CF
:104CF00012D51A6822F480721A60C26B42F0010267
:104D0000C26301229A60042380F83930002380F8BE
:104D10003830436903B19847B20616D5AB0414D5B1
:104D200023681A6822F400521A6020229A60E36B0A
:104D300043F00203E363042384F83930002384F84A
:104D4000383063690BB120469847300716D52905DE
:104D500014D523681A6822F400621A6008229A6047
:104D6000E36B43F00403E363042384F83930002346
:104D700084F8383063690BB12046984772070BD529
:104D80006B0509D523681A6822F480621A60042230
:104D90009A602046FFF7A2FFB00714D5A90512D5E7
:104DA00023681A6822F400721A6002229A60E36B88
:104DB000E363012384F83930002384F83830236911
:104DC0000BB120469847F20613D5EB0411D52368A2
:104DD0001A6822F480521A6010229A60E36BE3632F
:104DE000012384F83930002384F838302046FFF757
:104DF00076FF70BDF0B590F83820012A03464FF0D9
:104E000002002BD0012283F8382083F8390003EB0D
:104E10000112D2E90740556A174F44EA0040093CA5
:104E2000012C9CBF05F07F4210434FEA01161A681F
:104E300088BF40EA056091B9516A39400143516227
:104E4000012C9969916103D8596A21F07F419162DF
:104E50000122002083F8392083F83800F0BDD169A1
:104E600039400143D1619919012C896911619CBFB5
:104E700025F07F451562EBE7F0FFFC00094910B50E
:104E80000C6924F440740C610C6944F440740C61A6
:104E90000C6944F001040C610260BFF36F8F436042
:104EA00010BD00BF003C0240074B1A6922F440725B
:104EB0001A611A6942F400721A611A6942F0010219
:104EC0001A610160704700BF003C0240074B1A693D
:104ED00022F440721A611A6942F480721A611A69E6
:104EE00042F001021A610180704700BF003C02409D
:104EF000204BDA68D00606D51F49CA6942F0100275
:104F0000CA611022DA60DA68910606D51A49CA69C0
:104F100042F00802CA612022DA60164BDA685206B3
:104F200006D51549CA6942F00402CA614022DA6016
:104F3000DA68100606D51049CA6942F00202CA6151
:104F40008022DA600B4BDA68D10507D50A49CA69B5
:104F500042F00102CA614FF48072DA60DA689207A7
:104F600006D50549CA6942F02002CA610222DA6008
:104F7000704700BF003C0240E40B0020064B1A695A
:104F8000002ABFBF054A5A6002F188325A60BABF90
:104F90001869C00F00207047003C0240230167459C
:104FA000034A136943F0004313610020704700BFB8
:104FB000003C0240014BD869704700BFE40B002061
:104FC000114B70B500220446DA61FFF7C9FB0F4DA3
:104FD0000646EB68DA030CD4EB68DB0744BF012319
:104FE000EB60E86810F4F97007D0FFF781FF01204B
:104FF00003E0611CEDD00CB9032070BDFFF7B0FBDE
:10500000801BA042E5D9F7E7E40B0020003C0240FA
:105010002DE9F0411F4E9846337E012B07460D4681
:10502000144635D001234CF250303376FFF7C8FFD9
:10503000B0B9CFB9184B1A6922F440721A611A69D3
:105040001A611A69E4B242F001021A612C704CF242
:105050005030FFF7B5FF104A136923F001031361C5
:1050600000233376BDE8F081012F04D1A1B2284698
:10507000FFF72CFFEBE7022F04D121462846FFF76C
:1050800013FFE4E7224643462846FFF7F7FEDEE734
:105090000220E7E7E40B0020003C02400C4B1A69B9
:1050A00022F440721A6103291A690BD142F40042BA
:1050B00042F004021A611A6942EA002040F480308A
:1050C000186170470129F3D042F40042F2E700BFB3
:1050D000003C02400F4B1A6922F440721A611A69AF
:1050E000022994BF09024FF440710A431A611A69F8
:1050F00022F0F8021A611A690B2888BF043042EACC
:10510000C00242F002021A611A6942F480321A6146
:10511000704700BF003C0240144B1A6891050FD540
:105120001A6822F400721A601A6842F400621A6067
:105130001A6822F400621A601A6842F400721A6057
:105140000A4B1A6852050FD51A6822F480621A6059
:105150001A6842F480521A601A6822F480521A6067
:105160001A6842F480621A60704700BF003C024037
:105170002DE9F843DFF89C8098F81830012B05469C
:105180000F4642D001234CF2503088F81830FFF718
:1051900017FF0446B8B94FF0FF333B602B68012B73
:1051A00017D16968287CFFF779FF4CF25030FFF780
:1051B00007FF174A136923F4004323F0040304464E
:1051C0001361FFF7A9FF002388F818302046BDE8D7
:1051D000F883AE68DFF83890D5E902231344B34270
:1051E000EFD9297C3046FFF775FF4CF25030FFF7BE
:1051F000E7FED9F8103023F0FA03C9F8103010B1E7
:105200003E600446DDE70136E6E70224DEE700BF44
:10521000003C0240E40B00202DE9F74FDFF8BC9181
:105220006C4A00230D6801249C4004EA0506AC4347
:1052300040F0B7804D68032705F003044FEA4308A8
:1052400007FA08FC671E012F6FEA0C0C34D8876838
:1052500007EA0C0ECF6807FA08F747EA0E078760DF
:10526000476827EA060EC5F300179F4047EA0E0776
:105270004760C76807EA0C0E8F6807FA08F747EA25
:105280000E07022CC76019D14FEAD30A00EB8A0A35
:1052900003F0070BDAF820704FEA8B0B4FF00F0E7C
:1052A0000EFA0BFE27EA0E0E0F6907FA0BF747EA14
:1052B0000E07CAF8207001E0032CDAD1076804FA5F
:1052C00008F407EA0C073C4315F4403F046068D03B
:1052D00000240194D9F8444044F48044C9F844407F
:1052E000D9F8444023F0030707F1804704F48044D1
:1052F00007F59C37019403F0030C019CD7F808E0F4
:105300004FEA8C0C0F2404FA0CF42EEA040E324CF3
:10531000A0424DD004F58064A0424BD004F58064D7
:10532000A04249D004F58064A04247D004F58064CF
:10533000A04245D004F58064A04243D004F58064C7
:10534000A04241D004F58064A0423FD004F58064BF
:10535000A0423DD004F58064A04214BF0A24092471
:1053600004FA0CF444EA0E04BC609468F74315F4A4
:10537000801F0CBF3C4034439460D46815F4001F78
:105380000CBF3C403443D460546815F4003F0CBF5C
:105390003C40344354601468ED0354BF3C403443F4
:1053A00014600133102B7FF43DAF03B0BDE8F08FE4
:1053B0000024D5E70124D3E70224D1E70324CFE773
:1053C0000424CDE70524CBE70624C9E70724C7E773
:1053D0000824C5E7003C01400000024000380240BC
:1053E0000369194214BF0120002070470AB181618E
:1053F00070470904FBE7436901EA030221EA03015C
:1054000041EA02418161704701684B6913F480638E
:105410004FF0000210D06FF480634B6120230263D1
:1054200080F83D3080F83E20036C80F83C2043F04B
:105430000403036401207047184670472DE9F846BD
:1054400006460F4691461D464FEA114A3368BAF1A7
:10545000010F0CBF5C699C6927EA0404A4B2B4FA8A
:1054600084F46409A14501D0002025E06A1CEED037
:10547000FFF776F9089BC01AA84201D8002DE5D1A4
:105480003368BAF1010F0CBF5B699B6927EA03031C
:105490009BB2B3FA83F35B099945D7D1002320224D
:1054A000336386F83D2086F83E30326C86F83C3017
:1054B00042F0200232640120BDE8F8862DE9F04177
:1054C00004460F46164698462568686927EA000094
:1054D00080B2C0B16B695A0517D52B6843F40073CD
:1054E0002B606FF480636B6120220023236384F8B8
:1054F0003D2084F83E30236C43F0040323640023F2
:1055000084F83C300120BDE8F081731CDDD0FFF74A
:1055100027F9A0EB0800B04201D8002ED4D12368AF
:105520005A6927EA020292B2002ACDD00023202233
:10553000236384F83D2084F83E30236C1343DDE779
:1055400070B504460D46164623685B691B0601D5F7
:1055500000201EE02046FFF757FFC8B96A1CF3D0B1
:10556000FFF7FEF8801BA84201D8002DECD123687C
:105570005B6913F08003E7D12022236384F83D2088
:1055800084F83E30226C84F83C3042F020022264E1
:10559000012070BD2DE9F0431546026885B0DDE9B4
:1055A0000C789946136843F4807313600E463B46AB
:1055B000CDF8008000224FF001110446FFF73EFFB6
:1055C000236838B11B68DB0502D54FF400732364F0
:1055D000032620E006F0FE061E611A4943463A46BD
:1055E0002046FFF76BFFA8B9236803905A6903921E
:1055F0009B690393424639462046039BFFF7A0FF71
:10560000064660B1236C042B01BF2268136843F483
:10561000007313600126304605B0BDE8F083B9F190
:10562000010F236802D1EDB21D61F4E72A0A1A6165
:10563000394642462046FFF783FF0028E2D123681F
:10564000F1E700BF020001002DE9FF479A46036819
:1056500015461A6842F480621A601A68DDE90C780F
:1056600042F480721A600E463B46CDF8008000225C
:105670004FF001110446FFF7E1FE236838B11B68C3
:10568000DB0544BF4FF400732364032021E05FFA7D
:1056900086F906F0FE061E612B4943463A4620462F
:1056A000FFF70CFFA0B9236803905A6903929B6926
:1056B0000393424639462046039BFFF741FF58B10A
:1056C000236C042B01BF2268136843F4007313603A
:1056D000012004B0BDE8F087BAF1010F23681AD1A8
:1056E000EDB242461D6139462046FFF729FF0246CA
:1056F0000028E5D121680B6843F480730B602046D5
:10570000CDF800803B464FF00111FFF797FE22686D
:1057100060B11368B4E72A0A1A6139464246204646
:10572000FFF70EFF0028CBD12368D9E749F001032A
:105730001361054943463A462046FFF7BFFE00384D
:1057400018BF0120C5E700BF0200010070B5044684
:105750000D46164623685B695B0701D500201EE0F5
:105760002046FFF751FEC8B96A1CF3D0FEF7F8FFD8
:10577000801BA84201D8002DECD123685B6913F08F
:105780000403E7D12022236384F83D2084F83E30CF
:10579000226C84F83C3042F020022264012070BD6B
:1057A00070B504460D46164621684B6913F0400358
:1057B00001D0002011E04A69D2060FD56FF0100227
:1057C0004A612022236384F83D2084F83E30236C14
:1057D0002364002384F83C30012070BDFEF7C0FF35
:1057E000801BA84201D8002DDED123685B6913F02D
:1057F0004003D9D12022236384F83D2084F83E3031
:10580000236C1343E4E7000070B5044608B9012097
:1058100070BD90F83D3003F0FF021BB980F83C20CA
:10582000FCF754F8242384F83D3023681A6822F0EA
:1058300001021A601A6842F400421A601A6822F4DF
:1058400000421A6000F078FE3F4B65689D4294BFAD
:105850003E4B3F4B98428CBF00230123002BD6D1F7
:105860002268394E51683B4BB0FBF3F321F03F0106
:105870001943B542516088BF4FF49676116A88BFCC
:10588000734321F03F0184BF4FF47A76B3FBF6F304
:1058900001330B431362D169431E2B4821F44F415E
:1058A000854221F0FF0132D86D0040F6FC70B3FB59
:1058B000F5F30133034242D0C3F30B031943D16123
:1058C000D4E907301168034321F0C0010B43136092
:1058D0009168D4E9030321F40341034321F0FF015C
:1058E0000B439360D4E90530D168034321F0FF01F5
:1058F0000B43D360136843F001031360002020239F
:10590000206484F83D30206384F83E0080E7A0687E
:1059100050B905EB4505B3FBF5F30133C3F30B03B6
:105920007BB143F40043C9E719206843B3FBF0F3AC
:105930000133C3F30B0323B143F44043BEE7042315
:10594000BCE70123BAE700BFA08601007F841E00E8
:10595000FF083D0040420F002DE9F74304469946F9
:105960000C9E0F469046FEF7FBFE94F83D30202B30
:10597000054603D0022003B0BDE8F08300903C4907
:10598000192301222046FFF759FD0028F2D194F88F
:105990003C30012BEED02068012384F83C300368B2
:1059A000D9075EBF036843F001030360036823F473
:1059B00000630360212384F83D30402384F83E30A7
:1059C000002323640A9B6362BDF82C306385638DDA
:1059D0002385284BE3624246CDE900654B463946B4
:1059E0002046FFF7D7FD00282AD00120C3E7FFF7A4
:1059F000A7FD40B1236C042B01BF2268136843F458
:105A000000731360F1E7636A27681A4612F8011BF6
:105A100039616262628D218D013A92B262857A6942
:105A2000481E80B2520720850AD548B15A783A619B
:105A300002336362638D013B02399BB2218563852A
:105A4000238D2A4631462046002BD0D1FFF77EFE1B
:105A50000028CFD12268136843F400731360202319
:105A600084F83D3084F83C0084F83E0083E700BFB2
:105A7000020010000000FFFF2DE9F043044687B04C
:105A80009946109F0D469046FEF76AFE94F83D3009
:105A9000202B064604D00225284607B0BDE8F08337
:105AA00000907A49192301222046FFF7C7FC0028FD
:105AB000F1D194F83C30012BEDD02068012384F81B
:105AC0003C300368DB075EBF036843F001030360FB
:105AD000036823F400630360222384F83D304023ED
