:020000040800F2
:1000000000000320810500088D1D00088F1D0008D9
:10001000911D0008931D0008951D000800000000B8
:10002000000000000000000000000000016D00085A
:10003000971D000800000000916D0008036600088D
:10004000D1050008D1050008D1050008D105000838
:10005000D1050008D1050008D1050008D105000828
:10006000D1050008D1050008D1050008D105000818
:10007000D1050008D1050008D1050008D105000808
:10008000D1050008D1050008D1050008D1050008F8
:10009000D1050008D1050008D1050008D1050008E8
:1000A000D1050008D1050008D1050008D1050008D8
:1000B000D1050008D1050008D1050008D1050008C8
:1000C000D1050008D1050008D1050008D1050008B8
:1000D000D1050008D1050008D1050008D1050008A8
:1000E000D1050008D1050008D1050008D105000898
:1000F000D1050008D1050008D1050008D105000888
:10010000D1050008D1050008D1050008D105000877
:10011000D1050008D1050008991D0008D105000887
:10012000D1050008D1050008D1050008D105000857
:10013000D1050008D1050008D1050008D105000847
:10014000D1050008D1050008D1050008D105000837
:10015000D1050008D1050008D1050008D105000827
:10016000D1050008D1050008D1050008D105000817
:10017000D1050008D1050008D105000800000000E5
:10018000D1050008D1050008D1050008D1050008F7
:10019000D1050008D1050008D1050008D1050008E7
:0C01A000A51D0008D1050008B11D0008D5
:1001B00010B5054C237833B9044B13B10448AFF3A1
:1001C00000800123237010BD6401002000000000A6
:1001D000E4D6010808B5034B1BB103490348AFF34C
:1001E000008008BD0000000068010020E4D601087E
:1001F00001F0FF01102A2BDB10F0070F08D010F8D8
:10020000013B013A8B422DD010F0070F42B3F6D1DB
:10021000F0B441EA012141EA014122F007047FF0F4
:1002200000070023F0E80256083C85EA010586EA4B
:10023000010685FA47F5A3FA87F586FA47F6A5FA87
:1002400087F68EB9EED1F0BC01F0FF0102F0070293
:1002500032B110F8013B013A83EA010313B1F8D13E
:100260000020704701387047002D06BF354603381F
:10027000073815F0010F07D1013015F4807F02BF58
:10028000013015F4C03F0130F0BC0138704700BFA9
:1002900053B94AB9002908BF00281CBF4FF0FF31ED
:1002A0004FF0FF3000F06AB9ADF1080C6DE904CEF3
:1002B00000F006F8DDF804E0DDE9022304B0704741
:1002C0002DE9F047089D0C46002B4ED194468C45F5
:1002D0008646B2FA82F262D94AB1C2F12003914055
:1002E00020FA03F30CFA02FC194300FA02FE4FEA6B
:1002F0001C471FFA8CF6B1FBF7F44FEA1E4307FBCD
:10030000141143EA014304FB06F199420AD91CEB9C
:10031000030304F1FF3080F01281994240F20F8113
:10032000023C6344591A1FFA8EF3B1FBF7F007FB46
:10033000101143EA014300FB06F69E420AD91CEB6A
:10034000030300F1FF3180F0FC809E4240F2F9800F
:10035000634402389B1B40EA044000211DB1D34096
:100360000022C5E90032BDE8F0878B4205D90DB106
:10037000C5E9000100210846F5E7B3FA83F1002939
:1003800046D1A34202D39042C0F0F080861A64EBBB
:1003900003030120002DE6D0C5E90063E3E7002A4E
:1003A00040F09080A1EB0C044FEA1C481FFA8CF738
:1003B0000121B4FBF8F64FEA1E4308FB164443EA5A
:1003C000044307FB06F0984208D91CEB030306F12F
:1003D000FF3402D2984200F2CD8026461C1A1FFA42
:1003E0008EF3B4FBF8F008FB104443EA044300FB2F
:1003F00007F79F4208D91CEB030300F1FF3402D238
:100400009F4200F2B0802046DB1B40EA0640A5E791
:10041000C1F120068B4022FA06F71F4320FA06FCA2
:1004200004FA01F343EA0C03F44000FA01F8380C33
:100430004FEA1349B4FBF0FE1FFA87FC00FB1E4491
:1004400049EA04440EFB0CF9A14502FA01F20AD96B
:100450003C190EF1FF3A80F08480A14540F2818082
:10046000AEF1020E3C44A4EB09041FFA83F9B4FB7D
:10047000F0F300FB134449EA044403FB0CFCA445DD
:1004800007D93C1903F1FF3067D2A44565D9023B77
:100490003C4443EA0E40A0FB0293A4EB0C049C42B4
:1004A000CE469C4651D34ED055B1B8EB0E0364EB0B
:1004B0000C0404FA06F6CB401E43CC40C5E90064A8
:1004C000002150E7C2F1200320FA03F10CFA02FCEC
:1004D00024FA03F394400C434FEA1C4800FA02FE4E
:1004E0001FFA8CF7B3FBF8F008FB1031230C43EA3A
:1004F000014300FB07F1994208D91CEB030300F10B
:10050000FF362CD299422AD9023863445B1AA4B22E
:10051000B3FBF8F108FB113344EA034401FB07F392
:10052000A34208D91CEB040401F1FF3613D2A34205
:1005300011D902396444E41A41EA004139E704461A
:10054000F0E6084606E7C845AED2B9EB020E63EB0B
:10055000070C0138A8E73146EDE7034699E7304636
:10056000D4E7D6467FE7634402384DE70646234684
:1005700008460FE7023E634430E700BF704700BF04
:10058000DFF834D0002103E00C4B5B5843500431BA
:100590000B480C4B42189A42F6D30B4A02E0002358
:1005A00042F8043B094B9A42F9D303F041F91CF09D
:1005B00029FB00F0AFFD704700000320180F07086B
:1005C000000000206401002064010020302601208A
:1005D000FEE7704708B500F0CFFBBDE8084000F02B
:1005E0005BBB00F0CBBB704710B5042104461BF089
:1005F000D4FF204610BD000038B50C4B0C4C1880C1
:100600000C4B822019806368984740F6110398428A
:100610000AD1094D23682C60822098472B688220DC
:10062000DB689847002038BD0120FCE78A010020E4
:100630004C000020880100208C0100204FF4A071A4
:10064000F020FFF7D9BF0000F7B5334D2B68044603
:100650001B6982209847208000284AD02B680DF122
:1006600006025B6901A982209847BDF8063040F672
:10067000746293423FD9ADF80620BDF80630D21A15
:1006800092B20A2A3DD90B23B2FBF3F2234B1B880B
:100690009A4201D9013B9AB2BDF8043040F6B83114
:1006A0008B4230D8C3F571630E339BB20F21B3FB7D
:1006B000F1F31B4909888B4201D901398BB2194EDC
:1006C000194D30682F68834281B28CBF591AC91AFC
:1006D000B8B2BA428CBF101A801A89B280B20144F3
:1006E0000529C8BF33603368C8BF2A6063802B68A0
:1006F000A38003B0F0BDB32B9CBFB423ADF806308C
:10070000BBE70022C8E7C3F56D6308339BB20E2B2D
:10071000CCD80023D3E700BF8C0100208801002043
:100720008A010020840100208001002037B568463E
:100730000D461446FFF788FFBDF8000030B1BDF844
:1007400002302B60BDF804302360012003B030BDBF
:10075000032821D8DFE800F0020B12190F4B1A68AA
:10076000B2FA82F2520904210D4803F0DBBE0B4BB2
:100770005A68B2FA82F252090821F5E7074B9A68E3
:10078000B2FA82F252091021EEE7044BDA68B2FAAB
:1007900082F252092021E7E7704700BF9001002054
:1007A00000100240032821D8DFE800F0020B1219E4
:1007B0000F4B1A68003A18BF012204210D4803F0BC
:1007C000B1BE0B4B5A68003A18BF01220821F5E769
:1007D000074B9A68003A18BF01221021EEE7044B3C
:1007E000DA68003A18BF01222021E7E7704700BF0E
:1007F000900100200010024003280DD8DFE800F02F
:100800000206080A0421054803F091BE0821FAE710
:100810001021F8E72021F6E7704700BF00100240E2
:1008200008B5032811D8DFE800F0020A0C0E0421F5
:10083000074803F071FE431E5842584108BD082185
:10084000F6E71021F4E72021F2E70020F3E700BFEC
:100850000010024070B5084D00240126E0B2FFF7F9
:10086000DFFF18B12B68012B18BF2E600134052C57
:1008700005F10405F2D170BD90010020012380F83C
:10088000781080F87930704700207047034B41643E
:10089000003918BF01211970704700BFFF190120EE
:1008A00000207047836B0BB10846184770474068BB
:1008B00003689B69184770477047704710B5044636
:1008C00000F020FB23680349D3F88C302046BDE8B4
:1008D00010401847000000D008B503680446D3F85C
:1008E00080309847236820469B6F984700F0ECF8CB
:1008F000236820461B6F9847292000F0D9FE00F09E
:10090000E3F8236820461B6F9847F8E710B50446C4
:1009100008F0F4FF23682046D3F8AC30BDE810405F
:10092000184700F0B5BA00F0B9BA00F0D3BA00F039
:100930008DBA00F0DFBA00F0D1BA00F08FBA08F03B
:1009400049BA10B57C2104461BF027FE204610BD95
:1009500010B590F8341090F878400C4B8C421A780F
:1009600009D03AB90A4A0B491488088810800C80CB
:1009700001221A7010BD002AFCD0054A05491488CE
:10098000088810800C800022F3E700BFF8190120CE
:10099000F4190120F619012070B50D46194635B934
:1009A000094B0A4A0A4840F2D2211BF025FEC0E951
:1009B0000F52084B003A18BF01221A700368BDE8B5
:1009C0007040D3F88C30184754D701088CD70108F1
:1009D000DAD70108FE19012008B5094B1B888B42A4
:1009E00003D8084B1B88934205D9074B074A084890
:1009F0009E211BF001FE074B1980074B1A8008BD92
:100A0000F4190120F61901201FD8010882D8010825
:100A1000DAD70108FA190120FC190120034690F8E1
:100A20007A0018B1586803681B68184770470000BF
:100A3000012108B50022084605F06FFE0A4B186038
:100A400028B90A4B0A4A28210A481BF0D5FD002282
:100A50000421012005F009FF074B186018B9074B66
:100A6000034A2C21F0E708BDA4010020A0D9010809
:100A7000E9D9010818DA0108A001002067DA0108A5
:100A8000024B4FF0FF31186805F091BEA401002021
:100A9000014B186805F0B7BEA4010020024B0021ED
:100AA000186805F084BE00BFA4010020FFF7F0BF66
:100AB00003480449006800231A4605F011BF00BF2F
:100AC000A00100200400002013B5084C00231A46A2
:100AD00001A9206805F035FF20684FF0FF330022A0
:100AE00001A905F02EFF02B010BD00BFA00100203B
:100AF00005F007BE70470020704770477047002020
:100B00007047704708B5034A034B044822211BF085
:100B100073FD00BFCCDA0108A9DA01080ADB01087D
:100B200008B5034A034B044827211BF065FD00BFAD
:100B300057DB0108A9DA01080ADB010810B54421D6
:100B400004461BF02AFD204610BD000038B50446BF
:100B500021460025064B25720C306060657201222B
:100B600041F8203B09F008F8E562204638BD00BF97
:100B7000A0DB0108012070474020704700EB811086
:100B80000830704700EB8110083070470120704733
:100B90004FF43E7070474FF43E7303FB0100083082
:100BA00070474FF43E7303FB01000830704701208B
:100BB00070471020704700EB01100830704700EBC1
:100BC000011008307047084601F026BB10B5034BF2
:100BD0000360044607F053FE204610BD58DC0108B0
:100BE00010B50446FFF7F2FF204648211BF0D5FC64
:100BF000204610BD10B5034B0360044607F03FFECE
:100C0000204610BD24DC010810B50446FFF7F2FFB2
:100C100020464FF440711BF0C0FC204610BD000080
:100C200010B5034B0360044607F029FE204610BDB3
:100C3000F0DB010810B50446FFF7F2FF204618214B
:100C40001BF0ABFC204610BD10B5084B03600446FA
:100C500000F54B70FFF7BAFF04F12C00FFF7CAFF55
:100C600004F11400FFF7DCFF204610BD8CDC010806
:100C700008B50248FFF7E8FF08BD00BFFC020020EE
:100C800010B50446FFF7E0FF204640F2DC411BF0C0
:100C900084FC204610BD00002DE9F34101F002F96B
:100CA000054601F003F90024014623462846224662
:100CB00000940DF0FDFF254B254A264D1A60204675
:100CC00001F036FF24480DF05BFF2B68BFF35B8F0C
:100CD000DB0735D428461BF062FC88B31F4C204B41
:100CE000236004F5607604F1140004F12C0804F587
:100CF0004B776060C4F80880E760266107F0C0FDAC
:100D0000184B6361404607F0BBFD174BE362384662
:100D100007F0B6FD154BC4F82C3304F55D7001F0F7
:100D200087FF224604F55D71304601F077FF3046BB
:100D300001F072FA0E481BF07DFC28461BF03BFCCC
:100D40000C4802B0BDE8F041FFF7B8BD5C1A0120C5
:100D500024020020F802002008000020FC020020ED
:100D60008CDC0108F0DB010824DC010858DC0108F8
:100D7000710C0008A8010020704700000148FFF72F
:100D8000ABBD00BFA801002070B5224E224C234D00
:100D9000234B23603046FFF7D9FE284612F05AFA5B
:100DA000204B2148DC6000224FF48071C3E912120D
:100DB0001E491A86C3E91A121D4999671D4983F80D
:100DC00058200B60F02101801B485A6601801B48A7
:100DD00083F870204FF4A071C3E90422C3E906220E
:100DE000C3E90822C3E90A22C3E90E22C3E910229B
:100DF000C3E91422C3E917225A67C3E901650180D8
:100E00000F4801800F490A70012283F834200E4AEE
:100E10001A6070BDB0020020F402002028020020F9
:100E200044D70108A8010020F419012001000001A5
:100E300000000101001A0120FA190120F619012011
:100E4000FC190120F8190120D0D80108024B90228A
:100E500083F85823704700BF00E100E0094A0A49BF
:100E6000D3680A48C3F30A03013B9BB20B801169A4
:100E7000C1F30A01013901801364536B43F001038C
:100E80005363704700680140DA070020D80700204C
:100E9000014BD3F8AC00704700680140024B0122BF
:100EA000C3F8AC105A62704700680140064B586C9A
:100EB000DB68C3F30A0380B20133984226BFC01A2D
:100EC00080B20020704700BF0068014007F0BEBF3D
:100ED00007F0C8BF07F084BF08F0E5B8044B4FF037
:100EE0008072C3F88820BFF34F8FBFF36F8F7047B6
:100EF00000E100E0024B4FF080729A60704700BF43
:100F000000E100E070B5044607F0B9FF23685D6EAC
:100F10000AF056FE01462046A8470E4BA3632368FD
:100F20002046D3F89C3098474FF6FF73984205D07F
:100F3000094B1B7813B9012384F848302368D3F890
:100F4000885000232046AC461A46BDE870404FF05A
:100F500050416047F10A0008FE19012010B5144CF9
:100F6000236823B3134B144A1B6C11888B4213D193
:100F7000124B198804F0E8F8226892F86A300133BD
:100F800082F86A30FFF794FD206808F0B7FCBDE8EE
:100F900010400020FFF7DCBB04F0D6F8206803689F
:100FA0001B6A9847BDE810400020FFF7FBBB10BD4F
:100FB000001A012000680140DA070020D80700204D
:100FC00007B5064BADF806001B68054801220DF178
:100FD000060104F02FFE03B05DF804FB0C000020B6
:100FE0006C08002008B5054C20464FF4005103F072
:100FF0009EFA4FF4FA7005F084FBF5E70018024002
:10100000F7B50023194E1A4D00931A481A4F0121C3
:1010100003F082FA012805D138680A2300226946C4
:1010200005F05EFC304602F0F7FC284602F0F4FCC6
:101030000121304602F06EFD0121284602F06AFDD2
:10104000304602F0BAFD0446284602F0B6FDA4B2CE
:1010500044EA00440A2338680194002201A905F0FB
:101060003FFC642005F04DFBCFE700BF500A002095
:10107000080A002000000240E007002030B595B0CB
:10108000102200210AA81BF0BEFC1422002103A894
:101090001BF0B9FC00241D4B01941A6C42F08052E5
:1010A0001A641B6C03F080530193019B184B02944C
:1010B0001A6842F440421A601B6803F440430293EA
:1010C0000122029B4FF48033CDE9082302254FF41F
:1010D0008003CDE90E5308214FF4A873CDE9101316
:1010E00008A804231393129504F04CF80F23CDE9BC
:1010F00003354FF4A0504FF48053CDE9060305218A
:1011000003A8059404F01AFA15B030BD0038024067
:10111000007000402DE980489BB002F097FBFFF77C
:10112000ADFF142200210DA800241BF06CFCC84B5D
:1011300000941A6BC748C84E42F010021A631A6B2B
:1011400002F010020092009A01941A6B42F0200201
:101150001A631A6B02F020020192019A02941A6B30
:1011600042F080021A631A6B02F080020292029A25
:1011700003941A6B42F004021A631A6B02F0040221
:101180000392039A04941A6B42F001021A631A6BD9
:1011900002F001020492049A05941A6B42F00202D2
:1011A0001A631A6B02F002020592059A06941A6BF2
:1011B00042F040021A631A6B02F040020692069A4D
:1011C00007941A6B42F008021A631B6B03F00803C2
:1011D000079322463C21079B03F0A4F99F4822462F
:1011E000042103F09FF99E4822464FF4405103F03A
:1011F00099F922469B484FF40051012503F092F9DA
:101200004FF003093C239348CDF840900DA94FF0CF
:10121000020A0427CDE90D350F9403F099F88F48A1
:10122000CDF840A00DA9CDE90D750F9403F090F80D
:101230004FF440538A480DA9CDE90D354FF4005BBA
:10124000CDE90F4A03F084F80DA98648CDE90DB524
:10125000CDE90F4403F07CF88348844B036002F02F
:101260009DFD834A834B3462C6E9002330464FF428
:101270008043C6E90434C6E90244C6E9064403F0E3
:101280005FFB1021304603F0A3FD2146304603F0FA
:10129000BEFD7948794984624FF48273C0E9001336
:1012A0004FF400761823C0E906630A23744EC36224
:1012B000C0E90244C0E90444C0E9084404F05EFC0B
:1012C000704BC6F828B04FF01008C6E9003540232F
:1012D000C6E904834FF4C073C6E906344FF40063D3
:1012E000C6E908340DA907233046CDE91039CDE908
:1012F0000E374FF0080BC6E90247CDE912AACDF828
:1013000034A004F01FFB4FF6FF7209A93046CDE967
:101310000AB5089409950C9404F034FB284602F0B1
:10132000C1FA4FF6FF7209A93046CDE909ABCDE904
:101330000B5404F027FB4FF6FF7209A93046CDE9A4
:10134000099BCDE90B7404F01DFB4FF40C7308935B
:10135000089B0C934FF6FF7209A93046CDE9097B33
:101360000B9504F00FFB40F26A51304604F028FB65
:10137000342221460DEB02001BF045FB424E434B4D
:101380003461C6E900340923C6E905351D2340F25E
:101390000D1CC6E9073940F24313C6E909C340F200
:1013A000171E40F247133046C6E90BE3C6E9024474
:1013B000B48686F8364003F0CFFDFF21F022CDE958
:1013C00012144FF005094FF480614FF4A073CDE97A
:1013D0000E24CDE91419CDE916420DA92246304656
:1013E000CDE9103A2A4E18930D94ADF864408DF86B
:1013F000664003F07CFE274B33601B6898473368D8
:10140000254EDB689847254B3046C6E90034C6E9CF
:1014100002A4C6E90A4AC6E90C4402F0CFFC2946F8
:10142000304602F083FD1E4EDFF878A0424621468A
:101430000DA81BF0E8FA4FF48033C6E900A34FF083
:10144000007BDFF864A0C6F808B0304634612DE0B8
:1014500000380240001002406C09002000080240E1
:10146000000C024000180240000A00200030024038
:10147000005C0040A08601006C0800200050014084
:10148000F0070020400100A0C408002000680140CF
:10149000DC07002014000020C009002000B002403A
:1014A000500A0020002001400100000F347686F829
:1014B0002040F462C6F828A0F460F56186F8304058
:1014C000756102F003FA0D220DA93046CDE90D2514
:1014D0002C4E0F9402F074FB214642460DA81BF0DF
:1014E00092FA294AC6F808B04FF480333046C6E96C
:1014F0000023C6E90AA43461347686F82040F460FB
:10150000F56186F83040756102F0E0F90DA93046CA
:10151000CDE90D95DFF8A4B00F9402F051FB1B4804
:101520004FF4E133C0E900B30C23C0E90534C0E94E
:1015300002440461C46104F099FFFFF74BF8FFF720
:1015400048F805F06BF8124A3946404605F08DF927
:10155000104B114A18602146104805F08BF8104BCB
:10156000104A18602146104805F084F80F4B104AC5
:10157000186021460F4805F07DF80F4B186005F004
:101580005FF8FEE7080A002000210140240800203F
:10159000D8DC0108E007002038DD0108E50F00086D
:1015A000EC07002014DD0108E3050008E80700202F
:1015B000F0DC010801100008E407002000100140E1
:1015C000704770477FB5094B8DF817201B68029351
:1015D0000DF117020123009201930A4601460448C7
:1015E00003F056FA07B05DF804FB00BF10000020BE
:1015F0006C0900207FB500238DF81730084B1B685D
:1016000002930A4601230DF117010091019301464F
:10161000044803F0CDFA9DF8170007B05DF804FB0D
:10162000100000206C0900201FB5084C24680092AF
:10163000CDE901340A4601230146054803F0B8FA12
:10164000003818BF012004B010BD00BF10000020FA
:101650006C09002002F026B910B5064C0022204685
:10166000042102F05FFF20460122BDE81040042162
:1016700002F058BF0008024038B50B4D0446012265
:101680000A484FF4005102F04DFF00220421284681
:1016900002F048FF2046FFF793FC28460122BDE8F0
:1016A0003840042102F03EBF00080240000C024016
:1016B00038B50B4D044600220A484FF4005102F0A1
:1016C00031FF00220421284602F02CFF2046FFF7BC
:1016D00077FC28460122BDE83840042102F022BFF1
:1016E00000080240000C0240F7B5144E144F0546A6
:1016F0000C4630460022042102F014FF00224FF471
:101700000051384602F00EFF2846FFF759FC0D4BFA
:101710000D481B68224601A904F037FC3846012217
:101720004FF40051019C02F0FDFE304601220421DD
:1017300002F0F8FE204603B0F0BD00BF00080240F2
:10174000000C02400C0000206C08002002F0AAB837
:101750000268034B9A4201D102F092B8704700BF71
:10176000001000407047000082B00E4B0022009233
:10177000596C41F480415964596C01F480410091E5
:1017800000990192196C41F0805119641B6C03F0AF
:1017900080530193019B0F216FF0010002B002F012
:1017A000BDBA00BF0038024010B514228AB004460A
:1017B00000210DEB02001BF026F92368214A934219
:1017C0001FD1214B2148002101915A6C42F48072B3
:1017D0005A645A6C02F480720192019A02911A6B57
:1017E00042F004021A631B6B03F004030293082106
:1017F000029B0323CDE9051305A902F0A9FD0AB058
:1018000010BD134A9342FAD10F4B124800210391A5
:101810005A6C42F400725A645A6C02F400720392D9
:10182000039A04911A6B42F001021A631B6B03F0D6
:1018300001030493049B20220323CDE9052305A97A
:10184000DBE700BF002001400038024000080240F2
:1018500000210140000002400268094B9A4282B018
:101860000BD100230193074B1A6B42F480521A6389
:101870001B6B03F480530193019B02B0704700BFC0
:10188000003002400038024007B50F4B02689A4210
:1018900016D10022A3F5F0430192196B41F4000127
:1018A00019631B6B03F40003019305215A20019B6C
:1018B00002F034FA5A2003B05DF804EB02F060BA8B
:1018C00003B05DF804FB00BF00B002402DE9F04317
:1018D000044689B01422002103A81BF094F8226862
:1018E000244B9A4243D1244C244800250095236B75
:1018F00043F004032363236B03F004030093009B72
:101900000195236B43F001032363236B03F0010371
:101910000193019B4FF012094FF400734FF001083F
:101920000327042603A9CDE90339CDE905870796E6
:1019300002F00EFD4FF480731148079603A9CDE91C
:101940000339CDE9058702F003FD0295236C43F4CA
:1019500000032364236C03F400030293029B236AB5
:1019600043F400032362236A23F40003236209B0D3
:10197000BDE8F083005C00400038024000080240EF
:1019800000000240F0B599B004461422002107A8D7
:101990001BF039F830220DEB020000211BF033F868
:1019A00022685E4B9A4240F0B78008230C93C02314
:1019B0001093042312930CA84FF40033159303F0F3
:1019C00095FE08B1FFF7CEFE554B56480024009413
:1019D0005A6C42F080625A645A6C02F08062009243
:1019E000009A01941A6B42F020021A631A6B02F0FB
:1019F00020020192019A02941A6B42F001021A63CA
:101A00001A6B02F001020292029A03941A6B42F0DE
:101A100002021A631A6B02F002020392039A049400
:101A20001A6B42F040021A631A6B02F040020492F1
:101A3000049A05941A6B42F004021A631A6B02F0BE
:101A400004020592059A06941A6B42F008021A6382
:101A50001B6B03F00803069302250E26069B0B96CC
:101A60004FF4806307A9CDE90735CDE9094502F0B8
:101A70006FFC41F658032C480B9607A9CDE90735B2
:101A80000927CDE9094502F063FC032327480B979A
:101A900007A9CDE90735CDE9094502F059FC4FF416
:101AA000706322480B9607A9CDE90735CDE90945B2
:101AB00002F04EFC4FF40C631D480B9607A9CDE9CC
:101AC0000735CDE9094502F043FCC02319480B96C0
:101AD00007A9CDE90735CDE9094502F039FC08230E
:101AE00015480B9607A9CDE90735CDE9094502F060
:101AF0002FFC4FF4A0530E480B9707A9CDE90735EB
:101B0000CDE9094502F024FC58202246052102F0C7
:101B100005F9582002F034F919B0F0BD0068014011
:101B2000003802400014024000000240000402405D
:101B30000018024000080240000C024010B50446A4
:101B400088B01422002103A81AF05DFF2268144B0C
:101B50009A4223D103F56843002101915A6C114840
:101B600042F480125A645A6C02F480120192019A73
:101B700002911A6B42F020021A631B6B03F02003E0
:101B80000293029B4FF4607202230321CDE90323E9
:101B90000523CDE9061303A902F0DAFB08B010BD56
:101BA000005001400014024010B5044688B01422D1
:101BB000002103A81AF027FF2268144B9A4223D170
:101BC00003F59433002101915A6C114842F0100240
:101BD0005A645A6C02F010020192019A02911A6B37
:101BE00042F001021A631B6B03F001030293029B94
:101BF0004FF4C06202230321CDE903230723CDE97B
:101C0000061303A902F0A4FB08B010BD00100140A8
:101C1000000002402DE9F04186B0002303932B4BD6
:101C20001C68002C4FD14FF00108C3F80080284BEE
:101C300000949A6B274842EA08029A639B6B03EA76
:101C400008030093022703260C25009B01A94FF6E9
:101C50003F03CDE90137CDE9046502F079FB1E4869
:101C6000059501A9CDE90187CDE9034602F070FB96
:101C700048F233131948059501A9CDE90137CDE99B
:101C8000034602F065FB4FF683731548059501A9DD
:101C9000CDE90137CDE9034602F05AFB4CF203735C
:101CA0001048059501A9CDE90137CDE9034602F0B9
:101CB0004FFB60230C48059501A9CDE90137CDE91B
:101CC000034602F045FB06B0BDE8F081980A00200B
:101CD0000038024000140240000802400018024090
:101CE00000100240000C02400004024070B588B0B1
:101CF00000230293204B1A6C42F010021A641B6CF2
:101D000003F010030293054601A903A8029B03F008
:101D1000CFFC069B4BBB03F0ABFC184E184B33605B
:101D200040F2E733F360174BB0FBF3F3013B736012
:101D3000304600233361B360B36104F00BFB04460B
:101D400080B9304604F0C8F9044658B9362002F08C
:101D500017F80F2D0DD822462946362001F0DEFF58
:101D6000094B1D60204608B070BD03F081FC4000A7
:101D7000D3E70124F6E700BF003802409C0A0020A8
:101D80000010004040420F007C0000207047FEE73A
:101D9000FEE7FEE7FEE77047014804F0DBB900BF4D
:101DA0009C0A0020014803F045B900BFC408002088
:101DB000014802F031B800BFC0090020012070477F
:101DC00008B51AF019FF162303604FF0FF3008BD65
:101DD00008B51AF011FF16230360FEE770B50D4633
:101DE00014460E46731B9C4201DC204670BDAFF3C7
:101DF000008006F8010BF5E770B50D4614460E4657
:101E0000731B9C4201DC204670BD16F8010BAFF33A
:101E10000080F5E74FF0FF3070474FF400534B6000
:101E20000020704701207047002070470A4A11685F
:101E300008B5034609B909491160106869460344A9
:101E40008B4206D91AF0D8FE0C2303604FF0FF3006
:101E500008BD1360FCE700BFE40A00203026012023
:101E6000704710B5042104461AF097FB204610BDB8
:101E700008B5032913D8DFE801F002060A0E00F0C6
:101E8000A3FE006808BD00F09FFE4068FAE700F07E
:101E90009BFE8068F6E700F097FEC068F2E700203E
:101EA000F0E700000048704770DD0108202070470F
:101EB00013B5002451B1036801948DF8034001AAC1
:101EC0009C680DF10303A04702B010BD0846FBE774
:101ED000C0897047008A7047C08870478088704703
:101EE000807A00F07F007047807AC0097047002038
:101EF000704700009FED010A704700BF000000001E
:101F0000704710B5082104461AF047FB204610BD63
:101F10000020704781807047C18070470181704701
:101F2000418170477047704770477047704710B4E1
:101F3000C4880368121B84885B6D091B12B25DF8AC
:101F4000044B09B218474FF6FF7383814FF0FF33FC
:101F500003621368C361106070477047704700F5F3
:101F600098730868496803C37047704770474160B9
:101F700070477047064BC0F84C310023C0F8503111
:101F800000F5A273C0F84801C0F84031704700BFA7
:101F9000552000080123037270477047704710B442
:101FA000C26841685410034601EB6200D20748BF83
:101FB0000A599B685DF8044B48BFD358184703463D
:101FC000406830B19A681AB9D86800F001007047CB
:101FD0000120704710B50C2104461AF0DEFA2046A5
:101FE00010BD10B5102104461AF0D7FA204610BDD6
:101FF00010B54FF4AE7104461AF0CFFA204610BD6A
:1020000010B509F0DDFD0368BDE81040DB6B184733
:1020100090F8252012B103685B691847704790F863
:1020200025201AB190F8242002B11860704710B52D
:102030000446D0F8400158B10368DB68984738B1CE
:10204000D4F8400103689B6898470023C4F84031E6
:1020500010BD00002DE9F14FD0E9556A0746B06880
:1020600003681B6A9847B0F5327F05D2444B454A56
:10207000A32145481AF0C0FA706803681B6A9847A4
:102080000F2803D8414B3F4AA421F2E7F0680368C8
:102090001B6A98470B2803D83D4B3A4AA521E8E72D
:1020A00009F08EFDDFF8F090043009F0C7FDD9F893
:1020B000000010B10368DB689847D9F8000010B140
:1020C00003681B689847DFF8D480D8F8000010B187
:1020D00003685B699847D7F83C0110B103685B68F7
:1020E0009847D8F8000010B103681B689847D7F8E4
:1020F0003C0110B103689B689847F06803680021B1
:102100005B6A98474FF0000B224BC0F804B00446BE
:1021100080F808B00360B068036859465B6A984766
:10212000054600F0F9FE7068036859465B6A9847F7
:102130002946064600F090FD331DC7F83C61C9F8FA
:102140000040C8F80050CAF800302B68C6F808A054
:102150002846DB68EE639847336830461B6898472B
:10216000214628460BF040FA236820461B69984711
:1021700023685B69204601B0BDE8F04F184700BFF7
:1021800000E001088EE0010860E10108A7E1010814
:102190004AE2010864E30108401A01203C1A0120C8
:1021A000044B1B6893F858200AB1D86C00B99868A2
:1021B000704700BF001A0120F8B5044617460E46C6
:1021C00009F00AFE104B1C60104B2360104B0025D9
:1021D000C4E951350F4BC4E95355186803682946C3
:1021E0009B68C4E94F55C4E955769847284600F0E6
:1021F0009FFCFFF7D5FF12F05EFEFFF7D1FF12F054
:10220000D5FE2046F8BD00BF4C1A012010E301089E
:10221000F8E20108001A0120064BC0F84C310023F7
:10222000C0F8503100F5A273C0F84801C0F8403141
:10223000704700BF55200008406A7047806A7047A9
:1022400070478B88C0690A68DB0A50F82300104485
:10225000704710B50446BAB1107B68B1537BD27A8F
:102260001B0203F4E0631A43236A03EB82031A8818
:102270008A4202D193F9020010BD05D8013880B21C
:1022800004330028F3D1F7E70020F5E710B52C213F
:1022900004461AF082F9204610BD000030B58BB01C
:1022A0000446BDF860500895BDF85C5007959DF850
:1022B000505006959DF84C5005959DF84850049552
:1022C0009DF8445003959DF8405002959DF83C5070
:1022D0000195BDF8385000950AF0E0FD064B2360EB
:1022E000159BE361169B2362199B63621A9BA36291
:1022F00020460BB030BD00BF88E30108704770472F
:1023000070477047704770B5036804461B6B1546ED
:1023100098472368294620465B6BBDE87040184704
:10232000002310B5C0E90133C0E90333C0E9073326
:10233000C0E905334FF480738384064B03600B8838
:10234000C384FF23044680F8283007F0E2FE2046CD
:1023500010BD00BF20EB010830B50368018185B0D6
:102360006D460146D3F8843004462846984795E8E0
:1023700007003C3484E8070005B030BD30B5036881
:10238000418185B06D460146D3F884300446284625
:10239000984795E807003C3484E8070005B030BD55
:1023A0000022028042808280C280704780F836100E
:1023B000704770B5036804461B6B15469847236841
:1023C000294620465B6EBDE87040184700207047E4
:1023D000806C704770477047704710B54C210446B9
:1023E0001AF0DBF8204610BD10B54FF41D710446FD
:1023F0001AF0D3F8204610BD08B5FFF709FE08BD56
:10240000036870B55E6B124B1B6804468DB22BB926
:10241000104B114A6C2111481AF0EEF81049828DC8
:102420000988914203D80F4B0B4A6D21F3E713F84B
:1024300012200D4B1B6853F8220003681B6B984752
:10244000291A3346204609B2BDE87040184700BF3C
:10245000501A0120E8E301082AE4010865E40108B4
:10246000541A0120ACE40108581A012000224FF050
:10247000FF31C0E900218260704700000022C0E9FE
:102480000122C0E90322C0E90522C0E907224FF476
:1024900080728284014A0260704700BF40E50108F3
:1024A00037B54FF6FF7304460D4601A9ADF8043069
:1024B000FFF736FF084B23604FF0FF320023C4E9DB
:1024C0000B322A7884F83420204684F83530E386AD
:1024D00084F8383003B030BD3CEA010810B526223C
:1024E000044600211AF08FFA2046FFF7C7FF0A4B77
:1024F000A3624FF6FF73A3854FF47F020023C4E964
:102500000C32064A226023874FF0FF32C4E91023C1
:10251000E363A364204610BDF8DF0108A8E50108C5
:102520002DE9F04F04468DB0A04600250AF0B0FE1C
:10253000C04BE56348F8403B2622294640461AF046
:1025400062FA4046FFF79AFFBB4B2364FF2384F8EF
:10255000663004F16C034FF6FF760AA91846A566AB
:102560000493ADF82860FFF7DBFE04F1980304F153
:10257000C40918460AA90593ADF828600126FFF79B
:10258000CFFE0AA948468DF82860FFF789FF04F5B9
:10259000807304F59E7B18460AA904F5BC7A019362
:1025A0008DF82860FFF77CFF0AA958468DF828604F
:1025B000FFF776FF0AA950468DF82860FFF770FFF5
:1025C00004F5DA7318460293FFF788FF04F50073E9
:1025D00018460393FFF782FF2A4640462946FFF735
:1025E00092FE40464FF4A071FFF798FC4046F02160
:1025F000FFF796FC271D4FF07F43A3664146384600
:1026000006F052F92A4604986FF01001FFF77BFE9E
:102610004FF002030498ADF828300AA907F079FDBD
:102620000499384606F040F99D220598D521FFF718
:102630006AFE0F230598ADF828300AA907F069FD56
:102640000599384606F030F94846B8222946FFF782
:102650005AFE1A224846182107F06EFB48463146BA
:1026600007F07DFB2B4632464846294607F0BCFA68
:102670004946384606F018F901989F220B21FFF7CA
:1026800042FE15220198142107F056FB01983146AD
:1026900007F065FB2B4632460198294607F0A4FA5D
:1026A000019984F82551384606F0FEF858468C22E8
:1026B0001221FFF728FE13225846122107F03CFB97
:1026C0005846314607F04BFB2B46324658462946C2
:1026D00007F08AFA5946384606F0E6F87822F321E0
:1026E0005046FFF710FE04220321504607F024FB5A
:1026F0003146504607F033FB2B46324629465046BA
:1027000007F072FA5146384606F0CEF812220298C7
:10271000DFF840B12221FFF7F6FD4FF07F43C4F808
:10272000E431D4F8B4310299D3F88430A4F8E851F4
:102730000DF118084046984798E8070004F5F8732B
:1027400083E80700DBF8003004F513792BB93B4B25
:102750003B4A60213B4819F04FFFDFF8FCA0BAF874
:102760000030032B03D8384B354A6121F2E7374B51
:102770000321186800F018FA354A03460A21484632
:102780000CF0F0F90298C4F8FC9107F0DBFBDFF8DD
:10279000CC900298CDF8289004230AA9ADF82C30EB
:1027A00007F0F0FB0299384606F07EF803982D22D8
:1027B0002221FFF7A8FDD4F800320399D3F8843022
:1027C000A4F834524FF07F42C4F830224046984774
:1027D00098E8070004F50F7383E80700DBF8003082
:1027E00004F51875002BB2D0BAF80030012BBAD915
:1027F000164B3146186800F0D7F9154A03460A21EE
:1028000028460CF0AFF90398C4F8485207F09AFB39
:102810004FF002030398ADF82C300AA9CDF82890A8
:1028200007F0B0FB3846039906F03EF820460DB09D
:10283000BDE8F08F38E60108B8EA0108E8E30108CE
:10284000EAE4010865E40108ACE401085C1A01202F
:1028500035E50108501A0120541A0120F8DF01085B
:102860007047000030B5164D2C68BFF35B8F14F035
:1028700001048FB020D1284619F091FEE0B13F232A
:102880000993104B0893104B104911480A940122E8
:10289000CDE906430423CDE903320A230093CDE9B1
:1028A0000B44CDE901440594FFF7F8FC094819F001
:1028B000C1FE284619F07FFE05480FB030BD00BFAD
:1028C000E80A0020BCFA0108CCFA010878F80108EF
:1028D000EC0A0020612800087047000030B5174D51
:1028E0002C68BFF35B8F14F001048FB022D128460F
:1028F00019F055FEF0B13F230993114B0893114B8A
:1029000007930123CDE9054304930423CDE9024352
:102910000F23009312230C490C480A941A46CDE960
:102920000B440194FFF7BAFC094819F083FE2846CE
:1029300019F041FE05480FB030BD00BF180B002054
:10294000C0FA0108D0FA010888F801081C0B002021
:10295000D92800087047000030B5164D2C68BFF329
:102960005B8F14F001048FB020D1284619F017FEB8
:10297000E0B13F230993104B0893104B10491148C5
:102980000A940122CDE906430423CDE9033228232A
:102990000093CDE90B44CDE901440594FFF77EFC9B
:1029A000094819F047FE284619F005FE05480FB002
:1029B00030BD00BF480B0020C4FA0108D4FA01085A
:1029C00084F901084C0B00205529000870470000CD
:1029D00030B5164D2C68BFF35B8F14F001048FB037
:1029E00021D1284619F0DBFDE8B13F230993104BB4
:1029F0000893104B07930123CDE905430493042367
:102A0000CDE902430F230C4900931522CDE90B4475
:102A10000A480A940194FFF741FC094819F00AFE9C
:102A2000284619F0C8FD05480FB030BD780B0020CE
:102A3000C8FA0108D8FA010894F901087C0B0020B3
:102A4000CD29000800207047002070470EB403B560
:102A500003AB002153F8042B01930AF047F802B0AE
:102A60005DF804EB03B070470CB407B504AB53F842
:102A7000042B01930AF03AF803B05DF804EB02B0BE
:102A800070470000436C10B5044673B3038F2BB935
:102A9000184B194AC521194819F0AEFDC38E00EB39
:102AA00043035B8C0BB30BF0B4FA238F012B03D8D9
:102AB000134B144ACB21EEE7E28E531C9BB2092B39
:102AC000194688BFA3F10A0104EB410140F63F100B
:102AD000498C814209D10A2B04EB420228BF002312
:102AE00004EB4303508C588451842046BDE81040C9
:102AF0000BF092B964E601086DE6010818E70108D9
:102B000062E7010870E701080BF04DB910B586B017
:102B100002AC84E806001A460AAB05930193099BB0
:102B200000932146089B08F0E9FB06B010BD0000A9
:102B300038B518BB124B13481C681349B4B122684E
:102B400022440260626822440A60A26814440F4B67
:102B500000221A8000F038F8054600F033F80C4BDC
:102B60001C600C4B1D600C4B188007E00B4B036086
:102B70000B4B0B600B4B1C68002CE8D138BD00BF21
:102B8000B40B0020AC0B0020A80B0020B00B0020E1
:102B9000501A0120581A0120541A0120F8FA01088D
:102BA000DCFA010864FB0108044B1B6853F82100A0
:102BB000034B1B6803EB4000704700BFA80B0020CD
:102BC000AC0B00200720704700487047B80B00206E
:102BD00010B5FFF783FE064C2060FFF7BDFE606076
:102BE000FFF740FEA060FFF7F3FEE06010BD00BFFE
:102BF000B80B0020704710B54FF4AE71044619F0C1
:102C0000CCFC204610BD10B50446D0F8580100F0A9
:102C100013F82046BDE8104009F06EB810B5044620
:102C2000FFF7CAFA014B2360204610BD4CE80108AB
:102C30000022C0E90022704770477047043870478F
:102C4000704710B51021044619F0A7FC204610BDAE
:102C5000A0F10400F5E7000000228260024A026051
:102C600018324260C1607047A0E80108094B19683A
:102C700010B54FF0E02209B9916919601968064C46
:102C8000926943F2390004FB010020F000405040FB
:102C9000186010BDDC0B00206D4EC64190F861310C
:102CA000F0B5002B37D0B0F84031B0F84441B0F95E
:102CB0004261B0F8422103F10A052344D0F88C4266
:102CC000A41B0A3B082CD8BF1B1BB0F8464102F1DD
:102CD0000A01C8BF083B22442DB209B21BB20A3A0E
:102CE000D0F8B84212B22CBBB0F99C70B0F8A0403A
:102CF000B0F99E60B0F8A2003C4424B23044BB421C
:102D000000B222DBA54220DCB2421EDB8142CCBFF6
:102D100000200120F0BDB0F80621B0F90451B0F850
:102D20000831B0F80A4102F10A012B4409B21BB282
:102D30002244D5E7B0F97C71B0F88041B0F97E61EA
:102D4000B0F882013C4424B2D8E70020E2E77047A3
:102D500000F1784343F6FE72934210B568D9A3F5AB
:102D60008041914266D9A3F50041914264D9A3F50F
:102D70004043934262D900F1774303F57F014FF658
:102D8000FE7291425CD903F57E0102F580329142D8
:102D900058D903F57C01914256D903F57A01914245
:102DA00054D903F57801914252D903F57601914245
:102DB00050D903F5740191424ED903F57201914245
:102DC0004CD9A0F1016043F6FE71884248D9A0F5C4
:102DD00080448C4246D9A0F500448C4244D9A0F5E9
:102DE0004040884242D903F56F004FF6FE71884299
:102DF0003ED903F56E0191423CD903F56C01914235
:102E00003AD903F56A01914238D903F56801914234
:102E100036D903F56601914234D903F56401914234
:102E200032D903F56200904294BF1720002010BDF4
:102E30000020FCE70120FAE70220F8E70320F6E78C
:102E40000420F4E70520F2E70620F0E70720EEE78C
:102E50000820ECE70920EAE70A20E8E70B20E6E78C
:102E60000C20E4E70D20E2E70E20E0E70F20DEE78C
:102E70001020DCE71120DAE71220D8E71320D6E78C
:102E80001420D4E71520D2E71620D0E7F7B5164F67
:102E900004460D460026AE4201D103B0F0BD4FF00E
:102EA000FF333868002201A903F04BFDBDF8043060
:102EB0003F2B08D894F8A4328BB984F861310123F0
:102EC00084F8253109E0C02B09D994F8A43233B92C
:102ED000C4F8AC32012384F8A4320136DBE70123C5
:102EE00084F861310023EBE7E007002010B5034BC5
:102EF00003600446FFF76EFA204610BDCCE80108D7
:102F000010B50446FFF7F2FF20464FF4327119F076
:102F100044FB204610BD000010B50446FFF700FB3F
:102F2000104B2360A1209C21C4E9A4014FF4A0729E
:102F30008C236A21C4E9A613C4E9A223012000233B
:102F4000C4E9AA030221C4E9AE3384F8A43240F2F2
:102F5000C643C4E9AC12C4F8A012C4F8C432204677
:102F600010BD00BFCCE80108F7B5054616460F4670
:102F700001F0A0F82846FFF7EBFE044605EB8600BB
:102F8000FFF7E6FE114B00221A6002221A61421C72
:102F9000121B01A918469C60DA6001F085F904460D
:102FA00060B101F0A3F803B0F0BD57F8242000236E
:102FB000022001F0C9F80028F3D10134A64205EB44
:102FC0008401F2DC01F088F80020ECE7C80B002057
:102FD0001FB503220191034801A9FFF7C5FF05B002
:102FE0005DF804FB00001E0810B5401A4FF6FF7391
:102FF000013A92B20C5841F8044B9A42F8D110BDF4
:1030000007B50448012201A9FFF7EEFF019803B0BC
:103010005DF804FB00001E0838B5D0F8BC3201335F
:10302000C0F8BC3203689B6B044698473A4B18685B
:1030300003F0B7FC014618B1236820461B6B984784
:10304000D4E9AD32002A42D0012A43D0D4F8B022CC
:103050009B1AC4F8B432323329DA23682046DB6B7A
:1030600098472368D4F8A052DB6B00F00100C4F845
:10307000B802204698470323B0FBF3F303EB430366
:10308000C01A23682844DB6BC4F8B0022046D4F889
:10309000885298471E23B0FBF3F202FB130028442A
:1030A000D4F8B852C4F8B402BDB1012D1DD02368C4
:1030B00020465B6B984794F8A4321BB123682046E6
:1030C000DB6A9847201DBDE8384009F039BEA4F8F6
:1030D0009C30BBE7A4F87C31B8E70123A4F89C003E
:1030E00084F8BD3084F89D51E1E72368A4F87C01A1
:1030F000DB6B20469847D4E9A6239B1A0133B0FB2B
:10310000F3F101FB130010440023A4F87E0184F8BE
:103110009D5184F8BD30CAE7E0070020194AD0F875
:10312000BC325343B3F1333F98BFD0F8C032D0F82C
:10313000C42298BF013370B598BFC0F8C032D0F830
:10314000C0329342044600F5137600F5DA7515DABD
:103150000D4A0A2100F518700BF004FD04F500700B
:1031600009F0EEFDD4F8C432074A30460A210BF0CC
:10317000F9FC2846BDE8704009F0E2BD002280F865
:103180002522F1E7CDCCCCCCC0E80108F8B5044647
:10319000384E0025FFF71FF9D4F8C43284F82551C2
:1031A00032460A2104F513700BF0DCFC04F5DA70EA
:1031B00009F0C6FDD4F8C03232460A2104F5187071
:1031C0000BF0D0FC04F1C40604F5007009F0B8FD62
:1031D00029463046B422FFF796F801231A462946BD
:1031E000304604F59E7606F0FFFCB4F98C2230469A
:1031F0001921FFF788F801231A462946304606F0C0
:10320000F3FC30460A2104F5807606F0A8FDB4F9F7
:10321000902230461521FFF776F801231A462946F9
:10322000304606F0E1FC30460A2106F098FD012701
:1032300004F5BC76B4F99422B4F9881284F82551C7
:1032400004F19800FFF75FF8B4F99C22B4F98812F2
:1032500084F8BD703046FFF756F8294630463B46A5
:103260003A4606F0C1FC30460A21BDE8F84006F0B7
:1032700076BD00BFC0E801082DE9F04105464FF0DA
:103280000108002600F59E7780F8256180F86181AD
:10329000384606F089FCD5F8AC32D5F88C22434488
:1032A00003FB03F46FF06301A4EB041494FBF1F44B
:1032B0001444C5F8AC326FF0090103EB831393FBA0
:1032C000F1F31C44C5F8A84224B2A24203DDA5F8DC
:1032D0004241BDE8F081A5F84221434642463146CD
:1032E000384606F081FC85F8A462C5F8A882F0E7AC
:1032F000F02070474FF4A07070472920FEF7D8B92E
:103300002820FEF7D5B908B5FEF7A6F9CA20FEF7C2
:10331000CFF9C320FEF7B0F90820FEF7ADF9502031
:10332000FEF7AAF9CF20FEF7C3F90020FEF7A4F9B3
:10333000C120FEF7A1F93020FEF79EF9ED20FEF73F
:10334000B7F96420FEF798F90320FEF795F91220EB
:10335000FEF792F98120FEF78FF9E820FEF7A8F931
:103360008520FEF789F90020FEF786F97820FEF720
:1033700083F9CB20FEF79CF93920FEF77DF92C204C
:10338000FEF77AF90020FEF777F93420FEF774F99A
:103390000220FEF771F9F720FEF78AF92020FEF7E8
:1033A0006BF9EA20FEF784F90020FEF765F90020AA
:1033B000FEF762F9B120FEF77BF90020FEF75CF919
:1033C0001B20FEF759F9B620FEF772F90A20FEF726
:1033D00053F9A220FEF750F9C020FEF769F910203A
:1033E000FEF74AF9C120FEF763F91020FEF744F911
:1033F000C520FEF75DF94520FEF73EF91520FEF7E2
:103400003BF9C720FEF754F99020FEF735F9362036
:10341000FEF74EF9C820FEF72FF9F220FEF748F923
:103420000020FEF729F9B020FEF742F9C220FEF78E
:1034300023F9B620FEF73CF90A20FEF71DF9A72074
:10344000FEF71AF92720FEF717F90420FEF714F902
:103450002A20FEF72DF90020FEF70EF90020FEF7D6
:103460000BF90020FEF708F9EF20FEF705F92B20F5
:10347000FEF71EF90020FEF7FFF80020FEF7FCF82B
:103480000120FEF7F9F83F20FEF7F6F8F620FEF7E8
:103490000FF90120FEF7F0F80020FEF7EDF8062006
:1034A000FEF7EAF82C20FEF703F9C820FEF74EF9E4
:1034B0002620FEF7FDF80120FEF7DEF8E020FEF7FB
:1034C000F7F80F20FEF7D8F82920FEF7D5F82420CA
:1034D000FEF7D2F80C20FEF7CFF80E20FEF7CCF85E
:1034E0000920FEF7C9F84E20FEF7C6F87820FEF74F
:1034F000C3F83C20FEF7C0F80920FEF7BDF8132002
:10350000FEF7BAF80520FEF7B7F81720FEF7B4F873
:103510001120FEF7B1F80020FEF7AEF8E120FEF72B
:10352000C7F80020FEF7A8F81620FEF7A5F81B2024
:10353000FEF7A2F80420FEF79FF81120FEF79CF892
:103540000720FEF799F83120FEF796F83320FEF7B2
:1035500093F84220FEF790F80520FEF78DF80C2036
:10356000FEF78AF80A20FEF787F82820FEF784F88D
:103570002F20FEF781F80F20FEF77EF81120FEF7CE
:1035800097F8C820FEF7E2F82920FEF791F8BDE889
:1035900008402C20FEF78CB808B5FEF75DF8032133
:1035A000D320FEF7A1F880B208BD10B5C4B2022244
:1035B00003212046FEF706F80A20FEF74BF82046C6
:1035C00000220321FDF7FEFFBDE810400220FEF7B8
:1035D00041B838B50446E4B2FDF7F2FF00212046B9
:1035E000FEF708F8012105462046FEF703F840EAF9
:1035F000052080B238BD10B5C4B240212046FDF789
:10360000F9FF030607D54C212046FDF7F3FF0038EC
:1036100018BF012010BD01224B212046FDF7D2FF2B
:10362000204600224B21FDF7CDFF0020F2E773B5C5
:103630000423C4B20E461546D7210DEB03022046E3
:10364000FDF7F2FF019B1BBA1A0DC3F30B23328067
:1036500020462B8001224B21FDF7B4FF00224B2195
:103660002046FDF7AFFF02B070BD000010B50A4A5A
:103670001378984204460DD0517888420AD00BB195
:1036800041B90123D454FDF79BFF2046BDE810400B
:10369000FFF78BBF10BD00BFE00B002010B5C4B218
:1036A00009212046FDF7A6FF40F00102D2B22046D4
:1036B0000921BDE81040FDF785BF10B5C4B209214E
:1036C0002046FDF797FF092100F0FE022046BDE8E5
:1036D0001040FDF777BF38B5C4B20D4620460A2129
:1036E000FDF788FF40EA0502D2B220460A21BDE874
:1036F0003840FDF767BF10B50446FDF762FF20466E
:103700001F21FFF7E8FF2046BDE81040FFF7C6BFC6
:1037100038B5C4B20D4620460A21FDF76BFF20EAFA
:103720000502D2B220460A21BDE83840FDF74ABF63
:1037300010B50446FFF7C1FF20461F21BDE8104029
:10374000FFF7E6BF10B5C0B20C460B21FDF752FFE4
:10375000204010BD1F21FFF7F5BF0A46C0B20B2164
:10376000FDF730BF1F21FFF7F8BF38B5C4B20D46D3
:1037700020461721FDF73EFF20EA0502D2B220467F
:103780001721BDE83840FDF71DBF70B5C4B206462D
:1037900004212046FDF72EFF042100F0FB02054620
:1037A0002046FDF70FFF3046F021FFF7DEFF05F062
:1037B000F80220460421FDF705FF4922202120467A
:1037C000FDF700FF0220FDF745FF204601222121E1
:1037D000FDF7F8FE20469A224121FDF7F3FE204630
:1037E00001224A21FDF7EEFE204601224B21FDF782
:1037F000E9FE204600224B21FDF7E4FE204601228F
:103800005621FDF7DFFE204601225821FDF7DAFEA2
:10381000204601224021FDF7D5FE2046FF220B2144
:10382000FDF7D0FEBDE870400220FDF713BF000099
:10383000054BD3F8882042F47002C3F888204FF07B
:1038400000629A60704700BF00ED00E008B50B4BC6
:103850001A6842F400721A601A6842F480621A60B0
:103860001A6842F480721A60032000F045FA0020C2
:10387000FEF73CFAFDF778FF002008BD003C02404F
:10388000034A044B11681B780B441360704700BF58
:10389000E40B002078000020014B1868704700BF3F
:1038A000E40B002038B50446FFF7F6FF631C1CBF8D
:1038B000054B1B78054618BFE418FFF7EDFF431BC7
:1038C000A342FAD338BD00BF7800002038B50446C3
:1038D000002800F09B80056C25B9FDF765FF656445
:1038E00084F83C50236CDB0600F18E80236C23F4BB
:1038F000885323F0020343F002032364444B5A68C5
:1039000022F440325A605A6861680A435A60236858
:1039100021695A6822F480725A605A6842EA012288
:103920005A605A68A16822F040725A605A680A4385
:103930005A609A68E16822F400629A609A680A43C1
:103940009A603449A26A8A4252D0996821F0706123
:10395000996099680A439A609A68E16A22F0405235
:103960009A609A680A439A609A6822F002029A6002
:103970009A68217E42EA41029A6094F82020002A47
:103980003ED05A68616A42F400625A605A6822F472
:1039900060425A605A68013942EA41325A60DA6A32
:1039A000E16922F47002DA62DA6A013942EA01520C
:1039B000DA629A6822F400729A609A6894F8301079
:1039C00042EA41229A609A68616922F480629A60B0
:1039D0009A68002042EA81229A606064236C23F096
:1039E000030343F001032364002384F83C3038BD13
:1039F0009A6822F070629A609A6822F04052B2E7A8
:103A00005A6822F40062C9E70120EDE70120EEE7E1
:103A1000002301400100000F82B00023019390F8C1
:103A20003C30012B69D0012380F83C3003689A6850
:103A3000D2070BD59A68D1071AD4036C43F0100350
:103A40000364436C43F0010343644CE09A682C49DF
:103A500042F001029A602B4A1268B2FBF1F202EBCB
:103A600042020192019A002AE4D0019A013AF8E751
:103A7000026C22F4E06222F0010242F480720264DD
:103A80005A68520541BF026C22F4405242F48052FF
:103A90000264026C12F480521CBF426C22F00602D7
:103AA0004264002280F83C206FF022021A60164A1D
:103AB000516811F01F0F15491CD18B4207D001F539
:103AC00080718B420CD1526812F01F0F0BD19A6893
:103AD00012F0405F07D19A6842F080429A6002E09B
:103AE0000B498B4202D0002002B07047526812F09E
:103AF000100FEBE78B42F6D1E9E70220F4E700BFB5
:103B000040420F00740000200023014000200140CB
:103B10000022014003689A68520570B504460D46BC
:103B20000BD59B68DE0508D5036C43F020030364C6
:103B3000002380F83C30012070BDFFF7ADFE064643
:103B400023681A6891070CD56FF012021A60226C74
:103B500042F4007222649A6812F0405F17D000208D
:103B6000EAE7681CEDD065B923681B6813F002030F
:103B7000E6D1226C84F83C3042F004022264032037
:103B8000DAE7FFF789FE801BA842EDD8D8E7227E4E
:103B9000002AE4D1DA6A12F4700F02D09B685A0549
:103BA000DDD4236C23F480732364236CDB04D6D42C
:103BB000236C43F001032364D1E70368D86C70479A
:103BC000F7B50023019390F83C30012B054600F037
:103BD0008680012380F83C3008682B688E680928AD
:103BE00084B233D904EB4402DF681E3A4FF0070C6D
:103BF0000CFA02FC27EA0C07DF60DF6806FA02F223
:103C00003A43DA604968062901EB81022DD8596BE5
:103C1000053A1F26964021EA06015963596B04FABA
:103C200002F20A435A632F4A93420AD1122837D12B
:103C30002D4B5A6822F400025A605A6842F48002FE
:103C40005A60002085F83C0003B0F0BD1A6900EB13
:103C5000400C072707FA0CF722EA07021A611A69D3
:103C600006FA0CF616431E61CCE70C294FF01F0133
:103C70000BD81E6B233A914026EA01011963196B98
:103C800004FA02F20A431A63CDE7DE6A413A914030
:103C900026EA0101D962D96A94400C43DC62C2E78A
:103CA000124B984201D01128CBD10F4B5A6822F405
:103CB00080025A605A6842F400025A600B4B9842E4
:103CC000BFD10B4B0B4A1B68B3FBF2F30A225343E1
:103CD0000193019B002BB4D0019B013BF8E702202C
:103CE000B2E700BF00200140002301401200001095
:103CF0007400002040420F000749CA6822F4E062C5
:103D00000302120403F4E063120C134343F0BF6395
:103D100043F40033CB60704700ED00E0164B30B544
:103D2000DC68C4F30224C4F10703251D042B28BF5B
:103D30000423062D4FF0FF358CBF033C002405FA09
:103D400003F321EA0303A54022EA0502A340002869
:103D500043EA0203ACBF00F16040084A4FEA031394
:103D6000B8BF00F00F00DBB2AABF00F561401354EA
:103D700080F8003330BD00BF00ED00E014ED00E03E
:103D8000002807DB044A4109012300F01F0083409B
:103D900042F82130704700BF00E100E010B5044652
:103DA00050B1437903F0FF0213B90271FDF754FDDE
:103DB00001236371002010BD0120FCE710B504460B
:103DC00030B390F8393003F0FF021BB980F8382087
:103DD000FDF75AFD22686168022384F839301368C0
:103DE00023F440330B431360536BA16823F00703A4
:103DF0000B435363136CE16823F47F5323F03F03B9
:103E00000B43136400200123E06384F8393010BDB4
:103E10000120FCE770477047036870B55E681D6855
:103E2000F207044614D5E90512D51A6822F4807207
:103E30001A60C26B42F00102C26301229A6004233D
:103E400080F83930002380F83830436903B198474F
:103E5000B20616D5AB0414D523681A6822F40052B2
:103E60001A6020229A60E36B43F00203E3630423A9
:103E700084F83930002384F8383063690BB1204668
:103E80009847300716D5290514D523681A6822F4F7
:103E900000621A6008229A60E36B43F00403E36354
:103EA000042384F83930002384F8383063690BB177
:103EB0002046984772070BD56B0509D523681A6809
:103EC00022F480621A6004229A602046FFF7A2FF63
:103ED000B00714D5A90512D523681A6822F4007218
:103EE0001A6002229A60E36BE363012384F839309D
:103EF000002384F8383023690BB120469847F20636
:103F000013D5EB0411D523681A6822F480521A6085
:103F100010229A60E36BE363012384F839300023B5
:103F200084F838302046FFF776FF70BDF0B590F882
:103F30003820012A03464FF002002BD0012283F8DB
:103F4000382083F8390003EB0112D2E90740556AA3
:103F5000174F44EA0040093C012C9CBF05F07F420A
:103F600010434FEA01161A6888BF40EA056091B90C
:103F7000516A394001435162012C9969916103D81A
:103F8000596A21F07F4191620122002083F8392093
:103F900083F83800F0BDD16939400143D1619919E6
:103FA000012C896911619CBF25F07F451562EBE703
:103FB000F0FFFC00094910B50C6924F440740C6151
:103FC0000C6944F440740C610C6944F001040C6108
:103FD0000260BFF36F8F436010BD00BF003C024022
:103FE000074B1A6922F440721A611A6942F400728E
:103FF0001A611A6942F001021A610160704700BF3C
:10400000003C0240074B1A6922F440721A611A6997
:1040100042F480721A611A6942F001021A61018049
:10402000704700BF003C0240204BDA68D00606D53E
:104030001F49CA6942F01002CA611022DA60DA68C8
:10404000910606D51A49CA6942F00802CA612022BF
:10405000DA60164BDA68520606D51549CA6942F08D
:104060000402CA614022DA60DA68100606D51049F7
:10407000CA6942F00202CA618022DA600B4BDA6838
:10408000D10507D50A49CA6942F00102CA614FF455
:104090008072DA60DA68920706D50549CA6942F08B
:1040A0002002CA610222DA60704700BF003C024071
:1040B000E80B0020064B1A69002ABFBF054A5A6068
:1040C00002F188325A60BABF1869C00F00207047E9
:1040D000003C024023016745034A136943F0004353
:1040E00013610020704700BF003C0240014BD869BB
:1040F000704700BFE80B0020114B70B5002204464A
:10410000DA61FFF7C9FB0F4D0646EB68DA030CD402
:10411000EB68DB0744BF0123EB60E86810F4F9703B
:1041200007D0FFF781FF012003E0611CEDD00CB93F
:10413000032070BDFFF7B0FB801BA042E5D9F7E775
:10414000E80B0020003C02402DE9F0411F4E98464C
:10415000337E012B07460D46144635D001234CF221
:1041600050303376FFF7C8FFB0B9CFB9184B1A6992
:1041700022F440721A611A691A611A69E4B242F0B3
:1041800001021A612C704CF25030FFF7B5FF104A53
:10419000136923F00103136100233376BDE8F08136
:1041A000012F04D1A1B22846FFF72CFFEBE7022F25
:1041B00004D121462846FFF713FFE4E72246434691
:1041C0002846FFF7F7FEDEE70220E7E7E80B0020CE
:1041D000003C02400C4B1A6922F440721A61032918
:1041E0001A690BD142F4004242F004021A611A69C2
:1041F00042EA002040F48030186170470129F3D072
:1042000042F40042F2E700BF003C02400F4B1A6943
:1042100022F440721A611A69022994BF09024FF40C
:1042200040710A431A611A6922F0F8021A611A6988
:104230000B2888BF043042EAC00242F002021A6131
:104240001A6942F480321A61704700BF003C024094
:10425000144B1A6891050FD51A6822F400721A607F
:104260001A6842F400621A601A6822F400621A6046
:104270001A6842F400721A600A4B1A6852050FD588
:104280001A6822F480621A601A6842F480521A6036
:104290001A6822F480521A601A6842F480621A6026
:1042A000704700BF003C02402DE9F843DFF89C80D6
:1042B00098F81830012B05460F4642D001234CF2E6
:1042C000503088F81830FFF717FF0446B8B94FF0A0
:1042D000FF333B602B68012B17D16968287CFFF7FF
:1042E00079FF4CF25030FFF707FF174A136923F4A8
:1042F000004323F0040304461361FFF7A9FF0023E2
:1043000088F818302046BDE8F883AE68DFF83890AA
:10431000D5E902231344B342EFD9297C3046FFF795
:1043200075FF4CF25030FFF7E7FED9F8103023F05C
:10433000FA03C9F8103010B13E600446DDE70136DB
:10434000E6E70224DEE700BF003C0240E80B002065
:104350002DE9F74FDFF8BC916C4A00230D6801246A
:104360009C4004EA0506AC4340F0B7804D68032743
:1043700005F003044FEA430807FA08FC671E012F03
:104380006FEA0C0C34D8876807EA0C0ECF6807FA7E
:1043900008F747EA0E078760476827EA060EC5F365
:1043A00000179F4047EA0E074760C76807EA0C0EF0
:1043B0008F6807FA08F747EA0E07022CC76019D181
:1043C0004FEAD30A00EB8A0A03F0070BDAF82070F1
:1043D0004FEA8B0B4FF00F0E0EFA0BFE27EA0E0E74
:1043E0000F6907FA0BF747EA0E07CAF8207001E0D9
:1043F000032CDAD1076804FA08F407EA0C073C43F7
:1044000015F4403F046068D000240194D9F844407A
:1044100044F48044C9F84440D9F8444023F00307E9
:1044200007F1804704F4804407F59C37019403F0BA
:10443000030C019CD7F808E04FEA8C0C0F2404FA17
:104440000CF42EEA040E324CA0424DD004F58064E8
:10445000A0424BD004F58064A04249D004F58064AA
:10446000A04247D004F58064A04245D004F58064A2
:10447000A04243D004F58064A04241D004F580649A
:10448000A0423FD004F58064A0423DD004F5806492
:10449000A04214BF0A24092404FA0CF444EA0E04CE
:1044A000BC609468F74315F4801F0CBF3C40344354
:1044B0009460D46815F4001F0CBF3C403443D460B2
:1044C000546815F4003F0CBF3C40344354601468FA
:1044D000ED0354BF3C40344314600133102B7FF490
:1044E0003DAF03B0BDE8F08F0024D5E70124D3E74A
:1044F0000224D1E70324CFE70424CDE70524CBE74A
:104500000624C9E70724C7E70824C5E7003C0140A3
:1045100000000240003802400369194214BF012024
:10452000002070470AB1816170470904FBE74369C5
:1045300001EA030221EA030141EA02418161704775
:1045400001684B6913F480634FF0000210D06FF4E0
:1045500080634B612023026380F83D3080F83E2069
:10456000036C80F83C2043F004030364012070478F
:10457000184670472DE9F84606460F4691461D46F7
:104580004FEA114A3368BAF1010F0CBF5C699C69AC
:1045900027EA0404A4B2B4FA84F46409A14501D062
:1045A000002025E06A1CEED0FFF776F9089BC01AC0
:1045B000A84201D8002DE5D13368BAF1010F0CBF34
:1045C0005B699B6927EA03039BB2B3FA83F35B0938
:1045D0009945D7D100232022336386F83D2086F801
:1045E0003E30326C86F83C3042F0200232640120CA
:1045F000BDE8F8862DE9F04104460F461646984678
:104600002568686927EA000080B2C0B16B695A0565
:1046100017D52B6843F400732B606FF480636B61D4
:1046200020220023236384F83D2084F83E30236C4D
:1046300043F004032364002384F83C300120BDE8E8
:10464000F081731CDDD0FFF727F9A0EB0800B04222
:1046500001D8002ED4D123685A6927EA020292B207
:10466000002ACDD000232022236384F83D2084F843
:104670003E30236C1343DDE770B504460D46164605
:1046800023685B691B0601D500201EE02046FFF76A
:1046900057FFC8B96A1CF3D0FFF7FEF8801BA84289
:1046A00001D8002DECD123685B6913F08003E7D1BA
:1046B0002022236384F83D2084F83E30226C84F865
:1046C0003C3042F020022264012070BD2DE9F0430D
:1046D0001546026885B0DDE90C789946136843F405
:1046E000807313600E463B46CDF8008000224FF0E9
:1046F00001110446FFF73EFF236838B11B68DB0554
:1047000002D54FF400732364032620E006F0FE0672
:104710001E611A4943463A462046FFF76BFFA8B987
:10472000236803905A6903929B6903934246394672
:104730002046039BFFF7A0FF064660B1236C042BC5
:1047400001BF2268136843F40073136001263046EA
:1047500005B0BDE8F083B9F1010F236802D1EDB2D5
:104760001D61F4E72A0A1A61394642462046FFF7DE
:1047700083FF0028E2D12368F1E700BF02000100B7
:104780002DE9FF479A46036815461A6842F480628D
:104790001A601A68DDE90C7842F480721A600E46DD
:1047A0003B46CDF8008000224FF001110446FFF790
:1047B000E1FE236838B11B68DB0544BF4FF400738A
:1047C0002364032021E05FFA86F906F0FE061E61ED
:1047D0002B4943463A462046FFF70CFFA0B9236811
:1047E00003905A6903929B690393424639462046D7
:1047F000039BFFF741FF58B1236C042B01BF2268D4
:10480000136843F400731360012004B0BDE8F0871F
:10481000BAF1010F23681AD1EDB242461D61394643
:104820002046FFF729FF02460028E5D121680B68E2
:1048300043F480730B602046CDF800803B464FF078
:104840000111FFF797FE226860B11368B4E72A0AE6
:104850001A61394642462046FFF70EFF0028CBD1A9
:104860002368D9E749F001031361054943463A46F5
:104870002046FFF7BFFE003818BF0120C5E700BF84
:104880000200010070B504460D46164623685B69B8
:104890005B0701D500201EE02046FFF751FEC8B996
:1048A0006A1CF3D0FEF7F8FF801BA84201D8002D48
:1048B000ECD123685B6913F00403E7D12022236362
:1048C00084F83D2084F83E30226C84F83C3042F07D
:1048D00020022264012070BD70B504460D461646C4
:1048E00021684B6913F0400301D0002011E04A69B0
:1048F000D2060FD56FF010024A612022236384F89C
:104900003D2084F83E30236C2364002384F83C303F
:10491000012070BDFEF7C0FF801BA84201D8002D0A
:10492000DED123685B6913F04003D9D120222363D1
:1049300084F83D2084F83E30236C1343E4E7000004
:1049400070B5044608B9012070BD90F83D3003F001
:10495000FF021BB980F83C20FCF7B8FF242384F841
:104960003D3023681A6822F001021A601A6842F486
:1049700000421A601A6822F400421A6000F078FEC1
:104980003F4B65689D4294BF3E4B3F4B98428CBF66
:1049900000230123002BD6D12268394E51683B4BAE
:1049A000B0FBF3F321F03F011943B542516088BFDA
:1049B0004FF49676116A88BF734321F03F0184BF9C
:1049C0004FF47A76B3FBF6F301330B431362D169EC
:1049D000431E2B4821F44F41854221F0FF0132D87C
:1049E0006D0040F6FC70B3FBF5F30133034242D097
:1049F000C3F30B031943D161D4E9073011680343B2
:104A000021F0C0010B4313609168D4E9030321F442
:104A10000341034321F0FF010B439360D4E90530C8
:104A2000D168034321F0FF010B43D360136843F0C7
:104A30000103136000202023206484F83D302063AC
:104A400084F83E0080E7A06850B905EB4505B3FB4C
:104A5000F5F30133C3F30B037BB143F40043C9E720
:104A600019206843B3FBF0F30133C3F30B0323B105
:104A700043F44043BEE70423BCE70123BAE700BF89
:104A8000A08601007F841E00FF083D0040420F0009
:104A90002DE9F743044699460C9E0F469046FEF7D3
:104AA000FBFE94F83D30202B054603D0022003B0D6
:104AB000BDE8F08300903C49192301222046FFF70E
:104AC00059FD0028F2D194F83C30012BEED020683B
:104AD000012384F83C300368D9075EBF036843F0C4
:104AE00001030360036823F400630360212384F857
:104AF0003D30402384F83E30002323640A9B6362E8
:104B0000BDF82C306385638D2385284BE3624246D4
:104B1000CDE900654B4639462046FFF7D7FD002812
:104B20002AD00120C3E7FFF7A7FD40B1236C042B77
:104B300001BF2268136843F400731360F1E7636AEE
:104B400027681A4612F8011B39616262628D218D55
:104B5000013A92B262857A69481E80B25207208576
:104B60000AD548B15A783A6102336362638D013BDA
:104B700002399BB221856385238D2A463146204622
:104B8000002BD0D1FFF77EFE0028CFD1226813681A
:104B900043F400731360202384F83D3084F83C0014
:104BA00084F83E0083E700BF020010000000FFFF12
:104BB0002DE9F043044687B09946109F0D46904674
:104BC000FEF76AFE94F83D30202B064604D00225FD
:104BD000284607B0BDE8F08300907A4919230122E6
:104BE0002046FFF7C7FC0028F1D194F83C30012B98
:104BF000EDD02068012384F83C300368DB075EBFFA
:104C0000036843F001030360036823F40063036057
:104C1000222384F83D30402384F83E30002323646F
:104C20000E9B6362BDF83C306385638D2385664BC4
:104C3000E3622946CDE900764B4642462046FFF71F
:104C40009FFD054608B10125C2E7228D2368B2B950
:104C500002905A6902929A690292029A1A6842F480
:104C600000721A60DFF86481238D002B2CD1202282
:104C700084F83D2084F83C3084F83E30A8E7012ACF
:104C80000AD11A6822F480621A6003905A6903926A
:104C90009A690392039AE1E7022A0ED11A6822F474
:104CA00080621A601A6842F400621A6004905A69BD
:104CB00004929B690493049BD4E705905A6905927A
:104CC0009B690593059BCDE7032B56D8012B15D186
:104CD000324639462046FFF7FFFD0028B3D123684E
:104CE0001A69636A1A70636A01336362238D013B38
:104CF0002385638D013B9BB26385B5E7022B00964C
:104D00003B464FF000024146204619D1FFF732FCE6
:104D1000002898D123681A6842F400721A601A6950
:104D2000636A1A70626A531C6362238D013B238598
:104D3000638D013B9BB2638523681B695370D2E787
:104D4000FFF718FC024600287FF47DAF236819683E
:104D500021F4806119601969636A1970636A01330B
:104D60006362238D013B2385638D013B9BB2638589
:104D7000414600963B462046C8E732463946204623
:104D8000FFF7AAFD00287FF45EAF23681A69636A03
:104D90001A70628D616A013A92B24B1C6285226878
:104DA0006362238D5069013B9BB2400723857FF5E9
:104DB0005BAF032B02BF136823F480631360136996
:104DC0004B7090E7020010000000FFFF040001009C
:104DD00010B590F83D30202BDCB216D1242380F89A
:104DE0003D3003681A6822F001021A605A6A22F004
:104DF00010025A625A6A114359621A6842F001025B
:104E00001A6080F83D40002010BD0220FCE730B55C
:104E100090F83D30202BDCB216D10268242380F8B4
:104E20003D30136823F001031360556A4FF6F073A9
:104E30002B400B439BB25362136843F00103136092
:104E400080F83D40002030BD0220FCE70068D1F82A
:104E500000C0D201843283182DE9F043C6685D6832
:104E60004C68D1F8189005F470455D60C5680CF188
:104E70000107C5F30B45C6F30B463D44264445EAFE
:104E800006455D60C668CD68C6F30A062E449D6877
:104E900005F470459D60C7688D68C7F30A07013542
:104EA0003D4445EA06459D601D690E6925F00705EC
:104EB0001D614FF0000E1E619D6991F8327091F8EE
:104EC0003180C3F818E091F8305045EA096545EAA9
:104ED000082545EA07459D615D6925F0FF055D618F
:104EE0004D695D61DD6925F4E06525F00705DD614B
:104EF000D1E907573D43DD619D6A4D6AC3F828E05B
:104F00009D621EB3012E23D0B51E022D22D9072E7D
:104F100014BF01250225DE6A06F0E026DE62A4EB5E
:104F20000C048E6AC96A6C436E43033444EA064437
:104F3000DC621C6B24F4FF6424F007041C63196317
:104F4000835843F001038350BDE8F0830425E2E772
:104F50000325E0E70225DEE738B50446002863D0E4
:104F600090F8A13003F0FF021BB980F8A020FCF7F5
:104F700009FD022384F8A13023689A6922F0704267
:104F80009A61D4E901200243E068996902432069EB
:104F900002430A439A619A68244960690A409A6008
:104FA0009A6842EA0042A06902439A60DA68E069BE
:104FB0000A40DA60DA6842EA0042206A0243DA60B4
:104FC0001A69606A0A401A611A6942EA0042A06AD4
:104FD00002431A615A690A405A615A69E16A42EA0F
:104FE0000142216B0A435A61DA6A94F8350094F859
:104FF000361002F07F42DA62DD6A94F834202A43E8
:1050000042EA002242EA0142DA625A6B42F00602A8
:105010005A639A6942F001029A6100200123C4F8A0
:10502000A40084F8A13038BD0120FCE700F800F0AE
:1050300070477047036870B59E6B5D6B72070446DE
:1050400014D5690712D55A6B22F004025A63042260
:10505000DA63D0F8A43043F00103C0F8A430002391
:1050600080F8A12080F8A030FFF7E2FFB20716D544
:10507000AB0714D523685A6B22F002025A6302224E
:10508000DA63D4F8A4301343C4F8A430042384F8BA
:10509000A130002384F8A0302046FFF7C9FFF007B5
:1050A00010D5E9070ED523685A6B22F001025A6326
:1050B0000122DA63002384F8A12084F8A03020467E
:1050C000FBF74CFF320711D52B070FD523685A6B1E
:1050D00022F008025A630822DA63012384F8A1301F
:1050E000002384F8A0302046FFF7A3FF70BD2DE910
:1050F000F04190F8A030012B06460F4694464FF041
:1051000002001FD04FF0010886F8A08086F8A100A9
:1051100034240D4604FB02640FCD38340FC40FCD88
:105120000FC40FCD0FC42B6823603046624639464A
:10513000FFF78CFE33680020C3F8248086F8A18036
:1051400086F8A000BDE8F08190F8A020012A03466F
:105150004FF0020012D01A6883F8A100506B20F0C3
:105160000100506306480164516B41F00101516335
:105170000020012283F8A12083F8A000704700BF1F
:10518000006801402DE9F341044640B30368DE079F
:1051900010D423689D075BD42368190700F19D8014
:1051A00023685A0700F1BD80A369002B40F02481D9
:1051B00000202CE08D4B9A6802F00C02042A07D0E4
:1051C0009A6802F00C02082A0BD15B68590208D5D4
:1051D000864B1B689A03DCD56368002BD9D101206C
:1051E00015E06368814DB3F5803F13D12B6843F41C
:1051F00080332B60FEF750FB7C4E054633689B03E3
:10520000C7D4FEF749FB401B6428F7D9032002B03E
:10521000BDE8F081B3F5A02F04D12B6843F48023BF
:105220002B60E3E72A6822F480322A602A6822F49D
:1052300080222A60002BDDD1FEF72EFB06462B686C
:105240009F03A6D5FEF728FB801B6428F7D9DDE76E
:10525000664B9A6812F00C0F07D09A6802F00C02A5
:10526000082A11D15B685D020ED4604A1368990761
:1052700002D5E368012BB2D11368216923F0F8034A
:1052800043EAC103136087E7E268594BB2B10122D8
:105290001A60FEF701FB554D06462B689B0707D5A4
:1052A0002B68226923F0F80343EAC2032B6073E7FB
:1052B000FEF7F2FA801B0228EFD9A7E71A60FEF783
:1052C000EBFA4A4E054633689F077FF565AFFEF758
:1052D000E3FA401B0228F6D998E76269444B82B191
:1052E0000122C3F8802EFEF7D7FA404E0546736FB1
:1052F0009B073FF555AFFEF7CFFA401B0228F6D9C2
:1053000084E7C3F8802EFEF7C7FA384E0546736F60
:105310009F077FF545AFFEF7BFFA401B0228F6D97D
:1053200074E7324B1A6C12F0805228D101921A6C39
:1053300042F080521A641B6C03F080530193019B6E
:1053400001272C4D2B68D8051BD5A368274D012BB1
:1053500027D12B6F43F001032B67FEF79DFA234EF5
:10536000054641F28838336F9A0739D5002F3FF44C
:105370001BAF1E4A136C23F08053136414E70027FD
:10538000DFE72B6843F480732B60FEF785FA06464F
:105390002B68D905D9D4FEF77FFA801B0228F7D9EC
:1053A00034E7052B04D12B6F43F004032B67D0E7C0
:1053B0002A6F22F001022A672A6F22F004022A676C
:1053C000002BCAD1FEF768FA41F2883806462B6FE7
:1053D0009B07CBD5FEF760FA801B4045F7D915E750
:1053E000FEF75AFA401B4045BDD90FE7003802408E
:1053F0000000474200700040374DAA6802F00C02DE
:10540000082A3ED0022B354B4FF000021A662BD1F2
:10541000FEF742FA06462B6899011FD4D4E90732F9
:105420001343626A43EA8213E26A43EA0263A26AAE
:105430005208013A43EA02436B60284B264D012291
:105440001A66FEF729FA04462B689A013FF5B0AEBA
:10545000FEF722FA001B0228F6D9D7E6FEF71CFA5F
:10546000801B0228D7D9D1E6FEF716FA04462B682E
:105470009B017FF59DAEFEF70FFA001B0228F6D9BF
:10548000C4E6012B3FF4ABAE6B68E26903F4800124
:1054900091427FF4A4AE216A03F03F028A427FF476
:1054A0009EAE616A47F6C0721A40B2EB811F7FF46C
:1054B00096AEA26A520803F44031013AB1EB024FB2
:1054C0007FF48DAEE26A03F07063B3EB026F14BF3A
:1054D000012000209BE600BF003802400000474248
:1054E000134908B58B6803F00C03042B1CD0082B60
:1054F0001CD14A684B68496813F4800314BF0D48F7
:105500000D48C1F3881118BF002302F03F02A1FB30
:105510000001FAF7BDFE064B5B68C3F3014301339C
:105520005B00B0FBF3F008BD0248FCE70248FAE775
:105530000038024000127A000024F4002DE9F04106
:105540000D46044610B90120BDE8F081434B1A68AE
:1055500002F00F028A4228D321688F072DD4C80792
:1055600040D43E4B1A6802F00F02AA4265D8226866
:1055700051076BD4130707D5394A2169936823F47F
:10558000604343EAC1039360FFF7AAFF344B354AF7
:105590009B68C3F30313D35CD840334B1860334B81
:1055A0001868FCF7A3FB0020CEE7CAB21A701B688C
:1055B00003F00F038B42C6D1CEE7294B11F0040F45
:1055C0001EBF9A6842F4E0529A600E0742BF9A6882
:1055D00042F460429A609A68A06822F0F0020243A6
:1055E0009A60BCE762681E4B012A1CD11B6813F449
:1055F000003FA8D01A4EB36823F003031343B360EF
:10560000FEF74AF941F288380746B368626803F04A
:105610000C03B3EB820FA4D0FEF73EF9C01B40454C
:10562000F3D9032090E7911E01291B6802D813F0DB
:10563000007FDEE713F0020FDBE7EAB21A701B68A7
:1056400003F00F03AB427FF47EAF90E70449E068BC
:105650008B6823F4E05303438B608BE7003C0240EC
:10566000003802401CE90108740000207C00002082
:10567000044B054A9B68C3F38223D35C034A10683A
:10568000D84070470038024014E901087400002037
:10569000044B054A9B68C3F34233D35C034A10684A
:1056A000D84070470038024014E901087400002017
:1056B0000F2303600B4B9A6802F0030242609A6862
:1056C00002F0F00282609A6802F4E052C2609B68C5
:1056D000DB0803F4E0530361034B1B6803F00F0383
:1056E0000B60704700380240003C0240036813F032
:1056F000430FF7B5044640F08880236813F00C0F81
:1057000045D08C4B8C4D00221A67FEF7C5F8064633
:105710002B68990000F1CB8021684A0715D5D4E9A0
:105720000403D5F888201B0602F0E04243EA801308
:105730001343C5F88830D5F88C30226A23F4F85327
:10574000013A43EA0223C5F88C300B0714D57A4A94
:10575000A369D2F8881020691B0701F0706143EA41
:1057600080130B43C2F88830D2F88C30616A23F47E
:1057700040330B43C2F88C306E4B6F4E01221A67D8
:10578000FEF78AF8054633689F0040F1978023684A
:10579000980634D500230193674B684D1A6C42F08C
:1057A00080521A641B6C03F080530193019B2B6899
:1057B00043F480732B60FEF76FF806462B68D8051C
:1057C00040F183805C4DA26A2B6F13F4407340F06C
:1057D0008380A36A03F44072B2F5407F564A40F0DA
:1057E0009E80916823F0704021F4F81120F44070FD
:1057F00001439160116FC3F30B030B4313672368DD
:10580000DB0600F1908000204FE04A4B4A4E002218
:105810009A66FEF741F8054633681F013FD42168B8
:10582000C80741BFD4E901231B0743EA8213C6F826
:1058300084308A0715D5404AE368D2F88400656849
:105840001B0600F0E04043EA85130343C2F88430AE
:10585000D2F88C00E36920F01F00013B0343C2F83B
:105860008C304B060AD5E36862681B0643EA821354
:10587000A26843EA0273304AC2F884302D4B2E4EA0
:1058800001229A66FEF708F8054633681F013FF5C6
:1058900034AFFEF701F8401B0228F6D904E0FDF70B
:1058A000FBFF401B0228B7D9032003B0F0BDFDF772
:1058B000F3FF801B02287FF62BAFF5E7FDF7ECFF27
:1058C000401B02287FF65FAFEEE7FDF7E5FF801B88
:1058D00002287FF673AFE7E702F4407293423FF489
:1058E00078AF2B6F134A0121C2F8401E23F4407396
:1058F0000021C2F8401E2B672B6FD9077FF569AFD7
:10590000FDF7CAFF41F2883706462B6F9A073FF52D
:1059100060AFFDF7C1FF801BB842F6D9C4E79168BC
:1059200021F4F81165E7064B94F82C20C3F8E02128
:1059300069E700BF000047420038024000700040A5
:105940000010474238B50D460446C8B190F82C30D7
:1059500003F0FF021BB980F82D20FCF75BF902234E
:1059600084F82C30211D206800F0AFFD62682068AB
:10597000294600F0E2FD012384F82C30002038BDD8
:105980000120FCE770B590F82C30022B05460E463E
:10599000D8B212D000F0FB04012C0FD1022385F8FD
:1059A0002C30286800F0FFFD3368022B06BF05236A
:1059B00085F82C3085F82C40002070BD0120FCE7D4
:1059C00038B590F82C30022B0446D8B20DD094F89C
:1059D0002C30012BDDB209D10223206884F82C3051
:1059E00000F005FE84F82C50002038BD0120FCE7B3
:1059F0002DE9F3471F46894690460446FDF74CFFC4
:105A00000A9D3D442D1AFDF747FF264B1E68C6F33D
:105A1000CB366E43824601962268936839EA0303C7
:105A20000CBF01230023434501D100202EE07B1C45
:105A3000F3D0FDF731FFA0EB0A00A84229D3236879
:105A40005A6822F0E0025A606268B2F5827F0AD199
:105A5000A268B2F5004F02D0B2F5806F03D11A6888
:105A600022F040021A60A26AB2F5005F07D11A68FC
:105A700022F400521A601A6842F400521A6001239C
:105A800084F85130002384F85030032002B0BDE880
:105A9000F087019A019B002A03F1FF33019308BFAD
:105AA0001546B9E774000020F0B585B00B460092AA
:105AB0000E461746022101220446FFF799FF0546CC
:105AC00028B1636D43F020036365032515E0124B95
:105AD0001868124BB0FBF3F04FF47A7358436368C5
