:020000040800F2
:100000000000032081050008911D0008931D0008D1
:10001000951D0008971D0008991D000800000000AC
:1000200000000000000000000000000071620008F5
:100030009B1D00080000000001630008875B0008AA
:10004000D1050008D1050008D1050008D105000838
:10005000D1050008D1050008D1050008D105000828
:10006000D1050008D1050008D1050008D105000818
:10007000D1050008D1050008D1050008D105000808
:10008000D1050008D1050008D1050008D1050008F8
:10009000D1050008D1050008D1050008D1050008E8
:1000A000D1050008D1050008D1050008D1050008D8
:1000B000D1050008D1050008D1050008D1050008C8
:1000C000D1050008D1050008D1050008D1050008B8
:1000D000D1050008D1050008D1050008D1050008A8
:1000E000D1050008D1050008D1050008D105000898
:1000F000D1050008D1050008D1050008D105000888
:10010000D1050008D1050008D1050008D105000877
:10011000D1050008D10500089D1D0008D105000883
:10012000D1050008D1050008D1050008D105000857
:10013000D1050008D1050008D1050008D105000847
:10014000D1050008D1050008D1050008D105000837
:10015000D1050008D1050008D1050008D105000827
:10016000D1050008D1050008D1050008D105000817
:10017000D1050008D1050008D105000800000000E5
:10018000D1050008D1050008D1050008D1050008F7
:10019000D1050008D1050008D1050008D1050008E7
:0C01A000A91D0008D1050008B51D0008CD
:1001B00010B5054C237833B9044B13B10448AFF3A1
:1001C00000800123237010BD6401002000000000A6
:1001D0001CC5010808B5034B1BB103490348AFF325
:1001E000008008BD00000000680100201CC5010857
:1001F00001F0FF01102A2BDB10F0070F08D010F8D8
:10020000013B013A8B422DD010F0070F42B3F6D1DB
:10021000F0B441EA012141EA014122F007047FF0F4
:1002200000070023F0E80256083C85EA010586EA4B
:10023000010685FA47F5A3FA87F586FA47F6A5FA87
:1002400087F68EB9EED1F0BC01F0FF0102F0070293
:1002500032B110F8013B013A83EA010313B1F8D13E
:100260000020704701387047002D06BF354603381F
:10027000073815F0010F07D1013015F4807F02BF58
:10028000013015F4C03F0130F0BC0138704700BFA9
:1002900053B94AB9002908BF00281CBF4FF0FF31ED
:1002A0004FF0FF3000F06AB9ADF1080C6DE904CEF3
:1002B00000F006F8DDF804E0DDE9022304B0704741
:1002C0002DE9F047089D0C46002B4ED194468C45F5
:1002D0008646B2FA82F262D94AB1C2F12003914055
:1002E00020FA03F30CFA02FC194300FA02FE4FEA6B
:1002F0001C471FFA8CF6B1FBF7F44FEA1E4307FBCD
:10030000141143EA014304FB06F199420AD91CEB9C
:10031000030304F1FF3080F01281994240F20F8113
:10032000023C6344591A1FFA8EF3B1FBF7F007FB46
:10033000101143EA014300FB06F69E420AD91CEB6A
:10034000030300F1FF3180F0FC809E4240F2F9800F
:10035000634402389B1B40EA044000211DB1D34096
:100360000022C5E90032BDE8F0878B4205D90DB106
:10037000C5E9000100210846F5E7B3FA83F1002939
:1003800046D1A34202D39042C0F0F080861A64EBBB
:1003900003030120002DE6D0C5E90063E3E7002A4E
:1003A00040F09080A1EB0C044FEA1C481FFA8CF738
:1003B0000121B4FBF8F64FEA1E4308FB164443EA5A
:1003C000044307FB06F0984208D91CEB030306F12F
:1003D000FF3402D2984200F2CD8026461C1A1FFA42
:1003E0008EF3B4FBF8F008FB104443EA044300FB2F
:1003F00007F79F4208D91CEB030300F1FF3402D238
:100400009F4200F2B0802046DB1B40EA0640A5E791
:10041000C1F120068B4022FA06F71F4320FA06FCA2
:1004200004FA01F343EA0C03F44000FA01F8380C33
:100430004FEA1349B4FBF0FE1FFA87FC00FB1E4491
:1004400049EA04440EFB0CF9A14502FA01F20AD96B
:100450003C190EF1FF3A80F08480A14540F2818082
:10046000AEF1020E3C44A4EB09041FFA83F9B4FB7D
:10047000F0F300FB134449EA044403FB0CFCA445DD
:1004800007D93C1903F1FF3067D2A44565D9023B77
:100490003C4443EA0E40A0FB0293A4EB0C049C42B4
:1004A000CE469C4651D34ED055B1B8EB0E0364EB0B
:1004B0000C0404FA06F6CB401E43CC40C5E90064A8
:1004C000002150E7C2F1200320FA03F10CFA02FCEC
:1004D00024FA03F394400C434FEA1C4800FA02FE4E
:1004E0001FFA8CF7B3FBF8F008FB1031230C43EA3A
:1004F000014300FB07F1994208D91CEB030300F10B
:10050000FF362CD299422AD9023863445B1AA4B22E
:10051000B3FBF8F108FB113344EA034401FB07F392
:10052000A34208D91CEB040401F1FF3613D2A34205
:1005300011D902396444E41A41EA004139E704461A
:10054000F0E6084606E7C845AED2B9EB020E63EB0B
:10055000070C0138A8E73146EDE7034699E7304636
:10056000D4E7D6467FE7634402384DE70646234684
:1005700008460FE7023E634430E700BF704700BF04
:10058000DFF834D0002103E00C4B5B5843500431BA
:100590000B480C4B42189A42F6D30B4A02E0002358
:1005A00042F8043B094B9A42F9D302F0D1FD1BF00B
:1005B00045FA00F0B1FD70470000032098F80608E6
:1005C0000000002064010020640100208C2501202F
:1005D000FEE7704708B500F0D1FBBDE8084000F029
:1005E0005DBB00F0CDBB704710B5042104461AF086
:1005F000F0FE204610BD000038B50C4B0C4C1880A6
:100600000C4B822019806368984740F6110398428A
:100610000AD1094D23682C60822098472B688220DC
:10062000DB689847002038BD0120FCE78A010020E4
:100630004C000020880100208C0100204FF4A071A4
:10064000F020FFF7D9BF0000F7B5334D2B68044603
:100650001B6982209847208000284AD02B680DF122
:1006600006025B6901A982209847BDF8063040F672
:10067000746293423FD9ADF80620BDF80630D21A15
:1006800092B20A2A3DD90B23B2FBF3F2234B1B880B
:100690009A4201D9013B9AB2BDF8043040F6B83114
:1006A0008B4230D8C3F571630E339BB20F21B3FB7D
:1006B000F1F31B4909888B4201D901398BB2194EDC
:1006C000194D30682F68834281B28CBF591AC91AFC
:1006D000B8B2BA428CBF101A801A89B280B20144F3
:1006E0000529C8BF33603368C8BF2A6063802B68A0
:1006F000A38003B0F0BDB32B9CBFB423ADF806308C
:10070000BBE70022C8E7C3F56D6308339BB20E2B2D
:10071000CCD80023D3E700BF8C0100208801002043
:100720008A010020840100208001002037B568463E
:100730000D461446FFF788FFBDF8000030B1BDF844
:1007400002302B60BDF804302360012003B030BDBF
:10075000032821D8DFE800F0020B12190F4B1A68AA
:10076000B2FA82F2520904210D4803F09DB90B4BF5
:100770005A68B2FA82F252090821F5E7074B9A68E3
:10078000B2FA82F252091021EEE7044BDA68B2FAAB
:1007900082F252092021E7E7704700BF9001002054
:1007A00000100240032821D8DFE800F0020B1219E4
:1007B0000F4B1A68003A18BF012204210D4803F0BC
:1007C00073B90B4B5A68003A18BF01220821F5E7AC
:1007D000074B9A68003A18BF01221021EEE7044B3C
:1007E000DA68003A18BF01222021E7E7704700BF0E
:1007F000900100200010024003280DD8DFE800F02F
:100800000206080A0421054803F053B90821FAE753
:100810001021F8E72021F6E7704700BF00100240E2
:1008200008B5032811D8DFE800F0020A0C0E0421F5
:10083000074803F033F9431E5842584108BD0821C8
:10084000F6E71021F4E72021F2E70020F3E700BFEC
:100850000010024070B5084D00240126E0B2FFF7F9
:10086000DFFF18B12B68012B18BF2E600134052C57
:1008700005F10405F2D170BD90010020012380F83C
:10088000781080F87930704700207047034B41643E
:10089000003918BF01211970704700BF5B19012092
:1008A00000207047836B0BB10846184770474068BB
:1008B00003689B69184770477047704710B5044636
:1008C00000F022FB23680349D3F88C302046BDE8B2
:1008D00010401847000000D008B503680446D3F85C
:1008E00080309847236820469B6F984700F0ECF8CB
:1008F000236820461B6F9847292000F0DBFE00F09C
:10090000E3F8236820461B6F9847F8E710B50446C4
:1009100008F08CFA23682046D3F8AC30BDE81040CC
:10092000184700F0B7BA00F0BBBA00F0D5BA00F033
:100930008FBA00F0E1BA00F0D3BA00F091BA07F034
:10094000E1BC10B57C2104461AF043FD204610BDE1
:1009500010B590F8341090F878400C4B8C421A780F
:1009600009D03AB90A4A0B491488088810800C80CB
:1009700001221A7010BD002AFCD0054A05491488CE
:10098000088810800C800022F3E700BF5419012072
:10099000501901205219012070B50D46194635B97C
:1009A000094B0A4A0A4840F2D2211AF041FDC0E937
:1009B0000F52084B003A18BF01221A700368BDE8B5
:1009C0007040D3F88C3018478CC50108C4C50108A5
:1009D00012C601085A19012008B5094B1B888B4221
:1009E00003D8084B1B88934205D9074B074A084890
:1009F0009E211AF01DFD074B1980074B1A8008BD78
:100A0000501901205219012057C60108BAC6010821
:100A100012C601085619012058190120034690F802
:100A20007A0018B1586803681B68184770470000BF
:100A3000012108B50022084605F031F90A4B18607B
:100A400028B90A4B0A4A28210A481AF0F1FC002268
:100A50000421012005F0C2F9074B186018B9074BB3
:100A6000034A2C21F0E708BDA4010020D8C70108E3
:100A700021C8010850C80108A00100209FC8010832
:100A8000024B4FF0FF31186805F053B9A401002064
:100A9000014B186805F079B9A4010020024B002130
:100AA000186805F046B900BFA4010020FFF7F0BFA9
:100AB00003480449006800231A4605F0CAB900BF7C
:100AC000A00100200400002013B5084C00231A46A2
:100AD00001A9206805F0EEF920684FF0FF330022ED
:100AE00001A905F0E7F902B010BD00BFA001002088
:100AF00005F0C9B870470020704770477047002064
:100B00007047704708B5034A034B044822211AF086
:100B10008FFC00BF04C90108E1C8010842C90108EF
:100B200008B5034A034B044827211AF081FC00BF93
:100B30008FC90108E1C8010842C9010810B5442164
:100B400004461AF046FC204610BD000038B50446A5
:100B500021460025064B25720C306060657201222B
:100B600041F8203B08F0A0FAE562204638BD00BFFE
:100B7000D8C901080120704738207047382303FB8B
:100B8000010008307047382303FB0100083070472C
:100B9000012070474FF4347070474FF4347303FBF7
:100BA0000100083070474FF4347303FB0100083034
:100BB0007047012070471020704700EB011008308B
:100BC000704700EB011008307047084601F020BB69
:100BD00010B5034B0360044607F0E9F8204610BD4A
:100BE00090CA010810B50446FFF7F2FF20464021E5
:100BF0001AF0EFFB204610BD10B5034B036004460E
:100C000007F0D5F8204610BD5CCA010810B50446AF
:100C1000FFF7F2FF20464FF436711AF0DAFB204658
:100C200010BD000010B5034B0360044607F0BFF889
:100C3000204610BD28CA010810B50446FFF7F2FF90
:100C4000204618211AF0C5FB204610BD10B5084BF0
:100C50000360044600F54170FFF7BAFF04F12C0071
:100C6000FFF7CAFF04F11400FFF7DCFF204610BDB8
:100C7000C4CA010808B50248FFF7E8FF08BD00BF75
:100C8000FC02002010B50446FFF7E0FF204640F2CA
:100C9000A4411AF09EFB204610BD00002DE9F3414F
:100CA00001F0FCF8054601F0FDF80024014623465A
:100CB0002846224600940CF017FF254B254A264D66
:100CC0001A60204601F0A2FE24480CF075FE2B6845
:100CD000BFF35B8FDB0735D428461AF07CFB88B363
:100CE0001F4C204B236004F5527604F1140004F1EC
:100CF0002C0804F541776060C4F80880E76026613D
:100D000007F056F8184B6361404607F051F8174B4F
:100D1000E362384607F04CF8154BC4F8043304F589
:100D2000517001F0EFFE224604F55171304601F09A
:100D3000DFFE304601F06CFA0E481AF097FB2846A9
:100D40001AF055FB0C4802B0BDE8F041FFF7B6BD04
:100D5000B819012024020020F80200200800002019
:100D6000FC020020C4CA010828CA01085CCA0108A4
:100D700090CA0108750C0008A80100207047000007
:100D80000148FFF7A9BD00BFA801002070B5224EA1
:100D9000224C234D234B23603046FFF7D7FE2846D5
:100DA00011F074F9204B2148DC6000224FF480716F
:100DB000C3E912121E491A86C3E91A121D4999671E
:100DC0001D4983F858200B60F02101801B485A66AA
:100DD00001801B4883F870204FF4A071C3E90422FE
:100DE000C3E90622C3E90822C3E90A22C3E90E22A5
:100DF000C3E91022C3E91422C3E917225A67C3E9E1
:100E0000016501800F4801800F490A70012283F8B3
:100E100034200E4A1A6070BDB0020020F402002097
:100E2000280200207CC50108A801002050190120DB
:100E300001000001000001015C1901205619012088
:100E400052190120581901205419012008C701081E
:100E5000024B902283F85823704700BF00E100E066
:100E6000094A0A49D3680A48C3F30A03013B9BB203
:100E70000B801169C1F30A01013901801364536BBE
:100E800043F001035363704700680140A20700204C
:100E9000A0070020014BD3F8AC0070470068014068
:100EA000024B0122C3F8AC105A627047006801403F
:100EB000064B586CDB68C3F30A0380B201339842D7
:100EC00026BFC01A80B20020704700BF00680140F2
:100ED00007F054BA07F05EBA07F01ABA07F07BBB06
:100EE000044B4FF08072C3F88820BFF34F8FBFF3DD
:100EF0006F8F704700E100E0024B4FF080729A6004
:100F0000704700BF00E100E070B5044607F04FFAFB
:100F100023685D6E0AF0ECF801462046A8470E4BA8
:100F2000A36323682046D3F89C3098474FF6FF739D
:100F3000984205D0094B1B7813B9012384F8483037
:100F40002368D3F8885000232046AC461A46BDE8F3
:100F500070404FF050416047F10A00085A190120D3
:100F600010B5144C236823B3134B144A1B6C11881F
:100F70008B4213D1124B198803F0A8FB226892F818
:100F80006A30013382F86A30FFF792FD206807F07B
:100F90004DFFBDE810400020FFF7DABB03F096FBE1
:100FA000206803681B6A9847BDE810400020FFF7DF
:100FB000F9BB10BD5C19012000680140A2070020A8
:100FC000A007002007B5064BADF806001B680548D2
:100FD00001220DF1060104F0EFF803B05DF804FB07
:100FE0000C0000203408002008B5054C20464FF4C2
:100FF000005102F05EFD4FF4FA7004F044FEF5E794
:1010000000180240F7B50023194E1A4D00931A48F4
:101010001A4F012102F042FD012805D138680A2348
:101020000022694604F015FF304602F085F9284693
:1010300002F082F90121304602F0FCF90121284634
:1010400002F0F8F9304602F048FA0446284602F069
:1010500044FAA4B244EA00440A2338680194002206
:1010600001A904F0F6FE642004F00DFECFE700BFF6
:10107000180A0020D009002000000240A807002024
:1010800030B595B0102200210AA81AF0D8FB14221E
:10109000002103A81AF0D3FB00241D4B01941A6C05
:1010A00042F080521A641B6C03F080530193019B41
:1010B000184B02941A6842F440421A601B6803F409
:1010C000404302930122029B4FF48033CDE9082371
:1010D00002254FF48003CDE90E5308214FF4A87385
:1010E000CDE9101308A804231393129503F00CFB09
:1010F0000F23CDE903354FF4A0504FF48053CDE9D1
:101100000603052103A8059403F0DAFC15B030BDF1
:1011100000380240007000402DE980489BB002F08A
:1011200025F8FFF7ADFF142200210DA800241AF0C6
:1011300086FBC84B00941A6BC748C84E42F0100299
:101140001A631A6B02F010020092009A01941A6B53
:1011500042F020021A631A6B02F020020192019AF7
:1011600002941A6B42F080021A631A6B02F080023A
:101170000292029A03941A6B42F004021A631A6BE9
:1011800002F004020392039A04941A6B42F00102E3
:101190001A631A6B02F001020492049A05941A6B06
:1011A00042F002021A631A6B02F002020592059ADB
:1011B00006941A6B42F040021A631A6B02F0400266
:1011C0000692069A07941A6B42F008021A631B6B88
:1011D00003F00803079322463C21079B02F064FCBE
:1011E0009F482246042102F05FFC9E4822464FF4AD
:1011F000405102F059FC22469B484FF40051012512
:1012000002F052FC4FF003093C239348CDF8409084
:101210000DA94FF0020A0427CDE90D350F9402F015
:1012200059FB8F48CDF840A00DA9CDE90D750F945D
:1012300002F050FB4FF440538A480DA9CDE90D351B
:101240004FF4005BCDE90F4A02F044FB0DA986483C
:10125000CDE90DB5CDE90F4402F03CFB8348844B4A
:10126000036002F02BFA834A834B3462C6E9002301
:1012700030464FF48043C6E90434C6E90244C6E967
:10128000064402F01FFE1021304603F063F82146A9
:10129000304603F07EF87948794984624FF48273CE
:1012A000C0E900134FF400761823C0E906630A234F
:1012B000744EC362C0E90244C0E90444C0E9084472
:1012C00003F01EFF704BC6F828B04FF01008C6E9B7
:1012D00000354023C6E904834FF4C073C6E90634E1
:1012E0004FF40063C6E908340DA907233046CDE961
:1012F0001039CDE90E374FF0080BC6E90247CDE9AA
:1013000012AACDF834A003F0DFFD4FF6FF7209A951
:101310003046CDE90AB5089409950C9403F0F4FD24
:10132000284601F04FFF4FF6FF7209A93046CDE97C
:1013300009ABCDE90B5403F0E7FD4FF6FF7209A9A5
:101340003046CDE9099BCDE90B7403F0DDFD4FF488
:101350000C730893089B0C934FF6FF7209A9304653
:10136000CDE9097B0B9503F0CFFD40F26A51304681
:1013700003F0E8FD342221460DEB02001AF05FFA7B
:10138000424E434B3461C6E900340923C6E90535B2
:101390001D2340F20D1CC6E9073940F24313C6E98C
:1013A00009C340F2171E40F247133046C6E90BE36B
:1013B000C6E90244B48686F8364003F08FF8FF2170
:1013C000F022CDE912144FF005094FF480614FF47B
:1013D000A073CDE90E24CDE91419CDE916420DA96B
:1013E00022463046CDE9103A2A4E18930D94ADF8B6
:1013F00064408DF8664003F03CF9274B33601B686E
:1014000098473368254EDB689847254B3046C6E938
:101410000034C6E902A4C6E90A4AC6E90C4402F04F
:101420005DF92946304602F011FA1E4EDFF878A029
:10143000424621460DA81AF002FA4FF48033C6E95D
:1014400000A34FF0007BDFF864A0C6F808B0304678
:1014500034612DE0003802400010024034090020C1
:1014600000080240000C024000180240C809002099
:1014700000300240005C0040A086010034080020DB
:1014800000500140B8070020400100A08C08002057
:1014900000680140A40700201400002088090020F3
:1014A00000B00240180A0020002001400100000F97
:1014B000347686F82040F462C6F828A0F460F5611E
:1014C00086F83040756101F091FE0D220DA930467D
:1014D000CDE90D252C4E0F9402F002F8214642462C
:1014E0000DA81AF0ACF9294AC6F808B04FF48033B9
:1014F0003046C6E90023C6E90AA43461347686F88A
:101500002040F460F56186F83040756101F06EFEB0
:101510000DA93046CDE90D95DFF8A4B00F9401F088
:10152000DFFF1B484FF4E133C0E900B30C23C0E9EF
:101530000534C0E902440461C46104F059FAFFF7BC
:1015400049F8FFF746F804F02BFB124A39464046AB
:1015500004F044FC104B114A18602146104804F076
:101560004BFB104B104A18602146104804F044FB16
:101570000F4B104A186021460F4804F03DFB0F4BFB
:10158000186004F01FFBFEE7D00900200021014095
:10159000EC07002010CB0108A807002070CB010841
:1015A000E90F0008B40700204CCB0108E305000850
:1015B000B007002028CB010805100008AC07002068
:1015C00000100140704770477FB5094B8DF8172018
:1015D0001B6802930DF117020123009201930A4642
:1015E0000146044802F016FD07B05DF804FB00BF99
:1015F00010000020340900207FB500238DF817303B
:10160000084B1B6802930A4601230DF11701009154
:1016100001930146044802F08DFD9DF8170007B0C4
:101620005DF804FB10000020340900201FB5084CB1
:1016300024680092CDE901340A4601230146054899
:1016400002F078FD003818BF012004B010BD00BFC3
:10165000100000203409002001F0B4BD10B5064C84
:1016600000222046042102F01FFA20460122BDE894
:101670001040042102F018BA0008024038B50B4DA2
:10168000044601220A484FF4005102F00DFA0022EC
:101690000421284602F008FA2046FFF793FC28466A
:1016A0000122BDE83840042102F0FEB900080240E2
:1016B000000C024038B50B4D044600220A484FF496
:1016C000005102F0F1F900220421284602F0ECF961
:1016D0002046FFF777FC28460122BDE83840042168
:1016E00002F0E2B900080240000C0240F7B5144EC7
:1016F000144F05460C4630460022042102F0D4F96E
:1017000000224FF40051384602F0CEF92846FFF788
:1017100059FC0D4B0D481B68224601A903F0F7FE4A
:10172000384601224FF40051019C02F0BDF93046C9
:101730000122042102F0B8F9204603B0F0BD00BF39
:1017400000080240000C02400C0000203408002079
:1017500001F038BD0268034B9A4201D101F020BD6F
:10176000704700BF001000407047000082B00E4B71
:1017700000220092596C41F480415964596C01F483
:101780008041009100990192196C41F080511964D7
:101790001B6C03F080530193019B0F216FF001003C
:1017A00002B001F04BBF00BF0038024010B5142258
:1017B0008AB0044600210DEB02001AF040F82368BD
:1017C000214A93421FD1214B2148002101915A6C9B
:1017D00042F480725A645A6C02F480720192019A47
:1017E00002911A6B42F004021A631B6B03F00403AC
:1017F00002930821029B0323CDE9051305A902F0FA
:1018000069F80AB010BD134A9342FAD10F4B12483F
:10181000002103915A6C42F400725A645A6C02F42B
:1018200000720392039A04911A6B42F001021A6348
:101830001B6B03F001030493049B20220323CDE9D7
:10184000052305A9DBE700BF002001400038024066
:101850000008024000210140000002400268094BDC
:101860009A4282B00BD100230193074B1A6B42F4CA
:1018700080521A631B6B03F480530193019B02B0E7
:10188000704700BF003002400038024007B50F4BE0
:1018900002689A4216D10022A3F5F0430192196B17
:1018A00041F4000119631B6B03F40003019305214C
:1018B0005A20019B01F0C2FE5A2003B05DF804EBF0
:1018C00001F0EEBE03B05DF804FB00BF00B00240C3
:1018D0002DE9F043044689B01422002103A819F031
:1018E000AEFF2268244B9A4243D1244C2448002561
:1018F0000095236B43F004032363236B03F004037D
:101900000093009B0195236B43F001032363236B3A
:1019100003F001030193019B4FF012094FF4007390
:101920004FF001080327042603A9CDE90339CDE9C7
:101930000587079601F0CEFF4FF480731148079694
:1019400003A9CDE90339CDE9058701F0C3FF02956D
:10195000236C43F400032364236C03F40003029319
:10196000029B236A43F400032362236A23F40003E7
:10197000236209B0BDE8F083005C004000380240FB
:101980000008024000000240F0B599B0044614225D
:10199000002107A819F053FF30220DEB02000021AF
:1019A00019F04DFF22685E4B9A4240F0B780082341
:1019B0000C93C0231093042312930CA84FF400330C
:1019C000159303F055F908B1FFF7CEFE554B564875
:1019D000002400945A6C42F080625A645A6C02F0FF
:1019E00080620092009A01941A6B42F020021A63FE
:1019F0001A6B02F020020192019A02941A6B42F0D3
:101A000001021A631A6B02F001020292029A039415
:101A10001A6B42F002021A631A6B02F0020203927E
:101A2000039A04941A6B42F040021A631A6B02F094
:101A300040020492049A05941A6B42F004021A635D
:101A40001A6B02F004020592059A06941A6B42F092
:101A500008021A631B6B03F00803069302250E2687
:101A6000069B0B964FF4806307A9CDE90735CDE9B6
:101A7000094501F02FFF41F658032C480B9607A9A2
:101A8000CDE907350927CDE9094501F023FF0323F7
:101A900027480B9707A9CDE90735CDE9094501F09E
:101AA00019FF4FF4706322480B9607A9CDE907355B
:101AB000CDE9094501F00EFF4FF40C631D480B966C
:101AC00007A9CDE90735CDE9094501F003FFC0239A
:101AD00019480B9607A9CDE90735CDE9094501F06D
:101AE000F9FE082315480B9607A9CDE90735CDE97E
:101AF000094501F0EFFE4FF4A0530E480B9707A9DC
:101B0000CDE90735CDE9094501F0E4FE582022462C
:101B1000052101F093FD582001F0C2FD19B0F0BD80
:101B200000680140003802400014024000000240FA
:101B3000000402400018024000080240000C02406D
:101B400010B5044688B01422002103A819F077FECE
:101B50002268144B9A4223D103F568430021019176
:101B60005A6C114842F480125A645A6C02F4801282
:101B70000192019A02911A6B42F020021A631B6BC8
:101B800003F020030293029B4FF4607202230321AF
:101B9000CDE903230523CDE9061303A901F09AFE3D
:101BA00008B010BD005001400014024010B50446BA
:101BB00088B01422002103A819F041FE2268144BBA
:101BC0009A4223D103F59433002101915A6C1148B4
:101BD00042F010025A645A6C02F010020192019A0B
:101BE00002911A6B42F001021A631B6B03F00103AE
:101BF0000293029B4FF4C06202230321CDE9032329
:101C00000723CDE9061303A901F064FE08B010BD57
:101C100000100140000002402DE9F04186B0002391
:101C200003932B4B1C68002C4FD14FF00108C3F8D5
:101C30000080284B00949A6B274842EA08029A6376
:101C40009B6B03EA08030093022703260C25009BE5
:101C500001A94FF63F03CDE90137CDE9046501F055
:101C600039FE1E48059501A9CDE90187CDE9034656
:101C700001F030FE48F233131948059501A9CDE96A
:101C80000137CDE9034601F025FE4FF68373154871
:101C9000059501A9CDE90137CDE9034601F01AFE0A
:101CA0004CF203731048059501A9CDE90137CDE940
:101CB000034601F00FFE60230C48059501A9CDE90C
:101CC0000137CDE9034601F005FE06B0BDE8F0811D
:101CD000600A002000380240001402400008024060
:101CE0000018024000100240000C024000040240B4
:101CF00070B588B000230293204B1A6C42F010029A
:101D00001A641B6C03F010030293054601A903A893
:101D1000029B02F08FFF069B4BBB02F06BFF184E3D
:101D2000184B336040F2E733F360174BB0FBF3F32B
:101D3000013B7360304600233361B360B36103F04D
:101D4000CBFD044680B9304603F088FC044658B900
:101D5000362001F0A5FC0F2D0DD82246294636204D
:101D600001F06CFC094B1D60204608B070BD02F00C
:101D700041FF4000D3E70124F6E700BF00380240EE
:101D8000640A00200010004040420F007C00002048
:101D90007047FEE7FEE7FEE7FEE77047014803F005
:101DA0009BBC00BF640A0020014802F005BC00BFD4
:101DB0008C080020014801F0BFBC00BF880900204A
:101DC0000120704708B519F033FE162303604FF069
:101DD000FF3008BD08B519F02BFE16230360FEE79F
:101DE00070B50D4614460E46731B9C4201DC20461E
:101DF00070BDAFF3008006F8010BF5E770B50D4636
:101E000014460E46731B9C4201DC204670BD16F83A
:101E1000010BAFF30080F5E74FF0FF3070474FF450
:101E200000534B600020704701207047002070472E
:101E30000A4A116808B5034609B9094911601068D2
:101E4000694603448B4206D919F0F2FD0C23036066
:101E50004FF0FF3008BD1360FCE700BFAC0A002064
:101E600090250120704710B50421044619F0B1FAFD
:101E7000204610BD012908B506D0022908D059B95D
:101E800000F010FE006808BD00F00CFE4068FAE7A4
:101E900000F008FE8068F6E70020F4E7004870478D
:101EA000A8CB01082020704713B5002451B1036866
:101EB00001948DF8034001AA9C680DF10303A0472B
:101EC00002B010BD0846FBE7C0897047008A704722
:101ED000C088704780887047807A00F07F00704724
:101EE000807AC00970470020704700009FED010A0A
:101EF000704700BF00000000704710B5082104467D
:101F000019F067FA204610BD0020704781807047A5
:101F1000C1807047018170474181704770477047A9
:101F200070477047704710B4C4880368121B8488D8
:101F30005B6D091B12B25DF8044B09B218474FF6EE
:101F4000FF7383814FF0FF3303621368C361106036
:101F500070477047704700F598730868496803C375
:101F6000704770477047416070477047064BC0F834
:101F70004C310023C0F8503100F5A273C0F848017D
:101F8000C0F84031704700BF4D20000801230372A4
:101F900070477047704710B4C268416854100346D8
:101FA00001EB6200D20748BF0A599B685DF8044BF9
:101FB00048BFD35818470346406830B19A681AB9E9
:101FC000D86800F0010070470120704710B50C215F
:101FD000044619F0FEF9204610BD10B51021044644
:101FE00019F0F7F9204610BD10B54FF4AE71044654
:101FF00019F0EFF9204610BD10B509F079F8036823
:10200000BDE81040DB6B184790F8252012B103683B
:102010005B691847704790F825201AB190F8242082
:1020200002B11860704710B50446D0F8400158B1AD
:102030000368DB68984738B1D4F8400103689B68AF
:1020400098470023C4F8403110BD00002DE9F14F3E
:10205000D0E9556A0746B06803681B6A9847B0F52F
:10206000137F05D2444B454AA321454819F0E0F9B6
:10207000706803681B6A98470F2803D8414B3F4A92
:10208000A421F2E7F06803681B6A98470B2803D87D
:102090003D4B3A4AA521E8E709F02AF8DFF8F0902D
:1020A000043009F063F8D9F8000010B10368DB6868
:1020B0009847D9F8000010B103681B689847DFF80B
:1020C000D480D8F8000010B103685B699847D7F84E
:1020D0003C0110B103685B689847D8F8000010B164
:1020E00003681B689847D7F83C0110B103689B68E8
:1020F0009847F068036800215B6A98474FF0000B2F
:10210000224BC0F804B0044680F808B00360B06801
:10211000036859465B6A9847054600F041FD7068C0
:10212000036859465B6A98472946064600F0FCFC5E
:10213000331DC7F83C61C9F80040C8F80050CAF820
:1021400000302B68C6F808A02846DB68EE63984785
:10215000336830461B689847214628460AF0DCFC65
:10216000236820461B69984723685B69204601B0B5
:10217000BDE8F04F184700BF38CE010838D101083C
:10218000ABCF0108F2CF010895D0010880D2010839
:102190009C19012098190120044B1B6893F85820C2
:1021A0000AB1D86C00B99868704700BF5C1901206B
:1021B000F8B5044617460E4609F0A6F8104B1C6009
:1021C000104B2360104B0025C4E951350F4BC4E977
:1021D00053551868036829469B68C4E94F55C4E9FC
:1021E00055769847284600F011FCFFF7D5FF11F00F
:1021F0007EFDFFF7D1FF11F0F5FD2046F8BD00BFD1
:10220000A81901202CD2010814D201085C19012060
:10221000064BC0F84C310023C0F8503100F5A273D2
:10222000C0F84801C0F84031704700BF4D20000899
:10223000406A7047806A704770478B88C0690A6837
:10224000DB0A50F823001044704710B50446BAB1B9
:10225000107B68B1537BD27A1B0203F4E0631A430C
:10226000236A03EB82031A888A4202D193F902009F
:1022700010BD05D8013880B204330028F3D1F7E748
:102280000020F5E710B52C21044619F0A2F82046ED
:1022900010BD000030B58BB00446BDF86050089505
:1022A000BDF85C5007959DF8505006959DF84C5030
:1022B00005959DF8485004959DF8445003959DF868
:1022C000405002959DF83C500195BDF8385000955E
:1022D0000AF07CF8064B2360159BE361169B236292
:1022E000199B63621A9BA36220460BB030BD00BFEE
:1022F000A4D201087047704770477047704770B5A7
:10230000036804461B6B15469847236829462046F8
:102310005B6BBDE870401847002310B5C0E901337E
:10232000C0E90333C0E90733C0E905334FF48073D4
:102330008384064B03600B88C384FF23044680F824
:10234000283007F07EF9204610BD00BFD0D9010823
:1023500030B50368018185B06D460146D3F88430FD
:1023600004462846984795E807003C3484E807006F
:1023700005B030BD30B50368418185B06D4601467A
:10238000D3F8843004462846984795E807003C3443
:1023900084E8070005B030BD0022028042808280C0
:1023A000C280704780F83610704770B503680446E5
:1023B0001B6B154698472368294620465B6EBDE88F
:1023C0007040184700207047806C70477047704716
:1023D000704710B54C21044618F0FBFF204610BD95
:1023E00010B54FF41371044618F0F3FF204610BDEA
:1023F00008B5FFF709FE08BD036870B55E6B124BA8
:102400001B6804468DB22BB9104B114A6C21114840
:1024100019F00EF81049828D0988914203D80F4BAC
:102420000B4A6D21F3E713F812200D4B1B6853F88C
:10243000220003681B6B9847291A3346204609B2CD
:10244000BDE87040184700BFAC19012004D3010853
:1024500046D3010881D30108B0190120C8D301086F
:10246000B419012000224FF0FF31C0E90021826041
:10247000704700000022C0E90122C0E90322C0E940
:102480000522C0E907224FF480728284014A02606B
:10249000704700BF10D4010837B54FF6FF730446EC
:1024A0000D4601A9ADF80430FFF736FF084B236055
:1024B0004FF0FF320023C4E90B322A7884F834202D
:1024C000204684F83530E38684F8383003B030BDD8
:1024D000ECD8010810B526220446002119F0AFF906
:1024E0002046FFF7C7FF0A4BA3624FF6FF73A38591
:1024F0004FF47F020023C4E90C32064A226023878E
:102500004FF0FF32C4E91023E363A364204610BDFB
:1025100030CE010878D401082DE9F04F04468DB083
:10252000A04600250AF04CF99F4BE56348F8403B74
:1025300026222946404619F082F94046FFF79AFFC5
:102540009A4B2364FF2384F8663004F16C034FF642
:10255000FF760AA9A56618460493ADF82860FFF730
:10256000DBFE04F1980304F1C4090AA91846059397
:10257000ADF828600126FFF7CFFE0AA948468DF87E
:102580002860FFF789FF04F5807304F59E7B1846E9
:102590000AA904F5BC7A01938DF82860FFF77CFF47
:1025A0000AA958468DF82860FFF776FF0AA9504619
:1025B0008DF82860FFF770FF04F5DA731846029370
:1025C000FFF788FF04F5007318460393FFF782FFB7
:1025D0002A4629464046FFF792FE40464FF4A07136
:1025E000FFF798FC4046F021271DFFF795FC4FF0C0
:1025F0007F43A3664146384605F0EEFB2A46049821
:102600006FF01001FFF77BFE4FF002030498ADF866
:1026100028300AA907F015F80499384605F0DCFBC4
:102620009D220598D521FFF76AFE0F230598ADF886
:1026300028300AA907F005F80599384605F0CCFBC3
:1026400029464846B822FFF75AFE1A224846182162
:1026500006F00AFE3146484606F019FE2B46324681
:102660002946484606F058FD4946384605F0B4FB71
:102670000198DFF83C919F220B21FFF740FE019863
:102680001522142106F0F0FD0198314606F0FFFDF9
:102690002B4632460198294606F03EFD019984F802
:1026A0002551384605F098FB58468C221221FFF739
:1026B00026FE13225846122106F0D6FD3146584612
:1026C00006F0E5FD2B4632462946584606F024FD25
:1026D0005946384605F080FB50467822F321FFF733
:1026E0000EFE04225046032106F0BEFD3146504640
:1026F00006F0CDFD2B4632462946504606F00CFD2D
:102700005146384605F068FB02981C222821FFF745
:10271000F6FDD4F8B4310299D3F88430A4F8E85126
:102720000DF118084FF07F42C4F8E4214046984765
:1027300098E8070004F5F87383E807004FF00203F8
:102740000298ADF82C300AA9CDF8289006F0B2FE18
:102750000299384605F040FB03981C22BF21FFF781
:10276000CEFD4FF07F43C4F83032D4F800320399E5
:10277000D3F88430A4F834524046984798E80700CC
:1027800004F50F7383E807000398CDF828900AA991
:10279000ADF82C6006F08EFE3846039905F01CFB60
:1027A00020460DB0BDE8F08F08D5010868D90108B2
:1027B00030CE01087047000030B5164D2C68BFF3CD
:1027C0005B8F14F001048FB020D1284618F003FE6F
:1027D000E0B13F230993104B0893104B1049114867
:1027E0000A940122CDE906430423CDE903320A23EA
:1027F0000093CDE90B44CDE901440594FFF74AFD70
:10280000094818F033FE284618F0F1FD05480FB0CE
:1028100030BD00BFB00A002078E4010884E401085C
:1028200040E30108B40A0020B52700087047000003
:1028300030B5174D2C68BFF35B8F14F001048FB0D7
:1028400022D1284618F0C7FDF0B13F230993114B60
:102850000893114B07930123CDE905430493042307
:10286000CDE902430F230D49009314221223CDE931
:102870000B440B480A940194FFF70CFD094818F02B
:10288000F5FD284618F0B3FD05480FB030BD00BF78
:10289000E00A00207CE4010888E4010850E3010814
:1028A000E40A00202D2800087047000030B5164DBE
:1028B0002C68BFF35B8F14F001048FB020D1284641
:1028C00018F089FDE0B13F230993104B0893104B9A
:1028D000104911480A940122CDE906430423CDE9A9
:1028E000033228230093CDE90B44CDE9014405943C
:1028F000FFF7D0FC094818F0B9FD284618F077FD1D
:1029000005480FB030BD00BF100B002080E4010867
:102910008CE4010868E40108140B0020A9280008D1
:1029200000207047002070470EB403B503AB0021B0
:1029300053F8042B019309F071FB02B05DF804EB2E
:1029400003B070470CB407B504AB53F8042B0193E4
:1029500009F064FB03B05DF804EB02B070470000BF
:10296000436C10B5044673B3038F2BB9184B194A47
:10297000C521194818F05CFDC38E00EB43035B8C46
:102980000BB30AF0DEFD238F012B03D8134B144A3F
:10299000CB21EEE7E28E531C9BB2092B194688BF70
:1029A000A3F10A0104EB410140F63F10498C81423A
:1029B00009D10A2B04EB420228BF002304EB430396
:1029C000508C588451842046BDE810400AF0BCBCAD
:1029D00034D501083DD50108E8D5010832D60108F3
:1029E00040D601080AF077BC10B586B002AC84E886
:1029F00006001A460AAB05930193099B00932146F2
:102A0000089B07F013FF06B010BD000038B518BBD7
:102A1000124B13481C681349B4B122682244026067
:102A2000626822440A60A26814440F4B00221A8094
:102A300000F038F8054600F033F80C4B1C600C4BE6
:102A40001D600C4B188007E00B4B03600B4B0B60B9
:102A50000B4B1C68002CE8D138BD00BF4C0B00208C
:102A6000440B0020400B0020480B0020AC19012033
:102A7000B4190120B0190120A0E4010890E4010874
:102A8000ECE40108044B1B6853F82100034B1B685E
:102A900003EB4000704700BF400B0020440B0020B8
:102AA0000420704700487047500B002010B5FFF716
:102AB000BFFE044C2060FFF7F9FE6060FFF77CFE6C
:102AC000A06010BD500B0020704710B54FF4AE71E0
:102AD000044618F07EFC204610BD10B50446D0F820
:102AE000580100F012F82046BDE8104008F09CBBE9
:102AF00010B50446FFF75CFB014B2360204610BD78
:102B00001CD70108002202607047704770470438E4
:102B10007047704710B51021044618F05AFC204643
:102B200010BDA0F10400F5E700228260024A0260B5
:102B300018324260C160704770D7010870470000CA
:102B400013B504460A4800224FF0FF3301A900687C
:102B500003F0B0F9BDF80430402B35BF002201224C
:102B60000123002384F8612184F8253102B010BDCF
:102B7000A807002010B5034B03600446FFF726FCAE
:102B8000204610BD98D7010810B50446FFF7F2FFA4
:102B900020464FF4137118F01CFC204610BD0000B5
:102BA00010B50446FFF7B8FC014B2360204610BD6A
:102BB00098D7010838B5044604F1C405FFF707FCAF
:102BC0002846B4220021FFF79AFB01231A46284623
:102BD000002104F59E7506F09FFA28468C221921E3
:102BE000FFF78DFB01231A462846002104F5807566
:102BF00006F092FAA12215212846FFF780FB012357
:102C00001A460021284606F087FA002384F8253169
:102C100038BDF02070474FF4A07070472920FEF7B0
:102C200049BD2820FEF746BD08B5FEF717FDCA20AE
:102C3000FEF740FDC320FEF721FD0820FEF71EFD34
:102C40005020FEF71BFDCF20FEF734FD0020FEF7DD
:102C500015FDC120FEF712FD3020FEF70FFDED201F
:102C6000FEF728FD6420FEF709FD0320FEF706FDB0
:102C70001220FEF703FD8120FEF700FDE820FEF79D
:102C800019FD8520FEF7FAFC0020FEF7F7FC7820FE
:102C9000FEF7F4FCCB20FEF70DFD3920FEF7EEFC2D
:102CA0002C20FEF7EBFC0020FEF7E8FC3420FEF7BA
:102CB000E5FC0220FEF7E2FCF720FEF7FBFC2020FB
:102CC000FEF7DCFCEA20FEF7F5FC0020FEF7D6FC60
:102CD0000020FEF7D3FCB120FEF7ECFC0020FEF74D
:102CE000CDFC1B20FEF7CAFCB620FEF7E3FC0A2051
:102CF000FEF7C4FCA220FEF7C1FCC020FEF7DAFC00
:102D00001020FEF7BBFCC120FEF7D4FC1020FEF71C
:102D1000B5FCC520FEF7CEFC4520FEF7AFFC152024
:102D2000FEF7ACFCC720FEF7C5FC9020FEF7A6FC22
:102D30003620FEF7BFFCC820FEF7A0FCF220FEF70D
:102D4000B9FC0020FEF79AFCB020FEF7B3FCC220CD
:102D5000FEF794FCB620FEF7ADFC0A20FEF78EFCD1
:102D6000A720FEF78BFC2720FEF788FC0420FEF747
:102D700085FC2A20FEF79EFC0020FEF77FFC002049
:102D8000FEF77CFC0020FEF779FCEF20FEF776FCD6
:102D90002B20FEF78FFC0020FEF770FC0020FEF7D2
:102DA0006DFC0120FEF76AFC3F20FEF767FCF62071
:102DB000FEF780FC0120FEF761FC0020FEF75EFCC0
:102DC0000620FEF75BFC2C20FEF774FCC820FEF703
:102DD000BFFC2620FEF76EFC0120FEF74FFCE02032
:102DE000FEF768FC0F20FEF749FC2920FEF746FCA1
:102DF0002420FEF743FC0C20FEF740FC0E20FEF7DB
:102E00003DFC0920FEF73AFC4E20FEF737FC782007
:102E1000FEF734FC3C20FEF731FC0920FEF72EFCC7
:102E20001320FEF72BFC0520FEF728FC1720FEF7E9
:102E300025FC1120FEF722FC0020FEF71FFCE120FC
:102E4000FEF738FC0020FEF719FC1620FEF716FCF2
:102E50001B20FEF713FC0420FEF710FC1120FEF7E8
:102E60000DFC0720FEF70AFC3120FEF707FC33209B
:102E7000FEF704FC4220FEF701FC0520FEF7FEFBF6
:102E80000C20FEF7FBFB0A20FEF7F8FB2820FEF7DC
:102E9000F5FB2F20FEF7F2FB0F20FEF7EFFB1120D2
:102EA000FEF708FCC820FEF753FC2920FEF702FCC1
:102EB000BDE808402C20FEF7FDBB08B5FEF7CEFBB1
:102EC0000321D320FEF712FC80B208BD10B5C4B2B6
:102ED000022203212046FEF777FB0A20FEF7BCFB07
:102EE000204600220321FEF76FFBBDE810400220C0
:102EF000FEF7B2BB38B50446E4B2FEF763FB00212F
:102F00002046FEF779FB012105462046FEF774FBBB
:102F100040EA052080B238BD10B5C4B24021204639
:102F2000FEF76AFB030607D54C212046FEF764FB3B
:102F3000003818BF012010BD01224B212046FEF7AA
:102F400043FB204600224B21FEF73EFB0020F2E728
:102F500073B50423C4B20E461546D7210DEB030208
:102F60002046FEF763FB019B1BBA1A0DC3F30B232C
:102F7000328020462B8001224B21FEF725FB0022C8
:102F80004B212046FEF720FB02B070BD10B50A4A67
:102F90001378984204460DD0517888420AD00BB17C
:102FA00041B90123D454FEF70DFB2046BDE8104083
:102FB000FFF78CBF10BD00BF5C0B002010B5C4B282
:102FC00009212046FEF718FB40F00102D2B220464C
:102FD0000921BDE81040FEF7F7BA10B5C4B20921C7
:102FE0002046FEF709FB092100F0FE022046BDE85D
:102FF0001040FEF7E9BA38B5C4B20D4620460A21A2
:10300000FEF7FAFA40EA0502D2B220460A21BDE8EC
:103010003840FEF7D9BA10B50446FEF7D4FA204678
:103020001F21FFF7E8FF2046BDE81040FFF7C6BFAD
:1030300038B5C4B20D4620460A21FEF7DDFA20EA73
:103040000502D2B220460A21BDE83840FEF7BCBADC
:1030500010B50446FFF7C1FF20461F21BDE8104010
:10306000FFF7E6BF10B5C0B20C460B21FEF7C4FA5D
:10307000204010BD1F21FFF7F5BF0A46C0B20B214B
:10308000FEF7A2BA1F21FFF7F8BF38B5C4B20D464C
:1030900020461721FEF7B0FA20EA0502D2B22046F8
:1030A0001721BDE83840FEF78FBA70B5C4B20646A6
:1030B00004212046FEF7A0FA042100F0FB02054699
:1030C0002046FEF781FA3046F021FFF7DEFF05F0DB
:1030D000F80220460421FEF777FA492220212046F3
:1030E000FEF772FA0220FEF7B7FA204601222121EC
:1030F000FEF76AFA20469A224121FEF765FA204639
:1031000001224A21FEF760FA204601224B21FEF7F8
:103110005BFA204600224B21FEF756FA2046012298
:103120005621FEF751FA204601225821FEF74CFAAB
:10313000204601224021FEF747FA2046FF220B21BC
:10314000FEF742FABDE870400220FEF785BA0000A3
:10315000054BD3F8882042F47002C3F888204FF062
:1031600000629A60704700BF00ED00E008B50B4BAD
:103170001A6842F400721A601A6842F480621A6097
:103180001A6842F480721A60032000F045FA0020A9
:10319000FEF7AEFDFEF7EAFA002008BD003C024053
:1031A000034A044B11681B780B441360704700BF3F
:1031B000600B002078000020014B1868704700BFAA
:1031C000600B002038B50446FFF7F6FF631C1CBFF8
:1031D000054B1B78054618BFE418FFF7EDFF431BAE
:1031E000A342FAD338BD00BF7800002038B50446AA
:1031F000002800F09B80056C25B9FEF7D7FA6564BE
:1032000084F83C50236CDB0600F18E80236C23F4A1
:10321000885323F0020343F002032364444B5A68AB
:1032200022F440325A605A6861680A435A6023683F
:1032300021695A6822F480725A605A6842EA01226F
:103240005A605A68A16822F040725A605A680A436C
:103250005A609A68E16822F400629A609A680A43A8
:103260009A603449A26A8A4252D0996821F070610A
:10327000996099680A439A609A68E16A22F040521C
:103280009A609A680A439A609A6822F002029A60E9
:103290009A68217E42EA41029A6094F82020002A2E
:1032A0003ED05A68616A42F400625A605A6822F459
:1032B00060425A605A68013942EA41325A60DA6A19
:1032C000E16922F47002DA62DA6A013942EA0152F3
:1032D000DA629A6822F400729A609A6894F8301060
:1032E00042EA41229A609A68616922F480629A6097
:1032F0009A68002042EA81229A606064236C23F07D
:10330000030343F001032364002384F83C3038BDF9
:103310009A6822F070629A609A6822F04052B2E78E
:103320005A6822F40062C9E70120EDE70120EEE7C8
:10333000002301400100000F82B00023019390F8A8
:103340003C30012B69D0012380F83C3003689A6837
:10335000D2070BD59A68D1071AD4036C43F0100337
:103360000364436C43F0010343644CE09A682C49C6
:1033700042F001029A602B4A1268B2FBF1F202EBB2
:1033800042020192019A002AE4D0019A013AF8E738
:10339000026C22F4E06222F0010242F480720264C4
:1033A0005A68520541BF026C22F4405242F48052E6
:1033B0000264026C12F480521CBF426C22F00602BE
:1033C0004264002280F83C206FF022021A60164A04
:1033D000516811F01F0F15491CD18B4207D001F520
:1033E00080718B420CD1526812F01F0F0BD19A687A
:1033F00012F0405F07D19A6842F080429A6002E082
:103400000B498B4202D0002002B07047526812F084
:10341000100FEBE78B42F6D1E9E70220F4E700BF9B
:1034200040420F00740000200023014000200140B2
:103430000022014003689A68520570B504460D46A3
:103440000BD59B68DE0508D5036C43F020030364AD
:10345000002380F83C30012070BDFFF7ADFE06462A
:1034600023681A6891070CD56FF012021A60226C5B
:1034700042F4007222649A6812F0405F17D0002074
:10348000EAE7681CEDD065B923681B6813F00203F6
:10349000E6D1226C84F83C3042F00402226403201E
:1034A000DAE7FFF789FE801BA842EDD8D8E7227E35
:1034B000002AE4D1DA6A12F4700F02D09B685A0530
:1034C000DDD4236C23F480732364236CDB04D6D413
:1034D000236C43F001032364D1E70368D86C704781
:1034E000F7B50023019390F83C30012B054600F01E
:1034F0008680012380F83C3008682B688E68092894
:1035000084B233D904EB4402DF681E3A4FF0070C53
:103510000CFA02FC27EA0C07DF60DF6806FA02F209
:103520003A43DA604968062901EB81022DD8596BCC
:10353000053A1F26964021EA06015963596B04FAA1
:1035400002F20A435A632F4A93420AD1122837D112
:103550002D4B5A6822F400025A605A6842F48002E5
:103560005A60002085F83C0003B0F0BD1A6900EBFA
:10357000400C072707FA0CF722EA07021A611A69BA
:1035800006FA0CF616431E61CCE70C294FF01F011A
:103590000BD81E6B233A914026EA01011963196B7F
:1035A00004FA02F20A431A63CDE7DE6A413A914017
:1035B00026EA0101D962D96A94400C43DC62C2E771
:1035C000124B984201D01128CBD10F4B5A6822F4EC
:1035D00080025A605A6842F400025A600B4B9842CB
:1035E000BFD10B4B0B4A1B68B3FBF2F30A225343C8
:1035F0000193019B002BB4D0019B013BF8E7022013
:10360000B2E700BF0020014000230140120000107B
:103610007400002040420F000749CA6822F4E062AB
:103620000302120403F4E063120C134343F0BF637C
:1036300043F40033CB60704700ED00E0164B30B52B
:10364000DC68C4F30224C4F10703251D042B28BF42
:103650000423062D4FF0FF358CBF033C002405FAF0
:1036600003F321EA0303A54022EA0502A340002850
:1036700043EA0203ACBF00F16040084A4FEA03137B
:10368000B8BF00F00F00DBB2AABF00F561401354D1
:1036900080F8003330BD00BF00ED00E014ED00E025
:1036A000002807DB044A4109012300F01F00834082
:1036B00042F82130704700BF00E100E010B5044639
:1036C00050B1437903F0FF0213B90271FEF7C6F857
:1036D00001236371002010BD0120FCE710B50446F2
:1036E00030B390F8393003F0FF021BB980F838206E
:1036F000FEF7CCF822686168022384F83930136839
:1037000023F440330B431360536BA16823F007038A
:103710000B435363136CE16823F47F5323F03F039F
:103720000B43136400200123E06384F8393010BD9B
:103730000120FCE770477047036870B55E681D683C
:10374000F207044614D5E90512D51A6822F48072EE
:103750001A60C26B42F00102C26301229A60042324
:1037600080F83930002380F83830436903B1984736
:10377000B20616D5AB0414D523681A6822F4005299
:103780001A6020229A60E36B43F00203E363042390
:1037900084F83930002384F8383063690BB120464F
:1037A0009847300716D5290514D523681A6822F4DE
:1037B00000621A6008229A60E36B43F00403E3633B
:1037C000042384F83930002384F8383063690BB15E
:1037D0002046984772070BD56B0509D523681A68F0
:1037E00022F480621A6004229A602046FFF7A2FF4A
:1037F000B00714D5A90512D523681A6822F40072FF
:103800001A6002229A60E36BE363012384F8393083
:10381000002384F8383023690BB120469847F2061C
:1038200013D5EB0411D523681A6822F480521A606C
:1038300010229A60E36BE363012384F8393000239C
:1038400084F838302046FFF776FF70BDF0B590F869
:103850003820012A03464FF002002BD0012283F8C2
:10386000382083F8390003EB0112D2E90740556A8A
:10387000174F44EA0040093C012C9CBF05F07F42F1
:1038800010434FEA01161A6888BF40EA056091B9F3
:10389000516A394001435162012C9969916103D801
:1038A000596A21F07F4191620122002083F839207A
:1038B00083F83800F0BDD16939400143D1619919CD
:1038C000012C896911619CBF25F07F451562EBE7EA
:1038D000F0FFFC002DE9F74FDFF8BC916C4A0023A4
:1038E0000D6801249C4004EA0506AC4340F0B78013
:1038F0004D68032705F003044FEA430807FA08FC64
:10390000671E012F6FEA0C0C34D8876807EA0C0E8B
:10391000CF6807FA08F747EA0E078760476827EA83
:10392000060EC5F300179F4047EA0E074760C768B9
:1039300007EA0C0E8F6807FA08F747EA0E07022C11
:10394000C76019D14FEAD30A00EB8A0A03F0070BCC
:10395000DAF820704FEA8B0B4FF00F0E0EFA0BFEC9
:1039600027EA0E0E0F6907FA0BF747EA0E07CAF8A7
:10397000207001E0032CDAD1076804FA08F407EAA2
:103980000C073C4315F4403F046068D000240194C8
:10399000D9F8444044F48044C9F84440D9F844403C
:1039A00023F0030707F1804704F4804407F59C37B0
:1039B000019403F0030C019CD7F808E04FEA8C0C4B
:1039C0000F2404FA0CF42EEA040E324CA0424DD01F
:1039D00004F58064A0424BD004F58064A04249D035
:1039E00004F58064A04247D004F58064A04245D02D
:1039F00004F58064A04243D004F58064A04241D025
:103A000004F58064A0423FD004F58064A0423DD01C
:103A100004F58064A04214BF0A24092404FA0CF4BB
:103A200044EA0E04BC609468F74315F4801F0CBF91
:103A30003C4034439460D46815F4001F0CBF3C40F4
:103A40003443D460546815F4003F0CBF3C40344309
:103A500054601468ED0354BF3C4034431460013398
:103A6000102B7FF43DAF03B0BDE8F08F0024D5E705
:103A70000124D3E70224D1E70324CFE70424CDE7D0
:103A80000524CBE70624C9E70724C7E70824C5E7D0
:103A9000003C014000000240003802400369194226
:103AA00014BF0120002070470AB1816170470904EA
:103AB000FBE7436901EA030221EA030141EA02410B
:103AC0008161704701684B6913F480634FF0000215
:103AD00010D06FF480634B612023026380F83D3087
:103AE00080F83E20036C80F83C2043F0040303641C
:103AF00001207047184670472DE9F84606460F46E4
:103B000091461D464FEA114A3368BAF1010F0CBFC6
:103B10005C699C6927EA0404A4B2B4FA84F46409D9
:103B2000A14501D0002025E06A1CEED0FFF744FB40
:103B3000089BC01AA84201D8002DE5D13368BAF11C
:103B4000010F0CBF5B699B6927EA03039BB2B3FAC1
:103B500083F35B099945D7D100232022336386F88C
:103B60003D2086F83E30326C86F83C3042F0200230
:103B700032640120BDE8F8862DE9F04104460F4685
:103B8000164698462568686927EA000080B2C0B1E9
:103B90006B695A0517D52B6843F400732B606FF4DB
:103BA00080636B6120220023236384F83D2084F826
:103BB0003E30236C43F004032364002384F83C303C
:103BC0000120BDE8F081731CDDD0FFF7F5FAA0EB12
:103BD0000800B04201D8002ED4D123685A6927EAE0
:103BE000020292B2002ACDD000232022236384F85F
:103BF0003D2084F83E30236C1343DDE770B5044666
:103C00000D46164623685B691B0601D500201EE0A1
:103C10002046FFF757FFC8B96A1CF3D0FFF7CCFA6C
:103C2000801BA84201D8002DECD123685B6913F0FA
:103C30008003E7D12022236384F83D2084F83E30BE
:103C4000226C84F83C3042F020022264012070BDD6
:103C50002DE9F0431546026885B0DDE90C789946F8
:103C6000136843F4807313600E463B46CDF8008022
:103C700000224FF001110446FFF73EFF236838B1E0
:103C80001B68DB0502D54FF400732364032620E094
:103C900006F0FE061E611A4943463A462046FFF7E3
:103CA0006BFFA8B9236803905A6903929B69039339
:103CB000424639462046039BFFF7A0FF064660B107
:103CC000236C042B01BF2268136843F40073136054
:103CD0000126304605B0BDE8F083B9F1010F236835
:103CE00002D1EDB21D61F4E72A0A1A613946424653
:103CF0002046FFF783FF0028E2D12368F1E700BFE9
:103D0000020001002DE9FF479A46036815461A682C
:103D100042F480621A601A68DDE90C7842F480721D
:103D20001A600E463B46CDF8008000224FF001118C
:103D30000446FFF7E1FE236838B11B68DB0544BF8A
:103D40004FF400732364032021E05FFA86F906F044
:103D5000FE061E612B4943463A462046FFF70CFFFC
:103D6000A0B9236803905A6903929B690393424662
:103D700039462046039BFFF741FF58B1236C042BC3
:103D800001BF2268136843F400731360012004B07C
:103D9000BDE8F087BAF1010F23681AD1EDB24246AF
:103DA0001D6139462046FFF729FF02460028E5D16C
:103DB00021680B6843F480730B602046CDF80080C7
:103DC0003B464FF00111FFF797FE226860B1136880
:103DD000B4E72A0A1A61394642462046FFF70EFF29
:103DE0000028CBD12368D9E749F0010313610549C5
:103DF00043463A462046FFF7BFFE003818BF012071
:103E0000C5E700BF0200010070B504460D46164626
:103E100023685B695B0701D500201EE02046FFF7A1
:103E200051FEC8B96A1CF3D0FFF7C6F9801BA8423F
:103E300001D8002DECD123685B6913F00403E7D1AE
:103E40002022236384F83D2084F83E30226C84F8DD
:103E50003C3042F020022264012070BD70B504465F
:103E60000D46164621684B6913F0400301D000202F
:103E700011E04A69D2060FD56FF010024A61202284
:103E8000236384F83D2084F83E30236C23640023B0
:103E900084F83C30012070BDFFF78EF9801BA842EA
:103EA00001D8002DDED123685B6913F04003D9D11E
:103EB0002022236384F83D2084F83E30236C134392
:103EC000E4E7000070B5044608B9012070BD90F821
:103ED0003D3003F0FF021BB980F83C20FDF7F8FCF1
:103EE000242384F83D3023681A6822F001021A6006
:103EF0001A6842F400421A601A6822F400421A60FA
:103F000000F078FE3F4B65689D4294BF3E4B3F4BAF
:103F100098428CBF00230123002BD6D12268394E52
:103F200051683B4BB0FBF3F321F03F011943B5421D
:103F3000516088BF4FF49676116A88BF734321F0B1
:103F40003F0184BF4FF47A76B3FBF6F301330B43A2
:103F50001362D169431E2B4821F44F41854221F061
:103F6000FF0132D86D0040F6FC70B3FBF5F301336E
:103F7000034242D0C3F30B031943D161D4E90730A4
:103F80001168034321F0C0010B4313609168D4E929
:103F9000030321F40341034321F0FF010B4393602A
:103FA000D4E90530D168034321F0FF010B43D3600E
:103FB000136843F00103136000202023206484F879
:103FC0003D30206384F83E0080E7A06850B905EBDF
:103FD0004505B3FBF5F30133C3F30B037BB143F4A6
:103FE0000043C9E719206843B3FBF0F30133C3F37F
:103FF0000B0323B143F44043BEE70423BCE7012392
:10400000BAE700BFA08601007F841E00FF083D00C4
:1040100040420F002DE9F743044699460C9E0F4697
:104020009046FFF7C9F894F83D30202B054603D0A1
:10403000022003B0BDE8F08300903C49192301221F
:104040002046FFF759FD0028F2D194F83C30012BAF
:10405000EED02068012384F83C300368D9075EBFA6
:10406000036843F001030360036823F40063036003
:10407000212384F83D30402384F83E30002323641C
:104080000A9B6362BDF82C306385638D2385284BC2
:10409000E3624246CDE900654B4639462046FFF7CC
:1040A000D7FD00282AD00120C3E7FFF7A7FD40B1C4
:1040B000236C042B01BF2268136843F40073136060
:1040C000F1E7636A27681A4612F8011B39616262D8
:1040D000628D218D013A92B262857A69481E80B262
:1040E000520720850AD548B15A783A610233636293
:1040F000638D013B02399BB221856385238D2A465E
:1041000031462046002BD0D1FFF77EFE0028CFD1CC
:104110002268136843F400731360202384F83D3051
:1041200084F83C0084F83E0083E700BF02001000E2
:104130000000FFFF2DE9F043044687B09946109F29
:104140000D469046FFF738F894F83D30202B064690
:1041500004D00225284607B0BDE8F08300907A49D4
:10416000192301222046FFF7C7FC0028F1D194F85B
:104170003C30012BEDD02068012384F83C300368EB
:10418000DB075EBF036843F001030360036823F4A9
:1041900000630360222384F83D30402384F83E30DE
:1041A000002323640E9B6362BDF83C306385638DFE
:1041B0002385664BE3622946CDE900764B464246AD
:1041C0002046FFF79FFD054608B10125C2E7228D75
:1041D0002368B2B902905A6902929A690292029ACD
:1041E0001A6842F400721A60DFF86481238D002B94
:1041F0002CD1202284F83D2084F83C3084F83E30D5
:10420000A8E7012A0AD11A6822F480621A60039092
:104210005A6903929A690392039AE1E7022A0ED13E
:104220001A6822F480621A601A6842F400621A6006
:1042300004905A6904929B690493049BD4E7059007
:104240005A6905929B690593059BCDE7032B56D8C8
:10425000012B15D1324639462046FFF7FFFD0028D5
:10426000B3D123681A69636A1A70636A013363629F
:10427000238D013B2385638D013B9BB26385B5E7AD
:10428000022B00963B464FF000024146204619D1D2
:10429000FFF732FC002898D123681A6842F40072B4
:1042A0001A601A69636A1A70626A531C6362238D0A
:1042B000013B2385638D013B9BB2638523681B69AA
:1042C0005370D2E7FFF718FC024600287FF47DAF59
:1042D0002368196821F4806119601969636A19708B
:1042E000636A01336362238D013B2385638D013B48
:1042F0009BB26385414600963B462046C8E732465E
:1043000039462046FFF7AAFD00287FF45EAF2368F8
:104310001A69636A1A70628D616A013A92B24B1C23
:10432000628522686362238D5069013B9BB240071E
:1043300023857FF55BAF032B02BF136823F48063F3
:10434000136013694B7090E7020010000000FFFF3C
:104350000400010010B590F83D30202BDCB216D1DE
:10436000242380F83D3003681A6822F001021A60A5
:104370005A6A22F010025A625A6A114359621A6844
:1043800042F001021A6080F83D40002010BD02207A
:10439000FCE730B590F83D30202BDCB216D1026836
:1043A000242380F83D30136823F001031360556A1D
:1043B0004FF6F0732B400B439BB25362136843F0EC
:1043C0000103136080F83D40002030BD0220FCE76F
:1043D0000068D1F800C0D201843283182DE9F0437F
:1043E000C6685D684C68D1F8189005F470455D604A
:1043F000C5680CF10107C5F30B45C6F30B463D44F8
:10440000264445EA06455D60C668CD68C6F30A06DF
:104410002E449D6805F470459D60C7688D68C7F39C
:104420000A0701353D4445EA06459D601D690E6950
:1044300025F007051D614FF0000E1E619D6991F882
:10444000327091F83180C3F818E091F8305045EAA5
:10445000096545EA082545EA07459D615D6925F03E
:10446000FF055D614D695D61DD6925F4E06525F05D
:104470000705DD61D1E907573D43DD619D6A4D6A5E
:10448000C3F828E09D621EB3012E23D0B51E022D75
:1044900022D9072E14BF01250225DE6A06F0E02688
:1044A000DE62A4EB0C048E6AC96A6C436E4303346B
:1044B00044EA0644DC621C6B24F4FF6424F0070425
:1044C0001C631963835843F001038350BDE8F083F4
:1044D0000425E2E70325E0E70225DEE738B50446D8
:1044E000002863D090F8A13003F0FF021BB980F8D8
:1044F000A020FDF749FA022384F8A13023689A69C5
:1045000022F070429A61D4E901200243E06899697F
:104510000243206902430A439A619A682449606908
:104520000A409A609A6842EA0042A06902439A608F
:10453000DA68E0690A40DA60DA6842EA0042206A32
:104540000243DA601A69606A0A401A611A6942EA2B
:104550000042A06A02431A615A690A405A615A69C4
:10456000E16A42EA0142216B0A435A61DA6A94F82D
:10457000350094F8361002F07F42DA62DD6A94F872
:1045800034202A4342EA002242EA0142DA625A6BAC
:1045900042F006025A639A6942F001029A610020D1
:1045A0000123C4F8A40084F8A13038BD0120FCE741
:1045B00000F800F070477047036870B59E6B5D6B44
:1045C0007207044614D5690712D55A6B22F004020B
:1045D0005A630422DA63D0F8A43043F00103C0F830
:1045E000A430002380F8A12080F8A030FFF7E2FF7C
:1045F000B20716D5AB0714D523685A6B22F0020216
:104600005A630222DA63D4F8A4301343C4F8A43006
:10461000042384F8A130002384F8A0302046FFF75B
:10462000C9FFF00710D5E9070ED523685A6B22F0B1
:1046300001025A630122DA63002384F8A12084F87E
:10464000A0302046FCF78CFC320711D52B070FD584
:1046500023685A6B22F008025A630822DA630123A6
:1046600084F8A130002384F8A0302046FFF7A3FF90
:1046700070BD2DE9F04190F8A030012B06460F46A1
:1046800094464FF002001FD04FF0010886F8A0803A
:1046900086F8A10034240D4604FB02640FCD3834A3
:1046A0000FC40FCD0FC40FCD0FC42B68236030464D
:1046B00062463946FFF78CFE33680020C3F8248039
:1046C00086F8A18086F8A000BDE8F08190F8A020CF
:1046D000012A03464FF0020012D01A6883F8A100A5
:1046E000506B20F00100506306480164516B41F0AB
:1046F000010151630020012283F8A12083F8A0006A
:10470000704700BF006801402DE9F341044640B303
:104710000368DE0710D423689D075BD4236819075C
:1047200000F19D8023685A0700F1BD80A369002B2A
:1047300040F0248100202CE08D4B9A6802F00C029E
:10474000042A07D09A6802F00C02082A0BD15B6891
:10475000590208D5864B1B689A03DCD56368002B89
:10476000D9D1012015E06368814DB3F5803F13D1A5
:104770002B6843F480332B60FEF71EFD7C4E05460C
:1047800033689B03C7D4FEF717FD401B6428F7D995
:10479000032002B0BDE8F081B3F5A02F04D12B684F
:1047A00043F480232B60E3E72A6822F480322A60F6
:1047B0002A6822F480222A60002BDDD1FEF7FCFC5F
:1047C00006462B689F03A6D5FEF7F6FC801B6428DF
:1047D000F7D9DDE7664B9A6812F00C0F07D09A689C
:1047E00002F00C02082A11D15B685D020ED4604A07
:1047F0001368990702D5E368012BB2D113682169C8
:1048000023F0F80343EAC103136087E7E268594BDA
:10481000B2B101221A60FEF7CFFC554D06462B6857
:104820009B0707D52B68226923F0F80343EAC203EC
:104830002B6073E7FEF7C0FC801B0228EFD9A7E7C7
:104840001A60FEF7B9FC4A4E054633689F077FF5AC
:1048500065AFFEF7B1FC401B0228F6D998E7626904
:10486000444B82B10122C3F8802EFEF7A5FC404ED6
:104870000546736F9B073FF555AFFEF79DFC401B48
:104880000228F6D984E7C3F8802EFEF795FC384E4F
:104890000546736F9F077FF545AFFEF78DFC401B04
:1048A0000228F6D974E7324B1A6C12F0805228D1E4
:1048B00001921A6C42F080521A641B6C03F0805310
:1048C0000193019B01272C4D2B68D8051BD5A368AC
:1048D000274D012B27D12B6F43F001032B67FEF7E8
:1048E0006BFC234E054641F28838336F9A0739D561
:1048F000002F3FF41BAF1E4A136C23F08053136448
:1049000014E70027DFE72B6843F480732B60FEF782
:1049100053FC06462B68D905D9D4FEF74DFC801B05
:104920000228F7D934E7052B04D12B6F43F0040399
:104930002B67D0E72A6F22F001022A672A6F22F044
:1049400004022A67002BCAD1FEF736FC41F28838F0
:1049500006462B6F9B07CBD5FEF72EFC801B4045F0
:10496000F7D915E7FEF728FC401B4045BDD90FE7F6
:10497000003802400000474200700040374DAA68EE
:1049800002F00C02082A3ED0022B354B4FF00002F9
:104990001A662BD1FEF710FC06462B6899011FD42E
:1049A000D4E907321343626A43EA8213E26A43EAB4
:1049B0000263A26A5208013A43EA02436B60284B41
:1049C000264D01221A66FEF7F7FB04462B689A0172
:1049D0003FF5B0AEFEF7F0FB001B0228F6D9D7E694
:1049E000FEF7EAFB801B0228D7D9D1E6FEF7E4FBED
:1049F00004462B689B017FF59DAEFEF7DDFB001B97
:104A00000228F6D9C4E6012B3FF4ABAE6B68E2692D
:104A100003F4800191427FF4A4AE216A03F03F02C7
:104A20008A427FF49EAE616A47F6C0721A40B2EBCA
:104A3000811F7FF496AEA26A520803F44031013A16
:104A4000B1EB024F7FF48DAEE26A03F07063B3EB1B
:104A5000026F14BF012000209BE600BF0038024017
:104A600000004742134908B58B6803F00C03042B80
:104A70001CD0082B1CD14A684B68496813F480038A
:104A800014BF0D480D48C1F3881118BF002302F070
:104A90003F02A1FB0001FBF7FBFB064B5B68C3F386
:104AA000014301335B00B0FBF3F008BD0248FCE7B3
:104AB0000248FAE70038024000127A000024F400AD
:104AC0002DE9F0410D46044610B90120BDE8F08102
:104AD000434B1A6802F00F028A4228D321688F07DD
:104AE0002DD4C80740D43E4B1A6802F00F02AA42E8
:104AF00065D8226851076BD4130707D5394A216955
:104B0000936823F4604343EAC1039360FFF7AAFF6D
:104B1000344B354A9B68C3F30313D35CD840334B03
:104B20001860334B1868FDF7E3F80020CEE7CAB2EF
:104B30001A701B6803F00F038B42C6D1CEE7294BD6
:104B400011F0040F1EBF9A6842F4E0529A600E07FB
:104B500042BF9A6842F460429A609A68A06822F064
:104B6000F00202439A60BCE762681E4B012A1CD126
:104B70001B6813F4003FA8D01A4EB36823F0030358
:104B80001343B360FEF718FB41F288380746B36859
:104B9000626803F00C03B3EB820FA4D0FEF70CFBAA
:104BA000C01B4045F3D9032090E7911E01291B68E3
:104BB00002D813F0007FDEE713F0020FDBE7EAB262
:104BC0001A701B6803F00F03AB427FF47EAF90E7CF
:104BD0000449E0688B6823F4E05303438B608BE760
:104BE000003C024000380240CCD70108740000208D
:104BF0007C000020044B054A9B68C3F38223D35CEE
:104C0000034A1068D840704700380240C4D70108F2
:104C100074000020044B054A9B68C3F34233D35C05
:104C2000034A1068D840704700380240C4D70108D2
:104C3000740000200F2303600B4B9A6802F00302FC
:104C400042609A6802F0F00282609A6802F4E052D0
:104C5000C2609B68DB0803F4E0530361034B1B68ED
:104C600003F00F030B60704700380240003C024025
:104C7000036813F0430FF7B5044640F088802368BB
:104C800013F00C0F45D08C4B8C4D00221A67FEF7A9
:104C900093FA06462B68990000F1CB8021684A07F9
:104CA00015D5D4E90403D5F888201B0602F0E042AC
:104CB00043EA80131343C5F88830D5F88C30226A54
:104CC00023F4F853013A43EA0223C5F88C300B076A
:104CD00014D57A4AA369D2F8881020691B0701F01D
:104CE000706143EA80130B43C2F88830D2F88C30ED
:104CF000616A23F440330B43C2F88C306E4B6F4E25
:104D000001221A67FEF758FA054633689F0040F102
:104D100097802368980634D500230193674B684D2C
:104D20001A6C42F080521A641B6C03F0805301939A
:104D3000019B2B6843F480732B60FEF73DFA064617
:104D40002B68D80540F183805C4DA26A2B6F13F469
:104D5000407340F08380A36A03F44072B2F5407F51
:104D6000564A40F09E80916823F0704021F4F8117B
:104D700020F4407001439160116FC3F30B030B43A8
:104D800013672368DB0600F1908000204FE04A4B58
:104D90004A4E00229A66FEF70FFA054633681F0155
:104DA0003FD42168C80741BFD4E901231B0743EA68
:104DB0008213C6F884308A0715D5404AE368D2F8D2
:104DC000840065681B0600F0E04043EA8513034356
:104DD000C2F88430D2F88C00E36920F01F00013B58
:104DE0000343C2F88C304B060AD5E36862681B06A1
:104DF00043EA8213A26843EA0273304AC2F884305D
:104E00002D4B2E4E01229A66FEF7D6F905463368E1
:104E10001F013FF534AFFEF7CFF9401B0228F6D94A
:104E200004E0FEF7C9F9401B0228B7D9032003B0FC
:104E3000F0BDFEF7C1F9801B02287FF62BAFF5E726
:104E4000FEF7BAF9401B02287FF65FAFEEE7FEF7E8
:104E5000B3F9801B02287FF673AFE7E702F44072D4
:104E600093423FF478AF2B6F134A0121C2F8401EE2
:104E700023F440730021C2F8401E2B672B6FD90723
:104E80007FF569AFFEF798F941F2883706462B6F38
:104E90009A073FF560AFFEF78FF9801BB842F6D94D
:104EA000C4E7916821F4F81165E7064B94F82C20CB
:104EB000C3F8E02169E700BF000047420038024024
:104EC000007000400010474238B50D460446C8B196
:104ED00090F82C3003F0FF021BB980F82D20FCF76E
:104EE0009BFE022384F82C30211D206800F0AFFDCA
:104EF00062682068294600F0E2FD012384F82C3026
:104F0000002038BD0120FCE770B590F82C30022B52
:104F100005460E46D8B212D000F0FB04012C0FD18A
:104F2000022385F82C30286800F0FFFD3368022B3F
:104F300006BF052385F82C3085F82C40002070BD75
:104F40000120FCE738B590F82C30022B0446D8B28B
:104F50000DD094F82C30012BDDB209D1022320684A
:104F600084F82C3000F005FE84F82C50002038BD69
:104F70000120FCE72DE9F3471F4689469046044689
:104F8000FEF71AF90A9D3D442D1AFEF715F9264B36
:104F90001E68C6F3CB366E4382460196226893683C
:104FA00039EA03030CBF01230023434501D100204C
:104FB0002EE07B1CF3D0FEF7FFF8A0EB0A00A8421E
:104FC00029D323685A6822F0E0025A606268B2F579
:104FD000827F0AD1A268B2F5004F02D0B2F5806F8D
:104FE00003D11A6822F040021A60A26AB2F5005F8B
:104FF00007D11A6822F400521A601A6842F400526B
:105000001A60012384F85130002384F850300320C3
:1050100002B0BDE8F087019A019B002A03F1FF333B
:10502000019308BF1546B9E774000020F0B585B0BC
:105030000B4600920E461746022101220446FFF756
:1050400099FF054628B1636D43F02003636503258E
:1050500015E0124B1868124BB0FBF3F04FF47A7363
:10506000584363680390B3F5827F0BD100973346B2
:105070002A4680212046FFF77DFF0028E3D12846FD
:1050800005B0F0BD039B002BF9D0039B013B0393BC
:1050900023689B681B06F5D4F1E700BF740000206D
:1050A00000366E0137B50B464168B1F5827F044684
:1050B00008D0009201210022FFF75CFFD0B9002048
:1050C00003B030BD8168B1F5004F02D0B1F5806FFB
:1050D00007D125682868B1F5806F20F0400028606E
:1050E00004D00092802100222046E5E700920121B1
:1050F0000022F9E7636D43F0200363650320DFE7D7
:1051000010B50446002855D0436A002B4ED14268A2
:10511000B2F5827F00D0C3610023A36294F85130BE
:1051200003F0FF0223B984F850202046FCF708FD65
:105130002168A068A269022384F851300B6823F02B
:1051400040030B60636800F4044003F4827303437C
:10515000E06800F400600343206900F002000343AC
:10516000606900F00100034302F400700343E0694A
:1051700000F038000343206A00F080000343A06A77
:1051800000F4005003430B60636A120C03F0100339
:1051900002F004021A434A60CB6923F40063CB6136
:1051A00000200123606584F8513010BD0023C0E960
:1051B0000433B1E70120F8E72DE9F3471F4690F8E3
:1051C0005030012B04460D46904600F0A680012386
:1051D00080F85030FDF7F0FF94F85130012B8246F3
:1051E0005FFA83F940F09680002D67D0B8F1000F88
:1051F00064D0032384F8513000236365C4E910337D
:10520000A4F83680A363A387E387A3682668256391
:10521000B3F5004FA4F8348007D1336823F040037E
:105220003360336843F480433360336862685B06FD
:105230005EBF336843F040033360E368B3F5006F4B
:1052400043D112B1B8F1010F07D135F8023BF36039
:105250002563E38E013B9BB2E386E38E9BB2B3B939
:10526000524639462046FFF7E1FE00284FD1A36899
:1052700033B901932368DA6801929B680193019B1B
:10528000636DDBB9012284F85120994616E022684B
:105290009368980705D5236B33F8021BD16023630D
:1052A000D7E7FDF789FFA0EB0A00B842D5D3791CF8
:1052B000D3D0012384F851304FF00309002384F840
:1052C0005030484602B0BDE8F08712B1B8F1010F86
:1052D00008D12B783373236B01332363E38E013BB7
:1052E0009BB2E386E38E9BB2002BB9D023689A6809
:1052F000920703D5226B12781A73ECE7FDF75CFF77
:10530000A0EB0A00B842EDD37B1CEBD0D1E7202301
:105310006365ACE74FF00209D0E74FF00209D0E730
:105320002DE9F7431E4690F85030DDF82880012B18
:1053300004460D46914600F0E880012380F8503085
:10534000FDF73AFF94F851306268012B0746D9B255
:105350000AD0B2F5827F40F0D680A368002B40F0DF
:10536000D280042940F0CF80002D3FD0B9F1000F4A
:105370003CD0002E3AD094F85130C4F83890042B29
:105380001CBF052384F8513000236365C4E9103342
:105390002368E687E6861968A687490658BF196814
:1053A000256358BF41F04001A68658BF1960E168E7
:1053B000B1F5006F51D10AB1012E07D135F8022B9A
:1053C000DA60E38E2563013B9BB2E3860125E38E21
:1053D0009BB26BB9E38F9BB253B93A464146204624
:1053E000FFF724FE00287DD02023636501202EE0F6
:1053F00021688B689A070DD5E38E9BB253B145B1F6
:10540000236B33F8022BCA602363E38E013B9BB20C
:10541000E38600258A6812F001020CD0E38F9BB26C
:105420004BB1A36BC96823F8021BA363E38F013B55
:105430009BB2E3871546FDF7BFFEC01B4045C6D3B0
:10544000B8F1FF3FC3D0012384F85130032000237B
:1054500084F8503003B0BDE8F0830AB1012E08D1C2
:105460002A781A73236B01332363E38E013B9BB2CB
:10547000E38601252DE0226893689B070ED5E38E15
:105480009BB25BB14DB1236B1B781373236B01335C
:105490002363E38E013B9BB2E3860025226891687B
:1054A00011F001010DD0E38F9BB253B1A36BD26811
:1054B0001A70A36B0133A363E38F013B9BB2E387B5
:1054C0000D46FDF779FEC01B404502D3B8F1FF3F02
:1054D000B9D1E38E9BB2002BCDD1E38F9BB2002BD1
:1054E000C9D17AE7A36833B923680190DA680192D9
:1054F0009B680193019B636D002B7FF477AF0123C1
:1055000084F85130A3E70220A1E70220A2E72DE9A9
:10551000F3471E4690F85130012B04468A469046C8
:10552000DDB240F095804368B3F5827F0ED1836889
:1055300063B9042380F85130134600960A46FFF7FA
:10554000EFFE0546284602B0BDE8F08794F85030DB
:10555000012B7FD0012384F85030FDF72DFE8146CA
:10556000BAF1000F64D0B8F1000F61D0A268C4F89E
:1055700038A000270423B2F5004F84F85130C4E965
:10558000107767652368A4F83E80A4F83C80276301
:10559000A786E78607D11A6822F040021A601A68C7
:1055A00022F480421A601A6857065EBF1A6842F0F9
:1055B00040021A60E368F3B1E38F9BB2FBB123684A
:1055C0009A68D20738D5DA68A36B23F8022BA36355
:1055D000E38F013B9BB2E387EEE723689A68D0072D
:1055E0001AD5A26B1B7B1370A36B0133A363E38FEC
:1055F000013B9BB2E387E38F9BB2002BEDD14A4680
:1056000031462046FFF74EFDF8B9636D83B901229C
:1056100084F851201D460BE0FDF7CEFDA0EB0900FC
:10562000B042E8D3711CE6D0012384F85130032541
:10563000002384F8503085E7FDF7BEFDA0EB09009C
:10564000B042B9D3731CB7D0EEE720236365DCE723
:105650000225EDE7022575E77047000090F83D3020
:10566000012B30D1022380F83D300368DA6842F024
:105670000102DA60154A93421AD0B3F1804F17D075
:10568000A2F57C42934213D002F5806293420FD080
:1056900002F5806293420BD002F57842934207D024
:1056A00002F57052934203D0A2F59432934204D192
:1056B0009A6802F00702062A03D01A6842F0010233
:1056C0001A60002070470120704700BF00000140B1
:1056D0007047704770477047036870B5DD681E6992
:1056E000B10704460DD5AA070BD56FF002021A6167
:1056F000012202779B699B0769D0FFF7EAFF00232D
:105700002377710710D56A070ED523686FF004025E
:105710001A61022222779B6913F4407F20465CD0F5
:10572000FFF7D7FF0023237733070FD528070DD5C1
:1057300023686FF008021A6104222277DB69990757
:10574000204650D0FFF7C5FF00232377F20610D57F
:10575000EB060ED523686FF010021A61082222773B
:10576000DB6913F4407F204643D0FFF7B2FF0023EC
:105770002377F00708D5E90706D523686FF0010203
:105780001A612046FBF7E6FF320608D52B0606D540
:1057900023686FF080021A61204600F0CAF8700694
:1057A00008D5690606D523686FF040021A612046C5
:1057B000FFF791FFB20622D5AB0620D523686FF024
:1057C000200220461A61BDE8704000F0B1B8FFF732
:1057D0007FFF2046FFF77EFF91E7FFF779FF204626
:1057E000FFF778FF9EE7FFF773FF2046FFF772FF92
:1057F000AAE7FFF76DFF2046FFF76CFFB7E770BD24
:10580000334A0368904212D0B0F1804F0FD0A2F516
:105810007C4290420BD002F58062904207D002F5A4
:105820008062904203D002F57842904219D14A68D2
:1058300023F070031343264A904229D0B0F1804FE1
:1058400026D0A2F57C42904222D002F5806290429E
:105850001ED002F5806290421AD002F57842904242
:1058600016D01C4A904213D002F5806290420FD0AD
:1058700002F5806290420BD0A2F59832904207D098
:1058800002F58062904203D002F58062904203D11B
:10589000CA6823F4407313434A6923F08003134317
:1058A00003608B68C3620B688362094B984203D024
:1058B00003F58063984201D10B69036301234361BF
:1058C0000369DB0742BF036923F0010303617047EB
:1058D000000001400040014010B5044630B390F88C
:1058E0003D3003F0FF021BB980F83C20FFF7B4FE07
:1058F0000223206884F83D30211DFFF781FF01233A
:1059000084F84630002084F83E3084F83F3084F834
:10591000403084F8413084F8423084F8433084F8D1
:10592000443084F8453084F83D3010BD0120FCE758
:10593000704770470268C16838B5136923F4405353
:105940000B431361054683680069D16803436869A6
:105950000343E86921F4164121F00C0103430B4392
:10596000D3605369A96923F440730B4353611F4B00
:105970009A4203D003F580639A4224D1FFF74AF993
:10598000EA691921B2F5004FD5E90043A0FB0101F6
:105990001CD1DA184FF0000545EB0503FAF778FC47
:1059A0006422B0FBF2F102FB1103DB003233B3FBE4
:1059B000F2F303F007025B0002EB011203F4F87349
:1059C0001344A36038BDFFF715F9D9E79A009B0F80
:1059D000FAF75EFC6422B0FBF2F102FB11031B013B
:1059E0003233B3FBF2F303EB0113EAE7001001409B
:1059F00010B5044648B390F8413003F0FF021BB9DC
:105A000080F84020FCF7D2F82268242384F8413043
:105A1000D36823F40053D3602046FFF78BFF23683D
:105A20001A6922F490421A615A6922F02A025A61D4
:105A3000DA6842F40052DA6000202023606484F8BF
:105A4000413084F84230606310BD0120FCE72DE94D
:105A5000F041D1E90738D1E9012CD1E90376D1E948
:105A60000554D1F824E0096843EA080391B943EAF0
:105A70000E03134343EA0C0301683B4333432B43B8
:105A800021F4FF41234321F07F010B4303600020F9
:105A9000BDE8F081016843EA0E0321F4F8410B43AD
:105AA000036042EA0C0341683B4333432B4321F438
:105AB000FF42234322F07F0213434360E7E7CB68B2
:105AC00003F1FF3C4B69F0B50F684C688E680D69B7
:105AD0008969013B1B05013C013E013D0139013F44
