:020000040800F2
:1000000000000320810500088D1D00088F1D0008D9
:10001000911D0008931D0008951D000800000000B8
:10002000000000000000000000000000B1650008B2
:10003000971D00080000000041660008BB5E000834
:10004000D1050008D1050008D1050008D105000838
:10005000D1050008D1050008D1050008D105000828
:10006000D1050008D1050008D1050008D105000818
:10007000D1050008D1050008D1050008D105000808
:10008000D1050008D1050008D1050008D1050008F8
:10009000D1050008D1050008D1050008D1050008E8
:1000A000D1050008D1050008D1050008D1050008D8
:1000B000D1050008D1050008D1050008D1050008C8
:1000C000D1050008D1050008D1050008D1050008B8
:1000D000D1050008D1050008D1050008D1050008A8
:1000E000D1050008D1050008D1050008D105000898
:1000F000D1050008D1050008D1050008D105000888
:10010000D1050008D1050008D1050008D105000877
:10011000D1050008D1050008991D0008D105000887
:10012000D1050008D1050008D1050008D105000857
:10013000D1050008D1050008D1050008D105000847
:10014000D1050008D1050008D1050008D105000837
:10015000D1050008D1050008D1050008D105000827
:10016000D1050008D1050008D1050008D105000817
:10017000D1050008D1050008D105000800000000E5
:10018000D1050008D1050008D1050008D1050008F7
:10019000D1050008D1050008D1050008D1050008E7
:0C01A000A51D0008D1050008B11D0008D5
:1001B00010B5054C237833B9044B13B10448AFF3A1
:1001C00000800123237010BD6401002000000000A6
:1001D00094CF010808B5034B1BB103490348AFF3A3
:1001E000008008BD000000006801002094CF0108D5
:1001F00001F0FF01102A2BDB10F0070F08D010F8D8
:10020000013B013A8B422DD010F0070F42B3F6D1DB
:10021000F0B441EA012141EA014122F007047FF0F4
:1002200000070023F0E80256083C85EA010586EA4B
:10023000010685FA47F5A3FA87F586FA47F6A5FA87
:1002400087F68EB9EED1F0BC01F0FF0102F0070293
:1002500032B110F8013B013A83EA010313B1F8D13E
:100260000020704701387047002D06BF354603381F
:10027000073815F0010F07D1013015F4807F02BF58
:10028000013015F4C03F0130F0BC0138704700BFA9
:1002900053B94AB9002908BF00281CBF4FF0FF31ED
:1002A0004FF0FF3000F06AB9ADF1080C6DE904CEF3
:1002B00000F006F8DDF804E0DDE9022304B0704741
:1002C0002DE9F047089D0C46002B4ED194468C45F5
:1002D0008646B2FA82F262D94AB1C2F12003914055
:1002E00020FA03F30CFA02FC194300FA02FE4FEA6B
:1002F0001C471FFA8CF6B1FBF7F44FEA1E4307FBCD
:10030000141143EA014304FB06F199420AD91CEB9C
:10031000030304F1FF3080F01281994240F20F8113
:10032000023C6344591A1FFA8EF3B1FBF7F007FB46
:10033000101143EA014300FB06F69E420AD91CEB6A
:10034000030300F1FF3180F0FC809E4240F2F9800F
:10035000634402389B1B40EA044000211DB1D34096
:100360000022C5E90032BDE8F0878B4205D90DB106
:10037000C5E9000100210846F5E7B3FA83F1002939
:1003800046D1A34202D39042C0F0F080861A64EBBB
:1003900003030120002DE6D0C5E90063E3E7002A4E
:1003A00040F09080A1EB0C044FEA1C481FFA8CF738
:1003B0000121B4FBF8F64FEA1E4308FB164443EA5A
:1003C000044307FB06F0984208D91CEB030306F12F
:1003D000FF3402D2984200F2CD8026461C1A1FFA42
:1003E0008EF3B4FBF8F008FB104443EA044300FB2F
:1003F00007F79F4208D91CEB030300F1FF3402D238
:100400009F4200F2B0802046DB1B40EA0640A5E791
:10041000C1F120068B4022FA06F71F4320FA06FCA2
:1004200004FA01F343EA0C03F44000FA01F8380C33
:100430004FEA1349B4FBF0FE1FFA87FC00FB1E4491
:1004400049EA04440EFB0CF9A14502FA01F20AD96B
:100450003C190EF1FF3A80F08480A14540F2818082
:10046000AEF1020E3C44A4EB09041FFA83F9B4FB7D
:10047000F0F300FB134449EA044403FB0CFCA445DD
:1004800007D93C1903F1FF3067D2A44565D9023B77
:100490003C4443EA0E40A0FB0293A4EB0C049C42B4
:1004A000CE469C4651D34ED055B1B8EB0E0364EB0B
:1004B0000C0404FA06F6CB401E43CC40C5E90064A8
:1004C000002150E7C2F1200320FA03F10CFA02FCEC
:1004D00024FA03F394400C434FEA1C4800FA02FE4E
:1004E0001FFA8CF7B3FBF8F008FB1031230C43EA3A
:1004F000014300FB07F1994208D91CEB030300F10B
:10050000FF362CD299422AD9023863445B1AA4B22E
:10051000B3FBF8F108FB113344EA034401FB07F392
:10052000A34208D91CEB040401F1FF3613D2A34205
:1005300011D902396444E41A41EA004139E704461A
:10054000F0E6084606E7C845AED2B9EB020E63EB0B
:10055000070C0138A8E73146EDE7034699E7304636
:10056000D4E7D6467FE7634402384DE70646234684
:1005700008460FE7023E634430E700BF704700BF04
:10058000DFF834D0002103E00C4B5B5843500431BA
:100590000B480C4B42189A42F6D30B4A02E0002358
:1005A00042F8043B094B9A42F9D302F06BFF1BF06F
:1005B00081FF00F0AFFD704700000320A40607088C
:1005C000000000206401002064010020EC250120CF
:1005D000FEE7704708B500F0CFFBBDE8084000F02B
:1005E0005BBB00F0CBBB704710B5042104461BF089
:1005F0002CFC204610BD000038B50C4B0C4C18806C
:100600000C4B822019806368984740F6110398428A
:100610000AD1094D23682C60822098472B688220DC
:10062000DB689847002038BD0120FCE78A010020E4
:100630004C000020880100208C0100204FF4A071A4
:10064000F020FFF7D9BF0000F7B5334D2B68044603
:100650001B6982209847208000284AD02B680DF122
:1006600006025B6901A982209847BDF8063040F672
:10067000746293423FD9ADF80620BDF80630D21A15
:1006800092B20A2A3DD90B23B2FBF3F2234B1B880B
:100690009A4201D9013B9AB2BDF8043040F6B83114
:1006A0008B4230D8C3F571630E339BB20F21B3FB7D
:1006B000F1F31B4909888B4201D901398BB2194EDC
:1006C000194D30682F68834281B28CBF591AC91AFC
:1006D000B8B2BA428CBF101A801A89B280B20144F3
:1006E0000529C8BF33603368C8BF2A6063802B68A0
:1006F000A38003B0F0BDB32B9CBFB423ADF806308C
:10070000BBE70022C8E7C3F56D6308339BB20E2B2D
:10071000CCD80023D3E700BF8C0100208801002043
:100720008A010020840100208001002037B568463E
:100730000D461446FFF788FFBDF8000030B1BDF844
:1007400002302B60BDF804302360012003B030BDBF
:10075000032821D8DFE800F0020B12190F4B1A68AA
:10076000B2FA82F2520904210D4803F037BB0B4B59
:100770005A68B2FA82F252090821F5E7074B9A68E3
:10078000B2FA82F252091021EEE7044BDA68B2FAAB
:1007900082F252092021E7E7704700BF9001002054
:1007A00000100240032821D8DFE800F0020B1219E4
:1007B0000F4B1A68003A18BF012204210D4803F0BC
:1007C0000DBB0B4B5A68003A18BF01220821F5E710
:1007D000074B9A68003A18BF01221021EEE7044B3C
:1007E000DA68003A18BF01222021E7E7704700BF0E
:1007F000900100200010024003280DD8DFE800F02F
:100800000206080A0421054803F0EDBA0821FAE7B8
:100810001021F8E72021F6E7704700BF00100240E2
:1008200008B5032811D8DFE800F0020A0C0E0421F5
:10083000074803F0CDFA431E5842584108BD08212D
:10084000F6E71021F4E72021F2E70020F3E700BFEC
:100850000010024070B5084D00240126E0B2FFF7F9
:10086000DFFF18B12B68012B18BF2E600134052C57
:1008700005F10405F2D170BD90010020012380F83C
:10088000781080F87930704700207047034B41643E
:10089000003918BF01211970704700BFBB19012032
:1008A00000207047836B0BB10846184770474068BB
:1008B00003689B69184770477047704710B5044636
:1008C00000F020FB23680349D3F88C302046BDE8B4
:1008D00010401847000000D008B503680446D3F85C
:1008E00080309847236820469B6F984700F0ECF8CB
:1008F000236820461B6F9847292000F0D9FE00F09E
:10090000E3F8236820461B6F9847F8E710B50446C4
:1009100008F04CFC23682046D3F8AC30BDE810400A
:10092000184700F0B5BA00F0B9BA00F0D3BA00F039
:100930008DBA00F0DFBA00F0D1BA00F08FBA07F03C
:10094000A1BE10B57C2104461BF07FFA204610BDE5
:1009500010B590F8341090F878400C4B8C421A780F
:1009600009D03AB90A4A0B491488088810800C80CB
:1009700001221A7010BD002AFCD0054A05491488CE
:10098000088810800C800022F3E700BFB419012012
:10099000B0190120B219012070B50D46194635B9BC
:1009A000094B0A4A0A4840F2D2211BF07DFAC0E9FD
:1009B0000F52084B003A18BF01221A700368BDE8B5
:1009C0007040D3F88C30184704D001083CD001089F
:1009D0008AD00108BA19012008B5094B1B888B423F
:1009E00003D8084B1B88934205D9074B074A084890
:1009F0009E211BF059FA074B1980074B1A8008BD3E
:100A0000B0190120B2190120CFD0010832D101085C
:100A10008AD00108B6190120B8190120034690F8C0
:100A20007A0018B1586803681B68184770470000BF
:100A3000012108B50022084605F0CBFA0A4B1860E0
:100A400028B90A4B0A4A28210A481BF02DFA00222D
:100A50000421012005F065FB074B186018B9074B0E
:100A6000034A2C21F0E708BDA401002050D2010860
:100A700099D20108C8D20108A001002017D30108AB
:100A8000024B4FF0FF31186805F0EDBAA4010020C9
:100A9000014B186805F013BBA4010020024B002194
:100AA000186805F0E0BA00BFA4010020FFF7F0BF0E
:100AB00003480449006800231A4605F06DBB00BFD7
:100AC000A00100200400002013B5084C00231A46A2
:100AD00001A9206805F091FB20684FF0FF33002248
:100AE00001A905F08AFB02B010BD00BFA0010020E3
:100AF00005F063BA704700207047704770470020C8
:100B00007047704708B5034A034B044822211BF085
:100B1000CBF900BF7CD3010859D30108BAD301082F
:100B200008B5034A034B044827211BF0BDF900BF59
:100B300007D4010859D30108BAD3010810B54421DC
:100B400004461BF082F9204610BD000038B504466B
:100B500021460025064B25720C306060657201222B
:100B600041F8203B08F060FCE562204638BD00BF3C
:100B700050D40108012070474020704700EB8110DD
:100B80000830704700EB8110083070470120704733
:100B90004FF43D7070474FF43D7303FB0100083084
:100BA00070474FF43D7303FB01000830704701208C
:100BB00070471020704700EB01100830704700EBC1
:100BC000011008307047084601F026BB10B5034BF2
:100BD0000360044607F0ABFA204610BD08D50108B3
:100BE00010B50446FFF7F2FF204648211BF02DF90F
:100BF000204610BD10B5034B0360044607F097FA7A
:100C0000204610BDD4D4010810B50446FFF7F2FF0A
:100C100020464FF43F711BF018F9204610BD00002C
:100C200010B5034B0360044607F081FA204610BD5F
:100C3000A0D4010810B50446FFF7F2FF20461821A2
:100C40001BF003F9204610BD10B5084B03600446A5
:100C500000F54A70FFF7BAFF04F12C00FFF7CAFF56
:100C600004F11400FFF7DCFF204610BD3CD501085D
:100C700008B50248FFF7E8FF08BD00BFFC020020EE
:100C800010B50446FFF7E0FF20464FF49A611BF0D1
:100C9000DCF8204610BD00002DE9F34101F002F917
:100CA000054601F003F90024014623462846224662
:100CB00000940DF055FC254B254A264D1A60204620
:100CC00001F036FF24480DF0B3FB2B68BFF35B8FB8
:100CD000DB0735D428461BF0BAF888B31F4C204BED
:100CE000236004F55D7604F1140004F12C0804F58A
:100CF0004A776060C4F80880E760266107F018FA58
:100D0000184B6361404607F013FA174BE36238460D
:100D100007F00EFA154BC4F8283304F55C7001F0A7
:100D200087FF224604F55C71304601F077FF3046BC
:100D300001F072FA0E481BF0D5F828461BF093F824
:100D40000C4802B0BDE8F041FFF7B8BD181A012009
:100D500024020020F802002008000020FC020020ED
:100D60003CD50108A0D40108D4D4010808D5010855
:100D7000710C0008A8010020704700000148FFF72F
:100D8000ABBD00BFA801002070B5224E224C234D00
:100D9000234B23603046FFF7D9FE284611F0B2FE00
:100DA000204B2148DC6000224FF48071C3E912120D
:100DB0001E491A86C3E91A121D4999671D4983F80D
:100DC00058200B60F02101801B485A6601801B48A7
:100DD00083F870204FF4A071C3E90422C3E906220E
:100DE000C3E90822C3E90A22C3E90E22C3E910229B
:100DF000C3E91422C3E917225A67C3E901650180D8
:100E00000F4801800F490A70012283F834200E4AEE
:100E10001A6070BDB0020020F402002028020020F9
:100E2000F4CF0108A8010020B01901200100000141
:100E300000000101BC190120B6190120B2190120DE
:100E4000B8190120B419012080D10108024B902269
:100E500083F85823704700BF00E100E0094A0A49BF
:100E6000D3680A48C3F30A03013B9BB20B801169A4
:100E7000C1F30A01013901801364536B43F001038C
:100E80005363704700680140CE070020CC07002064
:100E9000014BD3F8AC00704700680140024B0122BF
:100EA000C3F8AC105A62704700680140064B586C9A
:100EB000DB68C3F30A0380B20133984226BFC01A2D
:100EC00080B20020704700BF0068014007F016BCE8
:100ED00007F020BC07F0DCBB07F03DBD044B4FF032
:100EE0008072C3F88820BFF34F8FBFF36F8F7047B6
:100EF00000E100E0024B4FF080729A60704700BF43
:100F000000E100E070B5044607F011FC23685D6E57
:100F10000AF0AEFA01462046A8470E4BA3632368A9
:100F20002046D3F89C3098474FF6FF73984205D07F
:100F3000094B1B7813B9012384F848302368D3F890
:100F4000885000232046AC461A46BDE870404FF05A
:100F500050416047F10A0008BA19012010B5144C3D
:100F6000236823B3134B144A1B6C11888B4213D193
:100F7000124B198803F044FD226892F86A3001335D
:100F800082F86A30FFF794FD206808F00FF9BDE899
:100F900010400020FFF7DCBB03F032FD206803683F
:100FA0001B6A9847BDE810400020FFF7FBBB10BD4F
:100FB000BC19012000680140CE070020CC070020AA
:100FC00007B5064BADF806001B68054801220DF178
:100FD000060104F08BFA03B05DF804FB0C0000205E
:100FE0006008002008B5054C20464FF4005102F07F
:100FF000FAFE4FF4FA7004F0E0FFF5E70018024043
:10100000F7B50023194E1A4D00931A481A4F0121C3
:1010100002F0DEFE012805D138680A230022694665
:1010200005F0BAF8304602F021FB284602F01EFB1C
:101030000121304602F098FB0121284602F094FB82
:10104000304602F0E4FB0446284602F0E0FBA4B27E
:1010500044EA00440A2338680194002201A905F0FB
:101060009BF8642004F0A9FFCFE700BF440A0020EA
:10107000FC09002000000240D407002030B595B0E4
:10108000102200210AA81BF016F91422002103A83F
:101090001BF011F900241D4B01941A6C42F0805290
:1010A0001A641B6C03F080530193019B184B02944C
:1010B0001A6842F440421A601B6803F440430293EA
:1010C0000122029B4FF48033CDE9082302254FF41F
:1010D0008003CDE90E5308214FF4A873CDE9101316
:1010E00008A804231393129503F0A8FC0F23CDE95D
:1010F00003354FF4A0504FF48053CDE9060305218A
:1011000003A8059403F076FE15B030BD0038024008
:10111000007000402DE980489BB002F0C1F9FFF754
:10112000ADFF142200210DA800241BF0C4F8C84B09
:1011300000941A6BC748C84E42F010021A631A6B2B
:1011400002F010020092009A01941A6B42F0200201
:101150001A631A6B02F020020192019A02941A6B30
:1011600042F080021A631A6B02F080020292029A25
:1011700003941A6B42F004021A631A6B02F0040221
:101180000392039A04941A6B42F001021A631A6BD9
:1011900002F001020492049A05941A6B42F00202D2
:1011A0001A631A6B02F002020592059A06941A6BF2
:1011B00042F040021A631A6B02F040020692069A4D
:1011C00007941A6B42F008021A631B6B03F00803C2
:1011D000079322463C21079B02F000FE9F482246CF
:1011E000042102F0FBFD9E4822464FF4405102F0DC
:1011F000F5FD22469B484FF40051012502F0EEFD1B
:101200004FF003093C239348CDF840900DA94FF0CF
:10121000020A0427CDE90D350F9402F0F5FC8F4842
:10122000CDF840A00DA9CDE90D750F9402F0ECFCAE
:101230004FF440538A480DA9CDE90D354FF4005BBA
:10124000CDE90F4A02F0E0FC0DA98648CDE90DB5C5
:10125000CDE90F4402F0D8FC8348844B036002F0D0
:10126000C7FB834A834B3462C6E9002330464FF400
:101270008043C6E90434C6E90244C6E9064402F0E4
:10128000BBFF1021304603F0FFF92146304603F042
:101290001AFA7948794984624FF48273C0E90013DD
:1012A0004FF400761823C0E906630A23744EC36224
:1012B000C0E90244C0E90444C0E9084404F0BAF8B3
:1012C000704BC6F828B04FF01008C6E9003540232F
:1012D000C6E904834FF4C073C6E906344FF40063D3
:1012E000C6E908340DA907233046CDE91039CDE908
:1012F0000E374FF0080BC6E90247CDE912AACDF828
:1013000034A003F07BFF4FF6FF7209A93046CDE908
:101310000AB5089409950C9403F090FF284602F052
:10132000EBF84FF6FF7209A93046CDE909ABCDE9DC
:101330000B5403F083FF4FF6FF7209A93046CDE945
:10134000099BCDE90B7403F079FF4FF40C730893FC
:10135000089B0C934FF6FF7209A93046CDE9097B33
:101360000B9503F06BFF40F26A51304603F084FFA7
:10137000342221460DEB02001AF09DFF424E434BF2
:101380003461C6E900340923C6E905351D2340F25E
:101390000D1CC6E9073940F24313C6E909C340F200
:1013A000171E40F247133046C6E90BE3C6E9024474
:1013B000B48686F8364003F02BFAFF21F022CDE9FF
:1013C00012144FF005094FF480614FF4A073CDE97A
:1013D0000E24CDE91419CDE916420DA92246304656
:1013E000CDE9103A2A4E18930D94ADF864408DF86B
:1013F000664003F0D8FA274B33601B689847336880
:10140000254EDB689847254B3046C6E90034C6E9CF
:1014100002A4C6E90A4AC6E90C4402F0F9FA2946D0
:10142000304602F0ADFB1E4EDFF878A04246214662
:101430000DA81AF040FF4FF48033C6E900A34FF027
:10144000007BDFF864A0C6F808B0304634612DE0B8
:1014500000380240001002406009002000080240ED
:10146000000C024000180240F40900200030024045
:10147000005C0040A0860100600800200050014090
:10148000E4070020400100A0B808002000680140E7
:10149000D007002014000020B409002000B0024052
:1014A000440A0020002001400100000F347686F835
:1014B0002040F462C6F828A0F460F56186F8304058
:1014C000756102F02DF80D220DA93046CDE90D25EC
:1014D0002C4E0F9402F09EF9214642460DA81AF0B8
:1014E000EAFE294AC6F808B04FF480333046C6E910
:1014F0000023C6E90AA43461347686F82040F460FB
:10150000F56186F83040756102F00AF80DA93046A1
:10151000CDE90D95DFF8A4B00F9402F07BF91B48DC
:101520004FF4E133C0E900B30C23C0E90534C0E94E
:1015300002440461C46104F0F5FBFFF74BF8FFF7C8
:1015400048F804F0C7FC124A3946404604F0E9FD69
:10155000104B114A18602146104804F0E7FC104B6C
:10156000104A18602146104804F0E0FC0F4B104A66
:10157000186021460F4804F0D9FC0F4B186004F0A6
:10158000BBFCFEE7FC0900200021014018080020F8
:1015900088D50108D4070020E8D50108E50F000828
:1015A000E0070020C4D50108E3050008DC0700209F
:1015B000A0D5010801100008D80700200010014044
:1015C000704770477FB5094B8DF817201B68029351
:1015D0000DF117020123009201930A4601460448C7
:1015E00002F0B2FE07B05DF804FB00BF100000205F
:1015F000600900207FB500238DF81730084B1B6869
:1016000002930A4601230DF117010091019301464F
:10161000044802F029FF9DF8170007B05DF804FBAD
:1016200010000020600900201FB5084C24680092BB
:10163000CDE901340A4601230146054802F014FFB2
:10164000003818BF012004B010BD00BF10000020FA
:101650006009002001F050BF10B5064C0022204662
:10166000042102F0BBFB20460122BDE8104004210A
:1016700002F0B4BB0008024038B50B4D044601220D
:101680000A484FF4005102F0A9FB00220421284629
:1016900002F0A4FB2046FFF793FC28460122BDE898
:1016A0003840042102F09ABB00080240000C0240BE
:1016B00038B50B4D044600220A484FF4005102F0A1
:1016C0008DFB00220421284602F088FB2046FFF70C
:1016D00077FC28460122BDE83840042102F07EBB99
:1016E00000080240000C0240F7B5144E144F0546A6
:1016F0000C4630460022042102F070FB00224FF419
:101700000051384602F06AFB2846FFF759FC0D4BA2
:101710000D481B68224601A904F093F838460122BF
:101720004FF40051019C02F059FB30460122042184
:1017300002F054FB204603B0F0BD00BF0008024099
:10174000000C02400C0000206008002001F0D4BE14
:101750000268034B9A4201D101F0BCBE704700BF42
:10176000001000407047000082B00E4B0022009233
:10177000596C41F480415964596C01F480410091E5
:1017800000990192196C41F0805119641B6C03F0AF
:1017900080530193019B0F216FF0010002B002F012
:1017A000E7B800BF0038024010B514228AB00446E2
:1017B00000210DEB02001AF07EFD2368214A9342BE
:1017C0001FD1214B2148002101915A6C42F48072B3
:1017D0005A645A6C02F480720192019A02911A6B57
:1017E00042F004021A631B6B03F004030293082106
:1017F000029B0323CDE9051305A902F005FA0AB0FF
:1018000010BD134A9342FAD10F4B124800210391A5
:101810005A6C42F400725A645A6C02F400720392D9
:10182000039A04911A6B42F001021A631B6B03F0D6
:1018300001030493049B20220323CDE9052305A97A
:10184000DBE700BF002001400038024000080240F2
:1018500000210140000002400268094B9A4282B018
:101860000BD100230193074B1A6B42F480521A6389
:101870001B6B03F480530193019B02B0704700BFC0
:10188000003002400038024007B50F4B02689A4210
:1018900016D10022A3F5F0430192196B41F4000127
:1018A00019631B6B03F40003019305215A20019B6C
:1018B00002F05EF85A2003B05DF804EB02F08AB83B
:1018C00003B05DF804FB00BF00B002402DE9F04317
:1018D000044689B01422002103A81AF0ECFC226807
:1018E000244B9A4243D1244C244800250095236B75
:1018F00043F004032363236B03F004030093009B72
:101900000195236B43F001032363236B03F0010371
:101910000193019B4FF012094FF400734FF001083F
:101920000327042603A9CDE90339CDE905870796E6
:1019300002F06AF94FF480731148079603A9CDE9C4
:101940000339CDE9058702F05FF90295236C43F472
:1019500000032364236C03F400030293029B236AB5
:1019600043F400032362236A23F40003236209B0D3
:10197000BDE8F083005C00400038024000080240EF
:1019800000000240F0B599B004461422002107A8D7
:101990001AF091FC30220DEB020000211AF08BFCB2
:1019A00022685E4B9A4240F0B78008230C93C02314
:1019B0001093042312930CA84FF40033159303F0F3
:1019C000F1FA08B1FFF7CEFE554B564800240094BB
:1019D0005A6C42F080625A645A6C02F08062009243
:1019E000009A01941A6B42F020021A631A6B02F0FB
:1019F00020020192019A02941A6B42F001021A63CA
:101A00001A6B02F001020292029A03941A6B42F0DE
:101A100002021A631A6B02F002020392039A049400
:101A20001A6B42F040021A631A6B02F040020492F1
:101A3000049A05941A6B42F004021A631A6B02F0BE
:101A400004020592059A06941A6B42F008021A6382
:101A50001B6B03F00803069302250E26069B0B96CC
:101A60004FF4806307A9CDE90735CDE9094502F0B8
:101A7000CBF841F658032C480B9607A9CDE907355A
:101A80000927CDE9094502F0BFF8032327480B9742
:101A900007A9CDE90735CDE9094502F0B5F84FF4BE
:101AA000706322480B9607A9CDE90735CDE90945B2
:101AB00002F0AAF84FF40C631D480B9607A9CDE974
:101AC0000735CDE9094502F09FF8C02319480B9668
:101AD00007A9CDE90735CDE9094502F095F80823B6
:101AE00015480B9607A9CDE90735CDE9094502F060
:101AF0008BF84FF4A0530E480B9707A9CDE9073593
:101B0000CDE9094502F080F858202246052101F070
:101B10002FFF582001F05EFF19B0F0BD00680140B2
:101B2000003802400014024000000240000402405D
:101B30000018024000080240000C024010B50446A4
:101B400088B01422002103A81AF0B5FB2268144BB8
:101B50009A4223D103F56843002101915A6C114840
:101B600042F480125A645A6C02F480120192019A73
:101B700002911A6B42F020021A631B6B03F02003E0
:101B80000293029B4FF4607202230321CDE90323E9
:101B90000523CDE9061303A902F036F808B010BDFD
:101BA000005001400014024010B5044688B01422D1
:101BB000002103A81AF07FFB2268144B9A4223D11C
:101BC00003F59433002101915A6C114842F0100240
:101BD0005A645A6C02F010020192019A02911A6B37
:101BE00042F001021A631B6B03F001030293029B94
:101BF0004FF4C06202230321CDE903230723CDE97B
:101C0000061303A902F000F808B010BD001001404F
:101C1000000002402DE9F04186B0002303932B4BD6
:101C20001C68002C4FD14FF00108C3F80080284BEE
:101C300000949A6B274842EA08029A639B6B03EA76
:101C400008030093022703260C25009B01A94FF6E9
:101C50003F03CDE90137CDE9046501F0D5FF1E480A
:101C6000059501A9CDE90187CDE9034601F0CCFF37
:101C700048F233131948059501A9CDE90137CDE99B
:101C8000034601F0C1FF4FF683731548059501A97E
:101C9000CDE90137CDE9034601F0B6FF4CF20373FD
:101CA0001048059501A9CDE90137CDE9034601F0BA
:101CB000ABFF60230C48059501A9CDE90137CDE9BB
:101CC000034601F0A1FF06B0BDE8F0818C0A0020B8
:101CD0000038024000140240000802400018024090
:101CE00000100240000C02400004024070B588B0B1
:101CF00000230293204B1A6C42F010021A641B6CF2
:101D000003F010030293054601A903A8029B03F008
:101D10002BF9069B4BBB03F007F9184E184B3360A9
:101D200040F2E733F360174BB0FBF3F3013B736012
:101D3000304600233361B360B36103F067FF0446AC
:101D400080B9304603F024FE044658B9362001F02D
:101D500041FE0F2D0DD822462946362001F008FEFF
:101D6000094B1D60204608B070BD03F0DDF840004F
:101D7000D3E70124F6E700BF00380240900A0020B4
:101D80000010004040420F007C0000207047FEE73A
:101D9000FEE7FEE7FEE77047014803F037BE00BFED
:101DA000900A0020014802F0A1BD00BFB808002041
:101DB000014801F05BBE00BFB4090020012070475C
:101DC00008B51AF071FB162303604FF0FF3008BD11
:101DD00008B51AF069FB16230360FEE770B50D46DF
:101DE00014460E46731B9C4201DC204670BDAFF3C7
:101DF000008006F8010BF5E770B50D4614460E4657
:101E0000731B9C4201DC204670BD16F8010BAFF33A
:101E10000080F5E74FF0FF3070474FF400534B6000
:101E20000020704701207047002070470A4A11685F
:101E300008B5034609B909491160106869460344A9
:101E40008B4206D91AF030FB0C2303604FF0FF30B1
:101E500008BD1360FCE700BFD80A0020F025012070
:101E6000704710B50421044619F0EFFF204610BD5D
:101E700008B5032913D8DFE801F002060A0E00F0C6
:101E8000A3FE006808BD00F09FFE4068FAE700F07E
:101E90009BFE8068F6E700F097FEC068F2E700203E
:101EA000F0E700000048704720D601082020704766
:101EB00013B5002451B1036801948DF8034001AAC1
:101EC0009C680DF10303A04702B010BD0846FBE774
:101ED000C0897047008A7047C08870478088704703
:101EE000807A00F07F007047807AC0097047002038
:101EF000704700009FED010A704700BF000000001E
:101F0000704710B50821044619F09FFF204610BD08
:101F10000020704781807047C18070470181704701
:101F2000418170477047704770477047704710B4E1
:101F3000C4880368121B84885B6D091B12B25DF8AC
:101F4000044B09B218474FF6FF7383814FF0FF33FC
:101F500003621368C361106070477047704700F5F3
:101F600098730868496803C37047704770474160B9
:101F700070477047064BC0F84C310023C0F8503111
:101F800000F5A273C0F84801C0F84031704700BFA7
:101F9000552000080123037270477047704710B442
:101FA000C26841685410034601EB6200D20748BF83
:101FB0000A599B685DF8044B48BFD358184703463D
:101FC000406830B19A681AB9D86800F001007047CB
:101FD0000120704710B50C21044619F036FF204649
:101FE00010BD10B51021044619F02FFF204610BD7A
:101FF00010B54FF4AE71044619F027FF204610BD0E
:1020000010B509F035FA0368BDE81040DB6B1847DE
:1020100090F8252012B103685B691847704790F863
:1020200025201AB190F8242002B11860704710B52D
:102030000446D0F8400158B10368DB68984738B1CE
:10204000D4F8400103689B6898470023C4F84031E6
:1020500010BD00002DE9F14FD0E9556A0746B06880
:1020600003681B6A9847B0F52D7F05D2444B454A5B
:10207000A321454819F018FF706803681B6A984748
:102080000F2803D8414B3F4AA421F2E7F0680368C8
:102090001B6A98470B2803D83D4B3A4AA521E8E72D
:1020A00009F0E6F9DFF8F090043009F01FFAD9F8EA
:1020B000000010B10368DB689847D9F8000010B140
:1020C00003681B689847DFF8D480D8F8000010B187
:1020D00003685B699847D7F83C0110B103685B68F7
:1020E0009847D8F8000010B103681B689847D7F8E4
:1020F0003C0110B103689B689847F06803680021B1
:102100005B6A98474FF0000B224BC0F804B00446BE
:1021100080F808B00360B068036859465B6A984766
:10212000054600F0E9FD7068036859465B6A984708
:102130002946064600F08EFD331DC7F83C61C9F8FC
:102140000040C8F80050CAF800302B68C6F808A054
:102150002846DB68EE639847336830461B6898472B
:10216000214628460AF098FE236820461B699847B6
:1021700023685B69204601B0BDE8F04F184700BFF7
:10218000B0D801083ED9010810DA010857DA010871
:10219000FADA010814DC0108FC190120F819012001
:1021A000044B1B6893F858200AB1D86C00B99868A2
:1021B000704700BFBC190120F8B5044617460E460B
:1021C00009F062FA104B1C60104B2360104B002585
:1021D000C4E951350F4BC4E95355186803682946C3
:1021E0009B68C4E94F55C4E955769847284600F0E6
:1021F0009FFCFFF7D5FF12F0B6FAFFF7D1FF12F000
:102200002DFB2046F8BD00BF081A0120C0DB0108E5
:10221000A8DB0108BC190120064BC0F84C31002393
:10222000C0F8503100F5A273C0F84801C0F8403141
:10223000704700BF55200008406A7047806A7047A9
:1022400070478B88C0690A68DB0A50F82300104485
:10225000704710B50446BAB1107B68B1537BD27A8F
:102260001B0203F4E0631A43236A03EB82031A8818
:102270008A4202D193F9020010BD05D8013880B21C
:1022800004330028F3D1F7E70020F5E710B52C213F
:10229000044619F0DAFD204610BD000030B58BB0C1
:1022A0000446BDF860500895BDF85C5007959DF850
:1022B000505006959DF84C5005959DF84850049552
:1022C0009DF8445003959DF8405002959DF83C5070
:1022D0000195BDF8385000950AF038FA064B236096
:1022E000159BE361169B2362199B63621A9BA36291
:1022F00020460BB030BD00BF38DC01087047704786
:1023000070477047704770B5036804461B6B1546ED
:1023100098472368294620465B6BBDE87040184704
:10232000002310B5C0E90133C0E90333C0E9073326
:10233000C0E905334FF480738384064B03600B8838
:10234000C384FF23044680F8283007F03AFB204678
:1023500010BD00BFC0E3010830B50368018185B03E
:102360006D460146D3F8843004462846984795E8E0
:1023700007003C3484E8070005B030BD30B5036881
:10238000418185B06D460146D3F884300446284625
:10239000984795E807003C3484E8070005B030BD55
:1023A0000022028042808280C280704780F836100E
:1023B000704770B5036804461B6B15469847236841
:1023C000294620465B6EBDE87040184700207047E4
:1023D000806C704770477047704710B54C210446B9
:1023E00019F033FD204610BD10B54FF41D710446A1
:1023F00019F02BFD204610BD08B5FFF709FE08BDFA
:10240000036870B55E6B124B1B6804468DB22BB926
:10241000104B114A6C21114819F046FD1049828D6C
:102420000988914203D80F4B0B4A6D21F3E713F84B
:1024300012200D4B1B6853F8220003681B6B984752
:10244000291A3346204609B2BDE87040184700BF3C
:102450000C1A012098DC0108DADC010815DD0108FE
:10246000101A01205CDD0108141A012000224FF02F
:10247000FF31C0E900218260704700000022C0E9FE
:102480000122C0E90322C0E90522C0E907224FF476
:1024900080728284014A0260704700BFF0DD01084B
:1024A00037B54FF6FF7304460D4601A9ADF8043069
:1024B000FFF736FF084B23604FF0FF320023C4E9DB
:1024C0000B322A7884F83420204684F83530E386AD
:1024D00084F8383003B030BDDCE2010810B52622A4
:1024E0000446002119F0E7FE2046FFF7C7FF0A4B1C
:1024F000A3624FF6FF73A3854FF47F020023C4E964
:102500000C32064A226023874FF0FF32C4E91023C1
:10251000E363A364204610BDA8D8010858DE010873
:102520002DE9F04F04468DB0A04600250AF008FBC7
:10253000C04BE56348F8403B26222946404619F047
:10254000BAFE4046FFF79AFFBB4B2364FF2384F893
:10255000663004F16C034FF6FF760AA91846A566AB
:102560000493ADF82860FFF7DBFE04F1980304F153
:10257000C40918460AA90593ADF828600126FFF79B
:10258000CFFE0AA948468DF82860FFF789FF04F5B9
:10259000807304F59E7B18460AA904F5BC7A019362
:1025A0008DF82860FFF77CFF0AA958468DF828604F
:1025B000FFF776FF0AA950468DF82860FFF770FFF5
:1025C00004F5DA7318460293FFF788FF04F50073E9
:1025D00018460393FFF782FF2A4640462946FFF735
:1025E00092FE40464FF4A071FFF798FC4046F02160
:1025F000FFF796FC271D4FF07F43A3664146384600
:1026000005F0AAFD2A4604986FF01001FFF77BFE43
:102610004FF002030498ADF828300AA907F0D1F969
:102620000499384605F098FD9D220598D521FFF7BD
:102630006AFE0F230598ADF828300AA907F0C1F902
:102640000599384605F088FD4846B8222946FFF727
:102650005AFE1A224846182106F0C6FF484631465F
:1026600006F0D5FF2B4632464846294606F014FFB1
:102670004946384605F070FD01989F220B21FFF76F
:1026800042FE15220198142106F0AEFF0198314652
:1026900006F0BDFF2B4632460198294606F0FCFEA7
:1026A000019984F82551384605F056FD58468C228C
:1026B0001221FFF728FE13225846122106F094FF3C
:1026C0005846314606F0A3FF2B4632465846294667
:1026D00006F0E2FE5946384605F03EFD7822F32129
:1026E0005046FFF710FE04220321504606F07CFFFF
:1026F0003146504606F08BFF2B463246294650465F
:1027000006F0CAFE5146384605F026FD26220298FC
:10271000DFF840B12221FFF7F6FD4FF07F43C4F808
:10272000E431D4F8B4310299D3F88430A4F8E851F4
:102730000DF118084046984798E8070004F5F8732B
:1027400083E80700DBF8003004F513792BB93B4B25
:102750003B4A60213B4819F0A7FBDFF8FCA0BAF820
:102760000030032B03D8384B354A6121F2E7374B51
:102770000321186800F018FA354A03460A21484632
:102780000BF048FE0298C4F8FC9107F033F8DFF82C
:10279000CC900298CDF8289004230AA9ADF82C30EB
:1027A00007F048F80299384605F0D6FC039826222F
:1027B000CB21FFF7A8FDD4F800320399D3F8843079
:1027C000A4F834524FF07F42C4F830224046984774
:1027D00098E8070004F50F7383E80700DBF8003082
:1027E00004F51875002BB2D0BAF80030012BBAD915
:1027F000164B3146186800F0D7F9154A03460A21EE
:1028000028460BF007FE0398C4F8485206F0F2FF82
:102810004FF002030398ADF82C300AA9CDF82890A8
:1028200007F008F83846039905F096FC20460DB0ED
:10283000BDE8F08FE8DE010858E3010898DC0108E4
:102840009ADD010815DD01085CDD0108181A012078
:10285000E5DD01080C1A0120101A0120A8D8010892
:102860007047000030B5164D2C68BFF35B8F14F035
:1028700001048FB020D1284619F0E9FAE0B13F23D6
:102880000993104B0893104B104911480A940122E8
:10289000CDE906430423CDE903320A230093CDE9B1
:1028A0000B44CDE901440594FFF7F8FC094819F001
:1028B00019FB284619F0D7FA05480FB030BD00BF04
:1028C000DC0A00205CF201086CF2010850F00108FB
:1028D000E00A0020612800087047000030B5174D5D
:1028E0002C68BFF35B8F14F001048FB022D128460F
:1028F00019F0ADFAF0B13F230993114B0893114B36
:1029000007930123CDE9054304930423CDE9024352
:102910000F23009312230C490C480A941A46CDE960
:102920000B440194FFF7BAFC094819F0DBFA28467A
:1029300019F099FA05480FB030BD00BF0C0B00200C
:1029400060F2010870F2010860F00108100B00202D
:10295000D92800087047000030B5164D2C68BFF329
:102960005B8F14F001048FB020D1284619F06FFA64
:10297000E0B13F230993104B0893104B10491148C5
:102980000A940122CDE906430423CDE9033228232A
:102990000093CDE90B44CDE901440594FFF77EFC9B
:1029A000094819F09FFA284619F05DFA05480FB05A
:1029B00030BD00BF3C0B002064F2010874F2010836
:1029C0005CF10108400B0020552900087047000009
:1029D00030B5164D2C68BFF35B8F14F001048FB037
:1029E00021D1284619F033FAE8B13F230993104B5F
:1029F0000893104B104911480A94CDE9064301226F
:102A00000423CDE903320F2300931122CDE90B44B7
:102A1000CDE901440594FFF741FC094819F062FA39
:102A2000284619F020FA05480FB030BD6C0B002085
:102A300068F2010878F201086CF10108700B0020BF
:102A4000CD29000800207047002070470EB403B560
:102A500003AB002153F8042B019309F09FFC02B053
:102A60005DF804EB03B070470CB407B504AB53F842
:102A7000042B019309F092FC03B05DF804EB02B063
:102A800070470000436C10B5044673B3038F2BB935
:102A9000184B194AC521194819F006FAC38E00EBE4
:102AA00043035B8C0BB30AF00CFF238F012B03D87D
:102AB000134B144ACB21EEE7E28E531C9BB2092B39
:102AC000194688BFA3F10A0104EB410140F63F100B
:102AD000498C814209D10A2B04EB420228BF002312
:102AE00004EB4303508C588451842046BDE81040C9
:102AF0000AF0EABD14DF01081DDF0108C8DF010884
:102B000012E0010820E001080AF0A5BD10B586B06A
:102B100002AC84E806001A460AAB05930193099BB0
:102B200000932146089B08F041F806B010BD000054
:102B300038B518BB124B13481C681349B4B122684E
:102B400022440260626822440A60A26814440F4B67
:102B500000221A8000F038F8054600F033F80C4BDC
:102B60001C600C4B1D600C4B188007E00B4B036086
:102B70000B4B0B600B4B1C68002CE8D138BD00BF21
:102B8000A80B0020A00B00209C0B0020A40B002011
:102B90000C1A0120141A0120101A012098F20108C1
:102BA0007CF20108F0F20108044B1B6853F8210085
:102BB000034B1B6803EB4000704700BF9C0B0020D9
:102BC000A00B00200720704700487047AC0B002086
:102BD00010B5FFF783FE064C2060FFF7BDFE606076
:102BE000FFF740FEA060FFF7F3FEE06010BD00BFFE
:102BF000AC0B0020704710B54FF4AE71044619F0CD
:102C000024F9204610BD10B50446D0F8580100F054
:102C100012F82046BDE8104008F0C6BC10B50446C6
:102C2000FFF7CAFA014B2360204610BDFCE0010803
:102C30000022026070477047704704387047704741
:102C400010B51021044619F000F9204610BDA0F17E
:102C50000400F5E700228260024A026018324260F6
:102C6000C160704750E1010870470000F7B5164F8A
:102C700004460D460026AE4201D103B0F0BD4FF030
:102C8000FF333868002201A903F0B7FABDF8043019
:102C90003F2B08D894F89C328BB984F8613101231A
:102CA00084F8253109E0C02B09D994F89C3233B956
:102CB000C4F8A032012384F89C320136DBE70123FB
:102CC00084F861310023EBE7D407002010B5034BF3
:102CD00003600446FFF77EFB204610BD7CE101083F
:102CE00010B50446FFF7F2FF20464FF42D7119F09E
:102CF000ACF8204610BD000010B50446FFF710FCEC
:102D00000C4B23604FF4A0720023C4E9AA23C4F83B
:102D100090228C2001210222C4E9A50184F89C3272
:102D2000C4F8A032C4F8A422C4F87432C4F8B03293
:102D3000204610BD7CE1010810B5401A4FF6FF7324
:102D4000013A92B20C5841F8044B9A42F8D110BDA6
:102D500007B50448012201A9FFF7EEFF019803B06F
:102D60005DF804FB00001E08224B10B504461868ED
:102D700003F073FA014618B1236820461B6B98478D
:102D8000D4E9AA23FBB1012B20D0D4F8A412521A03
:102D9000C4F8A82232320ADAD4F89022C4F8A82261
:102DA000C3F10103C4F8AC329BB1012B19D094F8E4
:102DB0009C321BB123682046DB6A9847201DBDE882
:102DC000104009F015BCA4F89C20DEE7A4F87C2193
:102DD000DBE7A4F89C20012284F8BD2084F89D3113
:102DE000E5E784F89D310023A4F87C2184F8BD3008
:102DF000DDE700BFD407002070B50446FFF7EBFA0B
:102E00002368314E5B6B002584F825512046984796
:102E100032460346C4F8B0020A2104F513700BF0E1
:102E2000F9FA04F5DA7009F0E3FBD4F88C32324693
:102E30000A2104F518700BF0EDFA04F1C40604F54C
:102E4000007009F0D5FB29463046B422FFF75BFA43
:102E500001231A462946304604F59E7606F01CFBEF
:102E600030468C221921FFF74EFA01231A462946D3
:102E7000304606F011FB30460A2104F5807606F054
:102E8000C6FB3046A1221521FFF73DFA01231A4661
:102E90002946304606F000FB30460A2106F0B7FB13
:102EA000B4F9901284F8255104F198009D22FFF79F
:102EB0002AFA0123B4F9901284F8BD30602204F597
:102EC000BC70FFF720FA70BD70E101082DE9F041F8
:102ED00005464FF00108002600F59E7780F8256131
:102EE00080F86181384606F0B7FAD5F8A032D5F8F7
:102EF0009422434403FB03F46FF06301A4EB041436
:102F000094FBF1F43C211444C5F8A0324B436FF01C
:102F1000090193FBF1F31C44C5F8984224B2A24284
:102F200003DDA5F84241BDE8F081A5F84221434602
:102F300042463146384606F0AFFA85F89C62C5F83D
:102F40009882F0E7F02070474FF4A0707047292076
:102F5000FEF7AEBB2820FEF7ABBB08B5FEF77CFB47
:102F6000CA20FEF7A5FBC320FEF786FB0820FEF76C
:102F700083FB5020FEF780FBCF20FEF799FB00205B
:102F8000FEF77AFBC120FEF777FB3020FEF774FBDB
:102F9000ED20FEF78DFB6420FEF76EFB0320FEF7AD
:102FA0006BFB1220FEF768FB8120FEF765FBE82033
:102FB000FEF77EFB8520FEF75FFB0020FEF75CFB43
:102FC0007820FEF759FBCB20FEF772FB3920FEF785
:102FD00053FB2C20FEF750FB0020FEF74DFB342066
:102FE000FEF74AFB0220FEF747FBF720FEF760FBE7
:102FF0002020FEF741FBEA20FEF75AFB0020FEF7F7
:103000003BFB0020FEF738FBB120FEF751FB002010
:10301000FEF732FB1B20FEF72FFBB620FEF748FB26
:103020000A20FEF729FBA220FEF726FBC020FEF7B0
:103030003FFB1020FEF720FBC120FEF739FB1020DC
:10304000FEF71AFBC520FEF733FB4520FEF714FB05
:103050001520FEF711FBC720FEF72AFB9020FEF794
:103060000BFB3620FEF724FBC820FEF705FBF22001
:10307000FEF71EFB0020FEF7FFFAB020FEF718FB5C
:10308000C220FEF7F9FAB620FEF712FB0A20FEF77F
:10309000F3FAA720FEF7F0FA2720FEF7EDFA042056
:1030A000FEF7EAFA2A20FEF703FB0020FEF7E4FA17
:1030B0000020FEF7E1FA0020FEF7DEFAEF20FEF72F
:1030C000DBFA2B20FEF7F4FA0020FEF7D5FA0020F9
:1030D000FEF7D2FA0120FEF7CFFA3F20FEF7CCFA36
:1030E000F620FEF7E5FA0120FEF7C6FA0020FEF70B
:1030F000C3FA0620FEF7C0FA2C20FEF7D9FAC82042
:10310000FEF724FB2620FEF7D3FA0120FEF7B4FADF
:10311000E020FEF7CDFA0F20FEF7AEFA2920FEF7E9
:10312000ABFA2420FEF7A8FA0C20FEF7A5FA0E2031
:10313000FEF7A2FA0920FEF79FFA4E20FEF79CFA4E
:103140007820FEF799FA3C20FEF796FA0920FEF760
:1031500093FA1320FEF790FA0520FEF78DFA172058
:10316000FEF78AFA1120FEF787FA0020FEF784FAAC
:10317000E120FEF79DFA0020FEF77EFA1620FEF70A
:103180007BFA1B20FEF778FA0420FEF775FA11206F
:10319000FEF772FA0720FEF76FFA3120FEF76CFA9D
:1031A0003320FEF769FA4220FEF766FA0520FEF7A3
:1031B00063FA0C20FEF760FA0A20FEF75DFA282079
:1031C000FEF75AFA2F20FEF757FA0F20FEF754FAAF
:1031D0001120FEF76DFAC820FEF7B8FA2920FEF795
:1031E00067FABDE808402C20FEF762BA08B5FEF782
:1031F00033FA0321D320FEF777FA80B208BD10B569
:10320000C4B2022203212046FEF7DCF90A20FEF7B1
:1032100021FA204600220321FEF7D4F9BDE8104030
:103220000220FEF717BA38B50446E4B2FEF7C8F933
:1032300000212046FEF7DEF9012105462046FEF773
:10324000D9F940EA052080B238BD10B5C4B240219A
:103250002046FEF7CFF9030607D54C212046FEF79E
:10326000C9F9003818BF012010BD01224B212046AA
:10327000FEF7A8F9204600224B21FEF7A3F9002013
:10328000F2E773B50423C4B20E461546D7210DEB01
:1032900003022046FEF7C8F9019B1BBA1A0DC3F3BF
:1032A0000B23328020462B8001224B21FEF78AF926
:1032B00000224B212046FEF785F902B070BD0000C8
:1032C00010B50A4A1378984204460DD051788842C6
:1032D0000AD00BB141B90123D454FEF771F920464D
:1032E000BDE81040FFF78BBF10BD00BFBC0B002036
:1032F00010B5C4B209212046FEF77CF940F0010266
:10330000D2B220460921BDE81040FEF75BB910B5E6
:10331000C4B209212046FEF76DF9092100F0FE0232
:103320002046BDE81040FEF74DB938B5C4B20D4691
:1033300020460A21FEF75EF940EA0502D2B2204695
:103340000A21BDE83840FEF73DB910B50446FEF746
:1033500038F920461F21FFF7E8FF2046BDE810405E
:10336000FFF7C6BF38B5C4B20D4620460A21FEF7A6
:1033700041F920EA0502D2B220460A21BDE83840D0
:10338000FEF720B910B50446FFF7C1FF20461F2104
:10339000BDE81040FFF7E6BF10B5C0B20C460B21E8
:1033A000FEF728F9204010BD1F21FFF7F5BF0A46A0
:1033B000C0B20B21FEF706B91F21FFF7F8BF38B5E1
:1033C000C4B20D4620461721FEF714F920EA050283
:1033D000D2B220461721BDE83840FEF7F3B870B5E9
:1033E000C4B2064604212046FEF704F9042100F089
:1033F000FB0205462046FEF7E5F83046F021FFF7D0
:10340000DEFF05F0F80220460421FEF7DBF8492232
:1034100020212046FEF7D6F80220FEF71BF92046B1
:1034200001222121FEF7CEF820469A224121FEF703
:10343000C9F8204601224A21FEF7C4F8204601229D
:103440004B21FEF7BFF8204600224B21FEF7BAF8C9
:10345000204601225621FEF7B5F8204601225821C8
:10346000FEF7B0F8204601224021FEF7ABF82046D7
:10347000FF220B21FEF7A6F8BDE870400220FEF700
:10348000E9B80000054BD3F8882042F47002C3F875
:1034900088204FF000629A60704700BF00ED00E0A6
:1034A00008B50B4B1A6842F400721A601A6842F4AD
:1034B00080621A601A6842F480721A60032000F079
:1034C00045FA0020FEF712FCFEF74EF9002008BD79
:1034D000003C0240034A044B11681B780B44136004
:1034E000704700BFC00B002078000020014B186817
:1034F000704700BFC00B002038B50446FFF7F6FF49
:10350000631C1CBF054B1B78054618BFE418FFF76A
:10351000EDFF431BA342FAD338BD00BF7800002063
:1035200038B50446002800F09B80056C25B9FEF7ED
:103530003BF9656484F83C50236CDB0600F18E8017
:10354000236C23F4885323F0020343F00203236423
:10355000444B5A6822F440325A605A6861680A4300
:103560005A60236821695A6822F480725A605A6846
:1035700042EA01225A605A68A16822F040725A60F9
:103580005A680A435A609A68E16822F400629A60B5
:103590009A680A439A603449A26A8A4252D099686A
:1035A00021F07061996099680A439A609A68E16AAB
:1035B00022F040529A609A680A439A609A6822F010
:1035C00002029A609A68217E42EA41029A6094F867
:1035D0002020002A3ED05A68616A42F400625A6094
:1035E0005A6822F460425A605A68013942EA41320C
:1035F0005A60DA6AE16922F47002DA62DA6A013941
:1036000042EA0152DA629A6822F400729A609A6879
:1036100094F8301042EA41229A609A68616922F473
:1036200080629A609A68002042EA81229A6060640F
:10363000236C23F0030343F001032364002384F885
:103640003C3038BD9A6822F070629A609A6822F025
:103650004052B2E75A6822F40062C9E70120EDE760
:103660000120EEE7002301400100000F82B000239B
:10367000019390F83C30012B69D0012380F83C3055
:1036800003689A68D2070BD59A68D1071AD4036CDD
:1036900043F010030364436C43F0010343644CE0C4
:1036A0009A682C4942F001029A602B4A1268B2FBD8
:1036B000F1F202EB42020192019A002AE4D0019A4F
:1036C000013AF8E7026C22F4E06222F0010242F4CF
:1036D000807202645A68520541BF026C22F4405263
:1036E00042F480520264026C12F480521CBF426C9D
:1036F00022F006024264002280F83C206FF0220291
:103700001A60164A516811F01F0F15491CD18B42DF
:1037100007D001F580718B420CD1526812F01F0F57
:103720000BD19A6812F0405F07D19A6842F080424C
:103730009A6002E00B498B4202D0002002B0704731
:10374000526812F0100FEBE78B42F6D1E9E7022046
:10375000F4E700BF40420F00740000200023014046
:10376000002001400022014003689A68520570B5AC
:1037700004460D460BD59B68DE0508D5036C43F067
:1037800020030364002380F83C30012070BDFFF764
:10379000ADFE064623681A6891070CD56FF0120239
:1037A0001A60226C42F4007222649A6812F0405F40
:1037B00017D00020EAE7681CEDD065B923681B68C4
:1037C00013F00203E6D1226C84F83C3042F004028C
:1037D00022640320DAE7FFF789FE801BA842EDD8B8
:1037E000D8E7227E002AE4D1DA6A12F4700F02D000
:1037F0009B685A05DDD4236C23F480732364236C07
:10380000DB04D6D4236C43F001032364D1E70368BF
:10381000D86C7047F7B50023019390F83C30012B2A
:10382000054600F08680012380F83C3008682B684C
:103830008E68092884B233D904EB4402DF681E3A4B
:103840004FF0070C0CFA02FC27EA0C07DF60DF6878
:1038500006FA02F23A43DA604968062901EB81026E
:103860002DD8596B053A1F26964021EA0601596367
:10387000596B04FA02F20A435A632F4A93420AD15F
:10388000122837D12D4B5A6822F400025A605A6828
:1038900042F480025A60002085F83C0003B0F0BD7D
:1038A0001A6900EB400C072707FA0CF722EA070217
:1038B0001A611A6906FA0CF616431E61CCE70C2948
:1038C0004FF01F010BD81E6B233A914026EA0101ED
:1038D0001963196B04FA02F20A431A63CDE7DE6A30
:1038E000413A914026EA0101D962D96A94400C43D9
:1038F000DC62C2E7124B984201D01128CBD10F4BAA
:103900005A6822F480025A605A6842F400025A60EF
:103910000B4B9842BFD10B4B0B4A1B68B3FBF2F326
:103920000A2253430193019B002BB4D0019B013B1E
:10393000F8E70220B2E700BF002001400023014069
:10394000120000107400002040420F000749CA68AE
:1039500022F4E0620302120403F4E063120C134346
:1039600043F0BF6343F40033CB60704700ED00E0E9
:10397000164B30B5DC68C4F30224C4F10703251DDF
:10398000042B28BF0423062D4FF0FF358CBF033CCA
:10399000002405FA03F321EA0303A54022EA050205
:1039A000A340002843EA0203ACBF00F16040084A8C
:1039B0004FEA0313B8BF00F00F00DBB2AABF00F557
:1039C0006140135480F8003330BD00BF00ED00E0CB
:1039D00014ED00E0002807DB044A4109012300F050
:1039E0001F00834042F82130704700BF00E100E033
:1039F00010B5044650B1437903F0FF0213B90271C8
:103A0000FDF72AFF01236371002010BD0120FCE7B0
:103A100010B5044630B390F8393003F0FF021BB9FB
:103A200080F83820FDF730FF22686168022384F8AF
:103A30003930136823F440330B431360536BA16890
:103A400023F007030B435363136CE16823F47F53A4
:103A500023F03F030B43136400200123E06384F849
:103A6000393010BD0120FCE770477047036870B51E
:103A70005E681D68F207044614D5E90512D51A6878
:103A800022F480721A60C26B42F00102C26301220A
:103A90009A60042380F83930002380F83830436975
:103AA00003B19847B20616D5AB0414D523681A683B
:103AB00022F400521A6020229A60E36B43F0020362
:103AC000E363042384F83930002384F838306369D1
:103AD0000BB120469847300716D5290514D5236821
:103AE0001A6822F400621A6008229A60E36B43F0BD
:103AF0000403E363042384F83930002384F8383066
:103B000063690BB12046984772070BD56B0509D541
:103B100023681A6822F480621A6004229A602046A0
:103B2000FFF7A2FFB00714D5A90512D523681A68BC
:103B300022F400721A6002229A60E36BE3630123AD
:103B400084F83930002384F8383023690BB12046DB
:103B50009847F20613D5EB0411D523681A6822F4AE
:103B600080521A6010229A60E36BE363012384F8A9
:103B70003930002384F838302046FFF776FF70BDD7
:103B8000F0B590F83820012A03464FF002002BD000
:103B9000012283F8382083F8390003EB0112D2E9BF
:103BA0000740556A174F44EA0040093C012C9CBF6E
:103BB00005F07F4210434FEA01161A6888BF40EAB9
:103BC000056091B9516A394001435162012C9969EC
:103BD000916103D8596A21F07F419162012200204E
:103BE00083F8392083F83800F0BDD16939400143AA
:103BF000D1619919012C896911619CBF25F07F451C
:103C00001562EBE7F0FFFC002DE9F74FDFF8BC9100
:103C10006C4A00230D6801249C4004EA0506AC436D
:103C200040F0B7804D68032705F003044FEA4308CE
:103C300007FA08FC671E012F6FEA0C0C34D887685E
:103C400007EA0C0ECF6807FA08F747EA0E07876005
:103C5000476827EA060EC5F300179F4047EA0E079C
:103C60004760C76807EA0C0E8F6807FA08F747EA4B
:103C70000E07022CC76019D14FEAD30A00EB8A0A5B
:103C800003F0070BDAF820704FEA8B0B4FF00F0EA2
:103C90000EFA0BFE27EA0E0E0F6907FA0BF747EA3A
:103CA0000E07CAF8207001E0032CDAD1076804FA85
:103CB00008F407EA0C073C4315F4403F046068D061
:103CC00000240194D9F8444044F48044C9F84440A5
:103CD000D9F8444023F0030707F1804704F48044F7
:103CE00007F59C37019403F0030C019CD7F808E01A
:103CF0004FEA8C0C0F2404FA0CF42EEA040E324C1A
:103D0000A0424DD004F58064A0424BD004F58064FD
:103D1000A04249D004F58064A04247D004F58064F5
:103D2000A04245D004F58064A04243D004F58064ED
:103D3000A04241D004F58064A0423FD004F58064E5
:103D4000A0423DD004F58064A04214BF0A24092497
:103D500004FA0CF444EA0E04BC609468F74315F4CA
:103D6000801F0CBF3C4034439460D46815F4001F9E
:103D70000CBF3C403443D460546815F4003F0CBF82
:103D80003C40344354601468ED0354BF3C4034431A
:103D900014600133102B7FF43DAF03B0BDE8F08F0A
:103DA0000024D5E70124D3E70224D1E70324CFE799
:103DB0000424CDE70524CBE70624C9E70724C7E799
:103DC0000824C5E7003C01400000024000380240E2
:103DD0000369194214BF0120002070470AB18161B4
:103DE00070470904FBE7436901EA030221EA030182
:103DF00041EA02418161704701684B6913F48063B5
:103E00004FF0000210D06FF480634B6120230263F7
:103E100080F83D3080F83E20036C80F83C2043F071
:103E20000403036401207047184670472DE9F846E3
:103E300006460F4691461D464FEA114A3368BAF1CD
:103E4000010F0CBF5C699C6927EA0404A4B2B4FAB0
:103E500084F46409A14501D0002025E06A1CEED05D
:103E6000FFF744FB089BC01AA84201D8002DE5D1FA
:103E70003368BAF1010F0CBF5B699B6927EA030342
:103E80009BB2B3FA83F35B099945D7D10023202273
:103E9000336386F83D2086F83E30326C86F83C303D
:103EA00042F0200232640120BDE8F8862DE9F0419D
:103EB00004460F46164698462568686927EA0000BA
:103EC00080B2C0B16B695A0517D52B6843F40073F3
:103ED0002B606FF480636B6120220023236384F8DE
:103EE0003D2084F83E30236C43F004032364002318
:103EF00084F83C300120BDE8F081731CDDD0FFF771
:103F0000F5FAA0EB0800B04201D8002ED4D1236806
:103F10005A6927EA020292B2002ACDD00023202259
:103F2000236384F83D2084F83E30236C1343DDE79F
:103F300070B504460D46164623685B691B0601D51D
:103F400000201EE02046FFF757FFC8B96A1CF3D0D7
:103F5000FFF7CCFA801BA84201D8002DECD12368D2
:103F60005B6913F08003E7D12022236384F83D20AE
:103F700084F83E30226C84F83C3042F02002226407
:103F8000012070BD2DE9F0431546026885B0DDE9DA
:103F90000C789946136843F4807313600E463B46D1
:103FA000CDF8008000224FF001110446FFF73EFFDC
:103FB000236838B11B68DB0502D54FF40073236416
:103FC000032620E006F0FE061E611A4943463A46E3
:103FD0002046FFF76BFFA8B9236803905A69039244
:103FE0009B690393424639462046039BFFF7A0FF97
:103FF000064660B1236C042B01BF2268136843F4AA
:10400000007313600126304605B0BDE8F083B9F1B6
:10401000010F236802D1EDB21D61F4E72A0A1A618B
:10402000394642462046FFF783FF0028E2D1236845
:10403000F1E700BF020001002DE9FF479A4603683F
:1040400015461A6842F480621A601A68DDE90C7835
:1040500042F480721A600E463B46CDF80080002282
:104060004FF001110446FFF7E1FE236838B11B68E9
:10407000DB0544BF4FF400732364032021E05FFAA3
:1040800086F906F0FE061E612B4943463A46204655
:10409000FFF70CFFA0B9236803905A6903929B694C
:1040A0000393424639462046039BFFF741FF58B130
:1040B000236C042B01BF2268136843F40073136060
:1040C000012004B0BDE8F087BAF1010F23681AD1CE
:1040D000EDB242461D6139462046FFF729FF0246F0
:1040E0000028E5D121680B6843F480730B602046FB
:1040F000CDF800803B464FF00111FFF797FE226894
:1041000060B11368B4E72A0A1A613946424620466C
:10411000FFF70EFF0028CBD12368D9E749F0010350
:104120001361054943463A462046FFF7BFFE003873
:1041300018BF0120C5E700BF0200010070B50446AA
:104140000D46164623685B695B0701D500201EE01B
:104150002046FFF751FEC8B96A1CF3D0FFF7C6F935
:10416000801BA84201D8002DECD123685B6913F0B5
:104170000403E7D12022236384F83D2084F83E30F5
:10418000226C84F83C3042F020022264012070BD91
:1041900070B504460D46164621684B6913F040037E
:1041A00001D0002011E04A69D2060FD56FF010024D
:1041B0004A612022236384F83D2084F83E30236C3A
:1041C0002364002384F83C30012070BDFFF78EF992
:1041D000801BA84201D8002DDED123685B6913F053
:1041E0004003D9D12022236384F83D2084F83E3057
:1041F000236C1343E4E7000070B5044608B90120BE
:1042000070BD90F83D3003F0FF021BB980F83C20F0
:10421000FDF75CFB242384F83D3023681A6822F004
:1042200001021A601A6842F400421A601A6822F405
:1042300000421A6000F078FE3F4B65689D4294BFD3
:104240003E4B3F4B98428CBF00230123002BD6D11D
:104250002268394E51683B4BB0FBF3F321F03F012C
:104260001943B542516088BF4FF49676116A88BFF2
:10427000734321F03F0184BF4FF47A76B3FBF6F32A
:1042800001330B431362D169431E2B4821F44F4184
:10429000854221F0FF0132D86D0040F6FC70B3FB7F
:1042A000F5F30133034242D0C3F30B031943D16149
:1042B000D4E907301168034321F0C0010B431360B8
:1042C0009168D4E9030321F40341034321F0FF0182
:1042D0000B439360D4E90530D168034321F0FF011B
:1042E0000B43D360136843F00103136000202023C5
:1042F000206484F83D30206384F83E0080E7A068A5
:1043000050B905EB4505B3FBF5F30133C3F30B03DC
:104310007BB143F40043C9E719206843B3FBF0F3D2
:104320000133C3F30B0323B143F44043BEE704233B
:10433000BCE70123BAE700BFA08601007F841E000E
:10434000FF083D0040420F002DE9F743044699461F
:104350000C9E0F469046FFF7C9F894F83D30202B8D
:10436000054603D0022003B0BDE8F08300903C492D
:10437000192301222046FFF759FD0028F2D194F8B5
:104380003C30012BEED02068012384F83C300368D8
:10439000D9075EBF036843F001030360036823F499
:1043A00000630360212384F83D30402384F83E30CD
:1043B000002323640A9B6362BDF82C306385638D00
:1043C0002385284BE3624246CDE900654B463946DA
:1043D0002046FFF7D7FD00282AD00120C3E7FFF7CA
:1043E000A7FD40B1236C042B01BF2268136843F47E
:1043F00000731360F1E7636A27681A4612F8011B1D
:1044000039616262628D218D013A92B262857A6968
:10441000481E80B2520720850AD548B15A783A61C1
:1044200002336362638D013B02399BB22185638550
:10443000238D2A4631462046002BD0D1FFF77EFE41
:104440000028CFD12268136843F40073136020233F
:1044500084F83D3084F83C0084F83E0083E700BFD8
:10446000020010000000FFFF2DE9F043044687B072
:104470009946109F0D469046FFF738F894F83D3066
:10448000202B064604D00225284607B0BDE8F0835D
:1044900000907A49192301222046FFF7C7FC002823
:1044A000F1D194F83C30012BEDD02068012384F841
:1044B0003C300368DB075EBF036843F00103036021
:1044C000036823F400630360222384F83D30402313
:1044D00084F83E30002323640E9B6362BDF83C30B9
:1044E0006385638D2385664BE3622946CDE90076BB
:1044F0004B4642462046FFF79FFD054608B1012581
:10450000C2E7228D2368B2B902905A6902929A6971
:104510000292029A1A6842F400721A60DFF864810B
:10452000238D002B2CD1202284F83D2084F83C30B0
:1045300084F83E30A8E7012A0AD11A6822F4806282
:104540001A6003905A6903929A690392039AE1E709
:10455000022A0ED11A6822F480621A601A6842F4A4
:1045600000621A6004905A6904929B690493049B48
:10457000D4E705905A6905929B690593059BCDE7A1
:10458000032B56D8012B15D1324639462046FFF76A
:10459000FFFD0028B3D123681A69636A1A70636A41
:1045A00001336362238D013B2385638D013B9BB205
:1045B0006385B5E7022B00963B464FF0000241466B
:1045C000204619D1FFF732FC002898D123681A68D9
:1045D00042F400721A601A69636A1A70626A531CA4
:1045E0006362238D013B2385638D013B9BB2638511
:1045F00023681B695370D2E7FFF718FC02460028B6
:104600007FF47DAF2368196821F48061196019690E
:10461000636A1970636A01336362238D013B2385EA
:10462000638D013B9BB26385414600963B46204625
:10463000C8E7324639462046FFF7AAFD00287FF436
:104640005EAF23681A69636A1A70628D616A013A03
:1046500092B24B1C628522686362238D5069013BD4
:104660009BB2400723857FF55BAF032B02BF136826
:1046700023F48063136013694B7090E7020010000D
:104680000000FFFF0400010010B590F83D30202B22
:10469000DCB216D1242380F83D3003681A6822F07A
:1046A00001021A605A6A22F010025A625A6A1143D1
:1046B00059621A6842F001021A6080F83D400020F9
:1046C00010BD0220FCE730B590F83D30202BDCB265
:1046D00016D10268242380F83D30136823F00103CB
:1046E0001360556A4FF6F0732B400B439BB2536235
:1046F000136843F00103136080F83D40002030BD93
:104700000220FCE70068D1F800C0D201843283188F
:104710002DE9F043C6685D684C68D1F8189005F43F
:1047200070455D60C5680CF10107C5F30B45C6F324
:104730000B463D44264445EA06455D60C668CD68A3
:10474000C6F30A062E449D6805F470459D60C7684F
:104750008D68C7F30A0701353D4445EA06459D606B
:104760001D690E6925F007051D614FF0000E1E61E1
:104770009D6991F8327091F83180C3F818E091F892
:10478000305045EA096545EA082545EA07459D6137
:104790005D6925F0FF055D614D695D61DD6925F4A9
:1047A000E06525F00705DD61D1E907573D43DD618F
:1047B0009D6A4D6AC3F828E09D621EB3012E23D086
:1047C000B51E022D22D9072E14BF01250225DE6A4F
:1047D00006F0E026DE62A4EB0C048E6AC96A6C4324
:1047E0006E43033444EA0644DC621C6B24F4FF6429
:1047F00024F007041C631963835843F001038350BA
:10480000BDE8F0830425E2E70325E0E70225DEE7C3
:1048100038B50446002863D090F8A13003F0FF02B9
:104820001BB980F8A020FDF7ADF8022384F8A13071
:1048300023689A6922F070429A61D4E90120024308
:10484000E06899690243206902430A439A619A68C1
:10485000244960690A409A609A6842EA0042A06965
:1048600002439A60DA68E0690A40DA60DA6842EA8C
:104870000042206A0243DA601A69606A0A401A61DB
:104880001A6942EA0042A06A02431A615A690A4060
:104890005A615A69E16A42EA0142216B0A435A614C
:1048A000DA6A94F8350094F8361002F07F42DA6242
:1048B000DD6A94F834202A4342EA002242EA0142A7
:1048C000DA625A6B42F006025A639A6942F00102B8
:1048D0009A6100200123C4F8A40084F8A13038BDF7
:1048E0000120FCE700F800F070477047036870B5DE
:1048F0009E6B5D6B7207044614D5690712D55A6B1F
:1049000022F004025A630422DA63D0F8A43043F0A0
:104910000103C0F8A430002380F8A12080F8A03063
:10492000FFF7E2FFB20716D5AB0714D523685A6B21
:1049300022F002025A630222DA63D4F8A43013434D
:10494000C4F8A430042384F8A130002384F8A030F4
:104950002046FFF7C9FFF00710D5E9070ED52368F9
:104960005A6B22F001025A630122DA63002384F8B1
:10497000A12084F8A0302046FCF7F0FA320711D5C8
:104980002B070FD523685A6B22F008025A630822BE
:10499000DA63012384F8A130002384F8A030204694
:1049A000FFF7A3FF70BD2DE9F04190F8A030012B77
:1049B00006460F4694464FF002001FD04FF0010804
:1049C00086F8A08086F8A10034240D4604FB02641A
:1049D0000FCD38340FC40FCD0FC40FCD0FC42B68CB
:1049E0002360304662463946FFF78CFE336800206C
:1049F000C3F8248086F8A18086F8A000BDE8F08185
:104A000090F8A020012A03464FF0020012D01A6845
:104A100083F8A100506B20F0010050630648016448
:104A2000516B41F0010151630020012283F8A12064
:104A300083F8A000704700BF006801402DE9F341F2
:104A4000044640B30368DE0710D423689D075BD497
:104A50002368190700F19D8023685A0700F1BD8083
:104A6000A369002B40F0248100202CE08D4B9A6834
:104A700002F00C02042A07D09A6802F00C02082AFD
:104A80000BD15B68590208D5864B1B689A03DCD5AD
:104A90006368002BD9D1012015E06368814DB3F51F
:104AA000803F13D12B6843F480332B60FEF71EFD4B
:104AB0007C4E054633689B03C7D4FEF717FD401BA9
:104AC0006428F7D9032002B0BDE8F081B3F5A02F28
:104AD00004D12B6843F480232B60E3E72A6822F497
:104AE00080322A602A6822F480222A60002BDDD1DD
:104AF000FEF7FCFC06462B689F03A6D5FEF7F6FCE6
:104B0000801B6428F7D9DDE7664B9A6812F00C0F1A
:104B100007D09A6802F00C02082A11D15B685D0286
:104B20000ED4604A1368990702D5E368012BB2D10D
:104B30001368216923F0F80343EAC103136087E790
:104B4000E268594BB2B101221A60FEF7CFFC554D15
:104B500006462B689B0707D52B68226923F0F803CC
:104B600043EAC2032B6073E7FEF7C0FC801B0228F8
:104B7000EFD9A7E71A60FEF7B9FC4A4E054633683D
:104B80009F077FF565AFFEF7B1FC401B0228F6D901
:104B900098E76269444B82B10122C3F8802EFEF788
:104BA000A5FC404E0546736F9B073FF555AFFEF7DA
:104BB0009DFC401B0228F6D984E7C3F8802EFEF73F
:104BC00095FC384E0546736F9F077FF545AFFEF79E
:104BD0008DFC401B0228F6D974E7324B1A6C12F098
:104BE000805228D101921A6C42F080521A641B6CD8
:104BF00003F080530193019B01272C4D2B68D805AE
:104C00001BD5A368274D012B27D12B6F43F0010340
:104C10002B67FEF76BFC234E054641F28838336F55
:104C20009A0739D5002F3FF41BAF1E4A136C23F0AF
:104C30008053136414E70027DFE72B6843F4807385
:104C40002B60FEF753FC06462B68D905D9D4FEF736
:104C50004DFC801B0228F7D934E7052B04D12B6FBC
:104C600043F004032B67D0E72A6F22F001022A6782
:104C70002A6F22F004022A67002BCAD1FEF736FC05
:104C800041F2883806462B6F9B07CBD5FEF72EFCEA
:104C9000801B4045F7D915E7FEF728FC401B40452F
:104CA000BDD90FE7003802400000474200700040C5
:104CB000374DAA6802F00C02082A3ED0022B354B71
:104CC0004FF000021A662BD1FEF710FC06462B6847
:104CD00099011FD4D4E907321343626A43EA82136D
:104CE000E26A43EA0263A26A5208013A43EA0243D3
:104CF0006B60284B264D01221A66FEF7F7FB04462F
:104D00002B689A013FF5B0AEFEF7F0FB001B0228BE
:104D1000F6D9D7E6FEF7EAFB801B0228D7D9D1E601
:104D2000FEF7E4FB04462B689B017FF59DAEFEF782
:104D3000DDFB001B0228F6D9C4E6012B3FF4ABAE25
:104D40006B68E26903F4800191427FF4A4AE216AAA
:104D500003F03F028A427FF49EAE616A47F6C0725A
:104D60001A40B2EB811F7FF496AEA26A520803F498
:104D70004031013AB1EB024F7FF48DAEE26A03F0AD
:104D80007063B3EB026F14BF012000209BE600BFED
:104D90000038024000004742134908B58B6803F011
:104DA0000C03042B1CD0082B1CD14A684B684968A3
:104DB00013F4800314BF0D480D48C1F3881118BFC8
:104DC000002302F03F02A1FB0001FBF761FA064B52
:104DD0005B68C3F3014301335B00B0FBF3F008BD34
:104DE0000248FCE70248FAE70038024000127A0065
:104DF0000024F4002DE9F0410D46044610B90120CD
:104E0000BDE8F081434B1A6802F00F028A4228D3B2
:104E100021688F072DD4C80740D43E4B1A6802F092
:104E20000F02AA4265D8226851076BD4130707D531
:104E3000394A2169936823F4604343EAC1039360CC
:104E4000FFF7AAFF344B354A9B68C3F30313D35CC7
:104E5000D840334B1860334B1868FCF747FF0020ED
:104E6000CEE7CAB21A701B6803F00F038B42C6D19B
:104E7000CEE7294B11F0040F1EBF9A6842F4E052AE
:104E80009A600E0742BF9A6842F460429A609A683C
:104E9000A06822F0F00202439A60BCE762681E4BF1
:104EA000012A1CD11B6813F4003FA8D01A4EB36826
:104EB00023F003031343B360FEF718FB41F2883875
:104EC0000746B368626803F00C03B3EB820FA4D00B
:104ED000FEF70CFBC01B4045F3D9032090E7911E61
:104EE00001291B6802D813F0007FDEE713F0020FE0
:104EF000DBE7EAB21A701B6803F00F03AB427FF4E2
:104F00007EAF90E70449E0688B6823F4E0530343E5
:104F10008B608BE7003C024000380240BCE1010896
:104F2000740000207C000020044B054A9B68C3F3FA
:104F30008223D35C034A1068D8407047003802408F
:104F4000B4E1010874000020044B054A9B68C3F3D8
:104F50004233D35C034A1068D8407047003802409F
:104F6000B4E10108740000200F2303600B4B9A6822
:104F700002F0030242609A6802F0F00282609A68CE
:104F800002F4E052C2609B68DB0803F4E053036163
:104F9000034B1B6803F00F030B607047003802409F
:104FA000003C0240036813F0430FF7B5044640F09D
:104FB0008880236813F00C0F45D08C4B8C4D002259
:104FC0001A67FEF793FA06462B68990000F1CB802A
:104FD00021684A0715D5D4E90403D5F888201B06B3
:104FE00002F0E04243EA80131343C5F88830D5F855
:104FF0008C30226A23F4F853013A43EA0223C5F8BD
:105000008C300B0714D57A4AA369D2F8881020692E
:105010001B0701F0706143EA80130B43C2F888302C
:10502000D2F88C30616A23F440330B43C2F88C30E1
:105030006E4B6F4E01221A67FEF758FA0546336829
:105040009F0040F197802368980634D50023019390
:10505000674B684D1A6C42F080521A641B6C03F067
:1050600080530193019B2B6843F480732B60FEF700
:105070003DFA06462B68D80540F183805C4DA26A54
:105080002B6F13F4407340F08380A36A03F44072E3
:10509000B2F5407F564A40F09E80916823F0704000
:1050A00021F4F81120F4407001439160116FC3F3B3
:1050B0000B030B4313672368DB0600F1908000208D
:1050C0004FE04A4B4A4E00229A66FEF70FFA054619
:1050D00033681F013FD42168C80741BFD4E90123C9
:1050E0001B0743EA8213C6F884308A0715D5404A65
:1050F000E368D2F8840065681B0600F0E04043EAEC
:1051000085130343C2F88430D2F88C00E36920F0A1
:105110001F00013B0343C2F88C304B060AD5E368FD
:1051200062681B0643EA8213A26843EA0273304AAC
:10513000C2F884302D4B2E4E01229A66FEF7D6F926
:10514000054633681F013FF534AFFEF7CFF9401B2A
:105150000228F6D904E0FEF7C9F9401B0228B7D9A6
:10516000032003B0F0BDFEF7C1F9801B02287FF6D3
:105170002BAFF5E7FEF7BAF9401B02287FF65FAFC9
:10518000EEE7FEF7B3F9801B02287FF673AFE7E77F
:1051900002F4407293423FF478AF2B6F134A01211F
:1051A000C2F8401E23F440730021C2F8401E2B6752
:1051B0002B6FD9077FF569AFFEF798F941F2883771
:1051C00006462B6F9A073FF560AFFEF78FF9801BFD
:1051D000B842F6D9C4E7916821F4F81165E7064BA7
:1051E00094F82C20C3F8E02169E700BF0000474293
:1051F00000380240007000400010474238B50D46AC
:105200000446C8B190F82C3003F0FF021BB980F8B7
:105210002D20FCF7FFFC022384F82C30211D206890
:1052200000F0AFFD62682068294600F0E2FD01232E
:1052300084F82C30002038BD0120FCE770B590F8D0
:105240002C30022B05460E46D8B212D000F0FB04DB
:10525000012C0FD1022385F82C30286800F0FFFDC7
:105260003368022B06BF052385F82C3085F82C40C7
:10527000002070BD0120FCE738B590F82C30022BDF
:105280000446D8B20DD094F82C30012BDDB209D1F0
:105290000223206884F82C3000F005FE84F82C509E
:1052A000002038BD0120FCE72DE9F3471F46894661
:1052B00090460446FEF71AF90A9D3D442D1AFEF762
:1052C00015F9264B1E68C6F3CB366E43824601960F
:1052D0002268936839EA03030CBF01230023434586
:1052E00001D100202EE07B1CF3D0FEF7FFF8A0EBED
:1052F0000A00A84229D323685A6822F0E0025A60C3
:105300006268B2F5827F0AD1A268B2F5004F02D07E
:10531000B2F5806F03D11A6822F040021A60A26AC7
:10532000B2F5005F07D11A6822F400521A601A68B9
:1053300042F400521A60012384F85130002384F8AB
:105340005030032002B0BDE8F087019A019B002A8B
:1053500003F1FF33019308BF1546B9E7740000203D
:10536000F0B585B00B4600920E4617460221012289
:105370000446FFF799FF054628B1636D43F020030B
:105380006365032515E0124B1868124BB0FBF3F070
:105390004FF47A73584363680390B3F5827F0BD15F
:1053A000009733462A4680212046FFF77DFF0028DC
:1053B000E3D1284605B0F0BD039B002BF9D0039B39
:1053C000013B039323689B681B06F5D4F1E700BFFC
:1053D0007400002000366E0137B50B464168B1F508
:1053E000827F044608D0009201210022FFF75CFF73
:1053F000D0B9002003B030BD8168B1F5004F02D0B4
:10540000B1F5806F07D125682868B1F5806F20F06D
:105410004000286004D00092802100222046E5E769
:10542000009201210022F9E7636D43F020036365D8
:105430000320DFE710B50446002855D0436A002B4F
:105440004ED14268B2F5827F00D0C3610023A362CF
:1054500094F8513003F0FF0223B984F8502020461D
:10546000FCF76CFB2168A068A269022384F8513024
:105470000B6823F040030B60636800F4044003F4FE
:1054800082730343E06800F400600343206900F086
:1054900002000343606900F00100034302F400705E
:1054A0000343E06900F038000343206A00F0800005
:1054B0000343A06A00F4005003430B60636A120CBC
:1054C00003F0100302F004021A434A60CB6923F48C
:1054D0000063CB6100200123606584F8513010BD6A
:1054E0000023C0E90433B1E70120F8E72DE9F347D1
:1054F0001F4690F85030012B04460D46904600F0B0
:10550000A680012380F85030FDF7F0FF94F8513069
:10551000012B82465FFA83F940F09680002D67D018
:10552000B8F1000F64D0032384F851300023636581
:10553000C4E91033A4F83680A363A387E387A36884
:1055400026682563B3F5004FA4F8348007D133688B
:1055500023F040033360336843F48043336033689F
:1055600062685B065EBF336843F040033360E36804
:10557000B3F5006F43D112B1B8F1010F07D135F87F
:10558000023BF3602563E38E013B9BB2E386E38E2F
:105590009BB2B3B9524639462046FFF7E1FE0028D8
:1055A0004FD1A36833B901932368DA6801929B68ED
:1055B0000193019B636DDBB9012284F85120994668
:1055C00016E022689368980705D5236B33F8021B11
:1055D000D1602363D7E7FDF789FFA0EB0A00B8424B
:1055E000D5D3791CD3D0012384F851304FF003096F
:1055F000002384F85030484602B0BDE8F08712B16D
:10560000B8F1010F08D12B783373236B0133236377
:10561000E38E013B9BB2E386E38E9BB2002BB9D0B5
:1056200023689A68920703D5226B12781A73ECE705
:10563000FDF75CFFA0EB0A00B842EDD37B1CEBD07A
:10564000D1E720236365ACE74FF00209D0E74FF0C4
:105650000209D0E72DE9F7431E4690F85030DDF8F7
:105660002880012B04460D46914600F0E880012376
:1056700080F85030FDF73AFF94F851306268012B02
:105680000746D9B20AD0B2F5827F40F0D680A3682F
:10569000002B40F0D280042940F0CF80002D3FD075
:1056A000B9F1000F3CD0002E3AD094F85130C4F834
:1056B0003890042B1CBF052384F851300023636508
:1056C000C4E910332368E687E6861968A687490689
:1056D00058BF1968256358BF41F04001A68658BFDE
:1056E0001960E168B1F5006F51D10AB1012E07D1FF
:1056F00035F8022BDA60E38E2563013B9BB2E3862B
:105700000125E38E9BB26BB9E38F9BB253B93A4646
:1057100041462046FFF724FE00287DD02023636504
:1057200001202EE021688B689A070DD5E38E9BB28D
:1057300053B145B1236B33F8022BCA602363E38E68
:10574000013B9BB2E38600258A6812F001020CD06F
:10575000E38F9BB24BB1A36BC96823F8021BA36311
:10576000E38F013B9BB2E3871546FDF7BFFEC01BED
:105770004045C6D3B8F1FF3FC3D0012384F8513070
:105780000320002384F8503003B0BDE8F0830AB151
:10579000012E08D12A781A73236B01332363E38E19
:1057A000013B9BB2E38601252DE0226893689B07AD
:1057B0000ED5E38E9BB25BB14DB1236B1B78137397
:1057C000236B01332363E38E013B9BB2E386002509
:1057D0002268916811F001010DD0E38F9BB253B1A3
:1057E000A36BD2681A70A36B0133A363E38F013BF1
:1057F0009BB2E3870D46FDF779FEC01B404502D3FF
:10580000B8F1FF3FB9D1E38E9BB2002BCDD1E38F2E
:105810009BB2002BC9D17AE7A36833B92368019002
:10582000DA6801929B680193019B636D002B7FF402
:1058300077AF012384F85130A3E70220A1E70220CB
:10584000A2E72DE9F3471E4690F85130012B04469C
:105850008A469046DDB240F095804368B3F5827F7A
:105860000ED1836863B9042380F851301346009643
:105870000A46FFF7EFFE0546284602B0BDE8F0876E
:1058800094F85030012B7FD0012384F85030FDF77D
:105890002DFE8146BAF1000F64D0B8F1000F61D03F
:1058A000A268C4F838A000270423B2F5004F84F89A
:1058B0005130C4E9107767652368A4F83E80A4F8E6
:1058C0003C802763A786E78607D11A6822F040024A
:1058D0001A601A6822F480421A601A6857065EBF7E
:1058E0001A6842F040021A60E368F3B1E38F9BB29A
:1058F000FBB123689A68D20738D5DA68A36B23F81E
:10590000022BA363E38F013B9BB2E387EEE723689F
:105910009A68D0071AD5A26B1B7B1370A36B013357
:10592000A363E38F013B9BB2E387E38F9BB2002B22
:10593000EDD14A4631462046FFF74EFDF8B9636D7A
:1059400083B9012284F851201D460BE0FDF7CEFDFE
:10595000A0EB0900B042E8D3711CE6D0012384F823
:1059600051300325002384F8503085E7FDF7BEFD54
:10597000A0EB0900B042B9D3731CB7D0EEE72023E7
:105980006365DCE70225EDE7022575E77047000057
:1059900090F83D30012B30D1022380F83D30036870
:1059A000DA6842F00102DA60154A93421AD0B3F184
:1059B000804F17D0A2F57C42934213D002F580624B
:1059C00093420FD002F5806293420BD002F57842E9
:1059D000934207D002F57052934203D0A2F594325D
:1059E000934204D19A6802F00702062A03D01A688B
:1059F00042F001021A60002070470120704700BF8A
:105A0000000001407047704770477047036870B5E9
:105A1000DD681E69B10704460DD5AA070BD56FF0E6
:105A200002021A61012202779B699B0769D0FFF786
:105A3000EAFF00232377710710D56A070ED5236884
:105A40006FF004021A61022222779B6913F4407FEF
:105A500020465CD0FFF7D7FF0023237733070FD50D
:105A600028070DD523686FF008021A6104222277F7
:105A7000DB699907204650D0FFF7C5FF0023237745
:105A8000F20610D5EB060ED523686FF010021A61EE
:105A900008222277DB6913F4407F204643D0FFF7CA
:105AA000B2FF00232377F00708D5E90706D523685E
:105AB0006FF001021A612046FBF74AFE320608D554
:105AC0002B0606D523686FF080021A61204600F08D
:105AD000CAF8700608D5690606D523686FF040023B
