:020000040800F2
:100000000000032081050008B51D0008B71D000889
:10001000B91D0008BB1D0008BD1D00080000000040
:100020000000000000000000000000005170000807
:10003000BF1D000800000000E17000085B690008B7
:10004000D1050008D1050008D1050008D105000838
:10005000D1050008D1050008D1050008D105000828
:10006000D1050008D1050008D1050008D105000818
:10007000D1050008D1050008D1050008D105000808
:10008000D1050008D1050008D1050008D1050008F8
:10009000D1050008D1050008D1050008D1050008E8
:1000A000D1050008D1050008D1050008D1050008D8
:1000B000D1050008D1050008D1050008D1050008C8
:1000C000D1050008D1050008D1050008D1050008B8
:1000D000D1050008D1050008D1050008D1050008A8
:1000E000D1050008D1050008D1050008D105000898
:1000F000D1050008D1050008D1050008D105000888
:10010000D1050008D1050008D1050008D105000877
:10011000D1050008D1050008C11D0008D10500085F
:10012000D1050008D1050008D1050008D105000857
:10013000D1050008D1050008D1050008D105000847
:10014000D1050008D1050008D1050008D105000837
:10015000D1050008D1050008D1050008D105000827
:10016000D1050008D1050008D1050008D105000817
:10017000D1050008D1050008D105000800000000E5
:10018000D1050008D1050008D1050008D1050008F7
:10019000D1050008D1050008D1050008D1050008E7
:0C01A000CD1D0008D1050008D91D000885
:1001B00010B5054C237833B9044B13B10448AFF3A1
:1001C00000800123237010BD6401002000000000A6
:1001D0009CDE010808B5034B1BB103490348AFF38C
:1001E000008008BD00000000680100209CDE0108BE
:1001F00001F0FF01102A2BDB10F0070F08D010F8D8
:10020000013B013A8B422DD010F0070F42B3F6D1DB
:10021000F0B441EA012141EA014122F007047FF0F4
:1002200000070023F0E80256083C85EA010586EA4B
:10023000010685FA47F5A3FA87F586FA47F6A5FA87
:1002400087F68EB9EED1F0BC01F0FF0102F0070293
:1002500032B110F8013B013A83EA010313B1F8D13E
:100260000020704701387047002D06BF354603381F
:10027000073815F0010F07D1013015F4807F02BF58
:10028000013015F4C03F0130F0BC0138704700BFA9
:1002900053B94AB9002908BF00281CBF4FF0FF31ED
:1002A0004FF0FF3000F06AB9ADF1080C6DE904CEF3
:1002B00000F006F8DDF804E0DDE9022304B0704741
:1002C0002DE9F047089D0C46002B4ED194468C45F5
:1002D0008646B2FA82F262D94AB1C2F12003914055
:1002E00020FA03F30CFA02FC194300FA02FE4FEA6B
:1002F0001C471FFA8CF6B1FBF7F44FEA1E4307FBCD
:10030000141143EA014304FB06F199420AD91CEB9C
:10031000030304F1FF3080F01281994240F20F8113
:10032000023C6344591A1FFA8EF3B1FBF7F007FB46
:10033000101143EA014300FB06F69E420AD91CEB6A
:10034000030300F1FF3180F0FC809E4240F2F9800F
:10035000634402389B1B40EA044000211DB1D34096
:100360000022C5E90032BDE8F0878B4205D90DB106
:10037000C5E9000100210846F5E7B3FA83F1002939
:1003800046D1A34202D39042C0F0F080861A64EBBB
:1003900003030120002DE6D0C5E90063E3E7002A4E
:1003A00040F09080A1EB0C044FEA1C481FFA8CF738
:1003B0000121B4FBF8F64FEA1E4308FB164443EA5A
:1003C000044307FB06F0984208D91CEB030306F12F
:1003D000FF3402D2984200F2CD8026461C1A1FFA42
:1003E0008EF3B4FBF8F008FB104443EA044300FB2F
:1003F00007F79F4208D91CEB030300F1FF3402D238
:100400009F4200F2B0802046DB1B40EA0640A5E791
:10041000C1F120068B4022FA06F71F4320FA06FCA2
:1004200004FA01F343EA0C03F44000FA01F8380C33
:100430004FEA1349B4FBF0FE1FFA87FC00FB1E4491
:1004400049EA04440EFB0CF9A14502FA01F20AD96B
:100450003C190EF1FF3A80F08480A14540F2818082
:10046000AEF1020E3C44A4EB09041FFA83F9B4FB7D
:10047000F0F300FB134449EA044403FB0CFCA445DD
:1004800007D93C1903F1FF3067D2A44565D9023B77
:100490003C4443EA0E40A0FB0293A4EB0C049C42B4
:1004A000CE469C4651D34ED055B1B8EB0E0364EB0B
:1004B0000C0404FA06F6CB401E43CC40C5E90064A8
:1004C000002150E7C2F1200320FA03F10CFA02FCEC
:1004D00024FA03F394400C434FEA1C4800FA02FE4E
:1004E0001FFA8CF7B3FBF8F008FB1031230C43EA3A
:1004F000014300FB07F1994208D91CEB030300F10B
:10050000FF362CD299422AD9023863445B1AA4B22E
:10051000B3FBF8F108FB113344EA034401FB07F392
:10052000A34208D91CEB040401F1FF3613D2A34205
:1005300011D902396444E41A41EA004139E704461A
:10054000F0E6084606E7C845AED2B9EB020E63EB0B
:10055000070C0138A8E73146EDE7034699E7304636
:10056000D4E7D6467FE7634402384DE70646234684
:1005700008460FE7023E634430E700BF704700BF04
:10058000DFF834D0002103E00C4B5B5843500431BA
:100590000B480C4B42189A42F6D30B4A02E0002358
:1005A00042F8043B094B9A42F9D303F0BBFC1CF020
:1005B00005FF00F0B7FD704700000320781A070818
:1005C00000000020640100206401002000260120BA
:1005D000FEE7704708B500F0CFFBBDE8084000F02B
:1005E0005BBB00F0CBBB704710B5042104461CF088
:1005F000B1FB204610BD000038B50C4B0C4C1880E8
:100600000C4B822019806368984740F6110398428A
:100610000AD1094D23682C60822098472B688220DC
:10062000DB689847002038BD0120FCE78A010020E4
:100630004C000020880100208C0100204FF4A071A4
:10064000F020FFF7D9BF0000F7B5334D2B68044603
:100650001B6982209847208000284AD02B680DF122
:1006600006025B6901A982209847BDF8063040F672
:10067000746293423FD9ADF80620BDF80630D21A15
:1006800092B20A2A3DD90B23B2FBF3F2234B1B880B
:100690009A4201D9013B9AB2BDF8043040F6B83114
:1006A0008B4230D8C3F571630E339BB20F21B3FB7D
:1006B000F1F31B4909888B4201D901398BB2194EDC
:1006C000194D30682F68834281B28CBF591AC91AFC
:1006D000B8B2BA428CBF101A801A89B280B20144F3
:1006E0000529C8BF33603368C8BF2A6063802B68A0
:1006F000A38003B0F0BDB32B9CBFB423ADF806308C
:10070000BBE70022C8E7C3F56D6308339BB20E2B2D
:10071000CCD80023D3E700BF8C0100208801002043
:100720008A010020840100208001002037B568463E
:100730000D461446FFF788FFBDF8000030B1BDF844
:1007400002302B60BDF804302360012003B030BDBF
:10075000032821D8DFE800F0020B12190F4B1A68AA
:10076000B2FA82F2520904210D4804F087B80B4B0B
:100770005A68B2FA82F252090821F5E7074B9A68E3
:10078000B2FA82F252091021EEE7044BDA68B2FAAB
:1007900082F252092021E7E7704700BF9001002054
:1007A00000100240032821D8DFE800F0020B1219E4
:1007B0000F4B1A68003A18BF012204210D4804F0BB
:1007C0005DB80B4B5A68003A18BF01220821F5E7C3
:1007D000074B9A68003A18BF01221021EEE7044B3C
:1007E000DA68003A18BF01222021E7E7704700BF0E
:1007F000900100200010024003280DD8DFE800F02F
:100800000206080A0421054804F03DB80821FAE769
:100810001021F8E72021F6E7704700BF00100240E2
:1008200008B5032811D8DFE800F0020A0C0E0421F5
:10083000074804F01DF8431E5842584108BD0821DE
:10084000F6E71021F4E72021F2E70020F3E700BFEC
:100850000010024070B5084D00240126E0B2FFF7F9
:10086000DFFF18B12B68012B18BF2E600134052C57
:1008700005F10405F2D170BD90010020012380F83C
:10088000781080F87930704700207047034B41643E
:10089000003918BF01211970704700BFCF1901201E
:1008A00000207047836B0BB10846184770474068BB
:1008B00003689B69184770477047704710B5044636
:1008C00000F020FB23680349D3F88C302046BDE8B4
:1008D00010401847000000D008B503680446D3F85C
:1008E00080309847236820469B6F984700F0ECF8CB
:1008F000236820461B6F9847292000F0EDFE00F08A
:10090000E3F8236820461B6F9847F8E710B50446C4
:1009100009F09CF923682046D3F8AC30BDE81040BC
:10092000184700F0B5BA00F0B9BA00F0D3BA00F039
:100930008DBA00F0DFBA00F0D1BA00F08FBA08F03B
:10094000F1BB10B57C2104461CF004FA204610BD12
:1009500010B590F8341090F878400C4B8C421A780F
:1009600009D03AB90A4A0B491488088810800C80CB
:1009700001221A7010BD002AFCD0054A05491488CE
:10098000088810800C800022F3E700BFC8190120FE
:10099000C4190120C619012070B50D46194635B994
:1009A000094B0A4A0A4840F2D2211CF001FAC0E978
:1009B0000F52084B003A18BF01221A700368BDE8B5
:1009C0007040D3F88C3018470CDF010844DF010871
:1009D00092DF0108CE19012008B5094B1B888B4214
:1009E00003D8084B1B88934205D9074B074A084890
:1009F0009E211CF0DDF9074B1980074B1A8008BDBA
:100A0000C4190120C6190120D7DF01083AE0010806
:100A100092DF0108CA190120CC190120034690F881
:100A20007A0018B1586803681B68184770470000BF
:100A3000012108B50022084606F01BF80A4B186091
:100A400028B90A4B0A4A28210A481CF0B1F90022A9
:100A50000421012006F0B5F8074B186018B9074BC0
:100A6000034A2C21F0E708BDA401002058E1010849
:100A7000A1E10108D0E10108A00100201FE2010866
:100A8000024B4FF0FF31186806F03DB8A40100207A
:100A9000014B186806F063B8A4010020024B002146
:100AA000186806F030B800BFA4010020FFF7F0BFBF
:100AB00003480449006800231A4606F0BDB800BF89
:100AC000A00100200400002013B5084C00231A46A2
:100AD00001A9206806F0E1F820684FF0FF330022FA
:100AE00001A906F0DAF802B010BD00BFA001002095
:100AF00005F0B3BF70470020704770477047002073
:100B00007047704708B5034A034B044822211CF084
:100B10004FF900BF84E2010861E20108C2E2010866
:100B200008B5034A034B044827211CF041F900BFD4
:100B30000FE3010861E20108C2E2010810B5442197
:100B400004461CF007F9204610BD000038B50446E5
:100B500021460025064B25720C306060657201222B
:100B600041F8203B09F0B0F9E562204638BD00BFEE
:100B700058E30108012070474020704700EB8110C6
:100B80000830704700EB8110083070470120704733
:100B90004FF43E7070474FF43E7303FB0100083082
:100BA00070474FF43E7303FB01000830704701208B
:100BB00070471020704700EB01100830704700EBC1
:100BC000011008307047084601F02CBC10B5034BEB
:100BD0000360044607F0FBFF204610BD10E4010847
:100BE00010B50446FFF7F2FF204648211CF0B2F88A
:100BF000204610BD10B5034B0360044607F0E7FF25
:100C0000204610BDDCE3010810B50446FFF7F2FFF3
:100C100020464FF440711CF09DF8204610BD0000A6
:100C200010B5034B0360044607F0D1FF204610BD0A
:100C3000A8E3010810B50446FFF7F2FF204618218B
:100C40001CF088F8204610BD10B5084B0360044620
:100C500000F54B70FFF7BAFF04F12C00FFF7CAFF55
:100C600004F11400FFF7DCFF204610BD44E4010846
:100C700008B50248FFF7E8FF08BD00BFFC020020EE
:100C800010B50446FFF7E0FF204640F2DC411CF0BF
:100C900061F8204610BD00002DE9F34101F016F97E
:100CA000054601F017F9002401462346284622464E
:100CB00000940EF0BBFB254B254A264D1A602046BA
:100CC00002F054FB24480EF019FB2B68BFF35B8F36
:100CD000DB0735D428461CF03FF888B31F4C204B67
:100CE000236004F5607604F1140004F12C0804F587
:100CF0004B776060C4F80880E760266107F068FF02
:100D0000184B6361404607F063FF174BE3623846B8
:100D100007F05EFF154BC4F82C3304F55D7002F04C
:100D2000A5FB224604F55D71304602F095FB304686
:100D300001F078FB0E481CF059F828461CF018F812
:100D40000C4802B0BDE8F041FFF7B8BD2C1A0120F5
:100D500024020020F802002008000020FC020020ED
:100D600044E40108A8E30108DCE3010810E40108F9
:100D7000710C0008A8010020704700000148FFF72F
:100D8000ABBD00BFA801002070B5224E224C234D00
:100D9000234B23603046FFF7D9FE284612F018FE99
:100DA000204B2148DC6000224FF48071C3E912120D
:100DB0001E491A86C3E91A121D4999671D4983F80D
:100DC00058200B60F02101801B485A6601801B48A7
:100DD00083F870204FF4A071C3E90422C3E906220E
:100DE000C3E90822C3E90A22C3E90E22C3E910229B
:100DF000C3E91422C3E917225A67C3E901650180D8
:100E00000F4801800F490A70012283F834200E4AEE
:100E10001A6070BDB0020020F402002028020020F9
:100E2000FCDE0108A8010020C41901200100000116
:100E300000000101D0190120CA190120C6190120A2
:100E4000CC190120C819012088E00108024B90222A
:100E500083F85823704700BF00E100E0094A0A49BF
:100E6000D3680A48C3F30A03013B9BB20B801169A4
:100E7000C1F30A01013901801364536B43F001038C
:100E80005363704700680140DA070020D80700204C
:100E9000014BD3F8AC00704700680140024B0122BF
:100EA000C3F8AC105A62704700680140064B586C9A
:100EB000DB68C3F30A0380B20133984226BFC01A2D
:100EC00080B20020704700BF0068014008F066B99A
:100ED00008F070B908F02CB908F08DBA044B4FF047
:100EE0008072C3F88820BFF34F8FBFF36F8F7047B6
:100EF00000E100E0024B4FF080729A60704700BF43
:100F000000E100E070B5044608F061F923685D6E09
:100F10000BF0B8F901462046A8470E4BA36323689F
:100F20002046D3F89C3098474FF6FF73984205D07F
:100F3000094B1B7813B9012384F848302368D3F890
:100F4000885000232046AC461A46BDE870404FF05A
:100F500050416047F10A0008CE19012010B5144C29
:100F6000236823B3134B144A1B6C11888B4213D193
:100F7000124B198804F094FA226892F86A3001330F
:100F800082F86A30FFF794FD206808F05FFEBDE844
:100F900010400020FFF7DCBB04F082FA20680368F1
:100FA0001B6A9847BDE810400020FFF7FBBB10BD4F
:100FB000D019012000680140DA070020D80700207E
:100FC00007B5064BADF806001B68054801220DF178
:100FD000060104F0DBFF03B05DF804FB0C00002009
:100FE0007008002008B5054C20464FF4005103F06E
:100FF0004AFC4FF4FA7005F030FDF5E700180240A6
:1010000073B501231C4E1D4D8DF803301C48012182
:1010100003F02EFC01280AD11A480A230068002296
:101020000DF1030105F008FEC82005F016FD30465D
:1010300003F06CF8284603F069F80121304603F00C
:10104000E3F80121284603F0DFF8304603F02FF9DA
:101050000446284603F02BF9A4B244EA00440A48A7
:1010600001940A23002201A9006805F0E5FD64202F
:1010700005F0F3FCCAE700BF540A00200C0A002068
:1010800000000240E0070020E407002030B595B0E2
:10109000102200210AA81CF092F81422002103A8B3
:1010A0001CF08DF800241D4B01941A6C42F0805204
:1010B0001A641B6C03F080530193019B184B02943C
:1010C0001A6842F440421A601B6803F440430293DA
:1010D0000122029B4FF48033CDE9082302254FF40F
:1010E0008003CDE90E5308214FF4A873CDE9101306
:1010F00008A804231393129504F0F0F90F23CDE907
:1011000003354FF4A0504FF48053CDE90603052179
:1011100003A8059404F0BEFB15B030BD00380240B2
:10112000007000402DE980489BB002F009FFFFF7F6
:10113000ADFF142200210DA800241CF040F8C84B7C
:1011400000941A6BC748C84E42F010021A631A6B1B
:1011500002F010020092009A01941A6B42F02002F1
:101160001A631A6B02F020020192019A02941A6B20
:1011700042F080021A631A6B02F080020292029A15
:1011800003941A6B42F004021A631A6B02F0040211
:101190000392039A04941A6B42F001021A631A6BC9
:1011A00002F001020492049A05941A6B42F00202C2
:1011B0001A631A6B02F002020592059A06941A6BE2
:1011C00042F040021A631A6B02F040020692069A3D
:1011D00007941A6B42F008021A631B6B03F00803B2
:1011E000079322463C21079B03F048FB9F48224679
:1011F000042103F043FB9E4822464FF4405103F084
:101200003DFB22469B484FF40051012503F036FB7D
:101210004FF003093C239348CDF840900DA94FF0BF
:10122000020A0427CDE90D350F9403F03DFA8F48EB
:10123000CDF840A00DA9CDE90D750F9403F034FA57
:101240004FF440538A480DA9CDE90D354FF4005BAA
:10125000CDE90F4A03F028FA0DA98648CDE90DB56E
:10126000CDE90F4403F020FA8348844B036003F078
:101270000FF9834A834B3462C6E9002330464FF4AA
:101280008043C6E90434C6E90244C6E9064403F0D3
:1012900003FD1021304603F047FF2146304603F09E
:1012A00062FF7948794984624FF48273C0E9001380
:1012B0004FF400761823C0E906630A23744EC36214
:1012C000C0E90244C0E90444C0E9084404F002FE55
:1012D000704BC6F828B04FF01008C6E9003540231F
:1012E000C6E904834FF4C073C6E906344FF40063C3
:1012F000C6E908340DA907233046CDE91039CDE9F8
:101300000E374FF0080BC6E90247CDE912AACDF817
:1013100034A004F0C3FC4FF6FF7209A93046CDE9B2
:101320000AB5089409950C9404F0D8FC284602F0FC
:1013300033FE4FF6FF7209A93046CDE909ABCDE97E
:101340000B5404F0CBFC4FF6FF7209A93046CDE9EF
:10135000099BCDE90B7404F0C1FC4FF40C730893A6
:10136000089B0C934FF6FF7209A93046CDE9097B23
:101370000B9504F0B3FC40F26A51304604F0CCFC0B
:10138000342221460DEB02001BF019FF424E434B65
:101390003461C6E900340923C6E905351D2340F24E
:1013A0000D1CC6E9073940F24313C6E909C340F2F0
:1013B000171E40F247133046C6E90BE3C6E9024464
:1013C000B48686F8364003F073FFFF21F022CDE9A2
:1013D00012144FF005094FF480614FF4A073CDE96A
:1013E0000E24CDE91419CDE916420DA92246304646
:1013F000CDE9103A2A4E18930D94ADF864408DF85B
:10140000664004F020F8274B33601B689847336828
:10141000254EDB689847254B3046C6E90034C6E9BF
:1014200002A4C6E90A4AC6E90C4403F041F8294679
:10143000304603F0F5F81E4EDFF878A0424621460C
:101440000DA81BF0BCFE4FF48033C6E900A34FF09B
:10145000007BDFF864A0C6F808B0304634612DE0A8
:1014600000380240001002407009002000080240CD
:10147000000C024000180240040A00200030024024
:10148000005C0040A0860100700800200050014070
:10149000F4070020400100A0C808002000680140B7
:1014A000DC07002014000020C409002000B0024026
:1014B000540A0020002001400100000F347686F815
:1014C0002040F462C6F828A0F460F56186F8304048
:1014D000756102F075FD0D220DA93046CDE90D258F
:1014E000304E0F9402F0E6FE214642460DA81BF056
:1014F00066FE2D4AC6F808B04FF480333046C6E980
:101500000023C6E90AA43461347686F82040F460EA
:10151000F56186F83040756102F052FD0DA9304644
:10152000CDE90D95DFF8BCB00F9402F0C3FE1F4863
:101530004FF4E133C0E900B30C23C0E90534C0E93E
:1015400002440461C46105F03DF9FFF743F8FFF779
:1015500040F805F00FFA164A3946404605F031FBCF
:10156000144B154A18602946284605F02AFB134BF0
:10157000134A18602146134805F028FA124B134A03
:1015800018602146124805F021FA124B124A1860E1
:101590002146124805F01AFA114B186005F0FCF9C3
:1015A000FEE700BF0C0A00200021014028080020AF
:1015B000ACE40108E407002094E40108E0070020FF
:1015C0000CE50108E50F0008F0070020E8E4010839
:1015D000E3050008EC070020C4E40108011000083E
:1015E000E807002000100140704770477FB5094BA5
:1015F0008DF817201B6802930DF11702012300924A
:1016000001930A460146044803F0EEFB07B05DF87B
:1016100004FB00BF10000020700900207FB50023EC
:101620008DF81730084B1B6802930A4601230DF111
:101630001701009101930146044803F065FC9DF8F1
:10164000170007B05DF804FB1000002070090020AF
:101650001FB5084C24680092CDE901340A460123E5
:101660000146054803F050FC003818BF012004B0C3
:1016700010BD00BF100000207009002002F08CBCDB
:1016800010B5064C00222046042103F0F7F820464E
:101690000122BDE81040042103F0F0B80008024028
:1016A00038B50B4D044601220A484FF4005103F0AF
:1016B000E5F800220421284603F0E0F82046FFF771
:1016C0007FFC28460122BDE83840042103F0D6B84B
:1016D00000080240000C024038B50B4D04460022C1
:1016E0000A484FF4005103F0C9F8002204212846AB
:1016F00003F0C4F82046FFF763FC28460122BDE84A
:101700003840042103F0BAB800080240000C02403F
:10171000F7B5144E144F05460C46304600220421FE
:1017200003F0ACF800224FF40051384603F0A6F85D
:101730002846FFF745FC0D4B0D481B68224601A9C2
:1017400004F0CFFD384601224FF40051019C03F014
:1017500095F830460122042103F090F8204603B0AA
:10176000F0BD00BF00080240000C02400C00002049
:101770007008002002F010BC0268034B9A4201D1AD
:1017800002F0F8BB704700BF001000407047000037
:1017900082B00E4B00220092596C41F48041596492
:1017A000596C01F48041009100990192196C41F04B
:1017B000805119641B6C03F080530193019B0F212E
:1017C0006FF0010002B002F023BE00BF00380240FB
:1017D00010B514228AB0044600210DEB02001BF064
:1017E000EEFC2368214A93421FD1214B214800215E
:1017F00001915A6C42F480725A645A6C02F48072FD
:101800000192019A02911A6B42F004021A631B6B57
:1018100003F0040302930821029B0323CDE905137F
:1018200005A902F041FF0AB010BD134A9342FAD154
:101830000F4B1248002103915A6C42F400725A6413
:101840005A6C02F400720392039A04911A6B42F0EC
:1018500001021A631B6B03F001030493049B202213
:101860000323CDE9052305A9DBE700BF00200140E4
:101870000038024000080240002101400000024000
:101880000268094B9A4282B00BD100230193074BA7
:101890001A6B42F480521A631B6B03F4805301935A
:1018A000019B02B0704700BF003002400038024088
:1018B00007B50F4B02689A4216D10022A3F5F043F8
:1018C0000192196B41F4000119631B6B03F40003CF
:1018D000019305215A20019B02F09AFD5A2003B082
:1018E0005DF804EB02F0C6BD03B05DF804FB00BF79
:1018F00000B002402DE9F043044689B014220021D3
:1019000003A81BF05CFC2268244B9A4243D1244C70
:10191000244800250095236B43F004032363236BC5
:1019200003F004030093009B0195236B43F0010334
:101930002363236B03F001030193019B4FF0120912
:101940004FF400734FF001080327042603A9CDE9E3
:101950000339CDE90587079602F0A6FE4FF48073A0
:101960001148079603A9CDE90339CDE9058702F0AF
:101970009BFE0295236C43F400032364236C03F461
:1019800000030293029B236A43F400032362236A49
:1019900023F40003236209B0BDE8F083005C00403B
:1019A000003802400008024000000240F0B599B043
:1019B00004461422002107A81BF001FC30220DEB85
:1019C000020000211BF0FBFB22685E4B9A4240F0B4
:1019D000B78008230C93C0231093042312930CA800
:1019E0004FF40033159304F02DF808B1FFF7CEFE45
:1019F000554B5648002400945A6C42F080625A6459
:101A00005A6C02F080620092009A01941A6B42F0C4
:101A100020021A631A6B02F020020192019A0294CA
:101A20001A6B42F001021A631A6B02F00102029271
:101A3000029A03941A6B42F002021A631A6B02F0C4
:101A400002020392039A04941A6B42F040021A6352
:101A50001A6B02F040020492049A05941A6B42F049
:101A600004021A631A6B02F004020592059A0694A6
:101A70001A6B42F008021A631B6B03F0080306930B
:101A800002250E26069B0B964FF4806307A9CDE92D
:101A90000735CDE9094502F007FE41F658032C4809
:101AA0000B9607A9CDE907350927CDE9094502F0CD
:101AB000FBFD032327480B9707A9CDE90735CDE99F
:101AC000094502F0F1FD4FF4706322480B9607A917
:101AD000CDE90735CDE9094502F0E6FD4FF40C6389
:101AE0001D480B9607A9CDE90735CDE9094502F058
:101AF000DBFDC02319480B9607A9CDE90735CDE9D1
:101B0000094502F0D1FD082315480B9607A9CDE938
:101B10000735CDE9094502F0C7FD4FF4A0530E4843
:101B20000B9707A9CDE90735CDE9094502F0BCFDC2
:101B300058202246052102F06BFC582002F09AFC46
:101B400019B0F0BD006801400038024000140240A6
:101B50000000024000040240001802400008024059
:101B6000000C024010B5044688B01422002103A8DE
:101B70001BF025FB2268144B9A4223D103F56843DE
:101B8000002101915A6C114842F480125A645A6C37
:101B900002F480120192019A02911A6B42F0200223
:101BA0001A631B6B03F020030293029B4FF46072D5
:101BB00002230321CDE903230523CDE9061303A95D
:101BC00002F072FD08B010BD005001400014024048
:101BD00010B5044688B01422002103A81BF0EFFAC8
:101BE0002268144B9A4223D103F5943300210191CA
:101BF0005A6C114842F010025A645A6C02F01002FA
:101C00000192019A02911A6B42F001021A631B6B56
:101C100003F001030293029B4FF4C06202230321ED
:101C2000CDE903230723CDE9061303A902F03CFD08
:101C300008B010BD00100140000002402DE9F04145
:101C400086B0002303932B4B1C68002C4FD14FF020
:101C50000108C3F80080284B00949A6B274842EA99
:101C600008029A639B6B03EA08030093022703268A
:101C70000C25009B01A94FF63F03CDE90137CDE9C3
:101C8000046502F011FD1E48059501A9CDE9018703
:101C9000CDE9034602F008FD48F2331319480595D3
:101CA00001A9CDE90137CDE9034602F0FDFC4FF66D
:101CB00083731548059501A9CDE90137CDE90346A0
:101CC00002F0F2FC4CF203731048059501A9CDE92E
:101CD0000137CDE9034602F0E7FC60230C48059587
:101CE00001A9CDE90137CDE9034602F0DDFC06B0DC
:101CF000BDE8F0819C0A0020003802400014024038
:101D0000000802400018024000100240000C02408F
:101D10000004024070B588B000230293204B1A6C77
:101D200042F010021A641B6C03F010030293054684
:101D300001A903A8029B03F067FE069B4BBB03F0BF
:101D400043FE184E184B336040F2E733F360174BF5
:101D5000B0FBF3F3013B7360304600233361B360A3
:101D6000B36104F0A3FC044680B9304604F060FB84
:101D7000044658B9362002F07DFB0F2D0DD82246BF
:101D80002946362002F044FB094B1D60204608B06E
:101D900070BD03F019FE4000D3E70124F6E700BF51
:101DA00000380240A00A00200010004040420F000E
:101DB0007C0000207047FEE7FEE7FEE7FEE7704785
:101DC000014804F073BB00BFA00A0020014803F0E3
:101DD000DDBA00BFC8080020014802F097BB00BF71
:101DE000C40900200120704708B51BF0E1FA162352
:101DF00003604FF0FF3008BD08B51BF0D9FA162379
:101E00000360FEE770B50D4614460E46731B9C42F8
:101E100001DC204670BDAFF3008006F8010BF5E74A
:101E200070B50D4614460E46731B9C4201DC2046DD
:101E300070BD16F8010BAFF30080F5E74FF0FF30EF
:101E400070474FF400534B600020704701207047EB
:101E5000002070470A4A116808B5034609B90949C4
:101E600011601068694603448B4206D91BF0A0FA42
:101E70000C2303604FF0FF3008BD1360FCE700BF88
:101E8000E80A002000260120704710B5042104460E
:101E90001AF060FF204610BD08B5032913D8DFE80B
:101EA00001F002060A0E01F0ADFA006808BD01F06B
:101EB000A9FA4068FAE701F0A5FA8068F6E701F0B0
:101EC000A1FAC068F2E70020F0E700000048704780
:101ED00044E501082020704713B5002451B1036880
:101EE00001948DF8034001AA9C680DF10303A047FB
:101EF00002B010BD0846FBE7C0897047008A7047F2
:101F0000C088704780887047807A00F07F007047F3
:101F1000807AC00970470020704700009FED010AD9
:101F2000704700BF00000000704710B5082104464C
:101F30001AF010FF204610BD0020704781807047C6
:101F4000C180704701817047418170477047704779
:101F500070477047704710B4C4880368121B8488A8
:101F60005B6D091B12B25DF8044B09B218474FF6BE
:101F7000FF7383814FF0FF3303621368C361106006
:101F800070477047704700F598730868496803C345
:101F90007047704770474160704710B50022B1F933
:101FA0000840B1F90A10028042808480C18010BDCF
:101FB00070477047064BC0F84C310023C0F85031D1
:101FC00000F5A273C0F84801C0F84031704700BF67
:101FD0002922000801230372704770477047704739
:101FE0007047704701464068036810315B6E1847C0
:101FF00001464068036810311B6E18477047014660
:102000004068036810315B6E1847014640680368FA
:1020100010311B6E1847704710B4C26841685410E5
:10202000034601EB6200D20748BF0A599B685DF87E
:10203000044B48BFD35818470346406830B19A68EC
:102040001AB9D86800F0010070470120704710B538
:102050000C2104461AF07EFE204610BD10B510215A
:1020600004461AF077FE204610BD10B54FF4AE714D
:1020700004461AF06FFE204610BD10B53821044604
:102080001AF068FE204610BD10B5282104461AF04B
:1020900061FE204610BD10B5382104461AF05AFEE4
:1020A000204610BD10B50AF0EDF80368BDE81040F9
:1020B000DB6B184790F8252012B103685B6918475D
:1020C0007047000073B50446807A637A0130C0B26D
:1020D0009842A07205D9012323720023A37202B093
:1020E00070BDB4F90C2000210BF00EFEC30706D51D
:1020F00000284FF6FF73C8BF0123184400B2144AEA
:10210000638B1188E08180B20A1A03446068114D24
:102110005B1AADF806300368B5F900501B69ADF8DD
:10212000045012B200266283ADF80060ADF80220C0
:1021300069469847A37A012BD1D1074B1B78002B16
:10214000CDD00AF09FF802B0BDE870400AF0A0B808
:10215000C6190120C4190120CE19012090F82520AC
:102160001AB190F8242002B11860704710B50446E7
:10217000D0F8400158B10368DB68984738B1D4F80B
:10218000400103689B6898470023C4F8403110BDA4
:1021900037B50446807A637A0130C0B29842A072A3
:1021A00005D9012323720023A37203B030BDB4F913
:1021B0000C2000210BF0A8FDC30706D500284FF620
:1021C000FF73C8BF0123184400B2144BE081198883
:1021D000258B83B21248B0F90000ADF80600CA1A88
:1021E00060682B445B1A12B2ADF804300368228396
:1021F000ADF8002000221B69ADF80220694698471F
:10220000A37A012BD1D1074B1B78002BCDD00AF03C
:1022100039F803B0BDE830400AF03AB8C4190120DB
:10222000C6190120CE1901202DE9F14FD0E9556AD8
:102230000746B06803681B6A9847B0F5B47F05D2BB
:10224000444B454AA32145481AF0B2FD7068036823
:102250001B6A98470F2803D8414B3F4AA421F2E755
:10226000F06803681B6A98470B2803D83D4B3A4A2D
:10227000A521E8E70AF006F8DFF8F09004300AF04C
:1022800067F8D9F8000010B10368DB689847D9F8FF
:10229000000010B103681B689847DFF8D480D8F8B5
:1022A000000010B103685B699847D7F83C0110B192
:1022B00003685B689847D8F8000010B103681B6892
:1022C0009847D7F83C0110B103689B689847F068BD
:1022D000036800215B6A98474FF0000B224BC0F85F
:1022E00004B0044680F808B00360B068036859463B
:1022F0005B6A9847054601F005F97068036859461E
:102300005B6A98472946064601F0C4F8331DC7F8B2
:102310003C61C9F80040C8F80050CAF800302B688A
:10232000C6F808A02846DB68EE6398473368304655
:102330001B689847214628460BF0E0FC236820469E
:102340001B69984723685B69204601B0BDE8F04FE0
:10235000184700BFD4E7010862E8010834E9010822
:102360007BE901081EEA010868ED0108101A012046
:102370000C1A01202DE9F0411D460368BDF91870C3
:102380001B6B0446164698472368314620465B6B14
:1023900098472368294620469B6B9847236839460F
:1023A0002046DB6BBDE8F04118470000044B1B687A
:1023B00093F858200AB1D86C00B99868704700BFEC
:1023C000D0190120F8B5044617460E460AF08EF8DB
:1023D000104B1C60104B2360104B0025C4E9513595
:1023E0000F4BC4E953551868036829469B68C4E934
:1023F0004F55C4E955769847284600F0B7FFFFF7D8
:10240000D5FF13F016F9FFF7D1FF13F08DF9204631
:10241000F8BD00BF1C1A012014ED0108FCEC0108F6
:10242000D0190120064BC0F84C310023C0F85031C0
:1024300000F5A273C0F84801C0F84031704700BFF2
:1024400029220008064BC0F84C310023C0F8503157
:1024500000F5A273C0F84801C0F84031704700BFD2
:1024600025260008064BC0F84C310023C0F8503137
:1024700000F5A273C0F84801C0F84031704700BFB2
:102480009124000803685B6A184703685B6A184771
:102490002DE9F74FD0E955BA0746DBF80800036885
:1024A0001B6A9847B0F5327F05D2534B534AA3219C
:1024B00053481AF07DFCDBF8040003681B6A984758
:1024C0000F2803D84F4B4D4AA421F1E7DBF80C004D
:1024D00003681B6A9847372803D84B4B474AA52106
:1024E000E6E709F0CFFEDFF83491043009F030FF61
:1024F000D9F8000010B10368DB689847D9F80000EC
:1025000010B103681B689847DFF81481D8F8000001
:1025100010B103685B699847D7F83C0110B10368B4
:102520005B689847D8F8000010B103681B689847AB
:10253000D7F83C0110B103689B689847DBF80C00A2
:10254000036800215B6A9847304B03604FF4A05347
:1025500003814FF4807343632D4B03612D4A2E4B4F
:10256000B2F90020B3F900308381002504464560AC
:102570008572C581C0E90555C0E90755C0E909550F
:10258000C0E90B552946009210302A46FFF7F2FEAB
:102590002946DBF80800FFF775FF064601F08EF8C4
:1025A0002946DBF80400FFF770FF3146054600F0CE
:1025B000C3FF2B1DC7F83C51C9F80040C8F80060A4
:1025C000CAF800303368C5F808A03046DB68F56308
:1025D00098472B6828461B689847214630460BF0E1
:1025E0008DFB236820461B69984723685B6920465A
:1025F00003B0BDE8F04F1847D4E70108C1EA01086D
:1026000034E901087BE901081EEA01088CED0108A4
:1026100094EC0108C6190120C4190120101A0120E8
:102620000C1A01202DE9F74FD0E955BA0746DBF81F
:10263000080003681B6A9847B0F5327F05D2534BF8
:10264000534AA32153481AF0B3FBDBF80400036894
:102650001B6A98470F2803D84F4B4D4AA421F1E736
:10266000DBF80C0003681B6A9847372803D84B4BEC
:10267000474AA521E6E709F005FEDFF8349104306A
:1026800009F066FED9F8000010B10368DB689847CE
:10269000D9F8000010B103681B689847DFF814816F
:1026A000D8F8000010B103685B699847D7F83C017F
:1026B00010B103685B689847D8F8000010B1036850
:1026C0001B689847D7F83C0110B103689B6898478E
:1026D000DBF80C00036800215B6A9847304B03600D
:1026E0004FF4A05303814FF4807343632D4B036178
:1026F0002D4B0025B3F9003045608572C58183817B
:10270000C0E90555C0E90755C0E90955C0E90B55B1
:102710000093264B2A460446B3F900302946103070
:10272000FFF728FE2946DBF80800FFF7ABFE064658
:1027300000F0C4FF2946DBF80400FFF7A6FE31468F
:10274000054600F0F9FE2B1DC7F83C51C9F80040C2
:10275000C8F80060CAF800303368C5F808A03046F1
:10276000DB68F56398472B6828461B689847214625
:1027700030460BF0C3FA236820461B69984723684C
:102780005B69204603B0BDE8F04F1847D4E7010865
:10279000A5EB010834E901087BE901081EEA0108FC
:1027A000B0ED010894EC0108C6190120C4190120FC
:1027B000101A01200C1A0120406A7047806A704785
:1027C00070478B88C0690A68DB0A50F82300104400
:1027D000704710B50446BAB1107B68B1537BD27A0A
:1027E0001B0203F4E0631A43236A03EB82031A8893
:1027F0008A4202D193F9020010BD05D8013880B297
:1028000004330028F3D1F7E70020F5E710B52C21B9
:1028100004461AF09FFA204610BD000030B58BB078
:102820000446BDF860500895BDF85C5007959DF8CA
:10283000505006959DF84C5005959DF848500495CC
:102840009DF8445003959DF8405002959DF83C50EA
:102850000195BDF8385000950AF0AAFE064B23609A
:10286000159BE361169B2362199B63621A9BA3620B
:1028700020460BB030BD00BFD4ED01087047704753
:1028800070477047704770477047704730B4C268F0
:1028900044685510034604EB6200D20748BF6259F2
:1028A0009B6830BC48BFD35818470346406830B1D6
:1028B0009A681AB9D86800F0010070470120704783
:1028C00010B5102104461AF045FA204610BD10B587
:1028D0004FF4B47104461AF03DFA204610BD98300A
:1028E000884208B505D109F0CDFCBDE80840FFF7E6
:1028F000A9BD08BD70B5036804461B6B1546984713
:102900002368294620465B6BBDE8704018470000ED
:10291000002310B5C0E90133C0E90333C0E9073330
:10292000C0E905334FF480738384064B03600B8842
:10293000C384FF23044680F8283007F05AFE20465F
:1029400010BD00BF0CF60108F8B5194B018F1B88AC
:102950008B4206462AD9174B1B682BB9164B174AD0
:1029600017486C211AF024FA13F81120154B1B6834
:1029700053F82250144B186800F034FD2B680746BA
:102980009B6B284698472B6804469B6C3946284623
:1029900098472B6814FB00F45B6A39462846984731
:1029A000A4B223181BB2A6F84630F8BD0023FAE7FC
:1029B000241A0120201A012034EE010876EE0108C5
:1029C000B1EE0108281A01202C1A01202DE9F04F40
:1029D000044685B0A14600250AF0E4FF684BE56394
:1029E00049F8403B674B2566C4E910354FF48073C6
:1029F000A4F86430FF2384F8663004F16C0304F11A
:102A0000980B03A918464FF6FF76C4E91255C4E99E
:102A10001455C4E91655A56604F1E0080193ADF814
:102A20000C60FFF775FF584607F01AFF03A94046F0
:102A300004F58E77DFF858A1ADF80C60FFF768FF5A
:102A400001264FF0FF33C4E94436C4F8E0A003A9DF
:102A5000C4F80C5184F818513846ADF80C30FFF723
:102A600057FF494AC4F81CA1C4E95624474AC4F890
:102A700048514FF0FF33C4E95336C4E9582529467D
:102A80002A46484684F85451FFF734FF48464FF42D
:102A9000A071FFF757FA4846F021FFF755FA04F105
:102AA000040A4FF07F43A3664946504606F0A4F857
:102AB00001982A466FF01001FFF71CFF02220198CF
:102AC000ADF80C2003A907F094FD0199504606F0DB
:102AD00093F858463F222821FFF70CFF02A903AACA
:102AE0005846ADF80860ADF80C6007F050FC0622BF
:102AF000A4F8D0205846FFF727FF4FF07F424FF051
:102B0000FF33C4E9352304F5AC73C4F8C03059462B
:102B1000504606F071F829464046B422FFF7EAFE17
:102B20001A224046182107F0AFFA3146404607F016
:102B3000BEFA2B4632462946404607F0FDF941468B
:102B4000504606F059F838468C220C21FFF7D2FE89
:102B500013223846112107F097FA3146384607F01C
:102B6000A6FA2B4632462946384607F0E5F9504684
:102B7000394606F041F8204605B0BDE8F08F00BFA9
:102B800018EF0108A4F5010800EF0108DF2800088C
:102B900028F5010830B50368018185B06D4601460E
:102BA000D3F8843004462846984795E807003C341B
:102BB00084E8070005B030BD30B50368418185B0B9
:102BC0006D460146D3F8843004462846984795E878
:102BD00007003C3484E8070005B030BD00220280C5
:102BE00042808280C280704780F83610704770B58E
:102BF000036804461B6B1546984723682946204600
:102C00005B6EBDE87040184700207047806C7047CD
:102C100070477047704710B54C2104461AF09AF877
:102C2000204610BD10B54FF41D7104461AF092F8FD
:102C3000204610BD08B5FFF73DFA08BD036870B522
:102C40005E6B124B1B6804468DB22BB9104B114AB8
:102C50006C2111481AF0ACF81049828D0988914214
:102C600003D80F4B0B4A6D21F3E713F812200D4BDD
:102C70001B6853F8220003681B6B9847291A3346D8
:102C8000204609B2BDE87040184700BF201A012055
:102C900034EE010876EE0108B1EE0108241A012095
:102CA00044EF0108281A012000224FF0FF31C0E94B
:102CB00000218260704700000022C0E90122C0E9C3
:102CC0000322C0E90522C0E907224FF48072828402
:102CD000014A0260704700BFD8EF010837B54FF6D0
:102CE000FF7304460D4601A9ADF80430FFF710FE4E
:102CF000084B23604FF0FF320023C4E90B322A78DF
:102D000084F83420204684F83530E38684F838305F
:102D100003B030BD28F5010810B526220446002175
:102D20001AF04DFA2046FFF7C7FF0A4BA3624FF691
:102D3000FF73A3854FF47F020023C4E90C32064AD7
:102D4000226023874FF0FF32C4E91023E363A364BA
:102D5000204610BDCCE7010840F001082DE9F04FF6
:102D600004468DB0A04600250AF01CFEC04BE5636A
:102D700048F8403B2622294640461AF020FA4046B1
:102D8000FFF79AFFBB4B2364FF2384F8663004F1FE
:102D90006C034FF6FF760AA91846A5660493ADF8B2
:102DA0002860FFF7B5FD04F1980304F1C409184643
:102DB0000AA90593ADF828600126FFF7A9FD0AA925
:102DC00048468DF82860FFF789FF04F5807304F505
:102DD0009E7B18460AA904F5BC7A01938DF82860F9
:102DE000FFF77CFF0AA958468DF82860FFF776FFA9
:102DF0000AA950468DF82860FFF770FF04F5DA73D2
:102E000018460293FFF788FF04F5007318460393F2
:102E1000FFF782FF2A4640462946FFF76BFD4046F2
:102E20004FF4A071FFF78EF84046F021FFF78CF8C1
:102E3000271D4FF07F43A3664146384605F0DCFE70
:102E40002A4604986FF01001FFF754FD4FF002037B
:102E50000498ADF828300AA907F0CBFB049938464E
:102E600005F0CAFE9D220598D521FFF743FD0F23EB
:102E70000598ADF828300AA907F0BBFB059938463C
:102E800005F0BAFE4846B8222946FFF733FD1A225C
:102E90004846182107F0F8F84846314607F007F988
:102EA0002B4632464846294607F046F849463846FA
:102EB00005F0A2FE01989F220B21FFF71BFD1522B2
:102EC0000198142107F0E0F80198314607F0EFF877
:102ED0002B4632460198294607F02EF8019984F8CE
:102EE0002551384605F088FE58468C221221FFF7FE
:102EF00001FD13225846122107F0C6F85846314604
:102F000007F0D5F82B4632465846294607F014F804
:102F10005946384605F070FE7822F3215046FFF7F7
:102F2000E9FC04220321504607F0AEF83146504632
:102F300007F0BDF82B4632462946504606F0FCFF06
:102F40005146384605F058FE12220298DFF840B18B
:102F50002221FFF7CFFC4FF07F43C4F8E431D4F8CF
:102F6000B4310299D3F88430A4F8E8510DF118086F
:102F70004046984798E8070004F5F87383E807008F
:102F8000DBF8003004F513792BB93B4B3B4A602149
:102F90003B4819F00DFFDFF8FCA0BAF80030032B16
:102FA00003D8384B354A6121F2E7374B03211868C3
:102FB00000F018FA354A03460A2148460CF090F909
:102FC0000298C4F8FC9107F065F9DFF8CC900298FC
:102FD000CDF8289004230AA9ADF82C3007F07AF92F
:102FE0000299384605F008FE03982D222221FFF7AA
:102FF00081FCD4F800320399D3F88430A4F8345219
:103000004FF07F42C4F830224046984798E80700C6
:1030100004F50F7383E80700DBF8003004F518753A
:10302000002BB2D0BAF80030012BBAD9164B31467A
:10303000186800F0D7F9154A03460A2128460CF013
:103040004FF90398C4F8485207F024F94FF00203EF
:103050000398ADF82C300AA9CDF8289007F03AF97A
:103060003846039905F0C8FD20460DB0BDE8F08F45
:10307000D0F00108A4F5010834EE010882EF010840
:10308000B1EE010844EF01082C1A0120CDEF010830
:10309000201A0120241A0120CCE701087047000003
:1030A00030B5164D2C68BFF35B8F14F001048FB060
:1030B00020D1284619F050FEE0B13F230993104B70
:1030C0000893104B104911480A940122CDE9064398
:1030D0000423CDE903320A230093CDE90B44CDE963
:1030E00001440594FFF79AFB094819F07FFE284632
:1030F00019F03EFE05480FB030BD00BFEC0A0020BD
:103100001C0602082C060208D8030208F00A002058
:103110009D3000087047000030B5174D2C68BFF394
:103120005B8F14F001048FB022D1284619F014FEF1
:10313000F0B13F230993114B0893114B07930123DF
:10314000CDE9054304930423CDE902430F23009303
:1031500012230C490C480A941A46CDE90B440194F9
:10316000FFF75CFB094819F041FE284619F000FE04
:1031700005480FB030BD00BF1C0B00202006020820
:1031800030060208E8030208200B00201531000871
:103190007047000030B5164D2C68BFF35B8F14F0FC
:1031A00001048FB020D1284619F0D6FDE0B13F23AD
:1031B0000993104B0893104B104911480A940122AF
:1031C000CDE906430423CDE9033228230093CDE95A
:1031D0000B44CDE901440594FFF720FB094819F0A1
:1031E00005FE284619F0C4FD05480FB030BD00BFEC
:1031F0004C0B00202406020834060208E4040208EE
:10320000500B0020913100087047000030B5164D7A
:103210002C68BFF35B8F14F001048FB021D12846D6
:1032200019F09AFDE8B13F230993104B0893104B16
:1032300007930123CDE9054304930423CDE9024319
:103240000F230C4900931522CDE90B440A480A9438
:103250000194FFF7E3FA094819F0C8FD284619F070
:1032600087FD05480FB030BD7C0B00202806020802
:1032700038060208F4040208800B00200932000816
:1032800000207047002070470EB403B503AB002147
:1032900053F8042B019309F0B3FF02B05DF804EB7F
:1032A00003B070470CB407B504AB53F8042B01937B
:1032B00009F0A6FF03B05DF804EB02B07047000010
:1032C000436C10B5044673B3038F2BB9184B194ADE
:1032D000C521194819F06CFDC38E00EB43035B8CCC
:1032E0000BB30BF054FA238F012B03D8134B144A62
:1032F000CB21EEE7E28E531C9BB2092B194688BF07
:10330000A3F10A0104EB410140F63F10498C8142D0
:1033100009D10A2B04EB420228BF002304EB43032C
:10332000508C588451842046BDE810400BF032B9CF
:10333000FCF0010805F10108B0F10108FAF10108FB
:1033400008F201080BF0EDB810B586B002AC84E8C5
:1033500006001A460AAB05930193099B0093214688
:10336000089B08F02DFB06B010BD000038B518BB57
:10337000124B13481C681349B4B1226822440260FE
:10338000626822440A60A26814440F4B00221A802B
:1033900000F038F8054600F033F80C4B1C600C4B7D
:1033A0001D600C4B188007E00B4B03600B4B0B6050
:1033B0000B4B1C68002CE8D138BD00BFB80B0020B7
:1033C000B00B0020AC0B0020B40B0020201A012011
:1033D000281A0120241A0120580602083C06020877
:1033E000C4060208044B1B6853F82100034B1B68FA
:1033F00003EB4000704700BFAC0B0020B00B002077
:103400000720704700487047BC0B002010B5FFF73D
:1034100083FE064C2060FFF7BDFE6060FFF740FEB4
:10342000A060FFF7F3FEE06010BD00BFBC0B002002
:10343000704710B54FF4AE71044619F08BFC20466E
:1034400010BD10B50446D0F8580100F013F820461E
:10345000BDE8104008F0DABF10B50446FEF7B2FF31
:10346000014B2360204610BDE4F201080022C0E9B0
:10347000002270477047704704387047704710B596
:103480001021044619F066FC204610BDA0F104008E
:10349000F5E7000000228260024A026018324260B2
:1034A000C160704738F301087047000010B5034B46
:1034B00003600446FFF7E7F9204610BD60F30108FA
:1034C00010B50446FFF7F2FF20464FF4B47119F02F
:1034D00041FC204610BD000013B5094C206803F0E4
:1034E0000CFCC0B250B100231A460DF10701206850
:1034F00003F0D3FB08F0C6FEFEF7B4FF02B010BD28
:10350000E007002010B50446FFF760FA014B236086
:10351000204610BD60F30108FFF7B6B970470438C4
:103520007047704710B51021044619F013FC20466F
:1035300010BDA0F10400F5E700228260024A02609B
:1035400018324260C160704794F30108094B196852
:1035500010B54FF0E02209B9916919601968064C5D
:10356000926943F2390004FB010020F00040504012
:10357000186010BDCC0B00206D4EC64190F8613133
:10358000F0B5002B37D0B0F84031B0F84441B0F975
:103590004261B0F8422103F10A052344D0F88C427D
:1035A000A41B0A3B082CD8BF1B1BB0F8464102F1F4
:1035B0000A01C8BF083B22442DB209B21BB20A3A25
:1035C000D0F8B84212B22CBBB0F99C70B0F8A04051
:1035D000B0F99E60B0F8A2003C4424B23044BB4233
:1035E00000B222DBA54220DCB2421EDB8142CCBF0E
:1035F00000200120F0BDB0F80621B0F90451B0F868
:103600000831B0F80A4102F10A012B4409B21BB299
:103610002244D5E7B0F97C71B0F88041B0F97E6101
:10362000B0F882013C4424B2D8E70020E2E77047BA
:10363000F7B5164F04460D460026AE4201D103B041
:10364000F0BD4FF0FF333868002201A903F025FBDD
:10365000BDF804303F2B08D894F8A4328BB984F815
:103660006131012384F8253109E0C02B09D994F890
:10367000A43233B9C4F8AC32012384F8A432013641
:10368000DBE7012384F861310023EBE7E407002046
:1036900010B5034B03600446FFF7BAFA204610BD8D
:1036A000C0F3010810B50446FFF7F2FF20464FF4BF
:1036B000327119F04FFB204610BD000010B50446D2
:1036C000FFF74CFB0F4B2360A1209C21C4E9A40110
:1036D0004FF4A0728C236A21C4E9A613C4E9A22383
:1036E00001200023C4E9AA030321C4E9AE3384F80E
:1036F000A4320A23C4E9AC12C4F8A012C4F8C4323C
:10370000204610BDC0F3010838B5D0F8BC320133F3
:10371000C0F8BC3203689B6B044698473A4B186864
:1037200003F0EBFA014618B1236820461B6B98475B
:10373000D4E9AD32002A42D0012A43D0D4F8B022D5
:103740009B1AC4F8B432323329DA23682046DB6B83
:1037500098472368D4F8A052DB6B00F00100C4F84E
:10376000B802204698470323B0FBF3F303EB43036F
:10377000C01A23682844DB6BC4F8B0022046D4F892
:10378000885298471E23B0FBF3F202FB1300284433
:10379000D4F8B852C4F8B402BDB1012D1DD02368CD
:1037A00020465B6B984794F8A4321BB123682046EF
:1037B000DB6A9847201DBDE8384009F04BBEA4F8ED
:1037C0009C30BBE7A4F87C31B8E70123A4F89C0047
:1037D00084F8BD3084F89D51E1E72368A4F87C01AA
:1037E000DB6B20469847D4E9A6239B1A0133B0FB34
:1037F000F3F101FB130010440023A4F87E0184F8C8
:103800009D5184F8BD30CAE7E4070020194AD0F87A
:10381000BC325343B3F1333F98BFD0F8C032D0F835
:10382000C42298BF013370B598BFC0F8C032D0F839
:10383000C0329342044600F5137600F5DA7515DAC6
:103840000D4A0A2100F518700BF04AFD04F50070CE
:1038500009F000FED4F8C432074A30460A210BF0C2
:103860003FFD2846BDE8704009F0F4BD002280F815
:103870002522F1E7CDCCCCCCB4F30108F8B5044651
:10388000FFF7C7F9E36B384E9B6800259B68C4F8C7
:10389000C43232460A2184F8255104F513700BF026
:1038A0001FFD04F5DA7009F0D5FDD4F8C0323246B8
:1038B0000A2104F518700BF013FD04F1C40604F599
:1038C000007009F0C7FD29463046B422FFF712F810
:1038D00001231A462946304604F59E7606F02CFB55
:1038E000B4F98C2230461921FFF704F801231A4657
:1038F0002946304606F020FB30460A2104F5807642
:1039000006F0D5FBB4F9902230461521FEF7F2FF00
:1039100001231A462946304606F00EFB30460A219E
:1039200006F0C5FB012704F5BC76B4F99422B4F97E
:10393000881284F8255104F19800FEF7DBFFB4F9F2
:103940009C22B4F9881284F8BD703046FEF7D2FF8D
:10395000294630463B463A4606F0EEFA30460A2102
:10396000BDE8F84006F0A3BBB4F301082DE9F0412F
:1039700005464FF00108002600F59E7780F8256186
:1039800080F86181384606F0B7FAD5F8AC32D5F840
:103990008C22434403FB03F46FF06301A4EB041493
:1039A00094FBF1F41444C5F8AC326FF0090103EB59
:1039B000831393FBF1F31C44C5F8A84224B2A2423E
:1039C00003DDA5F84241BDE8F081A5F84221434658
:1039D00042463146384606F0AFFA85F8A462C5F88B
:1039E000A882F0E7F02070474FF4A07070472920BC
:1039F000FDF772BE2820FDF76FBE08B5FDF740FE4B
:103A0000CA20FDF769FEC320FDF74AFE0820FDF736
:103A100047FE5020FDF744FECF20FDF75DFE00205D
:103A2000FDF73EFEC120FDF73BFE3020FDF738FEDE
:103A3000ED20FDF751FE6420FDF732FE0320FDF777
:103A40002FFE1220FDF72CFE8120FDF729FEE82035
:103A5000FDF742FE8520FDF723FE0020FDF720FE46
:103A60007820FDF71DFECB20FDF736FE3920FDF74F
:103A700017FE2C20FDF714FE0020FDF711FE342068
:103A8000FDF70EFE0220FDF70BFEF720FDF724FEEA
:103A90002020FDF705FEEA20FDF71EFE0020FDF7C1
:103AA000FFFD0020FDF7FCFDB120FDF715FE002015
:103AB000FDF7F6FD1B20FDF7F3FDB620FDF70CFE2C
:103AC0000A20FDF7EDFDA220FDF7EAFDC020FDF77D
:103AD00003FE1020FDF7E4FDC120FDF7FDFD1020E1
:103AE000FDF7DEFDC520FDF7F7FD4520FDF7D8FD0C
:103AF0001520FDF7D5FDC720FDF7EEFD9020FDF761
:103B0000CFFD3620FDF7E8FDC820FDF7C9FDF22006
:103B1000FDF7E2FD0020FDF7C3FDB020FDF7DCFD61
:103B2000C220FDF7BDFDB620FDF7D6FD0A20FDF74A
:103B3000B7FDA720FDF7B4FD2720FDF7B1FD042058
:103B4000FDF7AEFD2A20FDF7C7FD0020FDF7A8FD1B
:103B50000020FDF7A5FD0020FDF7A2FDEF20FDF7F9
:103B60009FFD2B20FDF7B8FD0020FDF799FD0020FB
:103B7000FDF796FD0120FDF793FD3F20FDF790FD39
:103B8000F620FDF7A9FD0120FDF78AFD0020FDF7D5
:103B900087FD0620FDF784FD2C20FDF79DFDC82044
:103BA000FDF7E8FD2620FDF797FD0120FDF778FDE4
:103BB000E020FDF791FD0F20FDF772FD2920FDF7B4
:103BC0006FFD2420FDF76CFD0C20FDF769FD0E2034
:103BD000FDF766FD0920FDF763FD4E20FDF760FD52
:103BE0007820FDF75DFD3C20FDF75AFD0920FDF72B
:103BF00057FD1320FDF754FD0520FDF751FD17205B
:103C0000FDF74EFD1120FDF74BFD0020FDF748FDAF
:103C1000E120FDF761FD0020FDF742FD1620FDF7D4
:103C20003FFD1B20FDF73CFD0420FDF739FD112071
:103C3000FDF736FD0720FDF733FD3120FDF730FDA0
:103C40003320FDF72DFD4220FDF72AFD0520FDF76D
:103C500027FD0C20FDF724FD0A20FDF721FD28207B
:103C6000FDF71EFD2F20FDF71BFD0F20FDF718FDB2
:103C70001120FDF731FDC820FDF77CFD2920FDF75F
:103C80002BFDBDE808402C20FDF726BD08B5FDF74B
:103C9000F7FC0321D320FDF73BFD80B208BD10B532
:103CA000C4B2022203212046FDF7A0FC0A20FDF742
:103CB000E5FC204600220321FDF798FCBDE81040FA
:103CC0000220FDF7DBBC38B50446E4B2FDF78CFCFE
:103CD00000212046FDF7A2FC012105462046FDF704
:103CE0009DFC40EA052080B238BD10B5C4B2402129
:103CF0002046FDF793FC030607D54C212046FDF72F
:103D00008DFC003818BF012010BD01224B21204638
:103D1000FDF76CFC204600224B21FDF767FC0020DC
:103D2000F2E773B50423C4B20E461546D7210DEB56
:103D300003022046FDF78CFC019B1BBA1A0DC3F34E
:103D40000B23328020462B8001224B21FDF74EFCB5
:103D500000224B212046FDF749FC02B070BD000057
:103D600010B50A4A1378984204460DD0517888421B
:103D70000AD00BB141B90123D454FDF735FC2046DC
:103D8000BDE81040FFF78BBF10BD00BFD00B002077
:103D900010B5C4B209212046FDF740FC40F00102F5
:103DA000D2B220460921BDE81040FDF71FBC10B576
:103DB000C4B209212046FDF731FC092100F0FE02C2
:103DC0002046BDE81040FDF711BC38B5C4B20D4621
:103DD00020460A21FDF722FC40EA0502D2B2204625
:103DE0000A21BDE83840FDF701BC10B50446FDF7D7
:103DF000FCFB20461F21FFF7E8FF2046BDE81040EE
:103E0000FFF7C6BF38B5C4B20D4620460A21FDF7FC
:103E100005FC20EA0502D2B220460A21BDE838405E
:103E2000FDF7E4BB10B50446FFF7C1FF20461F2194
:103E3000BDE81040FFF7E6BF10B5C0B20C460B213D
:103E4000FDF7ECFB204010BD1F21FFF7F5BF0A4630
:103E5000C0B20B21FDF7CABB1F21FFF7F8BF38B571
:103E6000C4B20D4620461721FDF7D8FB20EA050213
:103E7000D2B220461721BDE83840FDF7B7BB70B578
:103E8000C4B2064604212046FDF7C8FB042100F019
:103E9000FB0205462046FDF7A9FB3046F021FFF75F
:103EA000DEFF05F0F80220460421FDF79FFB4922C2
:103EB00020212046FDF79AFB0220FDF7DFFB20467C
:103EC00001222121FDF792FB20469A224121FDF794
:103ED0008DFB204601224A21FDF788FB2046012266
:103EE0004B21FDF783FB204600224B21FDF77EFB93
:103EF000204601225621FDF779FB20460122582158
:103F0000FDF774FB204601224021FDF76FFB2046A0
:103F1000FF220B21FDF76AFBBDE870400220FDF790
:103F2000ADBB0000054BD3F8882042F47002C3F803
:103F300088204FF000629A60704700BF00ED00E0FB
:103F400008B50B4B1A6842F400721A601A6842F402
:103F500080621A601A6842F480721A60032000F0CE
:103F600045FA0020FDF7D6FEFDF712FC002008BD43
:103F7000003C0240034A044B11681B780B44136059
:103F8000704700BFD40B002078000020014B186858
:103F9000704700BFD40B002038B50446FFF7F6FF8A
:103FA000631C1CBF054B1B78054618BFE418FFF7C0
:103FB000EDFF431BA342FAD338BD00BF78000020B9
:103FC00038B50446002800F09B80056C25B9FDF744
:103FD000FFFB656484F83C50236CDB0600F18E80A7
:103FE000236C23F4885323F0020343F00203236479
:103FF000444B5A6822F440325A605A6861680A4356
:104000005A60236821695A6822F480725A605A689B
:1040100042EA01225A605A68A16822F040725A604E
:104020005A680A435A609A68E16822F400629A600A
:104030009A680A439A603449A26A8A4252D09968BF
:1040400021F07061996099680A439A609A68E16A00
:1040500022F040529A609A680A439A609A6822F065
:1040600002029A609A68217E42EA41029A6094F8BC
:104070002020002A3ED05A68616A42F400625A60E9
:104080005A6822F460425A605A68013942EA413261
:104090005A60DA6AE16922F47002DA62DA6A013996
:1040A00042EA0152DA629A6822F400729A609A68CF
:1040B00094F8301042EA41229A609A68616922F4C9
:1040C00080629A609A68002042EA81229A60606465
:1040D000236C23F0030343F001032364002384F8DB
:1040E0003C3038BD9A6822F070629A609A6822F07B
:1040F0004052B2E75A6822F40062C9E70120EDE7B6
:104100000120EEE7002301400100000F82B00023F0
:10411000019390F83C30012B69D0012380F83C30AA
:1041200003689A68D2070BD59A68D1071AD4036C32
:1041300043F010030364436C43F0010343644CE019
:104140009A682C4942F001029A602B4A1268B2FB2D
:10415000F1F202EB42020192019A002AE4D0019AA4
:10416000013AF8E7026C22F4E06222F0010242F424
:10417000807202645A68520541BF026C22F44052B8
:1041800042F480520264026C12F480521CBF426CF2
:1041900022F006024264002280F83C206FF02202E6
:1041A0001A60164A516811F01F0F15491CD18B4235
:1041B00007D001F580718B420CD1526812F01F0FAD
:1041C0000BD19A6812F0405F07D19A6842F08042A2
:1041D0009A6002E00B498B4202D0002002B0704787
:1041E000526812F0100FEBE78B42F6D1E9E702209C
:1041F000F4E700BF40420F0074000020002301409C
:10420000002001400022014003689A68520570B501
:1042100004460D460BD59B68DE0508D5036C43F0BC
:1042200020030364002380F83C30012070BDFFF7B9
:10423000ADFE064623681A6891070CD56FF012028E
:104240001A60226C42F4007222649A6812F0405F95
:1042500017D00020EAE7681CEDD065B923681B6819
:1042600013F00203E6D1226C84F83C3042F00402E1
:1042700022640320DAE7FFF789FE801BA842EDD80D
:10428000D8E7227E002AE4D1DA6A12F4700F02D055
:104290009B685A05DDD4236C23F480732364236C5C
:1042A000DB04D6D4236C43F001032364D1E7036815
:1042B000D86C7047F7B50023019390F83C30012B80
:1042C000054600F08680012380F83C3008682B68A2
:1042D0008E68092884B233D904EB4402DF681E3AA1
:1042E0004FF0070C0CFA02FC27EA0C07DF60DF68CE
:1042F00006FA02F23A43DA604968062901EB8102C4
:104300002DD8596B053A1F26964021EA06015963BC
:10431000596B04FA02F20A435A632F4A93420AD1B4
:10432000122837D12D4B5A6822F400025A605A687D
:1043300042F480025A60002085F83C0003B0F0BDD2
:104340001A6900EB400C072707FA0CF722EA07026C
:104350001A611A6906FA0CF616431E61CCE70C299D
:104360004FF01F010BD81E6B233A914026EA010142
:104370001963196B04FA02F20A431A63CDE7DE6A85
:10438000413A914026EA0101D962D96A94400C432E
:10439000DC62C2E7124B984201D01128CBD10F4BFF
:1043A0005A6822F480025A605A6842F400025A6045
:1043B0000B4B9842BFD10B4B0B4A1B68B3FBF2F37C
:1043C0000A2253430193019B002BB4D0019B013B74
:1043D000F8E70220B2E700BF0020014000230140BF
:1043E000120000107400002040420F000749CA6804
:1043F00022F4E0620302120403F4E063120C13439C
:1044000043F0BF6343F40033CB60704700ED00E03E
:10441000164B30B5DC68C4F30224C4F10703251D34
:10442000042B28BF0423062D4FF0FF358CBF033C1F
:10443000002405FA03F321EA0303A54022EA05025A
:10444000A340002843EA0203ACBF00F16040084AE1
:104450004FEA0313B8BF00F00F00DBB2AABF00F5AC
:104460006140135480F8003330BD00BF00ED00E020
:1044700014ED00E0002807DB044A4109012300F0A5
:104480001F00834042F82130704700BF00E100E088
:1044900010B5044650B1437903F0FF0213B902711D
:1044A000FDF7EEF901236371002010BD0120FCE748
:1044B00010B5044630B390F8393003F0FF021BB951
:1044C00080F83820FDF7F4F922686168022384F847
:1044D0003930136823F440330B431360536BA168E6
:1044E00023F007030B435363136CE16823F47F53FA
:1044F00023F03F030B43136400200123E06384F89F
:10450000393010BD0120FCE770477047036870B573
:104510005E681D68F207044614D5E90512D51A68CD
:1045200022F480721A60C26B42F00102C26301225F
:104530009A60042380F83930002380F838304369CA
:1045400003B19847B20616D5AB0414D523681A6890
:1045500022F400521A6020229A60E36B43F00203B7
:10456000E363042384F83930002384F83830636926
:104570000BB120469847300716D5290514D5236876
:104580001A6822F400621A6008229A60E36B43F012
:104590000403E363042384F83930002384F83830BB
:1045A00063690BB12046984772070BD56B0509D597
:1045B00023681A6822F480621A6004229A602046F6
:1045C000FFF7A2FFB00714D5A90512D523681A6812
:1045D00022F400721A6002229A60E36BE363012303
:1045E00084F83930002384F8383023690BB1204631
:1045F0009847F20613D5EB0411D523681A6822F404
:1046000080521A6010229A60E36BE363012384F8FE
:104610003930002384F838302046FFF776FF70BD2C
:10462000F0B590F83820012A03464FF002002BD055
:10463000012283F8382083F8390003EB0112D2E914
:104640000740556A174F44EA0040093C012C9CBFC3
:1046500005F07F4210434FEA01161A6888BF40EA0E
:10466000056091B9516A394001435162012C996941
:10467000916103D8596A21F07F41916201220020A3
:1046800083F8392083F83800F0BDD16939400143FF
:10469000D1619919012C896911619CBF25F07F4571
:1046A0001562EBE7F0FFFC002DE9F74FDFF8BC9156
:1046B0006C4A00230D6801249C4004EA0506AC43C3
:1046C00040F0B7804D68032705F003044FEA430824
:1046D00007FA08FC671E012F6FEA0C0C34D88768B4
:1046E00007EA0C0ECF6807FA08F747EA0E0787605B
:1046F000476827EA060EC5F300179F4047EA0E07F2
:104700004760C76807EA0C0E8F6807FA08F747EAA0
:104710000E07022CC76019D14FEAD30A00EB8A0AB0
:1047200003F0070BDAF820704FEA8B0B4FF00F0EF7
:104730000EFA0BFE27EA0E0E0F6907FA0BF747EA8F
:104740000E07CAF8207001E0032CDAD1076804FADA
:1047500008F407EA0C073C4315F4403F046068D0B6
:1047600000240194D9F8444044F48044C9F84440FA
:10477000D9F8444023F0030707F1804704F480444C
:1047800007F59C37019403F0030C019CD7F808E06F
:104790004FEA8C0C0F2404FA0CF42EEA040E324C6F
:1047A000A0424DD004F58064A0424BD004F5806453
:1047B000A04249D004F58064A04247D004F580644B
:1047C000A04245D004F58064A04243D004F5806443
:1047D000A04241D004F58064A0423FD004F580643B
:1047E000A0423DD004F58064A04214BF0A240924ED
:1047F00004FA0CF444EA0E04BC609468F74315F420
:10480000801F0CBF3C4034439460D46815F4001FF3
:104810000CBF3C403443D460546815F4003F0CBFD7
:104820003C40344354601468ED0354BF3C4034436F
:1048300014600133102B7FF43DAF03B0BDE8F08F5F
:104840000024D5E70124D3E70224D1E70324CFE7EE
:104850000424CDE70524CBE70624C9E70724C7E7EE
:104860000824C5E7003C0140000002400038024037
:104870000369194214BF0120002070470AB1816109
:1048800070470904FBE7436901EA030221EA0301D7
:1048900041EA02418161704701684B6913F480630A
:1048A0004FF0000210D06FF480634B61202302634D
:1048B00080F83D3080F83E20036C80F83C2043F0C7
:1048C0000403036401207047184670472DE9F84639
:1048D00006460F4691461D464FEA114A3368BAF123
:1048E000010F0CBF5C699C6927EA0404A4B2B4FA06
:1048F00084F46409A14501D0002025E06A1CEED0B3
:10490000FFF744FB089BC01AA84201D8002DE5D14F
:104910003368BAF1010F0CBF5B699B6927EA030397
:104920009BB2B3FA83F35B099945D7D100232022C8
:10493000336386F83D2086F83E30326C86F83C3092
:1049400042F0200232640120BDE8F8862DE9F041F2
:1049500004460F46164698462568686927EA00000F
:1049600080B2C0B16B695A0517D52B6843F4007348
:104970002B606FF480636B6120220023236384F833
:104980003D2084F83E30236C43F00403236400236D
:1049900084F83C300120BDE8F081731CDDD0FFF7C6
:1049A000F5FAA0EB0800B04201D8002ED4D123685C
:1049B0005A6927EA020292B2002ACDD000232022AF
:1049C000236384F83D2084F83E30236C1343DDE7F5
:1049D00070B504460D46164623685B691B0601D573
:1049E00000201EE02046FFF757FFC8B96A1CF3D02D
:1049F000FFF7CCFA801BA84201D8002DECD1236828
:104A00005B6913F08003E7D12022236384F83D2003
:104A100084F83E30226C84F83C3042F0200222645C
:104A2000012070BD2DE9F0431546026885B0DDE92F
:104A30000C789946136843F4807313600E463B4626
:104A4000CDF8008000224FF001110446FFF73EFF31
:104A5000236838B11B68DB0502D54FF4007323646B
:104A6000032620E006F0FE061E611A4943463A4638
:104A70002046FFF76BFFA8B9236803905A69039299
:104A80009B690393424639462046039BFFF7A0FFEC
:104A9000064660B1236C042B01BF2268136843F4FF
:104AA000007313600126304605B0BDE8F083B9F10C
:104AB000010F236802D1EDB21D61F4E72A0A1A61E1
:104AC000394642462046FFF783FF0028E2D123689B
:104AD000F1E700BF020001002DE9FF479A46036895
:104AE00015461A6842F480621A601A68DDE90C788B
:104AF00042F480721A600E463B46CDF800800022D8
:104B00004FF001110446FFF7E1FE236838B11B683E
:104B1000DB0544BF4FF400732364032021E05FFAF8
:104B200086F906F0FE061E612B4943463A462046AA
:104B3000FFF70CFFA0B9236803905A6903929B69A1
:104B40000393424639462046039BFFF741FF58B185
:104B5000236C042B01BF2268136843F400731360B5
:104B6000012004B0BDE8F087BAF1010F23681AD123
:104B7000EDB242461D6139462046FFF729FF024645
:104B80000028E5D121680B6843F480730B60204650
:104B9000CDF800803B464FF00111FFF797FE2268E9
:104BA00060B11368B4E72A0A1A61394642462046C2
:104BB000FFF70EFF0028CBD12368D9E749F00103A6
:104BC0001361054943463A462046FFF7BFFE0038C9
:104BD00018BF0120C5E700BF0200010070B5044600
:104BE0000D46164623685B695B0701D500201EE071
:104BF0002046FFF751FEC8B96A1CF3D0FFF7C6F98B
:104C0000801BA84201D8002DECD123685B6913F00A
:104C10000403E7D12022236384F83D2084F83E304A
:104C2000226C84F83C3042F020022264012070BDE6
:104C300070B504460D46164621684B6913F04003D3
:104C400001D0002011E04A69D2060FD56FF01002A2
:104C50004A612022236384F83D2084F83E30236C8F
:104C60002364002384F83C30012070BDFFF78EF9E7
:104C7000801BA84201D8002DDED123685B6913F0A8
:104C80004003D9D12022236384F83D2084F83E30AC
:104C9000236C1343E4E7000070B5044608B9012013
:104CA00070BD90F83D3003F0FF021BB980F83C2046
:104CB000FCF720FE242384F83D3023681A6822F094
:104CC00001021A601A6842F400421A601A6822F45B
:104CD00000421A6000F078FE3F4B65689D4294BF29
:104CE0003E4B3F4B98428CBF00230123002BD6D173
:104CF0002268394E51683B4BB0FBF3F321F03F0182
:104D00001943B542516088BF4FF49676116A88BF47
:104D1000734321F03F0184BF4FF47A76B3FBF6F37F
:104D200001330B431362D169431E2B4821F44F41D9
:104D3000854221F0FF0132D86D0040F6FC70B3FBD4
:104D4000F5F30133034242D0C3F30B031943D1619E
:104D5000D4E907301168034321F0C0010B4313600D
:104D60009168D4E9030321F40341034321F0FF01D7
:104D70000B439360D4E90530D168034321F0FF0170
:104D80000B43D360136843F001031360002020231A
:104D9000206484F83D30206384F83E0080E7A068FA
:104DA00050B905EB4505B3FBF5F30133C3F30B0332
:104DB0007BB143F40043C9E719206843B3FBF0F328
:104DC0000133C3F30B0323B143F44043BEE7042391
:104DD000BCE70123BAE700BFA08601007F841E0064
:104DE000FF083D0040420F002DE9F7430446994675
:104DF0000C9E0F469046FFF7C9F894F83D30202BE3
:104E0000054603D0022003B0BDE8F08300903C4982
:104E1000192301222046FFF759FD0028F2D194F80A
:104E20003C30012BEED02068012384F83C3003682D
:104E3000D9075EBF036843F001030360036823F4EE
:104E400000630360212384F83D30402384F83E3022
:104E5000002323640A9B6362BDF82C306385638D55
:104E60002385284BE3624246CDE900654B4639462F
:104E70002046FFF7D7FD00282AD00120C3E7FFF71F
:104E8000A7FD40B1236C042B01BF2268136843F4D3
:104E900000731360F1E7636A27681A4612F8011B72
:104EA00039616262628D218D013A92B262857A69BE
:104EB000481E80B2520720850AD548B15A783A6117
:104EC00002336362638D013B02399BB221856385A6
:104ED000238D2A4631462046002BD0D1FFF77EFE97
:104EE0000028CFD12268136843F400731360202395
:104EF00084F83D3084F83C0084F83E0083E700BF2E
:104F0000020010000000FFFF2DE9F043044687B0C7
:104F10009946109F0D469046FFF738F894F83D30BB
:104F2000202B064604D00225284607B0BDE8F083B2
:104F300000907A49192301222046FFF7C7FC002878
:104F4000F1D194F83C30012BEDD02068012384F896
:104F50003C300368DB075EBF036843F00103036076
:104F6000036823F400630360222384F83D30402368
:104F700084F83E30002323640E9B6362BDF83C300E
:104F80006385638D2385664BE3622946CDE9007610
:104F90004B4642462046FFF79FFD054608B10125D6
:104FA000C2E7228D2368B2B902905A6902929A69C7
:104FB0000292029A1A6842F400721A60DFF8648161
:104FC000238D002B2CD1202284F83D2084F83C3006
:104FD00084F83E30A8E7012A0AD11A6822F48062D8
:104FE0001A6003905A6903929A690392039AE1E75F
:104FF000022A0ED11A6822F480621A601A6842F4FA
:1050000000621A6004905A6904929B690493049B9D
:10501000D4E705905A6905929B690593059BCDE7F6
:10502000032B56D8012B15D1324639462046FFF7BF
:10503000FFFD0028B3D123681A69636A1A70636A96
:1050400001336362238D013B2385638D013B9BB25A
:105050006385B5E7022B00963B464FF000024146C0
:10506000204619D1FFF732FC002898D123681A682E
:1050700042F400721A601A69636A1A70626A531CF9
:105080006362238D013B2385638D013B9BB2638566
:1050900023681B695370D2E7FFF718FC024600280B
:1050A0007FF47DAF2368196821F480611960196964
:1050B000636A1970636A01336362238D013B238540
:1050C000638D013B9BB26385414600963B4620467B
:1050D000C8E7324639462046FFF7AAFD00287FF48C
:1050E0005EAF23681A69636A1A70628D616A013A59
:1050F00092B24B1C628522686362238D5069013B2A
:105100009BB2400723857FF55BAF032B02BF13687B
:1051100023F48063136013694B7090E70200100062
:105120000000FFFF0400010010B590F83D30202B77
:10513000DCB216D1242380F83D3003681A6822F0CF
:1051400001021A605A6A22F010025A625A6A114326
:1051500059621A6842F001021A6080F83D4000204E
:1051600010BD0220FCE730B590F83D30202BDCB2BA
:1051700016D10268242380F83D30136823F0010320
:105180001360556A4FF6F0732B400B439BB253628A
:10519000136843F00103136080F83D40002030BDE8
:1051A0000220FCE70068D1F800C0D20184328318E5
:1051B0002DE9F043C6685D684C68D1F8189005F495
:1051C00070455D60C5680CF10107C5F30B45C6F37A
:1051D0000B463D44264445EA06455D60C668CD68F9
:1051E000C6F30A062E449D6805F470459D60C768A5
:1051F0008D68C7F30A0701353D4445EA06459D60C1
:105200001D690E6925F007051D614FF0000E1E6136
:105210009D6991F8327091F83180C3F818E091F8E7
:10522000305045EA096545EA082545EA07459D618C
:105230005D6925F0FF055D614D695D61DD6925F4FE
:10524000E06525F00705DD61D1E907573D43DD61E4
:105250009D6A4D6AC3F828E09D621EB3012E23D0DB
:10526000B51E022D22D9072E14BF01250225DE6AA4
:1052700006F0E026DE62A4EB0C048E6AC96A6C4379
:105280006E43033444EA0644DC621C6B24F4FF647E
:1052900024F007041C631963835843F0010383500F
:1052A000BDE8F0830425E2E70325E0E70225DEE719
:1052B00038B50446002863D090F8A13003F0FF020F
:1052C0001BB980F8A020FCF771FB022384F8A13001
:1052D00023689A6922F070429A61D4E9012002435E
:1052E000E06899690243206902430A439A619A6817
:1052F000244960690A409A609A6842EA0042A069BB
:1053000002439A60DA68E0690A40DA60DA6842EAE1
:105310000042206A0243DA601A69606A0A401A6130
:105320001A6942EA0042A06A02431A615A690A40B5
:105330005A615A69E16A42EA0142216B0A435A61A1
:10534000DA6A94F8350094F8361002F07F42DA6297
:10535000DD6A94F834202A4342EA002242EA0142FC
:10536000DA625A6B42F006025A639A6942F001020D
:105370009A6100200123C4F8A40084F8A13038BD4C
:105380000120FCE700F800F070477047036870B533
:105390009E6B5D6B7207044614D5690712D55A6B74
:1053A00022F004025A630422DA63D0F8A43043F0F6
:1053B0000103C0F8A430002380F8A12080F8A030B9
:1053C000FFF7E2FFB20716D5AB0714D523685A6B77
:1053D00022F002025A630222DA63D4F8A4301343A3
:1053E000C4F8A430042384F8A130002384F8A0304A
:1053F0002046FFF7C9FFF00710D5E9070ED523684F
:105400005A6B22F001025A630122DA63002384F806
:10541000A12084F8A0302046FBF7A0FD320711D56B
:105420002B070FD523685A6B22F008025A63082213
:10543000DA63012384F8A130002384F8A0302046E9
:10544000FFF7A3FF70BD2DE9F04190F8A030012BCC
:1054500006460F4694464FF002001FD04FF0010859
:1054600086F8A08086F8A10034240D4604FB02646F
:105470000FCD38340FC40FCD0FC40FCD0FC42B6820
:105480002360304662463946FFF78CFE33680020C1
:10549000C3F8248086F8A18086F8A000BDE8F081DA
:1054A00090F8A020012A03464FF0020012D01A689B
:1054B00083F8A100506B20F001005063064801649E
:1054C000516B41F0010151630020012283F8A120BA
:1054D00083F8A000704700BF006801402DE9F34148
:1054E000044640B30368DE0710D423689D075BD4ED
:1054F0002368190700F19D8023685A0700F1BD80D9
:10550000A369002B40F0248100202CE08D4B9A6889
:1055100002F00C02042A07D09A6802F00C02082A52
:105520000BD15B68590208D5864B1B689A03DCD502
:105530006368002BD9D1012015E06368814DB3F574
:10554000803F13D12B6843F480332B60FEF71EFDA0
:105550007C4E054633689B03C7D4FEF717FD401BFE
:105560006428F7D9032002B0BDE8F081B3F5A02F7D
:1055700004D12B6843F480232B60E3E72A6822F4EC
:1055800080322A602A6822F480222A60002BDDD132
:10559000FEF7FCFC06462B689F03A6D5FEF7F6FC3B
:1055A000801B6428F7D9DDE7664B9A6812F00C0F70
:1055B00007D09A6802F00C02082A11D15B685D02DC
:1055C0000ED4604A1368990702D5E368012BB2D163
:1055D0001368216923F0F80343EAC103136087E7E6
:1055E000E268594BB2B101221A60FEF7CFFC554D6B
:1055F00006462B689B0707D52B68226923F0F80322
:1056000043EAC2032B6073E7FEF7C0FC801B02284D
:10561000EFD9A7E71A60FEF7B9FC4A4E0546336892
:105620009F077FF565AFFEF7B1FC401B0228F6D956
:1056300098E76269444B82B10122C3F8802EFEF7DD
:10564000A5FC404E0546736F9B073FF555AFFEF72F
:105650009DFC401B0228F6D984E7C3F8802EFEF794
:1056600095FC384E0546736F9F077FF545AFFEF7F3
:105670008DFC401B0228F6D974E7324B1A6C12F0ED
:10568000805228D101921A6C42F080521A641B6C2D
:1056900003F080530193019B01272C4D2B68D80503
:1056A0001BD5A368274D012B27D12B6F43F0010396
:1056B0002B67FEF76BFC234E054641F28838336FAB
:1056C0009A0739D5002F3FF41BAF1E4A136C23F005
:1056D0008053136414E70027DFE72B6843F48073DB
:1056E0002B60FEF753FC06462B68D905D9D4FEF78C
:1056F0004DFC801B0228F7D934E7052B04D12B6F12
:1057000043F004032B67D0E72A6F22F001022A67D7
:105710002A6F22F004022A67002BCAD1FEF736FC5A
:1057200041F2883806462B6F9B07CBD5FEF72EFC3F
:10573000801B4045F7D915E7FEF728FC401B404584
:10574000BDD90FE70038024000004742007000401A
:10575000374DAA6802F00C02082A3ED0022B354BC6
:105760004FF000021A662BD1FEF710FC06462B689C
:1057700099011FD4D4E907321343626A43EA8213C2
:10578000E26A43EA0263A26A5208013A43EA024328
:105790006B60284B264D01221A66FEF7F7FB044684
:1057A0002B689A013FF5B0AEFEF7F0FB001B022814
:1057B000F6D9D7E6FEF7EAFB801B0228D7D9D1E657
:1057C000FEF7E4FB04462B689B017FF59DAEFEF7D8
:1057D000DDFB001B0228F6D9C4E6012B3FF4ABAE7B
:1057E0006B68E26903F4800191427FF4A4AE216A00
:1057F00003F03F028A427FF49EAE616A47F6C072B0
:105800001A40B2EB811F7FF496AEA26A520803F4ED
:105810004031013AB1EB024F7FF48DAEE26A03F002
:105820007063B3EB026F14BF012000209BE600BF42
:105830000038024000004742134908B58B6803F066
:105840000C03042B1CD0082B1CD14A684B684968F8
:1058500013F4800314BF0D480D48C1F3881118BF1D
:10586000002302F03F02A1FB0001FAF711FD064BF5
:105870005B68C3F3014301335B00B0FBF3F008BD89
:105880000248FCE70248FAE70038024000127A00BA
:105890000024F4002DE9F0410D46044610B9012022
:1058A000BDE8F081434B1A6802F00F028A4228D308
:1058B00021688F072DD4C80740D43E4B1A6802F0E8
:1058C0000F02AA4265D8226851076BD4130707D587
:1058D000394A2169936823F4604343EAC103936022
:1058E000FFF7AAFF344B354A9B68C3F30313D35C1D
:1058F000D840334B1860334B1868FCF70BFA002084
:10590000CEE7CAB21A701B6803F00F038B42C6D1F0
:10591000CEE7294B11F0040F1EBF9A6842F4E05203
:105920009A600E0742BF9A6842F460429A609A6891
:10593000A06822F0F00202439A60BCE762681E4B46
:10594000012A1CD11B6813F4003FA8D01A4EB3687B
:1059500023F003031343B360FEF718FB41F28838CA
:105960000746B368626803F00C03B3EB820FA4D060
:10597000FEF70CFBC01B4045F3D9032090E7911EB6
:1059800001291B6802D813F0007FDEE713F0020F35
:10599000DBE7EAB21A701B6803F00F03AB427FF437
:1059A0007EAF90E70449E0688B6823F4E05303433B
:1059B0008B608BE7003C02400038024008F401088D
:1059C000740000207C000020044B054A9B68C3F350
:1059D0008223D35C034A1068D840704700380240E5
:1059E00000F4010874000020044B054A9B68C3F3CF
:1059F0004233D35C034A1068D840704700380240F5
:105A000000F40108740000200F2303600B4B9A6818
:105A100002F0030242609A6802F0F00282609A6823
:105A200002F4E052C2609B68DB0803F4E0530361B8
:105A3000034B1B6803F00F030B60704700380240F4
:105A4000003C0240036813F0430FF7B5044640F0F2
:105A50008880236813F00C0F45D08C4B8C4D0022AE
:105A60001A67FEF793FA06462B68990000F1CB807F
:105A700021684A0715D5D4E90403D5F888201B0608
:105A800002F0E04243EA80131343C5F88830D5F8AA
:105A90008C30226A23F4F853013A43EA0223C5F812
:105AA0008C300B0714D57A4AA369D2F88810206984
:105AB0001B0701F0706143EA80130B43C2F8883082
:105AC000D2F88C30616A23F440330B43C2F88C3037
:105AD0006E4B6F4E01221A67FEF758FA054633687F
